{
	"Subscribe.sol": {
		"Subscribe": {
			"abi": [
				{
					"anonymous": false,
					"inputs": [
						{
							"indexed": true,
							"internalType": "address",
							"name": "owner",
							"type": "address"
						},
						{
							"indexed": true,
							"internalType": "address",
							"name": "spender",
							"type": "address"
						},
						{
							"indexed": false,
							"internalType": "uint256",
							"name": "value",
							"type": "uint256"
						}
					],
					"name": "Approval",
					"type": "event"
				},
				{
					"anonymous": false,
					"inputs": [
						{
							"indexed": true,
							"internalType": "address",
							"name": "previousOwner",
							"type": "address"
						},
						{
							"indexed": true,
							"internalType": "address",
							"name": "newOwner",
							"type": "address"
						}
					],
					"name": "OwnershipTransferred",
					"type": "event"
				},
				{
					"anonymous": false,
					"inputs": [
						{
							"indexed": true,
							"internalType": "address",
							"name": "from",
							"type": "address"
						},
						{
							"indexed": true,
							"internalType": "address",
							"name": "to",
							"type": "address"
						},
						{
							"indexed": false,
							"internalType": "uint256",
							"name": "value",
							"type": "uint256"
						}
					],
					"name": "Transfer",
					"type": "event"
				},
				{
					"inputs": [],
					"name": "Sign",
					"outputs": [
						{
							"internalType": "contract Approve",
							"name": "",
							"type": "address"
						}
					],
					"stateMutability": "view",
					"type": "function"
				},
				{
					"inputs": [],
					"name": "approver",
					"outputs": [
						{
							"internalType": "address",
							"name": "",
							"type": "address"
						}
					],
					"stateMutability": "view",
					"type": "function"
				},
				{
					"inputs": [
						{
							"internalType": "address payable",
							"name": "_owner",
							"type": "address"
						}
					],
					"name": "cancelSubscribe",
					"outputs": [],
					"stateMutability": "nonpayable",
					"type": "function"
				},
				{
					"inputs": [
						{
							"internalType": "address",
							"name": "_owner",
							"type": "address"
						}
					],
					"name": "firstTimestamp",
					"outputs": [
						{
							"internalType": "uint256",
							"name": "",
							"type": "uint256"
						}
					],
					"stateMutability": "view",
					"type": "function"
				},
				{
					"inputs": [
						{
							"internalType": "address",
							"name": "_owner",
							"type": "address"
						}
					],
					"name": "nextTimestamp",
					"outputs": [
						{
							"internalType": "uint256",
							"name": "",
							"type": "uint256"
						}
					],
					"stateMutability": "view",
					"type": "function"
				},
				{
					"inputs": [],
					"name": "owner",
					"outputs": [
						{
							"internalType": "address",
							"name": "",
							"type": "address"
						}
					],
					"stateMutability": "view",
					"type": "function"
				},
				{
					"inputs": [],
					"name": "renounceOwnership",
					"outputs": [],
					"stateMutability": "nonpayable",
					"type": "function"
				},
				{
					"inputs": [
						{
							"internalType": "address",
							"name": "_owner",
							"type": "address"
						},
						{
							"internalType": "bool",
							"name": "_state",
							"type": "bool"
						}
					],
					"name": "setUserState",
					"outputs": [],
					"stateMutability": "nonpayable",
					"type": "function"
				},
				{
					"inputs": [],
					"name": "sub_price",
					"outputs": [
						{
							"internalType": "uint256",
							"name": "",
							"type": "uint256"
						}
					],
					"stateMutability": "view",
					"type": "function"
				},
				{
					"inputs": [
						{
							"internalType": "address payable",
							"name": "_to",
							"type": "address"
						}
					],
					"name": "subscribe",
					"outputs": [],
					"stateMutability": "payable",
					"type": "function"
				},
				{
					"inputs": [
						{
							"internalType": "address",
							"name": "",
							"type": "address"
						}
					],
					"name": "subscribeState",
					"outputs": [
						{
							"internalType": "bool",
							"name": "",
							"type": "bool"
						}
					],
					"stateMutability": "view",
					"type": "function"
				},
				{
					"inputs": [
						{
							"internalType": "address",
							"name": "from",
							"type": "address"
						},
						{
							"internalType": "address",
							"name": "to",
							"type": "address"
						},
						{
							"internalType": "uint256",
							"name": "amount",
							"type": "uint256"
						}
					],
					"name": "transferFrom",
					"outputs": [
						{
							"internalType": "bool",
							"name": "",
							"type": "bool"
						}
					],
					"stateMutability": "nonpayable",
					"type": "function"
				},
				{
					"inputs": [
						{
							"internalType": "address",
							"name": "newOwner",
							"type": "address"
						}
					],
					"name": "transferOwnership",
					"outputs": [],
					"stateMutability": "nonpayable",
					"type": "function"
				},
				{
					"inputs": [
						{
							"internalType": "address payable",
							"name": "_owner",
							"type": "address"
						}
					],
					"name": "withdrawSubscribe",
					"outputs": [],
					"stateMutability": "payable",
					"type": "function"
				}
			],
			"devdoc": {
				"kind": "dev",
				"methods": {
					"owner()": {
						"details": "Returns the address of the current owner."
					},
					"renounceOwnership()": {
						"details": "Leaves the contract without owner. It will not be possible to call `onlyOwner` functions anymore. Can only be called by the current owner. NOTE: Renouncing ownership will leave the contract without an owner, thereby removing any functionality that is only available to the owner."
					},
					"transferOwnership(address)": {
						"details": "Transfers ownership of the contract to a new account (`newOwner`). Can only be called by the current owner."
					}
				},
				"version": 1
			},
			"evm": {
				"assembly": "    /* \"Subscribe.sol\":161:2816  contract Subscribe is Ownable{... */\n  mstore(0x40, 0x80)\n    /* \"Subscribe.sol\":400:407  1 ether */\n  0x0de0b6b3a7640000\n    /* \"Subscribe.sol\":373:407  uint256 public sub_price = 1 ether */\n  0x06\n  sstore\n    /* \"Subscribe.sol\":161:2816  contract Subscribe is Ownable{... */\n  callvalue\n  dup1\n  iszero\n  tag_1\n  jumpi\n  0x00\n  dup1\n  revert\ntag_1:\n  pop\n    /* \"node_modules/openzeppelin-solidity/contracts/access/Ownable.sol\":921:953  _transferOwnership(_msgSender()) */\n  tag_4\n    /* \"node_modules/openzeppelin-solidity/contracts/access/Ownable.sol\":940:952  _msgSender() */\n  tag_5\n    /* \"node_modules/openzeppelin-solidity/contracts/access/Ownable.sol\":940:950  _msgSender */\n  shl(0x20, tag_6)\n    /* \"node_modules/openzeppelin-solidity/contracts/access/Ownable.sol\":940:952  _msgSender() */\n  0x20\n  shr\n  jump\t// in\ntag_5:\n    /* \"node_modules/openzeppelin-solidity/contracts/access/Ownable.sol\":921:939  _transferOwnership */\n  shl(0x20, tag_7)\n    /* \"node_modules/openzeppelin-solidity/contracts/access/Ownable.sol\":921:953  _transferOwnership(_msgSender()) */\n  0x20\n  shr\n  jump\t// in\ntag_4:\n    /* \"Subscribe.sol\":161:2816  contract Subscribe is Ownable{... */\n  jump(tag_8)\n    /* \"node_modules/openzeppelin-solidity/contracts/utils/Context.sol\":640:736  function _msgSender() internal view virtual returns (address) {... */\ntag_6:\n    /* \"node_modules/openzeppelin-solidity/contracts/utils/Context.sol\":693:700  address */\n  0x00\n    /* \"node_modules/openzeppelin-solidity/contracts/utils/Context.sol\":719:729  msg.sender */\n  caller\n    /* \"node_modules/openzeppelin-solidity/contracts/utils/Context.sol\":712:729  return msg.sender */\n  swap1\n  pop\n    /* \"node_modules/openzeppelin-solidity/contracts/utils/Context.sol\":640:736  function _msgSender() internal view virtual returns (address) {... */\n  swap1\n  jump\t// out\n    /* \"node_modules/openzeppelin-solidity/contracts/access/Ownable.sol\":2270:2457  function _transferOwnership(address newOwner) internal virtual {... */\ntag_7:\n    /* \"node_modules/openzeppelin-solidity/contracts/access/Ownable.sol\":2343:2359  address oldOwner */\n  0x00\n    /* \"node_modules/openzeppelin-solidity/contracts/access/Ownable.sol\":2362:2368  _owner */\n  dup1\n  0x00\n  swap1\n  sload\n  swap1\n  0x0100\n  exp\n  swap1\n  div\n  0xffffffffffffffffffffffffffffffffffffffff\n  and\n    /* \"node_modules/openzeppelin-solidity/contracts/access/Ownable.sol\":2343:2368  address oldOwner = _owner */\n  swap1\n  pop\n    /* \"node_modules/openzeppelin-solidity/contracts/access/Ownable.sol\":2387:2395  newOwner */\n  dup2\n    /* \"node_modules/openzeppelin-solidity/contracts/access/Ownable.sol\":2378:2384  _owner */\n  0x00\n  dup1\n    /* \"node_modules/openzeppelin-solidity/contracts/access/Ownable.sol\":2378:2395  _owner = newOwner */\n  0x0100\n  exp\n  dup2\n  sload\n  dup2\n  0xffffffffffffffffffffffffffffffffffffffff\n  mul\n  not\n  and\n  swap1\n  dup4\n  0xffffffffffffffffffffffffffffffffffffffff\n  and\n  mul\n  or\n  swap1\n  sstore\n  pop\n    /* \"node_modules/openzeppelin-solidity/contracts/access/Ownable.sol\":2441:2449  newOwner */\n  dup2\n    /* \"node_modules/openzeppelin-solidity/contracts/access/Ownable.sol\":2410:2450  OwnershipTransferred(oldOwner, newOwner) */\n  0xffffffffffffffffffffffffffffffffffffffff\n  and\n    /* \"node_modules/openzeppelin-solidity/contracts/access/Ownable.sol\":2431:2439  oldOwner */\n  dup2\n    /* \"node_modules/openzeppelin-solidity/contracts/access/Ownable.sol\":2410:2450  OwnershipTransferred(oldOwner, newOwner) */\n  0xffffffffffffffffffffffffffffffffffffffff\n  and\n  0x8be0079c531659141344cd1fd0a4f28419497f9722a3daafe3b4186f6b6457e0\n  mload(0x40)\n  mload(0x40)\n  dup1\n  swap2\n  sub\n  swap1\n  log3\n    /* \"node_modules/openzeppelin-solidity/contracts/access/Ownable.sol\":2333:2457  {... */\n  pop\n    /* \"node_modules/openzeppelin-solidity/contracts/access/Ownable.sol\":2270:2457  function _transferOwnership(address newOwner) internal virtual {... */\n  pop\n  jump\t// out\n    /* \"Subscribe.sol\":161:2816  contract Subscribe is Ownable{... */\ntag_8:\n  dataSize(sub_0)\n  dup1\n  dataOffset(sub_0)\n  0x00\n  codecopy\n  0x00\n  return\nstop\n\nsub_0: assembly {\n        /* \"Subscribe.sol\":161:2816  contract Subscribe is Ownable{... */\n      mstore(0x40, 0x80)\n      jumpi(tag_1, lt(calldatasize, 0x04))\n      shr(0xe0, calldataload(0x00))\n      dup1\n      0x8da5cb5b\n      gt\n      tag_16\n      jumpi\n      dup1\n      0xd028fa0c\n      gt\n      tag_17\n      jumpi\n      dup1\n      0xd028fa0c\n      eq\n      tag_12\n      jumpi\n      dup1\n      0xd353c0b7\n      eq\n      tag_13\n      jumpi\n      dup1\n      0xe11d48b1\n      eq\n      tag_14\n      jumpi\n      dup1\n      0xf2fde38b\n      eq\n      tag_15\n      jumpi\n      jump(tag_1)\n    tag_17:\n      dup1\n      0x8da5cb5b\n      eq\n      tag_9\n      jumpi\n      dup1\n      0xb5d7df97\n      eq\n      tag_10\n      jumpi\n      dup1\n      0xbefa2fc6\n      eq\n      tag_11\n      jumpi\n      jump(tag_1)\n    tag_16:\n      dup1\n      0x2b6fb5ba\n      gt\n      tag_18\n      jumpi\n      dup1\n      0x2b6fb5ba\n      eq\n      tag_5\n      jumpi\n      dup1\n      0x3a75b3ce\n      eq\n      tag_6\n      jumpi\n      dup1\n      0x41a7726a\n      eq\n      tag_7\n      jumpi\n      dup1\n      0x715018a6\n      eq\n      tag_8\n      jumpi\n      jump(tag_1)\n    tag_18:\n      dup1\n      0x141a8dd8\n      eq\n      tag_2\n      jumpi\n      dup1\n      0x159cfa6c\n      eq\n      tag_3\n      jumpi\n      dup1\n      0x23b872dd\n      eq\n      tag_4\n      jumpi\n    tag_1:\n      0x00\n      dup1\n      revert\n        /* \"Subscribe.sol\":344:367  address public approver */\n    tag_2:\n      callvalue\n      dup1\n      iszero\n      tag_19\n      jumpi\n      0x00\n      dup1\n      revert\n    tag_19:\n      pop\n      tag_20\n      tag_21\n      jump\t// in\n    tag_20:\n      mload(0x40)\n      tag_22\n      swap2\n      swap1\n      tag_23\n      jump\t// in\n    tag_22:\n      mload(0x40)\n      dup1\n      swap2\n      sub\n      swap1\n      return\n        /* \"Subscribe.sol\":1952:2128  function firstTimestamp(address _owner) public view returns(uint){... */\n    tag_3:\n      callvalue\n      dup1\n      iszero\n      tag_24\n      jumpi\n      0x00\n      dup1\n      revert\n    tag_24:\n      pop\n      tag_25\n      0x04\n      dup1\n      calldatasize\n      sub\n      dup2\n      add\n      swap1\n      tag_26\n      swap2\n      swap1\n      tag_27\n      jump\t// in\n    tag_26:\n      tag_28\n      jump\t// in\n    tag_25:\n      mload(0x40)\n      tag_29\n      swap2\n      swap1\n      tag_30\n      jump\t// in\n    tag_29:\n      mload(0x40)\n      dup1\n      swap2\n      sub\n      swap1\n      return\n        /* \"Subscribe.sol\":1194:1434  function transferFrom(... */\n    tag_4:\n      callvalue\n      dup1\n      iszero\n      tag_31\n      jumpi\n      0x00\n      dup1\n      revert\n    tag_31:\n      pop\n      tag_32\n      0x04\n      dup1\n      calldatasize\n      sub\n      dup2\n      add\n      swap1\n      tag_33\n      swap2\n      swap1\n      tag_34\n      jump\t// in\n    tag_33:\n      tag_35\n      jump\t// in\n    tag_32:\n      mload(0x40)\n      tag_36\n      swap2\n      swap1\n      tag_37\n      jump\t// in\n    tag_36:\n      mload(0x40)\n      dup1\n      swap2\n      sub\n      swap1\n      return\n        /* \"Subscribe.sol\":778:883  function setUserState(address _owner, bool _state) public{... */\n    tag_5:\n      callvalue\n      dup1\n      iszero\n      tag_38\n      jumpi\n      0x00\n      dup1\n      revert\n    tag_38:\n      pop\n      tag_39\n      0x04\n      dup1\n      calldatasize\n      sub\n      dup2\n      add\n      swap1\n      tag_40\n      swap2\n      swap1\n      tag_41\n      jump\t// in\n    tag_40:\n      tag_42\n      jump\t// in\n    tag_39:\n      stop\n        /* \"Subscribe.sol\":2540:2799  function withdrawSubscribe(address payable _owner) public payable{... */\n    tag_6:\n      tag_43\n      0x04\n      dup1\n      calldatasize\n      sub\n      dup2\n      add\n      swap1\n      tag_44\n      swap2\n      swap1\n      tag_45\n      jump\t// in\n    tag_44:\n      tag_46\n      jump\t// in\n    tag_43:\n      stop\n        /* \"Subscribe.sol\":1440:1946  function subscribe(address payable _to) public payable{... */\n    tag_7:\n      tag_47\n      0x04\n      dup1\n      calldatasize\n      sub\n      dup2\n      add\n      swap1\n      tag_48\n      swap2\n      swap1\n      tag_45\n      jump\t// in\n    tag_48:\n      tag_49\n      jump\t// in\n    tag_47:\n      stop\n        /* \"node_modules/openzeppelin-solidity/contracts/access/Ownable.sol\":1668:1769  function renounceOwnership() public virtual onlyOwner {... */\n    tag_8:\n      callvalue\n      dup1\n      iszero\n      tag_50\n      jumpi\n      0x00\n      dup1\n      revert\n    tag_50:\n      pop\n      tag_51\n      tag_52\n      jump\t// in\n    tag_51:\n      stop\n        /* \"node_modules/openzeppelin-solidity/contracts/access/Ownable.sol\":1036:1121  function owner() public view virtual returns (address) {... */\n    tag_9:\n      callvalue\n      dup1\n      iszero\n      tag_53\n      jumpi\n      0x00\n      dup1\n      revert\n    tag_53:\n      pop\n      tag_54\n      tag_55\n      jump\t// in\n    tag_54:\n      mload(0x40)\n      tag_56\n      swap2\n      swap1\n      tag_23\n      jump\t// in\n    tag_56:\n      mload(0x40)\n      dup1\n      swap2\n      sub\n      swap1\n      return\n        /* \"Subscribe.sol\":197:216  Approve public Sign */\n    tag_10:\n      callvalue\n      dup1\n      iszero\n      tag_57\n      jumpi\n      0x00\n      dup1\n      revert\n    tag_57:\n      pop\n      tag_58\n      tag_59\n      jump\t// in\n    tag_58:\n      mload(0x40)\n      tag_60\n      swap2\n      swap1\n      tag_61\n      jump\t// in\n    tag_60:\n      mload(0x40)\n      dup1\n      swap2\n      sub\n      swap1\n      return\n        /* \"Subscribe.sol\":373:407  uint256 public sub_price = 1 ether */\n    tag_11:\n      callvalue\n      dup1\n      iszero\n      tag_62\n      jumpi\n      0x00\n      dup1\n      revert\n    tag_62:\n      pop\n      tag_63\n      tag_64\n      jump\t// in\n    tag_63:\n      mload(0x40)\n      tag_65\n      swap2\n      swap1\n      tag_30\n      jump\t// in\n    tag_65:\n      mload(0x40)\n      dup1\n      swap2\n      sub\n      swap1\n      return\n        /* \"Subscribe.sol\":2134:2308  function nextTimestamp(address _owner) public view returns(uint){... */\n    tag_12:\n      callvalue\n      dup1\n      iszero\n      tag_66\n      jumpi\n      0x00\n      dup1\n      revert\n    tag_66:\n      pop\n      tag_67\n      0x04\n      dup1\n      calldatasize\n      sub\n      dup2\n      add\n      swap1\n      tag_68\n      swap2\n      swap1\n      tag_27\n      jump\t// in\n    tag_68:\n      tag_69\n      jump\t// in\n    tag_67:\n      mload(0x40)\n      tag_70\n      swap2\n      swap1\n      tag_30\n      jump\t// in\n    tag_70:\n      mload(0x40)\n      dup1\n      swap2\n      sub\n      swap1\n      return\n        /* \"Subscribe.sol\":414:460  mapping(address => bool) public subscribeState */\n    tag_13:\n      callvalue\n      dup1\n      iszero\n      tag_71\n      jumpi\n      0x00\n      dup1\n      revert\n    tag_71:\n      pop\n      tag_72\n      0x04\n      dup1\n      calldatasize\n      sub\n      dup2\n      add\n      swap1\n      tag_73\n      swap2\n      swap1\n      tag_27\n      jump\t// in\n    tag_73:\n      tag_74\n      jump\t// in\n    tag_72:\n      mload(0x40)\n      tag_75\n      swap2\n      swap1\n      tag_37\n      jump\t// in\n    tag_75:\n      mload(0x40)\n      dup1\n      swap2\n      sub\n      swap1\n      return\n        /* \"Subscribe.sol\":2315:2527  function cancelSubscribe(address payable _owner) public{... */\n    tag_14:\n      callvalue\n      dup1\n      iszero\n      tag_76\n      jumpi\n      0x00\n      dup1\n      revert\n    tag_76:\n      pop\n      tag_77\n      0x04\n      dup1\n      calldatasize\n      sub\n      dup2\n      add\n      swap1\n      tag_78\n      swap2\n      swap1\n      tag_45\n      jump\t// in\n    tag_78:\n      tag_79\n      jump\t// in\n    tag_77:\n      stop\n        /* \"node_modules/openzeppelin-solidity/contracts/access/Ownable.sol\":1918:2116  function transferOwnership(address newOwner) public virtual onlyOwner {... */\n    tag_15:\n      callvalue\n      dup1\n      iszero\n      tag_80\n      jumpi\n      0x00\n      dup1\n      revert\n    tag_80:\n      pop\n      tag_81\n      0x04\n      dup1\n      calldatasize\n      sub\n      dup2\n      add\n      swap1\n      tag_82\n      swap2\n      swap1\n      tag_27\n      jump\t// in\n    tag_82:\n      tag_83\n      jump\t// in\n    tag_81:\n      stop\n        /* \"Subscribe.sol\":344:367  address public approver */\n    tag_21:\n      0x05\n      0x00\n      swap1\n      sload\n      swap1\n      0x0100\n      exp\n      swap1\n      div\n      0xffffffffffffffffffffffffffffffffffffffff\n      and\n      dup2\n      jump\t// out\n        /* \"Subscribe.sol\":1952:2128  function firstTimestamp(address _owner) public view returns(uint){... */\n    tag_28:\n        /* \"Subscribe.sol\":2012:2016  uint */\n      0x00\n        /* \"Subscribe.sol\":2061:2066  false */\n      dup1\n        /* \"Subscribe.sol\":2035:2066  subscribeState[_owner] != false */\n      iszero\n      iszero\n        /* \"Subscribe.sol\":2035:2049  subscribeState */\n      0x07\n        /* \"Subscribe.sol\":2035:2057  subscribeState[_owner] */\n      0x00\n        /* \"Subscribe.sol\":2050:2056  _owner */\n      dup5\n        /* \"Subscribe.sol\":2035:2057  subscribeState[_owner] */\n      0xffffffffffffffffffffffffffffffffffffffff\n      and\n      0xffffffffffffffffffffffffffffffffffffffff\n      and\n      dup2\n      mstore\n      0x20\n      add\n      swap1\n      dup2\n      mstore\n      0x20\n      add\n      0x00\n      keccak256\n      0x00\n      swap1\n      sload\n      swap1\n      0x0100\n      exp\n      swap1\n      div\n      0xff\n      and\n        /* \"Subscribe.sol\":2035:2066  subscribeState[_owner] != false */\n      iszero\n      iszero\n      sub\n        /* \"Subscribe.sol\":2027:2092  require(subscribeState[_owner] != false, \"Subscribe Our Service\") */\n      tag_85\n      jumpi\n      mload(0x40)\n      0x08c379a000000000000000000000000000000000000000000000000000000000\n      dup2\n      mstore\n      0x04\n      add\n      tag_86\n      swap1\n      tag_87\n      jump\t// in\n    tag_86:\n      mload(0x40)\n      dup1\n      swap2\n      sub\n      swap1\n      revert\n    tag_85:\n        /* \"Subscribe.sol\":2109:2121  firstPayment */\n      sload(0x02)\n        /* \"Subscribe.sol\":2102:2121  return firstPayment */\n      swap1\n      pop\n        /* \"Subscribe.sol\":1952:2128  function firstTimestamp(address _owner) public view returns(uint){... */\n      swap2\n      swap1\n      pop\n      jump\t// out\n        /* \"Subscribe.sol\":1194:1434  function transferFrom(... */\n    tag_35:\n        /* \"Subscribe.sol\":1312:1316  bool */\n      0x00\n        /* \"Subscribe.sol\":1328:1332  Sign */\n      0x01\n      0x00\n      swap1\n      sload\n      swap1\n      0x0100\n      exp\n      swap1\n      div\n      0xffffffffffffffffffffffffffffffffffffffff\n      and\n        /* \"Subscribe.sol\":1328:1347  Sign.spendAllowance */\n      0xffffffffffffffffffffffffffffffffffffffff\n      and\n      0xdd8aaa4f\n        /* \"Subscribe.sol\":1348:1352  from */\n      dup6\n        /* \"Subscribe.sol\":1354:1362  approver */\n      0x05\n      0x00\n      swap1\n      sload\n      swap1\n      0x0100\n      exp\n      swap1\n      div\n      0xffffffffffffffffffffffffffffffffffffffff\n      and\n        /* \"Subscribe.sol\":1364:1370  amount */\n      dup6\n        /* \"Subscribe.sol\":1328:1371  Sign.spendAllowance(from, approver, amount) */\n      mload(0x40)\n      dup5\n      0xffffffff\n      and\n      0xe0\n      shl\n      dup2\n      mstore\n      0x04\n      add\n      tag_89\n      swap4\n      swap3\n      swap2\n      swap1\n      tag_90\n      jump\t// in\n    tag_89:\n      0x00\n      mload(0x40)\n      dup1\n      dup4\n      sub\n      dup2\n      0x00\n      dup8\n      dup1\n      extcodesize\n      iszero\n      dup1\n      iszero\n      tag_91\n      jumpi\n      0x00\n      dup1\n      revert\n    tag_91:\n      pop\n      gas\n      call\n      iszero\n      dup1\n      iszero\n      tag_93\n      jumpi\n      returndatasize\n      0x00\n      dup1\n      returndatacopy\n      revert(0x00, returndatasize)\n    tag_93:\n      pop\n      pop\n      pop\n      pop\n        /* \"Subscribe.sol\":1381:1406  _transfer(from,to,amount) */\n      tag_94\n        /* \"Subscribe.sol\":1391:1395  from */\n      dup5\n        /* \"Subscribe.sol\":1396:1398  to */\n      dup5\n        /* \"Subscribe.sol\":1399:1405  amount */\n      dup5\n        /* \"Subscribe.sol\":1381:1390  _transfer */\n      tag_95\n        /* \"Subscribe.sol\":1381:1406  _transfer(from,to,amount) */\n      jump\t// in\n    tag_94:\n        /* \"Subscribe.sol\":1423:1427  true */\n      0x01\n        /* \"Subscribe.sol\":1416:1427  return true */\n      swap1\n      pop\n        /* \"Subscribe.sol\":1194:1434  function transferFrom(... */\n      swap4\n      swap3\n      pop\n      pop\n      pop\n      jump\t// out\n        /* \"Subscribe.sol\":778:883  function setUserState(address _owner, bool _state) public{... */\n    tag_42:\n        /* \"Subscribe.sol\":870:876  _state */\n      dup1\n        /* \"Subscribe.sol\":845:859  subscribeState */\n      0x07\n        /* \"Subscribe.sol\":845:867  subscribeState[_owner] */\n      0x00\n        /* \"Subscribe.sol\":860:866  _owner */\n      dup5\n        /* \"Subscribe.sol\":845:867  subscribeState[_owner] */\n      0xffffffffffffffffffffffffffffffffffffffff\n      and\n      0xffffffffffffffffffffffffffffffffffffffff\n      and\n      dup2\n      mstore\n      0x20\n      add\n      swap1\n      dup2\n      mstore\n      0x20\n      add\n      0x00\n      keccak256\n      0x00\n        /* \"Subscribe.sol\":845:876  subscribeState[_owner] = _state */\n      0x0100\n      exp\n      dup2\n      sload\n      dup2\n      0xff\n      mul\n      not\n      and\n      swap1\n      dup4\n      iszero\n      iszero\n      mul\n      or\n      swap1\n      sstore\n      pop\n        /* \"Subscribe.sol\":778:883  function setUserState(address _owner, bool _state) public{... */\n      pop\n      pop\n      jump\t// out\n        /* \"Subscribe.sol\":2540:2799  function withdrawSubscribe(address payable _owner) public payable{... */\n    tag_46:\n        /* \"Subscribe.sol\":2615:2626  uint refund */\n      0x00\n        /* \"Subscribe.sol\":2630:2639  sub_price */\n      sload(0x06)\n        /* \"Subscribe.sol\":2615:2639  uint refund =  sub_price */\n      swap1\n      pop\n        /* \"Subscribe.sol\":2688:2697  1 minutes */\n      0x3c\n        /* \"Subscribe.sol\":2676:2687  nextPayment */\n      sload(0x03)\n        /* \"Subscribe.sol\":2676:2697  nextPayment+1 minutes */\n      tag_98\n      swap2\n      swap1\n      tag_99\n      jump\t// in\n    tag_98:\n        /* \"Subscribe.sol\":2657:2672  block.timestamp */\n      timestamp\n        /* \"Subscribe.sol\":2657:2697  block.timestamp <= nextPayment+1 minutes */\n      gt\n      iszero\n        /* \"Subscribe.sol\":2649:2698  require(block.timestamp <= nextPayment+1 minutes) */\n      tag_100\n      jumpi\n      0x00\n      dup1\n      revert\n    tag_100:\n        /* \"Subscribe.sol\":2725:2735  msg.sender */\n      caller\n        /* \"Subscribe.sol\":2717:2745  payable(msg.sender).transfer */\n      0xffffffffffffffffffffffffffffffffffffffff\n      and\n        /* \"Subscribe.sol\":2717:2753  payable(msg.sender).transfer(refund) */\n      0x08fc\n        /* \"Subscribe.sol\":2746:2752  refund */\n      dup3\n        /* \"Subscribe.sol\":2717:2753  payable(msg.sender).transfer(refund) */\n      swap1\n      dup2\n      iszero\n      mul\n      swap1\n      mload(0x40)\n      0x00\n      mload(0x40)\n      dup1\n      dup4\n      sub\n      dup2\n      dup6\n      dup9\n      dup9\n      call\n      swap4\n      pop\n      pop\n      pop\n      pop\n      iszero\n      dup1\n      iszero\n      tag_102\n      jumpi\n      returndatasize\n      0x00\n      dup1\n      returndatacopy\n      revert(0x00, returndatasize)\n    tag_102:\n      pop\n        /* \"Subscribe.sol\":2764:2791  setUserState(_owner, false) */\n      tag_103\n        /* \"Subscribe.sol\":2777:2783  _owner */\n      dup3\n        /* \"Subscribe.sol\":2785:2790  false */\n      0x00\n        /* \"Subscribe.sol\":2764:2776  setUserState */\n      tag_42\n        /* \"Subscribe.sol\":2764:2791  setUserState(_owner, false) */\n      jump\t// in\n    tag_103:\n        /* \"Subscribe.sol\":2605:2799  {... */\n      pop\n        /* \"Subscribe.sol\":2540:2799  function withdrawSubscribe(address payable _owner) public payable{... */\n      pop\n      jump\t// out\n        /* \"Subscribe.sol\":1440:1946  function subscribe(address payable _to) public payable{... */\n    tag_49:\n        /* \"Subscribe.sol\":1518:1521  _to */\n      dup1\n        /* \"Subscribe.sol\":1504:1515  marketOwner */\n      0x04\n      0x00\n        /* \"Subscribe.sol\":1504:1521  marketOwner = _to */\n      0x0100\n      exp\n      dup2\n      sload\n      dup2\n      0xffffffffffffffffffffffffffffffffffffffff\n      mul\n      not\n      and\n      swap1\n      dup4\n      0xffffffffffffffffffffffffffffffffffffffff\n      and\n      mul\n      or\n      swap1\n      sstore\n      pop\n        /* \"Subscribe.sol\":1550:1554  this */\n      address\n        /* \"Subscribe.sol\":1531:1539  approver */\n      0x05\n      0x00\n        /* \"Subscribe.sol\":1531:1555  approver = address(this) */\n      0x0100\n      exp\n      dup2\n      sload\n      dup2\n      0xffffffffffffffffffffffffffffffffffffffff\n      mul\n      not\n      and\n      swap1\n      dup4\n      0xffffffffffffffffffffffffffffffffffffffff\n      and\n      mul\n      or\n      swap1\n      sstore\n      pop\n        /* \"Subscribe.sol\":1566:1595  setUserState(msg.sender,true) */\n      tag_105\n        /* \"Subscribe.sol\":1579:1589  msg.sender */\n      caller\n        /* \"Subscribe.sol\":1590:1594  true */\n      0x01\n        /* \"Subscribe.sol\":1566:1578  setUserState */\n      tag_42\n        /* \"Subscribe.sol\":1566:1595  setUserState(msg.sender,true) */\n      jump\t// in\n    tag_105:\n        /* \"Subscribe.sol\":1633:1642  sub_price */\n      sload(0x06)\n        /* \"Subscribe.sol\":1620:1629  msg.value */\n      callvalue\n        /* \"Subscribe.sol\":1620:1642  msg.value >= sub_price */\n      lt\n      iszero\n        /* \"Subscribe.sol\":1612:1672  require(msg.value >= sub_price, \"Please charge your wallet\") */\n      tag_106\n      jumpi\n      mload(0x40)\n      0x08c379a000000000000000000000000000000000000000000000000000000000\n      dup2\n      mstore\n      0x04\n      add\n      tag_107\n      swap1\n      tag_108\n      jump\t// in\n    tag_107:\n      mload(0x40)\n      dup1\n      swap2\n      sub\n      swap1\n      revert\n    tag_106:\n        /* \"Subscribe.sol\":1690:1694  Sign */\n      0x01\n      0x00\n      swap1\n      sload\n      swap1\n      0x0100\n      exp\n      swap1\n      div\n      0xffffffffffffffffffffffffffffffffffffffff\n      and\n        /* \"Subscribe.sol\":1690:1711  Sign.isApprovedForAll */\n      0xffffffffffffffffffffffffffffffffffffffff\n      and\n      0xe985e9c5\n        /* \"Subscribe.sol\":1712:1722  msg.sender */\n      caller\n        /* \"Subscribe.sol\":1723:1731  approver */\n      0x05\n      0x00\n      swap1\n      sload\n      swap1\n      0x0100\n      exp\n      swap1\n      div\n      0xffffffffffffffffffffffffffffffffffffffff\n      and\n        /* \"Subscribe.sol\":1690:1732  Sign.isApprovedForAll(msg.sender,approver) */\n      mload(0x40)\n      dup4\n      0xffffffff\n      and\n      0xe0\n      shl\n      dup2\n      mstore\n      0x04\n      add\n      tag_109\n      swap3\n      swap2\n      swap1\n      tag_110\n      jump\t// in\n    tag_109:\n      0x20\n      mload(0x40)\n      dup1\n      dup4\n      sub\n      dup2\n      dup7\n      gas\n      staticcall\n      iszero\n      dup1\n      iszero\n      tag_112\n      jumpi\n      returndatasize\n      0x00\n      dup1\n      returndatacopy\n      revert(0x00, returndatasize)\n    tag_112:\n      pop\n      pop\n      pop\n      pop\n      mload(0x40)\n      returndatasize\n      not(0x1f)\n      0x1f\n      dup3\n      add\n      and\n      dup3\n      add\n      dup1\n      0x40\n      mstore\n      pop\n      dup2\n      add\n      swap1\n      tag_113\n      swap2\n      swap1\n      tag_114\n      jump\t// in\n    tag_113:\n        /* \"Subscribe.sol\":1682:1733  require(Sign.isApprovedForAll(msg.sender,approver)) */\n      tag_115\n      jumpi\n      0x00\n      dup1\n      revert\n    tag_115:\n        /* \"Subscribe.sol\":1760:1770  msg.sender */\n      caller\n        /* \"Subscribe.sol\":1752:1780  payable(msg.sender).transfer */\n      0xffffffffffffffffffffffffffffffffffffffff\n      and\n        /* \"Subscribe.sol\":1752:1791  payable(msg.sender).transfer(msg.value) */\n      0x08fc\n        /* \"Subscribe.sol\":1781:1790  msg.value */\n      callvalue\n        /* \"Subscribe.sol\":1752:1791  payable(msg.sender).transfer(msg.value) */\n      swap1\n      dup2\n      iszero\n      mul\n      swap1\n      mload(0x40)\n      0x00\n      mload(0x40)\n      dup1\n      dup4\n      sub\n      dup2\n      dup6\n      dup9\n      dup9\n      call\n      swap4\n      pop\n      pop\n      pop\n      pop\n      iszero\n      dup1\n      iszero\n      tag_117\n      jumpi\n      returndatasize\n      0x00\n      dup1\n      returndatacopy\n      revert(0x00, returndatasize)\n    tag_117:\n      pop\n        /* \"Subscribe.sol\":1802:1846  transferFrom(approver,marketOwner,sub_price) */\n      tag_118\n        /* \"Subscribe.sol\":1815:1823  approver */\n      0x05\n      0x00\n      swap1\n      sload\n      swap1\n      0x0100\n      exp\n      swap1\n      div\n      0xffffffffffffffffffffffffffffffffffffffff\n      and\n        /* \"Subscribe.sol\":1824:1835  marketOwner */\n      0x04\n      0x00\n      swap1\n      sload\n      swap1\n      0x0100\n      exp\n      swap1\n      div\n      0xffffffffffffffffffffffffffffffffffffffff\n      and\n        /* \"Subscribe.sol\":1836:1845  sub_price */\n      sload(0x06)\n        /* \"Subscribe.sol\":1802:1814  transferFrom */\n      tag_35\n        /* \"Subscribe.sol\":1802:1846  transferFrom(approver,marketOwner,sub_price) */\n      jump\t// in\n    tag_118:\n      pop\n        /* \"Subscribe.sol\":1872:1887  block.timestamp */\n      timestamp\n        /* \"Subscribe.sol\":1857:1869  firstPayment */\n      0x02\n        /* \"Subscribe.sol\":1857:1887  firstPayment = block.timestamp */\n      dup2\n      swap1\n      sstore\n      pop\n        /* \"Subscribe.sol\":1930:1939  1 minutes */\n      0x3c\n        /* \"Subscribe.sol\":1915:1927  firstPayment */\n      sload(0x02)\n        /* \"Subscribe.sol\":1915:1939  firstPayment + 1 minutes */\n      tag_119\n      swap2\n      swap1\n      tag_99\n      jump\t// in\n    tag_119:\n        /* \"Subscribe.sol\":1901:1912  nextPayment */\n      0x03\n        /* \"Subscribe.sol\":1901:1939  nextPayment = firstPayment + 1 minutes */\n      dup2\n      swap1\n      sstore\n      pop\n        /* \"Subscribe.sol\":1440:1946  function subscribe(address payable _to) public payable{... */\n      pop\n      jump\t// out\n        /* \"node_modules/openzeppelin-solidity/contracts/access/Ownable.sol\":1668:1769  function renounceOwnership() public virtual onlyOwner {... */\n    tag_52:\n        /* \"node_modules/openzeppelin-solidity/contracts/access/Ownable.sol\":1259:1271  _msgSender() */\n      tag_121\n        /* \"node_modules/openzeppelin-solidity/contracts/access/Ownable.sol\":1259:1269  _msgSender */\n      tag_122\n        /* \"node_modules/openzeppelin-solidity/contracts/access/Ownable.sol\":1259:1271  _msgSender() */\n      jump\t// in\n    tag_121:\n        /* \"node_modules/openzeppelin-solidity/contracts/access/Ownable.sol\":1248:1271  owner() == _msgSender() */\n      0xffffffffffffffffffffffffffffffffffffffff\n      and\n        /* \"node_modules/openzeppelin-solidity/contracts/access/Ownable.sol\":1248:1255  owner() */\n      tag_123\n        /* \"node_modules/openzeppelin-solidity/contracts/access/Ownable.sol\":1248:1253  owner */\n      tag_55\n        /* \"node_modules/openzeppelin-solidity/contracts/access/Ownable.sol\":1248:1255  owner() */\n      jump\t// in\n    tag_123:\n        /* \"node_modules/openzeppelin-solidity/contracts/access/Ownable.sol\":1248:1271  owner() == _msgSender() */\n      0xffffffffffffffffffffffffffffffffffffffff\n      and\n      eq\n        /* \"node_modules/openzeppelin-solidity/contracts/access/Ownable.sol\":1240:1308  require(owner() == _msgSender(), \"Ownable: caller is not the owner\") */\n      tag_124\n      jumpi\n      mload(0x40)\n      0x08c379a000000000000000000000000000000000000000000000000000000000\n      dup2\n      mstore\n      0x04\n      add\n      tag_125\n      swap1\n      tag_126\n      jump\t// in\n    tag_125:\n      mload(0x40)\n      dup1\n      swap2\n      sub\n      swap1\n      revert\n    tag_124:\n        /* \"node_modules/openzeppelin-solidity/contracts/access/Ownable.sol\":1732:1762  _transferOwnership(address(0)) */\n      tag_128\n        /* \"node_modules/openzeppelin-solidity/contracts/access/Ownable.sol\":1759:1760  0 */\n      0x00\n        /* \"node_modules/openzeppelin-solidity/contracts/access/Ownable.sol\":1732:1750  _transferOwnership */\n      tag_129\n        /* \"node_modules/openzeppelin-solidity/contracts/access/Ownable.sol\":1732:1762  _transferOwnership(address(0)) */\n      jump\t// in\n    tag_128:\n        /* \"node_modules/openzeppelin-solidity/contracts/access/Ownable.sol\":1668:1769  function renounceOwnership() public virtual onlyOwner {... */\n      jump\t// out\n        /* \"node_modules/openzeppelin-solidity/contracts/access/Ownable.sol\":1036:1121  function owner() public view virtual returns (address) {... */\n    tag_55:\n        /* \"node_modules/openzeppelin-solidity/contracts/access/Ownable.sol\":1082:1089  address */\n      0x00\n        /* \"node_modules/openzeppelin-solidity/contracts/access/Ownable.sol\":1108:1114  _owner */\n      dup1\n      0x00\n      swap1\n      sload\n      swap1\n      0x0100\n      exp\n      swap1\n      div\n      0xffffffffffffffffffffffffffffffffffffffff\n      and\n        /* \"node_modules/openzeppelin-solidity/contracts/access/Ownable.sol\":1101:1114  return _owner */\n      swap1\n      pop\n        /* \"node_modules/openzeppelin-solidity/contracts/access/Ownable.sol\":1036:1121  function owner() public view virtual returns (address) {... */\n      swap1\n      jump\t// out\n        /* \"Subscribe.sol\":197:216  Approve public Sign */\n    tag_59:\n      0x01\n      0x00\n      swap1\n      sload\n      swap1\n      0x0100\n      exp\n      swap1\n      div\n      0xffffffffffffffffffffffffffffffffffffffff\n      and\n      dup2\n      jump\t// out\n        /* \"Subscribe.sol\":373:407  uint256 public sub_price = 1 ether */\n    tag_64:\n      sload(0x06)\n      dup2\n      jump\t// out\n        /* \"Subscribe.sol\":2134:2308  function nextTimestamp(address _owner) public view returns(uint){... */\n    tag_69:\n        /* \"Subscribe.sol\":2193:2197  uint */\n      0x00\n        /* \"Subscribe.sol\":2242:2247  false */\n      dup1\n        /* \"Subscribe.sol\":2216:2247  subscribeState[_owner] != false */\n      iszero\n      iszero\n        /* \"Subscribe.sol\":2216:2230  subscribeState */\n      0x07\n        /* \"Subscribe.sol\":2216:2238  subscribeState[_owner] */\n      0x00\n        /* \"Subscribe.sol\":2231:2237  _owner */\n      dup5\n        /* \"Subscribe.sol\":2216:2238  subscribeState[_owner] */\n      0xffffffffffffffffffffffffffffffffffffffff\n      and\n      0xffffffffffffffffffffffffffffffffffffffff\n      and\n      dup2\n      mstore\n      0x20\n      add\n      swap1\n      dup2\n      mstore\n      0x20\n      add\n      0x00\n      keccak256\n      0x00\n      swap1\n      sload\n      swap1\n      0x0100\n      exp\n      swap1\n      div\n      0xff\n      and\n        /* \"Subscribe.sol\":2216:2247  subscribeState[_owner] != false */\n      iszero\n      iszero\n      sub\n        /* \"Subscribe.sol\":2208:2273  require(subscribeState[_owner] != false, \"Subscribe Our Service\") */\n      tag_132\n      jumpi\n      mload(0x40)\n      0x08c379a000000000000000000000000000000000000000000000000000000000\n      dup2\n      mstore\n      0x04\n      add\n      tag_133\n      swap1\n      tag_87\n      jump\t// in\n    tag_133:\n      mload(0x40)\n      dup1\n      swap2\n      sub\n      swap1\n      revert\n    tag_132:\n        /* \"Subscribe.sol\":2290:2301  nextPayment */\n      sload(0x03)\n        /* \"Subscribe.sol\":2283:2301  return nextPayment */\n      swap1\n      pop\n        /* \"Subscribe.sol\":2134:2308  function nextTimestamp(address _owner) public view returns(uint){... */\n      swap2\n      swap1\n      pop\n      jump\t// out\n        /* \"Subscribe.sol\":414:460  mapping(address => bool) public subscribeState */\n    tag_74:\n      mstore(0x20, 0x07)\n      dup1\n      0x00\n      mstore\n      keccak256(0x00, 0x40)\n      0x00\n      swap2\n      pop\n      sload\n      swap1\n      0x0100\n      exp\n      swap1\n      div\n      0xff\n      and\n      dup2\n      jump\t// out\n        /* \"Subscribe.sol\":2315:2527  function cancelSubscribe(address payable _owner) public{... */\n    tag_79:\n        /* \"Subscribe.sol\":2401:2412  nextPayment */\n      sload(0x03)\n        /* \"Subscribe.sol\":2383:2398  block.timestamp */\n      timestamp\n        /* \"Subscribe.sol\":2383:2412  block.timestamp < nextPayment */\n      lt\n        /* \"Subscribe.sol\":2380:2521  if(block.timestamp < nextPayment){... */\n      iszero\n      tag_135\n      jumpi\n        /* \"Subscribe.sol\":2427:2454  setUserState(_owner, false) */\n      tag_136\n        /* \"Subscribe.sol\":2440:2446  _owner */\n      dup2\n        /* \"Subscribe.sol\":2448:2453  false */\n      0x00\n        /* \"Subscribe.sol\":2427:2439  setUserState */\n      tag_42\n        /* \"Subscribe.sol\":2427:2454  setUserState(_owner, false) */\n      jump\t// in\n    tag_136:\n        /* \"Subscribe.sol\":2380:2521  if(block.timestamp < nextPayment){... */\n      jump(tag_137)\n    tag_135:\n        /* \"Subscribe.sol\":2485:2510  withdrawSubscribe(_owner) */\n      tag_138\n        /* \"Subscribe.sol\":2503:2509  _owner */\n      dup2\n        /* \"Subscribe.sol\":2485:2502  withdrawSubscribe */\n      tag_46\n        /* \"Subscribe.sol\":2485:2510  withdrawSubscribe(_owner) */\n      jump\t// in\n    tag_138:\n        /* \"Subscribe.sol\":2380:2521  if(block.timestamp < nextPayment){... */\n    tag_137:\n        /* \"Subscribe.sol\":2315:2527  function cancelSubscribe(address payable _owner) public{... */\n      pop\n      jump\t// out\n        /* \"node_modules/openzeppelin-solidity/contracts/access/Ownable.sol\":1918:2116  function transferOwnership(address newOwner) public virtual onlyOwner {... */\n    tag_83:\n        /* \"node_modules/openzeppelin-solidity/contracts/access/Ownable.sol\":1259:1271  _msgSender() */\n      tag_140\n        /* \"node_modules/openzeppelin-solidity/contracts/access/Ownable.sol\":1259:1269  _msgSender */\n      tag_122\n        /* \"node_modules/openzeppelin-solidity/contracts/access/Ownable.sol\":1259:1271  _msgSender() */\n      jump\t// in\n    tag_140:\n        /* \"node_modules/openzeppelin-solidity/contracts/access/Ownable.sol\":1248:1271  owner() == _msgSender() */\n      0xffffffffffffffffffffffffffffffffffffffff\n      and\n        /* \"node_modules/openzeppelin-solidity/contracts/access/Ownable.sol\":1248:1255  owner() */\n      tag_141\n        /* \"node_modules/openzeppelin-solidity/contracts/access/Ownable.sol\":1248:1253  owner */\n      tag_55\n        /* \"node_modules/openzeppelin-solidity/contracts/access/Ownable.sol\":1248:1255  owner() */\n      jump\t// in\n    tag_141:\n        /* \"node_modules/openzeppelin-solidity/contracts/access/Ownable.sol\":1248:1271  owner() == _msgSender() */\n      0xffffffffffffffffffffffffffffffffffffffff\n      and\n      eq\n        /* \"node_modules/openzeppelin-solidity/contracts/access/Ownable.sol\":1240:1308  require(owner() == _msgSender(), \"Ownable: caller is not the owner\") */\n      tag_142\n      jumpi\n      mload(0x40)\n      0x08c379a000000000000000000000000000000000000000000000000000000000\n      dup2\n      mstore\n      0x04\n      add\n      tag_143\n      swap1\n      tag_126\n      jump\t// in\n    tag_143:\n      mload(0x40)\n      dup1\n      swap2\n      sub\n      swap1\n      revert\n    tag_142:\n        /* \"node_modules/openzeppelin-solidity/contracts/access/Ownable.sol\":2026:2027  0 */\n      0x00\n        /* \"node_modules/openzeppelin-solidity/contracts/access/Ownable.sol\":2006:2028  newOwner != address(0) */\n      0xffffffffffffffffffffffffffffffffffffffff\n      and\n        /* \"node_modules/openzeppelin-solidity/contracts/access/Ownable.sol\":2006:2014  newOwner */\n      dup2\n        /* \"node_modules/openzeppelin-solidity/contracts/access/Ownable.sol\":2006:2028  newOwner != address(0) */\n      0xffffffffffffffffffffffffffffffffffffffff\n      and\n      sub\n        /* \"node_modules/openzeppelin-solidity/contracts/access/Ownable.sol\":1998:2071  require(newOwner != address(0), \"Ownable: new owner is the zero address\") */\n      tag_145\n      jumpi\n      mload(0x40)\n      0x08c379a000000000000000000000000000000000000000000000000000000000\n      dup2\n      mstore\n      0x04\n      add\n      tag_146\n      swap1\n      tag_147\n      jump\t// in\n    tag_146:\n      mload(0x40)\n      dup1\n      swap2\n      sub\n      swap1\n      revert\n    tag_145:\n        /* \"node_modules/openzeppelin-solidity/contracts/access/Ownable.sol\":2081:2109  _transferOwnership(newOwner) */\n      tag_148\n        /* \"node_modules/openzeppelin-solidity/contracts/access/Ownable.sol\":2100:2108  newOwner */\n      dup2\n        /* \"node_modules/openzeppelin-solidity/contracts/access/Ownable.sol\":2081:2099  _transferOwnership */\n      tag_129\n        /* \"node_modules/openzeppelin-solidity/contracts/access/Ownable.sol\":2081:2109  _transferOwnership(newOwner) */\n      jump\t// in\n    tag_148:\n        /* \"node_modules/openzeppelin-solidity/contracts/access/Ownable.sol\":1918:2116  function transferOwnership(address newOwner) public virtual onlyOwner {... */\n      pop\n      jump\t// out\n        /* \"Subscribe.sol\":889:1184  function _transfer(... */\n    tag_95:\n        /* \"Subscribe.sol\":1031:1032  0 */\n      0x00\n        /* \"Subscribe.sol\":1015:1033  from != address(0) */\n      0xffffffffffffffffffffffffffffffffffffffff\n      and\n        /* \"Subscribe.sol\":1015:1019  from */\n      dup4\n        /* \"Subscribe.sol\":1015:1033  from != address(0) */\n      0xffffffffffffffffffffffffffffffffffffffff\n      and\n      sub\n        /* \"Subscribe.sol\":1007:1068  require(from != address(0), \"transfer from the zero address\") */\n      tag_150\n      jumpi\n      mload(0x40)\n      0x08c379a000000000000000000000000000000000000000000000000000000000\n      dup2\n      mstore\n      0x04\n      add\n      tag_151\n      swap1\n      tag_152\n      jump\t// in\n    tag_151:\n      mload(0x40)\n      dup1\n      swap2\n      sub\n      swap1\n      revert\n    tag_150:\n        /* \"Subscribe.sol\":1100:1101  0 */\n      0x00\n        /* \"Subscribe.sol\":1086:1102  to != address(0) */\n      0xffffffffffffffffffffffffffffffffffffffff\n      and\n        /* \"Subscribe.sol\":1086:1088  to */\n      dup3\n        /* \"Subscribe.sol\":1086:1102  to != address(0) */\n      0xffffffffffffffffffffffffffffffffffffffff\n      and\n      sub\n        /* \"Subscribe.sol\":1078:1135  require(to != address(0), \"transfer to the zero address\") */\n      tag_153\n      jumpi\n      mload(0x40)\n      0x08c379a000000000000000000000000000000000000000000000000000000000\n      dup2\n      mstore\n      0x04\n      add\n      tag_154\n      swap1\n      tag_155\n      jump\t// in\n    tag_154:\n      mload(0x40)\n      dup1\n      swap2\n      sub\n      swap1\n      revert\n    tag_153:\n        /* \"Subscribe.sol\":1166:1168  to */\n      dup2\n        /* \"Subscribe.sol\":1151:1177  Transfer(from, to, amount) */\n      0xffffffffffffffffffffffffffffffffffffffff\n      and\n        /* \"Subscribe.sol\":1160:1164  from */\n      dup4\n        /* \"Subscribe.sol\":1151:1177  Transfer(from, to, amount) */\n      0xffffffffffffffffffffffffffffffffffffffff\n      and\n      0xddf252ad1be2c89b69c2b068fc378daa952ba7f163c4a11628f55a4df523b3ef\n        /* \"Subscribe.sol\":1170:1176  amount */\n      dup4\n        /* \"Subscribe.sol\":1151:1177  Transfer(from, to, amount) */\n      mload(0x40)\n      tag_156\n      swap2\n      swap1\n      tag_30\n      jump\t// in\n    tag_156:\n      mload(0x40)\n      dup1\n      swap2\n      sub\n      swap1\n      log3\n        /* \"Subscribe.sol\":889:1184  function _transfer(... */\n      pop\n      pop\n      pop\n      jump\t// out\n        /* \"node_modules/openzeppelin-solidity/contracts/utils/Context.sol\":640:736  function _msgSender() internal view virtual returns (address) {... */\n    tag_122:\n        /* \"node_modules/openzeppelin-solidity/contracts/utils/Context.sol\":693:700  address */\n      0x00\n        /* \"node_modules/openzeppelin-solidity/contracts/utils/Context.sol\":719:729  msg.sender */\n      caller\n        /* \"node_modules/openzeppelin-solidity/contracts/utils/Context.sol\":712:729  return msg.sender */\n      swap1\n      pop\n        /* \"node_modules/openzeppelin-solidity/contracts/utils/Context.sol\":640:736  function _msgSender() internal view virtual returns (address) {... */\n      swap1\n      jump\t// out\n        /* \"node_modules/openzeppelin-solidity/contracts/access/Ownable.sol\":2270:2457  function _transferOwnership(address newOwner) internal virtual {... */\n    tag_129:\n        /* \"node_modules/openzeppelin-solidity/contracts/access/Ownable.sol\":2343:2359  address oldOwner */\n      0x00\n        /* \"node_modules/openzeppelin-solidity/contracts/access/Ownable.sol\":2362:2368  _owner */\n      dup1\n      0x00\n      swap1\n      sload\n      swap1\n      0x0100\n      exp\n      swap1\n      div\n      0xffffffffffffffffffffffffffffffffffffffff\n      and\n        /* \"node_modules/openzeppelin-solidity/contracts/access/Ownable.sol\":2343:2368  address oldOwner = _owner */\n      swap1\n      pop\n        /* \"node_modules/openzeppelin-solidity/contracts/access/Ownable.sol\":2387:2395  newOwner */\n      dup2\n        /* \"node_modules/openzeppelin-solidity/contracts/access/Ownable.sol\":2378:2384  _owner */\n      0x00\n      dup1\n        /* \"node_modules/openzeppelin-solidity/contracts/access/Ownable.sol\":2378:2395  _owner = newOwner */\n      0x0100\n      exp\n      dup2\n      sload\n      dup2\n      0xffffffffffffffffffffffffffffffffffffffff\n      mul\n      not\n      and\n      swap1\n      dup4\n      0xffffffffffffffffffffffffffffffffffffffff\n      and\n      mul\n      or\n      swap1\n      sstore\n      pop\n        /* \"node_modules/openzeppelin-solidity/contracts/access/Ownable.sol\":2441:2449  newOwner */\n      dup2\n        /* \"node_modules/openzeppelin-solidity/contracts/access/Ownable.sol\":2410:2450  OwnershipTransferred(oldOwner, newOwner) */\n      0xffffffffffffffffffffffffffffffffffffffff\n      and\n        /* \"node_modules/openzeppelin-solidity/contracts/access/Ownable.sol\":2431:2439  oldOwner */\n      dup2\n        /* \"node_modules/openzeppelin-solidity/contracts/access/Ownable.sol\":2410:2450  OwnershipTransferred(oldOwner, newOwner) */\n      0xffffffffffffffffffffffffffffffffffffffff\n      and\n      0x8be0079c531659141344cd1fd0a4f28419497f9722a3daafe3b4186f6b6457e0\n      mload(0x40)\n      mload(0x40)\n      dup1\n      swap2\n      sub\n      swap1\n      log3\n        /* \"node_modules/openzeppelin-solidity/contracts/access/Ownable.sol\":2333:2457  {... */\n      pop\n        /* \"node_modules/openzeppelin-solidity/contracts/access/Ownable.sol\":2270:2457  function _transferOwnership(address newOwner) internal virtual {... */\n      pop\n      jump\t// out\n        /* \"#utility.yul\":7:133   */\n    tag_159:\n        /* \"#utility.yul\":44:51   */\n      0x00\n        /* \"#utility.yul\":84:126   */\n      0xffffffffffffffffffffffffffffffffffffffff\n        /* \"#utility.yul\":77:82   */\n      dup3\n        /* \"#utility.yul\":73:127   */\n      and\n        /* \"#utility.yul\":62:127   */\n      swap1\n      pop\n        /* \"#utility.yul\":7:133   */\n      swap2\n      swap1\n      pop\n      jump\t// out\n        /* \"#utility.yul\":139:235   */\n    tag_160:\n        /* \"#utility.yul\":176:183   */\n      0x00\n        /* \"#utility.yul\":205:229   */\n      tag_201\n        /* \"#utility.yul\":223:228   */\n      dup3\n        /* \"#utility.yul\":205:229   */\n      tag_159\n      jump\t// in\n    tag_201:\n        /* \"#utility.yul\":194:229   */\n      swap1\n      pop\n        /* \"#utility.yul\":139:235   */\n      swap2\n      swap1\n      pop\n      jump\t// out\n        /* \"#utility.yul\":241:359   */\n    tag_161:\n        /* \"#utility.yul\":328:352   */\n      tag_203\n        /* \"#utility.yul\":346:351   */\n      dup2\n        /* \"#utility.yul\":328:352   */\n      tag_160\n      jump\t// in\n    tag_203:\n        /* \"#utility.yul\":323:326   */\n      dup3\n        /* \"#utility.yul\":316:353   */\n      mstore\n        /* \"#utility.yul\":241:359   */\n      pop\n      pop\n      jump\t// out\n        /* \"#utility.yul\":365:587   */\n    tag_23:\n        /* \"#utility.yul\":458:462   */\n      0x00\n        /* \"#utility.yul\":496:498   */\n      0x20\n        /* \"#utility.yul\":485:494   */\n      dup3\n        /* \"#utility.yul\":481:499   */\n      add\n        /* \"#utility.yul\":473:499   */\n      swap1\n      pop\n        /* \"#utility.yul\":509:580   */\n      tag_205\n        /* \"#utility.yul\":577:578   */\n      0x00\n        /* \"#utility.yul\":566:575   */\n      dup4\n        /* \"#utility.yul\":562:579   */\n      add\n        /* \"#utility.yul\":553:559   */\n      dup5\n        /* \"#utility.yul\":509:580   */\n      tag_161\n      jump\t// in\n    tag_205:\n        /* \"#utility.yul\":365:587   */\n      swap3\n      swap2\n      pop\n      pop\n      jump\t// out\n        /* \"#utility.yul\":674:791   */\n    tag_163:\n        /* \"#utility.yul\":783:784   */\n      0x00\n        /* \"#utility.yul\":780:781   */\n      dup1\n        /* \"#utility.yul\":773:785   */\n      revert\n        /* \"#utility.yul\":920:1042   */\n    tag_165:\n        /* \"#utility.yul\":993:1017   */\n      tag_210\n        /* \"#utility.yul\":1011:1016   */\n      dup2\n        /* \"#utility.yul\":993:1017   */\n      tag_160\n      jump\t// in\n    tag_210:\n        /* \"#utility.yul\":986:991   */\n      dup2\n        /* \"#utility.yul\":983:1018   */\n      eq\n        /* \"#utility.yul\":973:1036   */\n      tag_211\n      jumpi\n        /* \"#utility.yul\":1032:1033   */\n      0x00\n        /* \"#utility.yul\":1029:1030   */\n      dup1\n        /* \"#utility.yul\":1022:1034   */\n      revert\n        /* \"#utility.yul\":973:1036   */\n    tag_211:\n        /* \"#utility.yul\":920:1042   */\n      pop\n      jump\t// out\n        /* \"#utility.yul\":1048:1187   */\n    tag_166:\n        /* \"#utility.yul\":1094:1099   */\n      0x00\n        /* \"#utility.yul\":1132:1138   */\n      dup2\n        /* \"#utility.yul\":1119:1139   */\n      calldataload\n        /* \"#utility.yul\":1110:1139   */\n      swap1\n      pop\n        /* \"#utility.yul\":1148:1181   */\n      tag_213\n        /* \"#utility.yul\":1175:1180   */\n      dup2\n        /* \"#utility.yul\":1148:1181   */\n      tag_165\n      jump\t// in\n    tag_213:\n        /* \"#utility.yul\":1048:1187   */\n      swap3\n      swap2\n      pop\n      pop\n      jump\t// out\n        /* \"#utility.yul\":1193:1522   */\n    tag_27:\n        /* \"#utility.yul\":1252:1258   */\n      0x00\n        /* \"#utility.yul\":1301:1303   */\n      0x20\n        /* \"#utility.yul\":1289:1298   */\n      dup3\n        /* \"#utility.yul\":1280:1287   */\n      dup5\n        /* \"#utility.yul\":1276:1299   */\n      sub\n        /* \"#utility.yul\":1272:1304   */\n      slt\n        /* \"#utility.yul\":1269:1388   */\n      iszero\n      tag_215\n      jumpi\n        /* \"#utility.yul\":1307:1386   */\n      tag_216\n      tag_163\n      jump\t// in\n    tag_216:\n        /* \"#utility.yul\":1269:1388   */\n    tag_215:\n        /* \"#utility.yul\":1427:1428   */\n      0x00\n        /* \"#utility.yul\":1452:1505   */\n      tag_217\n        /* \"#utility.yul\":1497:1504   */\n      dup5\n        /* \"#utility.yul\":1488:1494   */\n      dup3\n        /* \"#utility.yul\":1477:1486   */\n      dup6\n        /* \"#utility.yul\":1473:1495   */\n      add\n        /* \"#utility.yul\":1452:1505   */\n      tag_166\n      jump\t// in\n    tag_217:\n        /* \"#utility.yul\":1442:1505   */\n      swap2\n      pop\n        /* \"#utility.yul\":1398:1515   */\n      pop\n        /* \"#utility.yul\":1193:1522   */\n      swap3\n      swap2\n      pop\n      pop\n      jump\t// out\n        /* \"#utility.yul\":1528:1605   */\n    tag_167:\n        /* \"#utility.yul\":1565:1572   */\n      0x00\n        /* \"#utility.yul\":1594:1599   */\n      dup2\n        /* \"#utility.yul\":1583:1599   */\n      swap1\n      pop\n        /* \"#utility.yul\":1528:1605   */\n      swap2\n      swap1\n      pop\n      jump\t// out\n        /* \"#utility.yul\":1611:1729   */\n    tag_168:\n        /* \"#utility.yul\":1698:1722   */\n      tag_220\n        /* \"#utility.yul\":1716:1721   */\n      dup2\n        /* \"#utility.yul\":1698:1722   */\n      tag_167\n      jump\t// in\n    tag_220:\n        /* \"#utility.yul\":1693:1696   */\n      dup3\n        /* \"#utility.yul\":1686:1723   */\n      mstore\n        /* \"#utility.yul\":1611:1729   */\n      pop\n      pop\n      jump\t// out\n        /* \"#utility.yul\":1735:1957   */\n    tag_30:\n        /* \"#utility.yul\":1828:1832   */\n      0x00\n        /* \"#utility.yul\":1866:1868   */\n      0x20\n        /* \"#utility.yul\":1855:1864   */\n      dup3\n        /* \"#utility.yul\":1851:1869   */\n      add\n        /* \"#utility.yul\":1843:1869   */\n      swap1\n      pop\n        /* \"#utility.yul\":1879:1950   */\n      tag_222\n        /* \"#utility.yul\":1947:1948   */\n      0x00\n        /* \"#utility.yul\":1936:1945   */\n      dup4\n        /* \"#utility.yul\":1932:1949   */\n      add\n        /* \"#utility.yul\":1923:1929   */\n      dup5\n        /* \"#utility.yul\":1879:1950   */\n      tag_168\n      jump\t// in\n    tag_222:\n        /* \"#utility.yul\":1735:1957   */\n      swap3\n      swap2\n      pop\n      pop\n      jump\t// out\n        /* \"#utility.yul\":1963:2085   */\n    tag_169:\n        /* \"#utility.yul\":2036:2060   */\n      tag_224\n        /* \"#utility.yul\":2054:2059   */\n      dup2\n        /* \"#utility.yul\":2036:2060   */\n      tag_167\n      jump\t// in\n    tag_224:\n        /* \"#utility.yul\":2029:2034   */\n      dup2\n        /* \"#utility.yul\":2026:2061   */\n      eq\n        /* \"#utility.yul\":2016:2079   */\n      tag_225\n      jumpi\n        /* \"#utility.yul\":2075:2076   */\n      0x00\n        /* \"#utility.yul\":2072:2073   */\n      dup1\n        /* \"#utility.yul\":2065:2077   */\n      revert\n        /* \"#utility.yul\":2016:2079   */\n    tag_225:\n        /* \"#utility.yul\":1963:2085   */\n      pop\n      jump\t// out\n        /* \"#utility.yul\":2091:2230   */\n    tag_170:\n        /* \"#utility.yul\":2137:2142   */\n      0x00\n        /* \"#utility.yul\":2175:2181   */\n      dup2\n        /* \"#utility.yul\":2162:2182   */\n      calldataload\n        /* \"#utility.yul\":2153:2182   */\n      swap1\n      pop\n        /* \"#utility.yul\":2191:2224   */\n      tag_227\n        /* \"#utility.yul\":2218:2223   */\n      dup2\n        /* \"#utility.yul\":2191:2224   */\n      tag_169\n      jump\t// in\n    tag_227:\n        /* \"#utility.yul\":2091:2230   */\n      swap3\n      swap2\n      pop\n      pop\n      jump\t// out\n        /* \"#utility.yul\":2236:2855   */\n    tag_34:\n        /* \"#utility.yul\":2313:2319   */\n      0x00\n        /* \"#utility.yul\":2321:2327   */\n      dup1\n        /* \"#utility.yul\":2329:2335   */\n      0x00\n        /* \"#utility.yul\":2378:2380   */\n      0x60\n        /* \"#utility.yul\":2366:2375   */\n      dup5\n        /* \"#utility.yul\":2357:2364   */\n      dup7\n        /* \"#utility.yul\":2353:2376   */\n      sub\n        /* \"#utility.yul\":2349:2381   */\n      slt\n        /* \"#utility.yul\":2346:2465   */\n      iszero\n      tag_229\n      jumpi\n        /* \"#utility.yul\":2384:2463   */\n      tag_230\n      tag_163\n      jump\t// in\n    tag_230:\n        /* \"#utility.yul\":2346:2465   */\n    tag_229:\n        /* \"#utility.yul\":2504:2505   */\n      0x00\n        /* \"#utility.yul\":2529:2582   */\n      tag_231\n        /* \"#utility.yul\":2574:2581   */\n      dup7\n        /* \"#utility.yul\":2565:2571   */\n      dup3\n        /* \"#utility.yul\":2554:2563   */\n      dup8\n        /* \"#utility.yul\":2550:2572   */\n      add\n        /* \"#utility.yul\":2529:2582   */\n      tag_166\n      jump\t// in\n    tag_231:\n        /* \"#utility.yul\":2519:2582   */\n      swap4\n      pop\n        /* \"#utility.yul\":2475:2592   */\n      pop\n        /* \"#utility.yul\":2631:2633   */\n      0x20\n        /* \"#utility.yul\":2657:2710   */\n      tag_232\n        /* \"#utility.yul\":2702:2709   */\n      dup7\n        /* \"#utility.yul\":2693:2699   */\n      dup3\n        /* \"#utility.yul\":2682:2691   */\n      dup8\n        /* \"#utility.yul\":2678:2700   */\n      add\n        /* \"#utility.yul\":2657:2710   */\n      tag_166\n      jump\t// in\n    tag_232:\n        /* \"#utility.yul\":2647:2710   */\n      swap3\n      pop\n        /* \"#utility.yul\":2602:2720   */\n      pop\n        /* \"#utility.yul\":2759:2761   */\n      0x40\n        /* \"#utility.yul\":2785:2838   */\n      tag_233\n        /* \"#utility.yul\":2830:2837   */\n      dup7\n        /* \"#utility.yul\":2821:2827   */\n      dup3\n        /* \"#utility.yul\":2810:2819   */\n      dup8\n        /* \"#utility.yul\":2806:2828   */\n      add\n        /* \"#utility.yul\":2785:2838   */\n      tag_170\n      jump\t// in\n    tag_233:\n        /* \"#utility.yul\":2775:2838   */\n      swap2\n      pop\n        /* \"#utility.yul\":2730:2848   */\n      pop\n        /* \"#utility.yul\":2236:2855   */\n      swap3\n      pop\n      swap3\n      pop\n      swap3\n      jump\t// out\n        /* \"#utility.yul\":2861:2951   */\n    tag_171:\n        /* \"#utility.yul\":2895:2902   */\n      0x00\n        /* \"#utility.yul\":2938:2943   */\n      dup2\n        /* \"#utility.yul\":2931:2944   */\n      iszero\n        /* \"#utility.yul\":2924:2945   */\n      iszero\n        /* \"#utility.yul\":2913:2945   */\n      swap1\n      pop\n        /* \"#utility.yul\":2861:2951   */\n      swap2\n      swap1\n      pop\n      jump\t// out\n        /* \"#utility.yul\":2957:3066   */\n    tag_172:\n        /* \"#utility.yul\":3038:3059   */\n      tag_236\n        /* \"#utility.yul\":3053:3058   */\n      dup2\n        /* \"#utility.yul\":3038:3059   */\n      tag_171\n      jump\t// in\n    tag_236:\n        /* \"#utility.yul\":3033:3036   */\n      dup3\n        /* \"#utility.yul\":3026:3060   */\n      mstore\n        /* \"#utility.yul\":2957:3066   */\n      pop\n      pop\n      jump\t// out\n        /* \"#utility.yul\":3072:3282   */\n    tag_37:\n        /* \"#utility.yul\":3159:3163   */\n      0x00\n        /* \"#utility.yul\":3197:3199   */\n      0x20\n        /* \"#utility.yul\":3186:3195   */\n      dup3\n        /* \"#utility.yul\":3182:3200   */\n      add\n        /* \"#utility.yul\":3174:3200   */\n      swap1\n      pop\n        /* \"#utility.yul\":3210:3275   */\n      tag_238\n        /* \"#utility.yul\":3272:3273   */\n      0x00\n        /* \"#utility.yul\":3261:3270   */\n      dup4\n        /* \"#utility.yul\":3257:3274   */\n      add\n        /* \"#utility.yul\":3248:3254   */\n      dup5\n        /* \"#utility.yul\":3210:3275   */\n      tag_172\n      jump\t// in\n    tag_238:\n        /* \"#utility.yul\":3072:3282   */\n      swap3\n      swap2\n      pop\n      pop\n      jump\t// out\n        /* \"#utility.yul\":3288:3404   */\n    tag_173:\n        /* \"#utility.yul\":3358:3379   */\n      tag_240\n        /* \"#utility.yul\":3373:3378   */\n      dup2\n        /* \"#utility.yul\":3358:3379   */\n      tag_171\n      jump\t// in\n    tag_240:\n        /* \"#utility.yul\":3351:3356   */\n      dup2\n        /* \"#utility.yul\":3348:3380   */\n      eq\n        /* \"#utility.yul\":3338:3398   */\n      tag_241\n      jumpi\n        /* \"#utility.yul\":3394:3395   */\n      0x00\n        /* \"#utility.yul\":3391:3392   */\n      dup1\n        /* \"#utility.yul\":3384:3396   */\n      revert\n        /* \"#utility.yul\":3338:3398   */\n    tag_241:\n        /* \"#utility.yul\":3288:3404   */\n      pop\n      jump\t// out\n        /* \"#utility.yul\":3410:3543   */\n    tag_174:\n        /* \"#utility.yul\":3453:3458   */\n      0x00\n        /* \"#utility.yul\":3491:3497   */\n      dup2\n        /* \"#utility.yul\":3478:3498   */\n      calldataload\n        /* \"#utility.yul\":3469:3498   */\n      swap1\n      pop\n        /* \"#utility.yul\":3507:3537   */\n      tag_243\n        /* \"#utility.yul\":3531:3536   */\n      dup2\n        /* \"#utility.yul\":3507:3537   */\n      tag_173\n      jump\t// in\n    tag_243:\n        /* \"#utility.yul\":3410:3543   */\n      swap3\n      swap2\n      pop\n      pop\n      jump\t// out\n        /* \"#utility.yul\":3549:4017   */\n    tag_41:\n        /* \"#utility.yul\":3614:3620   */\n      0x00\n        /* \"#utility.yul\":3622:3628   */\n      dup1\n        /* \"#utility.yul\":3671:3673   */\n      0x40\n        /* \"#utility.yul\":3659:3668   */\n      dup4\n        /* \"#utility.yul\":3650:3657   */\n      dup6\n        /* \"#utility.yul\":3646:3669   */\n      sub\n        /* \"#utility.yul\":3642:3674   */\n      slt\n        /* \"#utility.yul\":3639:3758   */\n      iszero\n      tag_245\n      jumpi\n        /* \"#utility.yul\":3677:3756   */\n      tag_246\n      tag_163\n      jump\t// in\n    tag_246:\n        /* \"#utility.yul\":3639:3758   */\n    tag_245:\n        /* \"#utility.yul\":3797:3798   */\n      0x00\n        /* \"#utility.yul\":3822:3875   */\n      tag_247\n        /* \"#utility.yul\":3867:3874   */\n      dup6\n        /* \"#utility.yul\":3858:3864   */\n      dup3\n        /* \"#utility.yul\":3847:3856   */\n      dup7\n        /* \"#utility.yul\":3843:3865   */\n      add\n        /* \"#utility.yul\":3822:3875   */\n      tag_166\n      jump\t// in\n    tag_247:\n        /* \"#utility.yul\":3812:3875   */\n      swap3\n      pop\n        /* \"#utility.yul\":3768:3885   */\n      pop\n        /* \"#utility.yul\":3924:3926   */\n      0x20\n        /* \"#utility.yul\":3950:4000   */\n      tag_248\n        /* \"#utility.yul\":3992:3999   */\n      dup6\n        /* \"#utility.yul\":3983:3989   */\n      dup3\n        /* \"#utility.yul\":3972:3981   */\n      dup7\n        /* \"#utility.yul\":3968:3990   */\n      add\n        /* \"#utility.yul\":3950:4000   */\n      tag_174\n      jump\t// in\n    tag_248:\n        /* \"#utility.yul\":3940:4000   */\n      swap2\n      pop\n        /* \"#utility.yul\":3895:4010   */\n      pop\n        /* \"#utility.yul\":3549:4017   */\n      swap3\n      pop\n      swap3\n      swap1\n      pop\n      jump\t// out\n        /* \"#utility.yul\":4023:4127   */\n    tag_175:\n        /* \"#utility.yul\":4068:4075   */\n      0x00\n        /* \"#utility.yul\":4097:4121   */\n      tag_250\n        /* \"#utility.yul\":4115:4120   */\n      dup3\n        /* \"#utility.yul\":4097:4121   */\n      tag_159\n      jump\t// in\n    tag_250:\n        /* \"#utility.yul\":4086:4121   */\n      swap1\n      pop\n        /* \"#utility.yul\":4023:4127   */\n      swap2\n      swap1\n      pop\n      jump\t// out\n        /* \"#utility.yul\":4133:4271   */\n    tag_176:\n        /* \"#utility.yul\":4214:4246   */\n      tag_252\n        /* \"#utility.yul\":4240:4245   */\n      dup2\n        /* \"#utility.yul\":4214:4246   */\n      tag_175\n      jump\t// in\n    tag_252:\n        /* \"#utility.yul\":4207:4212   */\n      dup2\n        /* \"#utility.yul\":4204:4247   */\n      eq\n        /* \"#utility.yul\":4194:4265   */\n      tag_253\n      jumpi\n        /* \"#utility.yul\":4261:4262   */\n      0x00\n        /* \"#utility.yul\":4258:4259   */\n      dup1\n        /* \"#utility.yul\":4251:4263   */\n      revert\n        /* \"#utility.yul\":4194:4265   */\n    tag_253:\n        /* \"#utility.yul\":4133:4271   */\n      pop\n      jump\t// out\n        /* \"#utility.yul\":4277:4432   */\n    tag_177:\n        /* \"#utility.yul\":4331:4336   */\n      0x00\n        /* \"#utility.yul\":4369:4375   */\n      dup2\n        /* \"#utility.yul\":4356:4376   */\n      calldataload\n        /* \"#utility.yul\":4347:4376   */\n      swap1\n      pop\n        /* \"#utility.yul\":4385:4426   */\n      tag_255\n        /* \"#utility.yul\":4420:4425   */\n      dup2\n        /* \"#utility.yul\":4385:4426   */\n      tag_176\n      jump\t// in\n    tag_255:\n        /* \"#utility.yul\":4277:4432   */\n      swap3\n      swap2\n      pop\n      pop\n      jump\t// out\n        /* \"#utility.yul\":4438:4783   */\n    tag_45:\n        /* \"#utility.yul\":4505:4511   */\n      0x00\n        /* \"#utility.yul\":4554:4556   */\n      0x20\n        /* \"#utility.yul\":4542:4551   */\n      dup3\n        /* \"#utility.yul\":4533:4540   */\n      dup5\n        /* \"#utility.yul\":4529:4552   */\n      sub\n        /* \"#utility.yul\":4525:4557   */\n      slt\n        /* \"#utility.yul\":4522:4641   */\n      iszero\n      tag_257\n      jumpi\n        /* \"#utility.yul\":4560:4639   */\n      tag_258\n      tag_163\n      jump\t// in\n    tag_258:\n        /* \"#utility.yul\":4522:4641   */\n    tag_257:\n        /* \"#utility.yul\":4680:4681   */\n      0x00\n        /* \"#utility.yul\":4705:4766   */\n      tag_259\n        /* \"#utility.yul\":4758:4765   */\n      dup5\n        /* \"#utility.yul\":4749:4755   */\n      dup3\n        /* \"#utility.yul\":4738:4747   */\n      dup6\n        /* \"#utility.yul\":4734:4756   */\n      add\n        /* \"#utility.yul\":4705:4766   */\n      tag_177\n      jump\t// in\n    tag_259:\n        /* \"#utility.yul\":4695:4766   */\n      swap2\n      pop\n        /* \"#utility.yul\":4651:4776   */\n      pop\n        /* \"#utility.yul\":4438:4783   */\n      swap3\n      swap2\n      pop\n      pop\n      jump\t// out\n        /* \"#utility.yul\":4789:4849   */\n    tag_178:\n        /* \"#utility.yul\":4817:4820   */\n      0x00\n        /* \"#utility.yul\":4838:4843   */\n      dup2\n        /* \"#utility.yul\":4831:4843   */\n      swap1\n      pop\n        /* \"#utility.yul\":4789:4849   */\n      swap2\n      swap1\n      pop\n      jump\t// out\n        /* \"#utility.yul\":4855:4997   */\n    tag_179:\n        /* \"#utility.yul\":4905:4914   */\n      0x00\n        /* \"#utility.yul\":4938:4991   */\n      tag_262\n        /* \"#utility.yul\":4956:4990   */\n      tag_263\n        /* \"#utility.yul\":4965:4989   */\n      tag_264\n        /* \"#utility.yul\":4983:4988   */\n      dup5\n        /* \"#utility.yul\":4965:4989   */\n      tag_159\n      jump\t// in\n    tag_264:\n        /* \"#utility.yul\":4956:4990   */\n      tag_178\n      jump\t// in\n    tag_263:\n        /* \"#utility.yul\":4938:4991   */\n      tag_159\n      jump\t// in\n    tag_262:\n        /* \"#utility.yul\":4925:4991   */\n      swap1\n      pop\n        /* \"#utility.yul\":4855:4997   */\n      swap2\n      swap1\n      pop\n      jump\t// out\n        /* \"#utility.yul\":5003:5129   */\n    tag_180:\n        /* \"#utility.yul\":5053:5062   */\n      0x00\n        /* \"#utility.yul\":5086:5123   */\n      tag_266\n        /* \"#utility.yul\":5117:5122   */\n      dup3\n        /* \"#utility.yul\":5086:5123   */\n      tag_179\n      jump\t// in\n    tag_266:\n        /* \"#utility.yul\":5073:5123   */\n      swap1\n      pop\n        /* \"#utility.yul\":5003:5129   */\n      swap2\n      swap1\n      pop\n      jump\t// out\n        /* \"#utility.yul\":5135:5276   */\n    tag_181:\n        /* \"#utility.yul\":5200:5209   */\n      0x00\n        /* \"#utility.yul\":5233:5270   */\n      tag_268\n        /* \"#utility.yul\":5264:5269   */\n      dup3\n        /* \"#utility.yul\":5233:5270   */\n      tag_180\n      jump\t// in\n    tag_268:\n        /* \"#utility.yul\":5220:5270   */\n      swap1\n      pop\n        /* \"#utility.yul\":5135:5276   */\n      swap2\n      swap1\n      pop\n      jump\t// out\n        /* \"#utility.yul\":5282:5443   */\n    tag_182:\n        /* \"#utility.yul\":5384:5436   */\n      tag_270\n        /* \"#utility.yul\":5430:5435   */\n      dup2\n        /* \"#utility.yul\":5384:5436   */\n      tag_181\n      jump\t// in\n    tag_270:\n        /* \"#utility.yul\":5379:5382   */\n      dup3\n        /* \"#utility.yul\":5372:5437   */\n      mstore\n        /* \"#utility.yul\":5282:5443   */\n      pop\n      pop\n      jump\t// out\n        /* \"#utility.yul\":5449:5701   */\n    tag_61:\n        /* \"#utility.yul\":5557:5561   */\n      0x00\n        /* \"#utility.yul\":5595:5597   */\n      0x20\n        /* \"#utility.yul\":5584:5593   */\n      dup3\n        /* \"#utility.yul\":5580:5598   */\n      add\n        /* \"#utility.yul\":5572:5598   */\n      swap1\n      pop\n        /* \"#utility.yul\":5608:5694   */\n      tag_272\n        /* \"#utility.yul\":5691:5692   */\n      0x00\n        /* \"#utility.yul\":5680:5689   */\n      dup4\n        /* \"#utility.yul\":5676:5693   */\n      add\n        /* \"#utility.yul\":5667:5673   */\n      dup5\n        /* \"#utility.yul\":5608:5694   */\n      tag_182\n      jump\t// in\n    tag_272:\n        /* \"#utility.yul\":5449:5701   */\n      swap3\n      swap2\n      pop\n      pop\n      jump\t// out\n        /* \"#utility.yul\":5707:5876   */\n    tag_183:\n        /* \"#utility.yul\":5791:5802   */\n      0x00\n        /* \"#utility.yul\":5825:5831   */\n      dup3\n        /* \"#utility.yul\":5820:5823   */\n      dup3\n        /* \"#utility.yul\":5813:5832   */\n      mstore\n        /* \"#utility.yul\":5865:5869   */\n      0x20\n        /* \"#utility.yul\":5860:5863   */\n      dup3\n        /* \"#utility.yul\":5856:5870   */\n      add\n        /* \"#utility.yul\":5841:5870   */\n      swap1\n      pop\n        /* \"#utility.yul\":5707:5876   */\n      swap3\n      swap2\n      pop\n      pop\n      jump\t// out\n        /* \"#utility.yul\":5882:6053   */\n    tag_184:\n        /* \"#utility.yul\":6022:6045   */\n      0x537562736372696265204f757220536572766963650000000000000000000000\n        /* \"#utility.yul\":6018:6019   */\n      0x00\n        /* \"#utility.yul\":6010:6016   */\n      dup3\n        /* \"#utility.yul\":6006:6020   */\n      add\n        /* \"#utility.yul\":5999:6046   */\n      mstore\n        /* \"#utility.yul\":5882:6053   */\n      pop\n      jump\t// out\n        /* \"#utility.yul\":6059:6425   */\n    tag_185:\n        /* \"#utility.yul\":6201:6204   */\n      0x00\n        /* \"#utility.yul\":6222:6289   */\n      tag_276\n        /* \"#utility.yul\":6286:6288   */\n      0x15\n        /* \"#utility.yul\":6281:6284   */\n      dup4\n        /* \"#utility.yul\":6222:6289   */\n      tag_183\n      jump\t// in\n    tag_276:\n        /* \"#utility.yul\":6215:6289   */\n      swap2\n      pop\n        /* \"#utility.yul\":6298:6391   */\n      tag_277\n        /* \"#utility.yul\":6387:6390   */\n      dup3\n        /* \"#utility.yul\":6298:6391   */\n      tag_184\n      jump\t// in\n    tag_277:\n        /* \"#utility.yul\":6416:6418   */\n      0x20\n        /* \"#utility.yul\":6411:6414   */\n      dup3\n        /* \"#utility.yul\":6407:6419   */\n      add\n        /* \"#utility.yul\":6400:6419   */\n      swap1\n      pop\n        /* \"#utility.yul\":6059:6425   */\n      swap2\n      swap1\n      pop\n      jump\t// out\n        /* \"#utility.yul\":6431:6850   */\n    tag_87:\n        /* \"#utility.yul\":6597:6601   */\n      0x00\n        /* \"#utility.yul\":6635:6637   */\n      0x20\n        /* \"#utility.yul\":6624:6633   */\n      dup3\n        /* \"#utility.yul\":6620:6638   */\n      add\n        /* \"#utility.yul\":6612:6638   */\n      swap1\n      pop\n        /* \"#utility.yul\":6684:6693   */\n      dup2\n        /* \"#utility.yul\":6678:6682   */\n      dup2\n        /* \"#utility.yul\":6674:6694   */\n      sub\n        /* \"#utility.yul\":6670:6671   */\n      0x00\n        /* \"#utility.yul\":6659:6668   */\n      dup4\n        /* \"#utility.yul\":6655:6672   */\n      add\n        /* \"#utility.yul\":6648:6695   */\n      mstore\n        /* \"#utility.yul\":6712:6843   */\n      tag_279\n        /* \"#utility.yul\":6838:6842   */\n      dup2\n        /* \"#utility.yul\":6712:6843   */\n      tag_185\n      jump\t// in\n    tag_279:\n        /* \"#utility.yul\":6704:6843   */\n      swap1\n      pop\n        /* \"#utility.yul\":6431:6850   */\n      swap2\n      swap1\n      pop\n      jump\t// out\n        /* \"#utility.yul\":6856:7298   */\n    tag_90:\n        /* \"#utility.yul\":7005:7009   */\n      0x00\n        /* \"#utility.yul\":7043:7045   */\n      0x60\n        /* \"#utility.yul\":7032:7041   */\n      dup3\n        /* \"#utility.yul\":7028:7046   */\n      add\n        /* \"#utility.yul\":7020:7046   */\n      swap1\n      pop\n        /* \"#utility.yul\":7056:7127   */\n      tag_281\n        /* \"#utility.yul\":7124:7125   */\n      0x00\n        /* \"#utility.yul\":7113:7122   */\n      dup4\n        /* \"#utility.yul\":7109:7126   */\n      add\n        /* \"#utility.yul\":7100:7106   */\n      dup7\n        /* \"#utility.yul\":7056:7127   */\n      tag_161\n      jump\t// in\n    tag_281:\n        /* \"#utility.yul\":7137:7209   */\n      tag_282\n        /* \"#utility.yul\":7205:7207   */\n      0x20\n        /* \"#utility.yul\":7194:7203   */\n      dup4\n        /* \"#utility.yul\":7190:7208   */\n      add\n        /* \"#utility.yul\":7181:7187   */\n      dup6\n        /* \"#utility.yul\":7137:7209   */\n      tag_161\n      jump\t// in\n    tag_282:\n        /* \"#utility.yul\":7219:7291   */\n      tag_283\n        /* \"#utility.yul\":7287:7289   */\n      0x40\n        /* \"#utility.yul\":7276:7285   */\n      dup4\n        /* \"#utility.yul\":7272:7290   */\n      add\n        /* \"#utility.yul\":7263:7269   */\n      dup5\n        /* \"#utility.yul\":7219:7291   */\n      tag_168\n      jump\t// in\n    tag_283:\n        /* \"#utility.yul\":6856:7298   */\n      swap5\n      swap4\n      pop\n      pop\n      pop\n      pop\n      jump\t// out\n        /* \"#utility.yul\":7304:7484   */\n    tag_186:\n        /* \"#utility.yul\":7352:7429   */\n      0x4e487b7100000000000000000000000000000000000000000000000000000000\n        /* \"#utility.yul\":7349:7350   */\n      0x00\n        /* \"#utility.yul\":7342:7430   */\n      mstore\n        /* \"#utility.yul\":7449:7453   */\n      0x11\n        /* \"#utility.yul\":7446:7447   */\n      0x04\n        /* \"#utility.yul\":7439:7454   */\n      mstore\n        /* \"#utility.yul\":7473:7477   */\n      0x24\n        /* \"#utility.yul\":7470:7471   */\n      0x00\n        /* \"#utility.yul\":7463:7478   */\n      revert\n        /* \"#utility.yul\":7490:7681   */\n    tag_99:\n        /* \"#utility.yul\":7530:7533   */\n      0x00\n        /* \"#utility.yul\":7549:7569   */\n      tag_286\n        /* \"#utility.yul\":7567:7568   */\n      dup3\n        /* \"#utility.yul\":7549:7569   */\n      tag_167\n      jump\t// in\n    tag_286:\n        /* \"#utility.yul\":7544:7569   */\n      swap2\n      pop\n        /* \"#utility.yul\":7583:7603   */\n      tag_287\n        /* \"#utility.yul\":7601:7602   */\n      dup4\n        /* \"#utility.yul\":7583:7603   */\n      tag_167\n      jump\t// in\n    tag_287:\n        /* \"#utility.yul\":7578:7603   */\n      swap3\n      pop\n        /* \"#utility.yul\":7626:7627   */\n      dup3\n        /* \"#utility.yul\":7623:7624   */\n      dup3\n        /* \"#utility.yul\":7619:7628   */\n      add\n        /* \"#utility.yul\":7612:7628   */\n      swap1\n      pop\n        /* \"#utility.yul\":7647:7650   */\n      dup1\n        /* \"#utility.yul\":7644:7645   */\n      dup3\n        /* \"#utility.yul\":7641:7651   */\n      gt\n        /* \"#utility.yul\":7638:7674   */\n      iszero\n      tag_288\n      jumpi\n        /* \"#utility.yul\":7654:7672   */\n      tag_289\n      tag_186\n      jump\t// in\n    tag_289:\n        /* \"#utility.yul\":7638:7674   */\n    tag_288:\n        /* \"#utility.yul\":7490:7681   */\n      swap3\n      swap2\n      pop\n      pop\n      jump\t// out\n        /* \"#utility.yul\":7687:7862   */\n    tag_187:\n        /* \"#utility.yul\":7827:7854   */\n      0x506c656173652063686172676520796f75722077616c6c657400000000000000\n        /* \"#utility.yul\":7823:7824   */\n      0x00\n        /* \"#utility.yul\":7815:7821   */\n      dup3\n        /* \"#utility.yul\":7811:7825   */\n      add\n        /* \"#utility.yul\":7804:7855   */\n      mstore\n        /* \"#utility.yul\":7687:7862   */\n      pop\n      jump\t// out\n        /* \"#utility.yul\":7868:8234   */\n    tag_188:\n        /* \"#utility.yul\":8010:8013   */\n      0x00\n        /* \"#utility.yul\":8031:8098   */\n      tag_292\n        /* \"#utility.yul\":8095:8097   */\n      0x19\n        /* \"#utility.yul\":8090:8093   */\n      dup4\n        /* \"#utility.yul\":8031:8098   */\n      tag_183\n      jump\t// in\n    tag_292:\n        /* \"#utility.yul\":8024:8098   */\n      swap2\n      pop\n        /* \"#utility.yul\":8107:8200   */\n      tag_293\n        /* \"#utility.yul\":8196:8199   */\n      dup3\n        /* \"#utility.yul\":8107:8200   */\n      tag_187\n      jump\t// in\n    tag_293:\n        /* \"#utility.yul\":8225:8227   */\n      0x20\n        /* \"#utility.yul\":8220:8223   */\n      dup3\n        /* \"#utility.yul\":8216:8228   */\n      add\n        /* \"#utility.yul\":8209:8228   */\n      swap1\n      pop\n        /* \"#utility.yul\":7868:8234   */\n      swap2\n      swap1\n      pop\n      jump\t// out\n        /* \"#utility.yul\":8240:8659   */\n    tag_108:\n        /* \"#utility.yul\":8406:8410   */\n      0x00\n        /* \"#utility.yul\":8444:8446   */\n      0x20\n        /* \"#utility.yul\":8433:8442   */\n      dup3\n        /* \"#utility.yul\":8429:8447   */\n      add\n        /* \"#utility.yul\":8421:8447   */\n      swap1\n      pop\n        /* \"#utility.yul\":8493:8502   */\n      dup2\n        /* \"#utility.yul\":8487:8491   */\n      dup2\n        /* \"#utility.yul\":8483:8503   */\n      sub\n        /* \"#utility.yul\":8479:8480   */\n      0x00\n        /* \"#utility.yul\":8468:8477   */\n      dup4\n        /* \"#utility.yul\":8464:8481   */\n      add\n        /* \"#utility.yul\":8457:8504   */\n      mstore\n        /* \"#utility.yul\":8521:8652   */\n      tag_295\n        /* \"#utility.yul\":8647:8651   */\n      dup2\n        /* \"#utility.yul\":8521:8652   */\n      tag_188\n      jump\t// in\n    tag_295:\n        /* \"#utility.yul\":8513:8652   */\n      swap1\n      pop\n        /* \"#utility.yul\":8240:8659   */\n      swap2\n      swap1\n      pop\n      jump\t// out\n        /* \"#utility.yul\":8665:8997   */\n    tag_110:\n        /* \"#utility.yul\":8786:8790   */\n      0x00\n        /* \"#utility.yul\":8824:8826   */\n      0x40\n        /* \"#utility.yul\":8813:8822   */\n      dup3\n        /* \"#utility.yul\":8809:8827   */\n      add\n        /* \"#utility.yul\":8801:8827   */\n      swap1\n      pop\n        /* \"#utility.yul\":8837:8908   */\n      tag_297\n        /* \"#utility.yul\":8905:8906   */\n      0x00\n        /* \"#utility.yul\":8894:8903   */\n      dup4\n        /* \"#utility.yul\":8890:8907   */\n      add\n        /* \"#utility.yul\":8881:8887   */\n      dup6\n        /* \"#utility.yul\":8837:8908   */\n      tag_161\n      jump\t// in\n    tag_297:\n        /* \"#utility.yul\":8918:8990   */\n      tag_298\n        /* \"#utility.yul\":8986:8988   */\n      0x20\n        /* \"#utility.yul\":8975:8984   */\n      dup4\n        /* \"#utility.yul\":8971:8989   */\n      add\n        /* \"#utility.yul\":8962:8968   */\n      dup5\n        /* \"#utility.yul\":8918:8990   */\n      tag_161\n      jump\t// in\n    tag_298:\n        /* \"#utility.yul\":8665:8997   */\n      swap4\n      swap3\n      pop\n      pop\n      pop\n      jump\t// out\n        /* \"#utility.yul\":9003:9140   */\n    tag_189:\n        /* \"#utility.yul\":9057:9062   */\n      0x00\n        /* \"#utility.yul\":9088:9094   */\n      dup2\n        /* \"#utility.yul\":9082:9095   */\n      mload\n        /* \"#utility.yul\":9073:9095   */\n      swap1\n      pop\n        /* \"#utility.yul\":9104:9134   */\n      tag_300\n        /* \"#utility.yul\":9128:9133   */\n      dup2\n        /* \"#utility.yul\":9104:9134   */\n      tag_173\n      jump\t// in\n    tag_300:\n        /* \"#utility.yul\":9003:9140   */\n      swap3\n      swap2\n      pop\n      pop\n      jump\t// out\n        /* \"#utility.yul\":9146:9491   */\n    tag_114:\n        /* \"#utility.yul\":9213:9219   */\n      0x00\n        /* \"#utility.yul\":9262:9264   */\n      0x20\n        /* \"#utility.yul\":9250:9259   */\n      dup3\n        /* \"#utility.yul\":9241:9248   */\n      dup5\n        /* \"#utility.yul\":9237:9260   */\n      sub\n        /* \"#utility.yul\":9233:9265   */\n      slt\n        /* \"#utility.yul\":9230:9349   */\n      iszero\n      tag_302\n      jumpi\n        /* \"#utility.yul\":9268:9347   */\n      tag_303\n      tag_163\n      jump\t// in\n    tag_303:\n        /* \"#utility.yul\":9230:9349   */\n    tag_302:\n        /* \"#utility.yul\":9388:9389   */\n      0x00\n        /* \"#utility.yul\":9413:9474   */\n      tag_304\n        /* \"#utility.yul\":9466:9473   */\n      dup5\n        /* \"#utility.yul\":9457:9463   */\n      dup3\n        /* \"#utility.yul\":9446:9455   */\n      dup6\n        /* \"#utility.yul\":9442:9464   */\n      add\n        /* \"#utility.yul\":9413:9474   */\n      tag_189\n      jump\t// in\n    tag_304:\n        /* \"#utility.yul\":9403:9474   */\n      swap2\n      pop\n        /* \"#utility.yul\":9359:9484   */\n      pop\n        /* \"#utility.yul\":9146:9491   */\n      swap3\n      swap2\n      pop\n      pop\n      jump\t// out\n        /* \"#utility.yul\":9497:9679   */\n    tag_190:\n        /* \"#utility.yul\":9637:9671   */\n      0x4f776e61626c653a2063616c6c6572206973206e6f7420746865206f776e6572\n        /* \"#utility.yul\":9633:9634   */\n      0x00\n        /* \"#utility.yul\":9625:9631   */\n      dup3\n        /* \"#utility.yul\":9621:9635   */\n      add\n        /* \"#utility.yul\":9614:9672   */\n      mstore\n        /* \"#utility.yul\":9497:9679   */\n      pop\n      jump\t// out\n        /* \"#utility.yul\":9685:10051   */\n    tag_191:\n        /* \"#utility.yul\":9827:9830   */\n      0x00\n        /* \"#utility.yul\":9848:9915   */\n      tag_307\n        /* \"#utility.yul\":9912:9914   */\n      0x20\n        /* \"#utility.yul\":9907:9910   */\n      dup4\n        /* \"#utility.yul\":9848:9915   */\n      tag_183\n      jump\t// in\n    tag_307:\n        /* \"#utility.yul\":9841:9915   */\n      swap2\n      pop\n        /* \"#utility.yul\":9924:10017   */\n      tag_308\n        /* \"#utility.yul\":10013:10016   */\n      dup3\n        /* \"#utility.yul\":9924:10017   */\n      tag_190\n      jump\t// in\n    tag_308:\n        /* \"#utility.yul\":10042:10044   */\n      0x20\n        /* \"#utility.yul\":10037:10040   */\n      dup3\n        /* \"#utility.yul\":10033:10045   */\n      add\n        /* \"#utility.yul\":10026:10045   */\n      swap1\n      pop\n        /* \"#utility.yul\":9685:10051   */\n      swap2\n      swap1\n      pop\n      jump\t// out\n        /* \"#utility.yul\":10057:10476   */\n    tag_126:\n        /* \"#utility.yul\":10223:10227   */\n      0x00\n        /* \"#utility.yul\":10261:10263   */\n      0x20\n        /* \"#utility.yul\":10250:10259   */\n      dup3\n        /* \"#utility.yul\":10246:10264   */\n      add\n        /* \"#utility.yul\":10238:10264   */\n      swap1\n      pop\n        /* \"#utility.yul\":10310:10319   */\n      dup2\n        /* \"#utility.yul\":10304:10308   */\n      dup2\n        /* \"#utility.yul\":10300:10320   */\n      sub\n        /* \"#utility.yul\":10296:10297   */\n      0x00\n        /* \"#utility.yul\":10285:10294   */\n      dup4\n        /* \"#utility.yul\":10281:10298   */\n      add\n        /* \"#utility.yul\":10274:10321   */\n      mstore\n        /* \"#utility.yul\":10338:10469   */\n      tag_310\n        /* \"#utility.yul\":10464:10468   */\n      dup2\n        /* \"#utility.yul\":10338:10469   */\n      tag_191\n      jump\t// in\n    tag_310:\n        /* \"#utility.yul\":10330:10469   */\n      swap1\n      pop\n        /* \"#utility.yul\":10057:10476   */\n      swap2\n      swap1\n      pop\n      jump\t// out\n        /* \"#utility.yul\":10482:10707   */\n    tag_192:\n        /* \"#utility.yul\":10622:10656   */\n      0x4f776e61626c653a206e6577206f776e657220697320746865207a65726f2061\n        /* \"#utility.yul\":10618:10619   */\n      0x00\n        /* \"#utility.yul\":10610:10616   */\n      dup3\n        /* \"#utility.yul\":10606:10620   */\n      add\n        /* \"#utility.yul\":10599:10657   */\n      mstore\n        /* \"#utility.yul\":10691:10699   */\n      0x6464726573730000000000000000000000000000000000000000000000000000\n        /* \"#utility.yul\":10686:10688   */\n      0x20\n        /* \"#utility.yul\":10678:10684   */\n      dup3\n        /* \"#utility.yul\":10674:10689   */\n      add\n        /* \"#utility.yul\":10667:10700   */\n      mstore\n        /* \"#utility.yul\":10482:10707   */\n      pop\n      jump\t// out\n        /* \"#utility.yul\":10713:11079   */\n    tag_193:\n        /* \"#utility.yul\":10855:10858   */\n      0x00\n        /* \"#utility.yul\":10876:10943   */\n      tag_313\n        /* \"#utility.yul\":10940:10942   */\n      0x26\n        /* \"#utility.yul\":10935:10938   */\n      dup4\n        /* \"#utility.yul\":10876:10943   */\n      tag_183\n      jump\t// in\n    tag_313:\n        /* \"#utility.yul\":10869:10943   */\n      swap2\n      pop\n        /* \"#utility.yul\":10952:11045   */\n      tag_314\n        /* \"#utility.yul\":11041:11044   */\n      dup3\n        /* \"#utility.yul\":10952:11045   */\n      tag_192\n      jump\t// in\n    tag_314:\n        /* \"#utility.yul\":11070:11072   */\n      0x40\n        /* \"#utility.yul\":11065:11068   */\n      dup3\n        /* \"#utility.yul\":11061:11073   */\n      add\n        /* \"#utility.yul\":11054:11073   */\n      swap1\n      pop\n        /* \"#utility.yul\":10713:11079   */\n      swap2\n      swap1\n      pop\n      jump\t// out\n        /* \"#utility.yul\":11085:11504   */\n    tag_147:\n        /* \"#utility.yul\":11251:11255   */\n      0x00\n        /* \"#utility.yul\":11289:11291   */\n      0x20\n        /* \"#utility.yul\":11278:11287   */\n      dup3\n        /* \"#utility.yul\":11274:11292   */\n      add\n        /* \"#utility.yul\":11266:11292   */\n      swap1\n      pop\n        /* \"#utility.yul\":11338:11347   */\n      dup2\n        /* \"#utility.yul\":11332:11336   */\n      dup2\n        /* \"#utility.yul\":11328:11348   */\n      sub\n        /* \"#utility.yul\":11324:11325   */\n      0x00\n        /* \"#utility.yul\":11313:11322   */\n      dup4\n        /* \"#utility.yul\":11309:11326   */\n      add\n        /* \"#utility.yul\":11302:11349   */\n      mstore\n        /* \"#utility.yul\":11366:11497   */\n      tag_316\n        /* \"#utility.yul\":11492:11496   */\n      dup2\n        /* \"#utility.yul\":11366:11497   */\n      tag_193\n      jump\t// in\n    tag_316:\n        /* \"#utility.yul\":11358:11497   */\n      swap1\n      pop\n        /* \"#utility.yul\":11085:11504   */\n      swap2\n      swap1\n      pop\n      jump\t// out\n        /* \"#utility.yul\":11510:11690   */\n    tag_194:\n        /* \"#utility.yul\":11650:11682   */\n      0x7472616e736665722066726f6d20746865207a65726f20616464726573730000\n        /* \"#utility.yul\":11646:11647   */\n      0x00\n        /* \"#utility.yul\":11638:11644   */\n      dup3\n        /* \"#utility.yul\":11634:11648   */\n      add\n        /* \"#utility.yul\":11627:11683   */\n      mstore\n        /* \"#utility.yul\":11510:11690   */\n      pop\n      jump\t// out\n        /* \"#utility.yul\":11696:12062   */\n    tag_195:\n        /* \"#utility.yul\":11838:11841   */\n      0x00\n        /* \"#utility.yul\":11859:11926   */\n      tag_319\n        /* \"#utility.yul\":11923:11925   */\n      0x1e\n        /* \"#utility.yul\":11918:11921   */\n      dup4\n        /* \"#utility.yul\":11859:11926   */\n      tag_183\n      jump\t// in\n    tag_319:\n        /* \"#utility.yul\":11852:11926   */\n      swap2\n      pop\n        /* \"#utility.yul\":11935:12028   */\n      tag_320\n        /* \"#utility.yul\":12024:12027   */\n      dup3\n        /* \"#utility.yul\":11935:12028   */\n      tag_194\n      jump\t// in\n    tag_320:\n        /* \"#utility.yul\":12053:12055   */\n      0x20\n        /* \"#utility.yul\":12048:12051   */\n      dup3\n        /* \"#utility.yul\":12044:12056   */\n      add\n        /* \"#utility.yul\":12037:12056   */\n      swap1\n      pop\n        /* \"#utility.yul\":11696:12062   */\n      swap2\n      swap1\n      pop\n      jump\t// out\n        /* \"#utility.yul\":12068:12487   */\n    tag_152:\n        /* \"#utility.yul\":12234:12238   */\n      0x00\n        /* \"#utility.yul\":12272:12274   */\n      0x20\n        /* \"#utility.yul\":12261:12270   */\n      dup3\n        /* \"#utility.yul\":12257:12275   */\n      add\n        /* \"#utility.yul\":12249:12275   */\n      swap1\n      pop\n        /* \"#utility.yul\":12321:12330   */\n      dup2\n        /* \"#utility.yul\":12315:12319   */\n      dup2\n        /* \"#utility.yul\":12311:12331   */\n      sub\n        /* \"#utility.yul\":12307:12308   */\n      0x00\n        /* \"#utility.yul\":12296:12305   */\n      dup4\n        /* \"#utility.yul\":12292:12309   */\n      add\n        /* \"#utility.yul\":12285:12332   */\n      mstore\n        /* \"#utility.yul\":12349:12480   */\n      tag_322\n        /* \"#utility.yul\":12475:12479   */\n      dup2\n        /* \"#utility.yul\":12349:12480   */\n      tag_195\n      jump\t// in\n    tag_322:\n        /* \"#utility.yul\":12341:12480   */\n      swap1\n      pop\n        /* \"#utility.yul\":12068:12487   */\n      swap2\n      swap1\n      pop\n      jump\t// out\n        /* \"#utility.yul\":12493:12671   */\n    tag_196:\n        /* \"#utility.yul\":12633:12663   */\n      0x7472616e7366657220746f20746865207a65726f206164647265737300000000\n        /* \"#utility.yul\":12629:12630   */\n      0x00\n        /* \"#utility.yul\":12621:12627   */\n      dup3\n        /* \"#utility.yul\":12617:12631   */\n      add\n        /* \"#utility.yul\":12610:12664   */\n      mstore\n        /* \"#utility.yul\":12493:12671   */\n      pop\n      jump\t// out\n        /* \"#utility.yul\":12677:13043   */\n    tag_197:\n        /* \"#utility.yul\":12819:12822   */\n      0x00\n        /* \"#utility.yul\":12840:12907   */\n      tag_325\n        /* \"#utility.yul\":12904:12906   */\n      0x1c\n        /* \"#utility.yul\":12899:12902   */\n      dup4\n        /* \"#utility.yul\":12840:12907   */\n      tag_183\n      jump\t// in\n    tag_325:\n        /* \"#utility.yul\":12833:12907   */\n      swap2\n      pop\n        /* \"#utility.yul\":12916:13009   */\n      tag_326\n        /* \"#utility.yul\":13005:13008   */\n      dup3\n        /* \"#utility.yul\":12916:13009   */\n      tag_196\n      jump\t// in\n    tag_326:\n        /* \"#utility.yul\":13034:13036   */\n      0x20\n        /* \"#utility.yul\":13029:13032   */\n      dup3\n        /* \"#utility.yul\":13025:13037   */\n      add\n        /* \"#utility.yul\":13018:13037   */\n      swap1\n      pop\n        /* \"#utility.yul\":12677:13043   */\n      swap2\n      swap1\n      pop\n      jump\t// out\n        /* \"#utility.yul\":13049:13468   */\n    tag_155:\n        /* \"#utility.yul\":13215:13219   */\n      0x00\n        /* \"#utility.yul\":13253:13255   */\n      0x20\n        /* \"#utility.yul\":13242:13251   */\n      dup3\n        /* \"#utility.yul\":13238:13256   */\n      add\n        /* \"#utility.yul\":13230:13256   */\n      swap1\n      pop\n        /* \"#utility.yul\":13302:13311   */\n      dup2\n        /* \"#utility.yul\":13296:13300   */\n      dup2\n        /* \"#utility.yul\":13292:13312   */\n      sub\n        /* \"#utility.yul\":13288:13289   */\n      0x00\n        /* \"#utility.yul\":13277:13286   */\n      dup4\n        /* \"#utility.yul\":13273:13290   */\n      add\n        /* \"#utility.yul\":13266:13313   */\n      mstore\n        /* \"#utility.yul\":13330:13461   */\n      tag_328\n        /* \"#utility.yul\":13456:13460   */\n      dup2\n        /* \"#utility.yul\":13330:13461   */\n      tag_197\n      jump\t// in\n    tag_328:\n        /* \"#utility.yul\":13322:13461   */\n      swap1\n      pop\n        /* \"#utility.yul\":13049:13468   */\n      swap2\n      swap1\n      pop\n      jump\t// out\n\n    auxdata: 0xa26469706673582212203800d50434999825c38e0425cb23743cd99b2b3e974e101462cb0650fcce590364736f6c63430008100033\n}\n",
				"bytecode": {
					"linkReferences": {},
					"object": "6080604052670de0b6b3a764000060065534801561001c57600080fd5b5061003961002e61003e60201b60201c565b61004660201b60201c565b61010a565b600033905090565b60008060009054906101000a900473ffffffffffffffffffffffffffffffffffffffff169050816000806101000a81548173ffffffffffffffffffffffffffffffffffffffff021916908373ffffffffffffffffffffffffffffffffffffffff1602179055508173ffffffffffffffffffffffffffffffffffffffff168173ffffffffffffffffffffffffffffffffffffffff167f8be0079c531659141344cd1fd0a4f28419497f9722a3daafe3b4186f6b6457e060405160405180910390a35050565b6113bc806101196000396000f3fe6080604052600436106100dd5760003560e01c80638da5cb5b1161007f578063d028fa0c11610059578063d028fa0c14610280578063d353c0b7146102bd578063e11d48b1146102fa578063f2fde38b14610323576100dd565b80638da5cb5b146101ff578063b5d7df971461022a578063befa2fc614610255576100dd565b80632b6fb5ba116100bb5780632b6fb5ba146101875780633a75b3ce146101b057806341a7726a146101cc578063715018a6146101e8576100dd565b8063141a8dd8146100e2578063159cfa6c1461010d57806323b872dd1461014a575b600080fd5b3480156100ee57600080fd5b506100f761034c565b6040516101049190610d0f565b60405180910390f35b34801561011957600080fd5b50610134600480360381019061012f9190610d5b565b610372565b6040516101419190610da1565b60405180910390f35b34801561015657600080fd5b50610171600480360381019061016c9190610de8565b610410565b60405161017e9190610e56565b60405180910390f35b34801561019357600080fd5b506101ae60048036038101906101a99190610e9d565b6104db565b005b6101ca60048036038101906101c59190610f1b565b610536565b005b6101e660048036038101906101e19190610f1b565b6105ae565b005b3480156101f457600080fd5b506101fd610801565b005b34801561020b57600080fd5b50610214610889565b6040516102219190610d0f565b60405180910390f35b34801561023657600080fd5b5061023f6108b2565b60405161024c9190610fa7565b60405180910390f35b34801561026157600080fd5b5061026a6108d8565b6040516102779190610da1565b60405180910390f35b34801561028c57600080fd5b506102a760048036038101906102a29190610d5b565b6108de565b6040516102b49190610da1565b60405180910390f35b3480156102c957600080fd5b506102e460048036038101906102df9190610d5b565b61097c565b6040516102f19190610e56565b60405180910390f35b34801561030657600080fd5b50610321600480360381019061031c9190610f1b565b61099c565b005b34801561032f57600080fd5b5061034a60048036038101906103459190610d5b565b6109c3565b005b600560009054906101000a900473ffffffffffffffffffffffffffffffffffffffff1681565b6000801515600760008473ffffffffffffffffffffffffffffffffffffffff1673ffffffffffffffffffffffffffffffffffffffff16815260200190815260200160002060009054906101000a900460ff16151503610406576040517f08c379a00000000000000000000000000000000000000000000000000000000081526004016103fd9061101f565b60405180910390fd5b6002549050919050565b6000600160009054906101000a900473ffffffffffffffffffffffffffffffffffffffff1673ffffffffffffffffffffffffffffffffffffffff1663dd8aaa4f85600560009054906101000a900473ffffffffffffffffffffffffffffffffffffffff16856040518463ffffffff1660e01b81526004016104939392919061103f565b600060405180830381600087803b1580156104ad57600080fd5b505af11580156104c1573d6000803e3d6000fd5b505050506104d0848484610aba565b600190509392505050565b80600760008473ffffffffffffffffffffffffffffffffffffffff1673ffffffffffffffffffffffffffffffffffffffff16815260200190815260200160002060006101000a81548160ff0219169083151502179055505050565b60006006549050603c60035461054c91906110a5565b42111561055857600080fd5b3373ffffffffffffffffffffffffffffffffffffffff166108fc829081150290604051600060405180830381858888f1935050505015801561059e573d6000803e3d6000fd5b506105aa8260006104db565b5050565b80600460006101000a81548173ffffffffffffffffffffffffffffffffffffffff021916908373ffffffffffffffffffffffffffffffffffffffff16021790555030600560006101000a81548173ffffffffffffffffffffffffffffffffffffffff021916908373ffffffffffffffffffffffffffffffffffffffff16021790555061063b3360016104db565b600654341015610680576040517f08c379a000000000000000000000000000000000000000000000000000000000815260040161067790611125565b60405180910390fd5b600160009054906101000a900473ffffffffffffffffffffffffffffffffffffffff1673ffffffffffffffffffffffffffffffffffffffff1663e985e9c533600560009054906101000a900473ffffffffffffffffffffffffffffffffffffffff166040518363ffffffff1660e01b81526004016106ff929190611145565b602060405180830381865afa15801561071c573d6000803e3d6000fd5b505050506040513d601f19601f820116820180604052508101906107409190611183565b61074957600080fd5b3373ffffffffffffffffffffffffffffffffffffffff166108fc349081150290604051600060405180830381858888f1935050505015801561078f573d6000803e3d6000fd5b506107e1600560009054906101000a900473ffffffffffffffffffffffffffffffffffffffff16600460009054906101000a900473ffffffffffffffffffffffffffffffffffffffff16600654610410565b5042600281905550603c6002546107f891906110a5565b60038190555050565b610809610c02565b73ffffffffffffffffffffffffffffffffffffffff16610827610889565b73ffffffffffffffffffffffffffffffffffffffff161461087d576040517f08c379a0000000000000000000000000000000000000000000000000000000008152600401610874906111fc565b60405180910390fd5b6108876000610c0a565b565b60008060009054906101000a900473ffffffffffffffffffffffffffffffffffffffff16905090565b600160009054906101000a900473ffffffffffffffffffffffffffffffffffffffff1681565b60065481565b6000801515600760008473ffffffffffffffffffffffffffffffffffffffff1673ffffffffffffffffffffffffffffffffffffffff16815260200190815260200160002060009054906101000a900460ff16151503610972576040517f08c379a00000000000000000000000000000000000000000000000000000000081526004016109699061101f565b60405180910390fd5b6003549050919050565b60076020528060005260406000206000915054906101000a900460ff1681565b6003544210156109b6576109b18160006104db565b6109c0565b6109bf81610536565b5b50565b6109cb610c02565b73ffffffffffffffffffffffffffffffffffffffff166109e9610889565b73ffffffffffffffffffffffffffffffffffffffff1614610a3f576040517f08c379a0000000000000000000000000000000000000000000000000000000008152600401610a36906111fc565b60405180910390fd5b600073ffffffffffffffffffffffffffffffffffffffff168173ffffffffffffffffffffffffffffffffffffffff1603610aae576040517f08c379a0000000000000000000000000000000000000000000000000000000008152600401610aa59061128e565b60405180910390fd5b610ab781610c0a565b50565b600073ffffffffffffffffffffffffffffffffffffffff168373ffffffffffffffffffffffffffffffffffffffff1603610b29576040517f08c379a0000000000000000000000000000000000000000000000000000000008152600401610b20906112fa565b60405180910390fd5b600073ffffffffffffffffffffffffffffffffffffffff168273ffffffffffffffffffffffffffffffffffffffff1603610b98576040517f08c379a0000000000000000000000000000000000000000000000000000000008152600401610b8f90611366565b60405180910390fd5b8173ffffffffffffffffffffffffffffffffffffffff168373ffffffffffffffffffffffffffffffffffffffff167fddf252ad1be2c89b69c2b068fc378daa952ba7f163c4a11628f55a4df523b3ef83604051610bf59190610da1565b60405180910390a3505050565b600033905090565b60008060009054906101000a900473ffffffffffffffffffffffffffffffffffffffff169050816000806101000a81548173ffffffffffffffffffffffffffffffffffffffff021916908373ffffffffffffffffffffffffffffffffffffffff1602179055508173ffffffffffffffffffffffffffffffffffffffff168173ffffffffffffffffffffffffffffffffffffffff167f8be0079c531659141344cd1fd0a4f28419497f9722a3daafe3b4186f6b6457e060405160405180910390a35050565b600073ffffffffffffffffffffffffffffffffffffffff82169050919050565b6000610cf982610cce565b9050919050565b610d0981610cee565b82525050565b6000602082019050610d246000830184610d00565b92915050565b600080fd5b610d3881610cee565b8114610d4357600080fd5b50565b600081359050610d5581610d2f565b92915050565b600060208284031215610d7157610d70610d2a565b5b6000610d7f84828501610d46565b91505092915050565b6000819050919050565b610d9b81610d88565b82525050565b6000602082019050610db66000830184610d92565b92915050565b610dc581610d88565b8114610dd057600080fd5b50565b600081359050610de281610dbc565b92915050565b600080600060608486031215610e0157610e00610d2a565b5b6000610e0f86828701610d46565b9350506020610e2086828701610d46565b9250506040610e3186828701610dd3565b9150509250925092565b60008115159050919050565b610e5081610e3b565b82525050565b6000602082019050610e6b6000830184610e47565b92915050565b610e7a81610e3b565b8114610e8557600080fd5b50565b600081359050610e9781610e71565b92915050565b60008060408385031215610eb457610eb3610d2a565b5b6000610ec285828601610d46565b9250506020610ed385828601610e88565b9150509250929050565b6000610ee882610cce565b9050919050565b610ef881610edd565b8114610f0357600080fd5b50565b600081359050610f1581610eef565b92915050565b600060208284031215610f3157610f30610d2a565b5b6000610f3f84828501610f06565b91505092915050565b6000819050919050565b6000610f6d610f68610f6384610cce565b610f48565b610cce565b9050919050565b6000610f7f82610f52565b9050919050565b6000610f9182610f74565b9050919050565b610fa181610f86565b82525050565b6000602082019050610fbc6000830184610f98565b92915050565b600082825260208201905092915050565b7f537562736372696265204f757220536572766963650000000000000000000000600082015250565b6000611009601583610fc2565b915061101482610fd3565b602082019050919050565b6000602082019050818103600083015261103881610ffc565b9050919050565b60006060820190506110546000830186610d00565b6110616020830185610d00565b61106e6040830184610d92565b949350505050565b7f4e487b7100000000000000000000000000000000000000000000000000000000600052601160045260246000fd5b60006110b082610d88565b91506110bb83610d88565b92508282019050808211156110d3576110d2611076565b5b92915050565b7f506c656173652063686172676520796f75722077616c6c657400000000000000600082015250565b600061110f601983610fc2565b915061111a826110d9565b602082019050919050565b6000602082019050818103600083015261113e81611102565b9050919050565b600060408201905061115a6000830185610d00565b6111676020830184610d00565b9392505050565b60008151905061117d81610e71565b92915050565b60006020828403121561119957611198610d2a565b5b60006111a78482850161116e565b91505092915050565b7f4f776e61626c653a2063616c6c6572206973206e6f7420746865206f776e6572600082015250565b60006111e6602083610fc2565b91506111f1826111b0565b602082019050919050565b60006020820190508181036000830152611215816111d9565b9050919050565b7f4f776e61626c653a206e6577206f776e657220697320746865207a65726f206160008201527f6464726573730000000000000000000000000000000000000000000000000000602082015250565b6000611278602683610fc2565b91506112838261121c565b604082019050919050565b600060208201905081810360008301526112a78161126b565b9050919050565b7f7472616e736665722066726f6d20746865207a65726f20616464726573730000600082015250565b60006112e4601e83610fc2565b91506112ef826112ae565b602082019050919050565b60006020820190508181036000830152611313816112d7565b9050919050565b7f7472616e7366657220746f20746865207a65726f206164647265737300000000600082015250565b6000611350601c83610fc2565b915061135b8261131a565b602082019050919050565b6000602082019050818103600083015261137f81611343565b905091905056fea26469706673582212203800d50434999825c38e0425cb23743cd99b2b3e974e101462cb0650fcce590364736f6c63430008100033",
					"opcodes": "PUSH1 0x80 PUSH1 0x40 MSTORE PUSH8 0xDE0B6B3A7640000 PUSH1 0x6 SSTORE CALLVALUE DUP1 ISZERO PUSH2 0x1C JUMPI PUSH1 0x0 DUP1 REVERT JUMPDEST POP PUSH2 0x39 PUSH2 0x2E PUSH2 0x3E PUSH1 0x20 SHL PUSH1 0x20 SHR JUMP JUMPDEST PUSH2 0x46 PUSH1 0x20 SHL PUSH1 0x20 SHR JUMP JUMPDEST PUSH2 0x10A JUMP JUMPDEST PUSH1 0x0 CALLER SWAP1 POP SWAP1 JUMP JUMPDEST PUSH1 0x0 DUP1 PUSH1 0x0 SWAP1 SLOAD SWAP1 PUSH2 0x100 EXP SWAP1 DIV PUSH20 0xFFFFFFFFFFFFFFFFFFFFFFFFFFFFFFFFFFFFFFFF AND SWAP1 POP DUP2 PUSH1 0x0 DUP1 PUSH2 0x100 EXP DUP2 SLOAD DUP2 PUSH20 0xFFFFFFFFFFFFFFFFFFFFFFFFFFFFFFFFFFFFFFFF MUL NOT AND SWAP1 DUP4 PUSH20 0xFFFFFFFFFFFFFFFFFFFFFFFFFFFFFFFFFFFFFFFF AND MUL OR SWAP1 SSTORE POP DUP2 PUSH20 0xFFFFFFFFFFFFFFFFFFFFFFFFFFFFFFFFFFFFFFFF AND DUP2 PUSH20 0xFFFFFFFFFFFFFFFFFFFFFFFFFFFFFFFFFFFFFFFF AND PUSH32 0x8BE0079C531659141344CD1FD0A4F28419497F9722A3DAAFE3B4186F6B6457E0 PUSH1 0x40 MLOAD PUSH1 0x40 MLOAD DUP1 SWAP2 SUB SWAP1 LOG3 POP POP JUMP JUMPDEST PUSH2 0x13BC DUP1 PUSH2 0x119 PUSH1 0x0 CODECOPY PUSH1 0x0 RETURN INVALID PUSH1 0x80 PUSH1 0x40 MSTORE PUSH1 0x4 CALLDATASIZE LT PUSH2 0xDD JUMPI PUSH1 0x0 CALLDATALOAD PUSH1 0xE0 SHR DUP1 PUSH4 0x8DA5CB5B GT PUSH2 0x7F JUMPI DUP1 PUSH4 0xD028FA0C GT PUSH2 0x59 JUMPI DUP1 PUSH4 0xD028FA0C EQ PUSH2 0x280 JUMPI DUP1 PUSH4 0xD353C0B7 EQ PUSH2 0x2BD JUMPI DUP1 PUSH4 0xE11D48B1 EQ PUSH2 0x2FA JUMPI DUP1 PUSH4 0xF2FDE38B EQ PUSH2 0x323 JUMPI PUSH2 0xDD JUMP JUMPDEST DUP1 PUSH4 0x8DA5CB5B EQ PUSH2 0x1FF JUMPI DUP1 PUSH4 0xB5D7DF97 EQ PUSH2 0x22A JUMPI DUP1 PUSH4 0xBEFA2FC6 EQ PUSH2 0x255 JUMPI PUSH2 0xDD JUMP JUMPDEST DUP1 PUSH4 0x2B6FB5BA GT PUSH2 0xBB JUMPI DUP1 PUSH4 0x2B6FB5BA EQ PUSH2 0x187 JUMPI DUP1 PUSH4 0x3A75B3CE EQ PUSH2 0x1B0 JUMPI DUP1 PUSH4 0x41A7726A EQ PUSH2 0x1CC JUMPI DUP1 PUSH4 0x715018A6 EQ PUSH2 0x1E8 JUMPI PUSH2 0xDD JUMP JUMPDEST DUP1 PUSH4 0x141A8DD8 EQ PUSH2 0xE2 JUMPI DUP1 PUSH4 0x159CFA6C EQ PUSH2 0x10D JUMPI DUP1 PUSH4 0x23B872DD EQ PUSH2 0x14A JUMPI JUMPDEST PUSH1 0x0 DUP1 REVERT JUMPDEST CALLVALUE DUP1 ISZERO PUSH2 0xEE JUMPI PUSH1 0x0 DUP1 REVERT JUMPDEST POP PUSH2 0xF7 PUSH2 0x34C JUMP JUMPDEST PUSH1 0x40 MLOAD PUSH2 0x104 SWAP2 SWAP1 PUSH2 0xD0F JUMP JUMPDEST PUSH1 0x40 MLOAD DUP1 SWAP2 SUB SWAP1 RETURN JUMPDEST CALLVALUE DUP1 ISZERO PUSH2 0x119 JUMPI PUSH1 0x0 DUP1 REVERT JUMPDEST POP PUSH2 0x134 PUSH1 0x4 DUP1 CALLDATASIZE SUB DUP2 ADD SWAP1 PUSH2 0x12F SWAP2 SWAP1 PUSH2 0xD5B JUMP JUMPDEST PUSH2 0x372 JUMP JUMPDEST PUSH1 0x40 MLOAD PUSH2 0x141 SWAP2 SWAP1 PUSH2 0xDA1 JUMP JUMPDEST PUSH1 0x40 MLOAD DUP1 SWAP2 SUB SWAP1 RETURN JUMPDEST CALLVALUE DUP1 ISZERO PUSH2 0x156 JUMPI PUSH1 0x0 DUP1 REVERT JUMPDEST POP PUSH2 0x171 PUSH1 0x4 DUP1 CALLDATASIZE SUB DUP2 ADD SWAP1 PUSH2 0x16C SWAP2 SWAP1 PUSH2 0xDE8 JUMP JUMPDEST PUSH2 0x410 JUMP JUMPDEST PUSH1 0x40 MLOAD PUSH2 0x17E SWAP2 SWAP1 PUSH2 0xE56 JUMP JUMPDEST PUSH1 0x40 MLOAD DUP1 SWAP2 SUB SWAP1 RETURN JUMPDEST CALLVALUE DUP1 ISZERO PUSH2 0x193 JUMPI PUSH1 0x0 DUP1 REVERT JUMPDEST POP PUSH2 0x1AE PUSH1 0x4 DUP1 CALLDATASIZE SUB DUP2 ADD SWAP1 PUSH2 0x1A9 SWAP2 SWAP1 PUSH2 0xE9D JUMP JUMPDEST PUSH2 0x4DB JUMP JUMPDEST STOP JUMPDEST PUSH2 0x1CA PUSH1 0x4 DUP1 CALLDATASIZE SUB DUP2 ADD SWAP1 PUSH2 0x1C5 SWAP2 SWAP1 PUSH2 0xF1B JUMP JUMPDEST PUSH2 0x536 JUMP JUMPDEST STOP JUMPDEST PUSH2 0x1E6 PUSH1 0x4 DUP1 CALLDATASIZE SUB DUP2 ADD SWAP1 PUSH2 0x1E1 SWAP2 SWAP1 PUSH2 0xF1B JUMP JUMPDEST PUSH2 0x5AE JUMP JUMPDEST STOP JUMPDEST CALLVALUE DUP1 ISZERO PUSH2 0x1F4 JUMPI PUSH1 0x0 DUP1 REVERT JUMPDEST POP PUSH2 0x1FD PUSH2 0x801 JUMP JUMPDEST STOP JUMPDEST CALLVALUE DUP1 ISZERO PUSH2 0x20B JUMPI PUSH1 0x0 DUP1 REVERT JUMPDEST POP PUSH2 0x214 PUSH2 0x889 JUMP JUMPDEST PUSH1 0x40 MLOAD PUSH2 0x221 SWAP2 SWAP1 PUSH2 0xD0F JUMP JUMPDEST PUSH1 0x40 MLOAD DUP1 SWAP2 SUB SWAP1 RETURN JUMPDEST CALLVALUE DUP1 ISZERO PUSH2 0x236 JUMPI PUSH1 0x0 DUP1 REVERT JUMPDEST POP PUSH2 0x23F PUSH2 0x8B2 JUMP JUMPDEST PUSH1 0x40 MLOAD PUSH2 0x24C SWAP2 SWAP1 PUSH2 0xFA7 JUMP JUMPDEST PUSH1 0x40 MLOAD DUP1 SWAP2 SUB SWAP1 RETURN JUMPDEST CALLVALUE DUP1 ISZERO PUSH2 0x261 JUMPI PUSH1 0x0 DUP1 REVERT JUMPDEST POP PUSH2 0x26A PUSH2 0x8D8 JUMP JUMPDEST PUSH1 0x40 MLOAD PUSH2 0x277 SWAP2 SWAP1 PUSH2 0xDA1 JUMP JUMPDEST PUSH1 0x40 MLOAD DUP1 SWAP2 SUB SWAP1 RETURN JUMPDEST CALLVALUE DUP1 ISZERO PUSH2 0x28C JUMPI PUSH1 0x0 DUP1 REVERT JUMPDEST POP PUSH2 0x2A7 PUSH1 0x4 DUP1 CALLDATASIZE SUB DUP2 ADD SWAP1 PUSH2 0x2A2 SWAP2 SWAP1 PUSH2 0xD5B JUMP JUMPDEST PUSH2 0x8DE JUMP JUMPDEST PUSH1 0x40 MLOAD PUSH2 0x2B4 SWAP2 SWAP1 PUSH2 0xDA1 JUMP JUMPDEST PUSH1 0x40 MLOAD DUP1 SWAP2 SUB SWAP1 RETURN JUMPDEST CALLVALUE DUP1 ISZERO PUSH2 0x2C9 JUMPI PUSH1 0x0 DUP1 REVERT JUMPDEST POP PUSH2 0x2E4 PUSH1 0x4 DUP1 CALLDATASIZE SUB DUP2 ADD SWAP1 PUSH2 0x2DF SWAP2 SWAP1 PUSH2 0xD5B JUMP JUMPDEST PUSH2 0x97C JUMP JUMPDEST PUSH1 0x40 MLOAD PUSH2 0x2F1 SWAP2 SWAP1 PUSH2 0xE56 JUMP JUMPDEST PUSH1 0x40 MLOAD DUP1 SWAP2 SUB SWAP1 RETURN JUMPDEST CALLVALUE DUP1 ISZERO PUSH2 0x306 JUMPI PUSH1 0x0 DUP1 REVERT JUMPDEST POP PUSH2 0x321 PUSH1 0x4 DUP1 CALLDATASIZE SUB DUP2 ADD SWAP1 PUSH2 0x31C SWAP2 SWAP1 PUSH2 0xF1B JUMP JUMPDEST PUSH2 0x99C JUMP JUMPDEST STOP JUMPDEST CALLVALUE DUP1 ISZERO PUSH2 0x32F JUMPI PUSH1 0x0 DUP1 REVERT JUMPDEST POP PUSH2 0x34A PUSH1 0x4 DUP1 CALLDATASIZE SUB DUP2 ADD SWAP1 PUSH2 0x345 SWAP2 SWAP1 PUSH2 0xD5B JUMP JUMPDEST PUSH2 0x9C3 JUMP JUMPDEST STOP JUMPDEST PUSH1 0x5 PUSH1 0x0 SWAP1 SLOAD SWAP1 PUSH2 0x100 EXP SWAP1 DIV PUSH20 0xFFFFFFFFFFFFFFFFFFFFFFFFFFFFFFFFFFFFFFFF AND DUP2 JUMP JUMPDEST PUSH1 0x0 DUP1 ISZERO ISZERO PUSH1 0x7 PUSH1 0x0 DUP5 PUSH20 0xFFFFFFFFFFFFFFFFFFFFFFFFFFFFFFFFFFFFFFFF AND PUSH20 0xFFFFFFFFFFFFFFFFFFFFFFFFFFFFFFFFFFFFFFFF AND DUP2 MSTORE PUSH1 0x20 ADD SWAP1 DUP2 MSTORE PUSH1 0x20 ADD PUSH1 0x0 KECCAK256 PUSH1 0x0 SWAP1 SLOAD SWAP1 PUSH2 0x100 EXP SWAP1 DIV PUSH1 0xFF AND ISZERO ISZERO SUB PUSH2 0x406 JUMPI PUSH1 0x40 MLOAD PUSH32 0x8C379A000000000000000000000000000000000000000000000000000000000 DUP2 MSTORE PUSH1 0x4 ADD PUSH2 0x3FD SWAP1 PUSH2 0x101F JUMP JUMPDEST PUSH1 0x40 MLOAD DUP1 SWAP2 SUB SWAP1 REVERT JUMPDEST PUSH1 0x2 SLOAD SWAP1 POP SWAP2 SWAP1 POP JUMP JUMPDEST PUSH1 0x0 PUSH1 0x1 PUSH1 0x0 SWAP1 SLOAD SWAP1 PUSH2 0x100 EXP SWAP1 DIV PUSH20 0xFFFFFFFFFFFFFFFFFFFFFFFFFFFFFFFFFFFFFFFF AND PUSH20 0xFFFFFFFFFFFFFFFFFFFFFFFFFFFFFFFFFFFFFFFF AND PUSH4 0xDD8AAA4F DUP6 PUSH1 0x5 PUSH1 0x0 SWAP1 SLOAD SWAP1 PUSH2 0x100 EXP SWAP1 DIV PUSH20 0xFFFFFFFFFFFFFFFFFFFFFFFFFFFFFFFFFFFFFFFF AND DUP6 PUSH1 0x40 MLOAD DUP5 PUSH4 0xFFFFFFFF AND PUSH1 0xE0 SHL DUP2 MSTORE PUSH1 0x4 ADD PUSH2 0x493 SWAP4 SWAP3 SWAP2 SWAP1 PUSH2 0x103F JUMP JUMPDEST PUSH1 0x0 PUSH1 0x40 MLOAD DUP1 DUP4 SUB DUP2 PUSH1 0x0 DUP8 DUP1 EXTCODESIZE ISZERO DUP1 ISZERO PUSH2 0x4AD JUMPI PUSH1 0x0 DUP1 REVERT JUMPDEST POP GAS CALL ISZERO DUP1 ISZERO PUSH2 0x4C1 JUMPI RETURNDATASIZE PUSH1 0x0 DUP1 RETURNDATACOPY RETURNDATASIZE PUSH1 0x0 REVERT JUMPDEST POP POP POP POP PUSH2 0x4D0 DUP5 DUP5 DUP5 PUSH2 0xABA JUMP JUMPDEST PUSH1 0x1 SWAP1 POP SWAP4 SWAP3 POP POP POP JUMP JUMPDEST DUP1 PUSH1 0x7 PUSH1 0x0 DUP5 PUSH20 0xFFFFFFFFFFFFFFFFFFFFFFFFFFFFFFFFFFFFFFFF AND PUSH20 0xFFFFFFFFFFFFFFFFFFFFFFFFFFFFFFFFFFFFFFFF AND DUP2 MSTORE PUSH1 0x20 ADD SWAP1 DUP2 MSTORE PUSH1 0x20 ADD PUSH1 0x0 KECCAK256 PUSH1 0x0 PUSH2 0x100 EXP DUP2 SLOAD DUP2 PUSH1 0xFF MUL NOT AND SWAP1 DUP4 ISZERO ISZERO MUL OR SWAP1 SSTORE POP POP POP JUMP JUMPDEST PUSH1 0x0 PUSH1 0x6 SLOAD SWAP1 POP PUSH1 0x3C PUSH1 0x3 SLOAD PUSH2 0x54C SWAP2 SWAP1 PUSH2 0x10A5 JUMP JUMPDEST TIMESTAMP GT ISZERO PUSH2 0x558 JUMPI PUSH1 0x0 DUP1 REVERT JUMPDEST CALLER PUSH20 0xFFFFFFFFFFFFFFFFFFFFFFFFFFFFFFFFFFFFFFFF AND PUSH2 0x8FC DUP3 SWAP1 DUP2 ISZERO MUL SWAP1 PUSH1 0x40 MLOAD PUSH1 0x0 PUSH1 0x40 MLOAD DUP1 DUP4 SUB DUP2 DUP6 DUP9 DUP9 CALL SWAP4 POP POP POP POP ISZERO DUP1 ISZERO PUSH2 0x59E JUMPI RETURNDATASIZE PUSH1 0x0 DUP1 RETURNDATACOPY RETURNDATASIZE PUSH1 0x0 REVERT JUMPDEST POP PUSH2 0x5AA DUP3 PUSH1 0x0 PUSH2 0x4DB JUMP JUMPDEST POP POP JUMP JUMPDEST DUP1 PUSH1 0x4 PUSH1 0x0 PUSH2 0x100 EXP DUP2 SLOAD DUP2 PUSH20 0xFFFFFFFFFFFFFFFFFFFFFFFFFFFFFFFFFFFFFFFF MUL NOT AND SWAP1 DUP4 PUSH20 0xFFFFFFFFFFFFFFFFFFFFFFFFFFFFFFFFFFFFFFFF AND MUL OR SWAP1 SSTORE POP ADDRESS PUSH1 0x5 PUSH1 0x0 PUSH2 0x100 EXP DUP2 SLOAD DUP2 PUSH20 0xFFFFFFFFFFFFFFFFFFFFFFFFFFFFFFFFFFFFFFFF MUL NOT AND SWAP1 DUP4 PUSH20 0xFFFFFFFFFFFFFFFFFFFFFFFFFFFFFFFFFFFFFFFF AND MUL OR SWAP1 SSTORE POP PUSH2 0x63B CALLER PUSH1 0x1 PUSH2 0x4DB JUMP JUMPDEST PUSH1 0x6 SLOAD CALLVALUE LT ISZERO PUSH2 0x680 JUMPI PUSH1 0x40 MLOAD PUSH32 0x8C379A000000000000000000000000000000000000000000000000000000000 DUP2 MSTORE PUSH1 0x4 ADD PUSH2 0x677 SWAP1 PUSH2 0x1125 JUMP JUMPDEST PUSH1 0x40 MLOAD DUP1 SWAP2 SUB SWAP1 REVERT JUMPDEST PUSH1 0x1 PUSH1 0x0 SWAP1 SLOAD SWAP1 PUSH2 0x100 EXP SWAP1 DIV PUSH20 0xFFFFFFFFFFFFFFFFFFFFFFFFFFFFFFFFFFFFFFFF AND PUSH20 0xFFFFFFFFFFFFFFFFFFFFFFFFFFFFFFFFFFFFFFFF AND PUSH4 0xE985E9C5 CALLER PUSH1 0x5 PUSH1 0x0 SWAP1 SLOAD SWAP1 PUSH2 0x100 EXP SWAP1 DIV PUSH20 0xFFFFFFFFFFFFFFFFFFFFFFFFFFFFFFFFFFFFFFFF AND PUSH1 0x40 MLOAD DUP4 PUSH4 0xFFFFFFFF AND PUSH1 0xE0 SHL DUP2 MSTORE PUSH1 0x4 ADD PUSH2 0x6FF SWAP3 SWAP2 SWAP1 PUSH2 0x1145 JUMP JUMPDEST PUSH1 0x20 PUSH1 0x40 MLOAD DUP1 DUP4 SUB DUP2 DUP7 GAS STATICCALL ISZERO DUP1 ISZERO PUSH2 0x71C JUMPI RETURNDATASIZE PUSH1 0x0 DUP1 RETURNDATACOPY RETURNDATASIZE PUSH1 0x0 REVERT JUMPDEST POP POP POP POP PUSH1 0x40 MLOAD RETURNDATASIZE PUSH1 0x1F NOT PUSH1 0x1F DUP3 ADD AND DUP3 ADD DUP1 PUSH1 0x40 MSTORE POP DUP2 ADD SWAP1 PUSH2 0x740 SWAP2 SWAP1 PUSH2 0x1183 JUMP JUMPDEST PUSH2 0x749 JUMPI PUSH1 0x0 DUP1 REVERT JUMPDEST CALLER PUSH20 0xFFFFFFFFFFFFFFFFFFFFFFFFFFFFFFFFFFFFFFFF AND PUSH2 0x8FC CALLVALUE SWAP1 DUP2 ISZERO MUL SWAP1 PUSH1 0x40 MLOAD PUSH1 0x0 PUSH1 0x40 MLOAD DUP1 DUP4 SUB DUP2 DUP6 DUP9 DUP9 CALL SWAP4 POP POP POP POP ISZERO DUP1 ISZERO PUSH2 0x78F JUMPI RETURNDATASIZE PUSH1 0x0 DUP1 RETURNDATACOPY RETURNDATASIZE PUSH1 0x0 REVERT JUMPDEST POP PUSH2 0x7E1 PUSH1 0x5 PUSH1 0x0 SWAP1 SLOAD SWAP1 PUSH2 0x100 EXP SWAP1 DIV PUSH20 0xFFFFFFFFFFFFFFFFFFFFFFFFFFFFFFFFFFFFFFFF AND PUSH1 0x4 PUSH1 0x0 SWAP1 SLOAD SWAP1 PUSH2 0x100 EXP SWAP1 DIV PUSH20 0xFFFFFFFFFFFFFFFFFFFFFFFFFFFFFFFFFFFFFFFF AND PUSH1 0x6 SLOAD PUSH2 0x410 JUMP JUMPDEST POP TIMESTAMP PUSH1 0x2 DUP2 SWAP1 SSTORE POP PUSH1 0x3C PUSH1 0x2 SLOAD PUSH2 0x7F8 SWAP2 SWAP1 PUSH2 0x10A5 JUMP JUMPDEST PUSH1 0x3 DUP2 SWAP1 SSTORE POP POP JUMP JUMPDEST PUSH2 0x809 PUSH2 0xC02 JUMP JUMPDEST PUSH20 0xFFFFFFFFFFFFFFFFFFFFFFFFFFFFFFFFFFFFFFFF AND PUSH2 0x827 PUSH2 0x889 JUMP JUMPDEST PUSH20 0xFFFFFFFFFFFFFFFFFFFFFFFFFFFFFFFFFFFFFFFF AND EQ PUSH2 0x87D JUMPI PUSH1 0x40 MLOAD PUSH32 0x8C379A000000000000000000000000000000000000000000000000000000000 DUP2 MSTORE PUSH1 0x4 ADD PUSH2 0x874 SWAP1 PUSH2 0x11FC JUMP JUMPDEST PUSH1 0x40 MLOAD DUP1 SWAP2 SUB SWAP1 REVERT JUMPDEST PUSH2 0x887 PUSH1 0x0 PUSH2 0xC0A JUMP JUMPDEST JUMP JUMPDEST PUSH1 0x0 DUP1 PUSH1 0x0 SWAP1 SLOAD SWAP1 PUSH2 0x100 EXP SWAP1 DIV PUSH20 0xFFFFFFFFFFFFFFFFFFFFFFFFFFFFFFFFFFFFFFFF AND SWAP1 POP SWAP1 JUMP JUMPDEST PUSH1 0x1 PUSH1 0x0 SWAP1 SLOAD SWAP1 PUSH2 0x100 EXP SWAP1 DIV PUSH20 0xFFFFFFFFFFFFFFFFFFFFFFFFFFFFFFFFFFFFFFFF AND DUP2 JUMP JUMPDEST PUSH1 0x6 SLOAD DUP2 JUMP JUMPDEST PUSH1 0x0 DUP1 ISZERO ISZERO PUSH1 0x7 PUSH1 0x0 DUP5 PUSH20 0xFFFFFFFFFFFFFFFFFFFFFFFFFFFFFFFFFFFFFFFF AND PUSH20 0xFFFFFFFFFFFFFFFFFFFFFFFFFFFFFFFFFFFFFFFF AND DUP2 MSTORE PUSH1 0x20 ADD SWAP1 DUP2 MSTORE PUSH1 0x20 ADD PUSH1 0x0 KECCAK256 PUSH1 0x0 SWAP1 SLOAD SWAP1 PUSH2 0x100 EXP SWAP1 DIV PUSH1 0xFF AND ISZERO ISZERO SUB PUSH2 0x972 JUMPI PUSH1 0x40 MLOAD PUSH32 0x8C379A000000000000000000000000000000000000000000000000000000000 DUP2 MSTORE PUSH1 0x4 ADD PUSH2 0x969 SWAP1 PUSH2 0x101F JUMP JUMPDEST PUSH1 0x40 MLOAD DUP1 SWAP2 SUB SWAP1 REVERT JUMPDEST PUSH1 0x3 SLOAD SWAP1 POP SWAP2 SWAP1 POP JUMP JUMPDEST PUSH1 0x7 PUSH1 0x20 MSTORE DUP1 PUSH1 0x0 MSTORE PUSH1 0x40 PUSH1 0x0 KECCAK256 PUSH1 0x0 SWAP2 POP SLOAD SWAP1 PUSH2 0x100 EXP SWAP1 DIV PUSH1 0xFF AND DUP2 JUMP JUMPDEST PUSH1 0x3 SLOAD TIMESTAMP LT ISZERO PUSH2 0x9B6 JUMPI PUSH2 0x9B1 DUP2 PUSH1 0x0 PUSH2 0x4DB JUMP JUMPDEST PUSH2 0x9C0 JUMP JUMPDEST PUSH2 0x9BF DUP2 PUSH2 0x536 JUMP JUMPDEST JUMPDEST POP JUMP JUMPDEST PUSH2 0x9CB PUSH2 0xC02 JUMP JUMPDEST PUSH20 0xFFFFFFFFFFFFFFFFFFFFFFFFFFFFFFFFFFFFFFFF AND PUSH2 0x9E9 PUSH2 0x889 JUMP JUMPDEST PUSH20 0xFFFFFFFFFFFFFFFFFFFFFFFFFFFFFFFFFFFFFFFF AND EQ PUSH2 0xA3F JUMPI PUSH1 0x40 MLOAD PUSH32 0x8C379A000000000000000000000000000000000000000000000000000000000 DUP2 MSTORE PUSH1 0x4 ADD PUSH2 0xA36 SWAP1 PUSH2 0x11FC JUMP JUMPDEST PUSH1 0x40 MLOAD DUP1 SWAP2 SUB SWAP1 REVERT JUMPDEST PUSH1 0x0 PUSH20 0xFFFFFFFFFFFFFFFFFFFFFFFFFFFFFFFFFFFFFFFF AND DUP2 PUSH20 0xFFFFFFFFFFFFFFFFFFFFFFFFFFFFFFFFFFFFFFFF AND SUB PUSH2 0xAAE JUMPI PUSH1 0x40 MLOAD PUSH32 0x8C379A000000000000000000000000000000000000000000000000000000000 DUP2 MSTORE PUSH1 0x4 ADD PUSH2 0xAA5 SWAP1 PUSH2 0x128E JUMP JUMPDEST PUSH1 0x40 MLOAD DUP1 SWAP2 SUB SWAP1 REVERT JUMPDEST PUSH2 0xAB7 DUP2 PUSH2 0xC0A JUMP JUMPDEST POP JUMP JUMPDEST PUSH1 0x0 PUSH20 0xFFFFFFFFFFFFFFFFFFFFFFFFFFFFFFFFFFFFFFFF AND DUP4 PUSH20 0xFFFFFFFFFFFFFFFFFFFFFFFFFFFFFFFFFFFFFFFF AND SUB PUSH2 0xB29 JUMPI PUSH1 0x40 MLOAD PUSH32 0x8C379A000000000000000000000000000000000000000000000000000000000 DUP2 MSTORE PUSH1 0x4 ADD PUSH2 0xB20 SWAP1 PUSH2 0x12FA JUMP JUMPDEST PUSH1 0x40 MLOAD DUP1 SWAP2 SUB SWAP1 REVERT JUMPDEST PUSH1 0x0 PUSH20 0xFFFFFFFFFFFFFFFFFFFFFFFFFFFFFFFFFFFFFFFF AND DUP3 PUSH20 0xFFFFFFFFFFFFFFFFFFFFFFFFFFFFFFFFFFFFFFFF AND SUB PUSH2 0xB98 JUMPI PUSH1 0x40 MLOAD PUSH32 0x8C379A000000000000000000000000000000000000000000000000000000000 DUP2 MSTORE PUSH1 0x4 ADD PUSH2 0xB8F SWAP1 PUSH2 0x1366 JUMP JUMPDEST PUSH1 0x40 MLOAD DUP1 SWAP2 SUB SWAP1 REVERT JUMPDEST DUP2 PUSH20 0xFFFFFFFFFFFFFFFFFFFFFFFFFFFFFFFFFFFFFFFF AND DUP4 PUSH20 0xFFFFFFFFFFFFFFFFFFFFFFFFFFFFFFFFFFFFFFFF AND PUSH32 0xDDF252AD1BE2C89B69C2B068FC378DAA952BA7F163C4A11628F55A4DF523B3EF DUP4 PUSH1 0x40 MLOAD PUSH2 0xBF5 SWAP2 SWAP1 PUSH2 0xDA1 JUMP JUMPDEST PUSH1 0x40 MLOAD DUP1 SWAP2 SUB SWAP1 LOG3 POP POP POP JUMP JUMPDEST PUSH1 0x0 CALLER SWAP1 POP SWAP1 JUMP JUMPDEST PUSH1 0x0 DUP1 PUSH1 0x0 SWAP1 SLOAD SWAP1 PUSH2 0x100 EXP SWAP1 DIV PUSH20 0xFFFFFFFFFFFFFFFFFFFFFFFFFFFFFFFFFFFFFFFF AND SWAP1 POP DUP2 PUSH1 0x0 DUP1 PUSH2 0x100 EXP DUP2 SLOAD DUP2 PUSH20 0xFFFFFFFFFFFFFFFFFFFFFFFFFFFFFFFFFFFFFFFF MUL NOT AND SWAP1 DUP4 PUSH20 0xFFFFFFFFFFFFFFFFFFFFFFFFFFFFFFFFFFFFFFFF AND MUL OR SWAP1 SSTORE POP DUP2 PUSH20 0xFFFFFFFFFFFFFFFFFFFFFFFFFFFFFFFFFFFFFFFF AND DUP2 PUSH20 0xFFFFFFFFFFFFFFFFFFFFFFFFFFFFFFFFFFFFFFFF AND PUSH32 0x8BE0079C531659141344CD1FD0A4F28419497F9722A3DAAFE3B4186F6B6457E0 PUSH1 0x40 MLOAD PUSH1 0x40 MLOAD DUP1 SWAP2 SUB SWAP1 LOG3 POP POP JUMP JUMPDEST PUSH1 0x0 PUSH20 0xFFFFFFFFFFFFFFFFFFFFFFFFFFFFFFFFFFFFFFFF DUP3 AND SWAP1 POP SWAP2 SWAP1 POP JUMP JUMPDEST PUSH1 0x0 PUSH2 0xCF9 DUP3 PUSH2 0xCCE JUMP JUMPDEST SWAP1 POP SWAP2 SWAP1 POP JUMP JUMPDEST PUSH2 0xD09 DUP2 PUSH2 0xCEE JUMP JUMPDEST DUP3 MSTORE POP POP JUMP JUMPDEST PUSH1 0x0 PUSH1 0x20 DUP3 ADD SWAP1 POP PUSH2 0xD24 PUSH1 0x0 DUP4 ADD DUP5 PUSH2 0xD00 JUMP JUMPDEST SWAP3 SWAP2 POP POP JUMP JUMPDEST PUSH1 0x0 DUP1 REVERT JUMPDEST PUSH2 0xD38 DUP2 PUSH2 0xCEE JUMP JUMPDEST DUP2 EQ PUSH2 0xD43 JUMPI PUSH1 0x0 DUP1 REVERT JUMPDEST POP JUMP JUMPDEST PUSH1 0x0 DUP2 CALLDATALOAD SWAP1 POP PUSH2 0xD55 DUP2 PUSH2 0xD2F JUMP JUMPDEST SWAP3 SWAP2 POP POP JUMP JUMPDEST PUSH1 0x0 PUSH1 0x20 DUP3 DUP5 SUB SLT ISZERO PUSH2 0xD71 JUMPI PUSH2 0xD70 PUSH2 0xD2A JUMP JUMPDEST JUMPDEST PUSH1 0x0 PUSH2 0xD7F DUP5 DUP3 DUP6 ADD PUSH2 0xD46 JUMP JUMPDEST SWAP2 POP POP SWAP3 SWAP2 POP POP JUMP JUMPDEST PUSH1 0x0 DUP2 SWAP1 POP SWAP2 SWAP1 POP JUMP JUMPDEST PUSH2 0xD9B DUP2 PUSH2 0xD88 JUMP JUMPDEST DUP3 MSTORE POP POP JUMP JUMPDEST PUSH1 0x0 PUSH1 0x20 DUP3 ADD SWAP1 POP PUSH2 0xDB6 PUSH1 0x0 DUP4 ADD DUP5 PUSH2 0xD92 JUMP JUMPDEST SWAP3 SWAP2 POP POP JUMP JUMPDEST PUSH2 0xDC5 DUP2 PUSH2 0xD88 JUMP JUMPDEST DUP2 EQ PUSH2 0xDD0 JUMPI PUSH1 0x0 DUP1 REVERT JUMPDEST POP JUMP JUMPDEST PUSH1 0x0 DUP2 CALLDATALOAD SWAP1 POP PUSH2 0xDE2 DUP2 PUSH2 0xDBC JUMP JUMPDEST SWAP3 SWAP2 POP POP JUMP JUMPDEST PUSH1 0x0 DUP1 PUSH1 0x0 PUSH1 0x60 DUP5 DUP7 SUB SLT ISZERO PUSH2 0xE01 JUMPI PUSH2 0xE00 PUSH2 0xD2A JUMP JUMPDEST JUMPDEST PUSH1 0x0 PUSH2 0xE0F DUP7 DUP3 DUP8 ADD PUSH2 0xD46 JUMP JUMPDEST SWAP4 POP POP PUSH1 0x20 PUSH2 0xE20 DUP7 DUP3 DUP8 ADD PUSH2 0xD46 JUMP JUMPDEST SWAP3 POP POP PUSH1 0x40 PUSH2 0xE31 DUP7 DUP3 DUP8 ADD PUSH2 0xDD3 JUMP JUMPDEST SWAP2 POP POP SWAP3 POP SWAP3 POP SWAP3 JUMP JUMPDEST PUSH1 0x0 DUP2 ISZERO ISZERO SWAP1 POP SWAP2 SWAP1 POP JUMP JUMPDEST PUSH2 0xE50 DUP2 PUSH2 0xE3B JUMP JUMPDEST DUP3 MSTORE POP POP JUMP JUMPDEST PUSH1 0x0 PUSH1 0x20 DUP3 ADD SWAP1 POP PUSH2 0xE6B PUSH1 0x0 DUP4 ADD DUP5 PUSH2 0xE47 JUMP JUMPDEST SWAP3 SWAP2 POP POP JUMP JUMPDEST PUSH2 0xE7A DUP2 PUSH2 0xE3B JUMP JUMPDEST DUP2 EQ PUSH2 0xE85 JUMPI PUSH1 0x0 DUP1 REVERT JUMPDEST POP JUMP JUMPDEST PUSH1 0x0 DUP2 CALLDATALOAD SWAP1 POP PUSH2 0xE97 DUP2 PUSH2 0xE71 JUMP JUMPDEST SWAP3 SWAP2 POP POP JUMP JUMPDEST PUSH1 0x0 DUP1 PUSH1 0x40 DUP4 DUP6 SUB SLT ISZERO PUSH2 0xEB4 JUMPI PUSH2 0xEB3 PUSH2 0xD2A JUMP JUMPDEST JUMPDEST PUSH1 0x0 PUSH2 0xEC2 DUP6 DUP3 DUP7 ADD PUSH2 0xD46 JUMP JUMPDEST SWAP3 POP POP PUSH1 0x20 PUSH2 0xED3 DUP6 DUP3 DUP7 ADD PUSH2 0xE88 JUMP JUMPDEST SWAP2 POP POP SWAP3 POP SWAP3 SWAP1 POP JUMP JUMPDEST PUSH1 0x0 PUSH2 0xEE8 DUP3 PUSH2 0xCCE JUMP JUMPDEST SWAP1 POP SWAP2 SWAP1 POP JUMP JUMPDEST PUSH2 0xEF8 DUP2 PUSH2 0xEDD JUMP JUMPDEST DUP2 EQ PUSH2 0xF03 JUMPI PUSH1 0x0 DUP1 REVERT JUMPDEST POP JUMP JUMPDEST PUSH1 0x0 DUP2 CALLDATALOAD SWAP1 POP PUSH2 0xF15 DUP2 PUSH2 0xEEF JUMP JUMPDEST SWAP3 SWAP2 POP POP JUMP JUMPDEST PUSH1 0x0 PUSH1 0x20 DUP3 DUP5 SUB SLT ISZERO PUSH2 0xF31 JUMPI PUSH2 0xF30 PUSH2 0xD2A JUMP JUMPDEST JUMPDEST PUSH1 0x0 PUSH2 0xF3F DUP5 DUP3 DUP6 ADD PUSH2 0xF06 JUMP JUMPDEST SWAP2 POP POP SWAP3 SWAP2 POP POP JUMP JUMPDEST PUSH1 0x0 DUP2 SWAP1 POP SWAP2 SWAP1 POP JUMP JUMPDEST PUSH1 0x0 PUSH2 0xF6D PUSH2 0xF68 PUSH2 0xF63 DUP5 PUSH2 0xCCE JUMP JUMPDEST PUSH2 0xF48 JUMP JUMPDEST PUSH2 0xCCE JUMP JUMPDEST SWAP1 POP SWAP2 SWAP1 POP JUMP JUMPDEST PUSH1 0x0 PUSH2 0xF7F DUP3 PUSH2 0xF52 JUMP JUMPDEST SWAP1 POP SWAP2 SWAP1 POP JUMP JUMPDEST PUSH1 0x0 PUSH2 0xF91 DUP3 PUSH2 0xF74 JUMP JUMPDEST SWAP1 POP SWAP2 SWAP1 POP JUMP JUMPDEST PUSH2 0xFA1 DUP2 PUSH2 0xF86 JUMP JUMPDEST DUP3 MSTORE POP POP JUMP JUMPDEST PUSH1 0x0 PUSH1 0x20 DUP3 ADD SWAP1 POP PUSH2 0xFBC PUSH1 0x0 DUP4 ADD DUP5 PUSH2 0xF98 JUMP JUMPDEST SWAP3 SWAP2 POP POP JUMP JUMPDEST PUSH1 0x0 DUP3 DUP3 MSTORE PUSH1 0x20 DUP3 ADD SWAP1 POP SWAP3 SWAP2 POP POP JUMP JUMPDEST PUSH32 0x537562736372696265204F757220536572766963650000000000000000000000 PUSH1 0x0 DUP3 ADD MSTORE POP JUMP JUMPDEST PUSH1 0x0 PUSH2 0x1009 PUSH1 0x15 DUP4 PUSH2 0xFC2 JUMP JUMPDEST SWAP2 POP PUSH2 0x1014 DUP3 PUSH2 0xFD3 JUMP JUMPDEST PUSH1 0x20 DUP3 ADD SWAP1 POP SWAP2 SWAP1 POP JUMP JUMPDEST PUSH1 0x0 PUSH1 0x20 DUP3 ADD SWAP1 POP DUP2 DUP2 SUB PUSH1 0x0 DUP4 ADD MSTORE PUSH2 0x1038 DUP2 PUSH2 0xFFC JUMP JUMPDEST SWAP1 POP SWAP2 SWAP1 POP JUMP JUMPDEST PUSH1 0x0 PUSH1 0x60 DUP3 ADD SWAP1 POP PUSH2 0x1054 PUSH1 0x0 DUP4 ADD DUP7 PUSH2 0xD00 JUMP JUMPDEST PUSH2 0x1061 PUSH1 0x20 DUP4 ADD DUP6 PUSH2 0xD00 JUMP JUMPDEST PUSH2 0x106E PUSH1 0x40 DUP4 ADD DUP5 PUSH2 0xD92 JUMP JUMPDEST SWAP5 SWAP4 POP POP POP POP JUMP JUMPDEST PUSH32 0x4E487B7100000000000000000000000000000000000000000000000000000000 PUSH1 0x0 MSTORE PUSH1 0x11 PUSH1 0x4 MSTORE PUSH1 0x24 PUSH1 0x0 REVERT JUMPDEST PUSH1 0x0 PUSH2 0x10B0 DUP3 PUSH2 0xD88 JUMP JUMPDEST SWAP2 POP PUSH2 0x10BB DUP4 PUSH2 0xD88 JUMP JUMPDEST SWAP3 POP DUP3 DUP3 ADD SWAP1 POP DUP1 DUP3 GT ISZERO PUSH2 0x10D3 JUMPI PUSH2 0x10D2 PUSH2 0x1076 JUMP JUMPDEST JUMPDEST SWAP3 SWAP2 POP POP JUMP JUMPDEST PUSH32 0x506C656173652063686172676520796F75722077616C6C657400000000000000 PUSH1 0x0 DUP3 ADD MSTORE POP JUMP JUMPDEST PUSH1 0x0 PUSH2 0x110F PUSH1 0x19 DUP4 PUSH2 0xFC2 JUMP JUMPDEST SWAP2 POP PUSH2 0x111A DUP3 PUSH2 0x10D9 JUMP JUMPDEST PUSH1 0x20 DUP3 ADD SWAP1 POP SWAP2 SWAP1 POP JUMP JUMPDEST PUSH1 0x0 PUSH1 0x20 DUP3 ADD SWAP1 POP DUP2 DUP2 SUB PUSH1 0x0 DUP4 ADD MSTORE PUSH2 0x113E DUP2 PUSH2 0x1102 JUMP JUMPDEST SWAP1 POP SWAP2 SWAP1 POP JUMP JUMPDEST PUSH1 0x0 PUSH1 0x40 DUP3 ADD SWAP1 POP PUSH2 0x115A PUSH1 0x0 DUP4 ADD DUP6 PUSH2 0xD00 JUMP JUMPDEST PUSH2 0x1167 PUSH1 0x20 DUP4 ADD DUP5 PUSH2 0xD00 JUMP JUMPDEST SWAP4 SWAP3 POP POP POP JUMP JUMPDEST PUSH1 0x0 DUP2 MLOAD SWAP1 POP PUSH2 0x117D DUP2 PUSH2 0xE71 JUMP JUMPDEST SWAP3 SWAP2 POP POP JUMP JUMPDEST PUSH1 0x0 PUSH1 0x20 DUP3 DUP5 SUB SLT ISZERO PUSH2 0x1199 JUMPI PUSH2 0x1198 PUSH2 0xD2A JUMP JUMPDEST JUMPDEST PUSH1 0x0 PUSH2 0x11A7 DUP5 DUP3 DUP6 ADD PUSH2 0x116E JUMP JUMPDEST SWAP2 POP POP SWAP3 SWAP2 POP POP JUMP JUMPDEST PUSH32 0x4F776E61626C653A2063616C6C6572206973206E6F7420746865206F776E6572 PUSH1 0x0 DUP3 ADD MSTORE POP JUMP JUMPDEST PUSH1 0x0 PUSH2 0x11E6 PUSH1 0x20 DUP4 PUSH2 0xFC2 JUMP JUMPDEST SWAP2 POP PUSH2 0x11F1 DUP3 PUSH2 0x11B0 JUMP JUMPDEST PUSH1 0x20 DUP3 ADD SWAP1 POP SWAP2 SWAP1 POP JUMP JUMPDEST PUSH1 0x0 PUSH1 0x20 DUP3 ADD SWAP1 POP DUP2 DUP2 SUB PUSH1 0x0 DUP4 ADD MSTORE PUSH2 0x1215 DUP2 PUSH2 0x11D9 JUMP JUMPDEST SWAP1 POP SWAP2 SWAP1 POP JUMP JUMPDEST PUSH32 0x4F776E61626C653A206E6577206F776E657220697320746865207A65726F2061 PUSH1 0x0 DUP3 ADD MSTORE PUSH32 0x6464726573730000000000000000000000000000000000000000000000000000 PUSH1 0x20 DUP3 ADD MSTORE POP JUMP JUMPDEST PUSH1 0x0 PUSH2 0x1278 PUSH1 0x26 DUP4 PUSH2 0xFC2 JUMP JUMPDEST SWAP2 POP PUSH2 0x1283 DUP3 PUSH2 0x121C JUMP JUMPDEST PUSH1 0x40 DUP3 ADD SWAP1 POP SWAP2 SWAP1 POP JUMP JUMPDEST PUSH1 0x0 PUSH1 0x20 DUP3 ADD SWAP1 POP DUP2 DUP2 SUB PUSH1 0x0 DUP4 ADD MSTORE PUSH2 0x12A7 DUP2 PUSH2 0x126B JUMP JUMPDEST SWAP1 POP SWAP2 SWAP1 POP JUMP JUMPDEST PUSH32 0x7472616E736665722066726F6D20746865207A65726F20616464726573730000 PUSH1 0x0 DUP3 ADD MSTORE POP JUMP JUMPDEST PUSH1 0x0 PUSH2 0x12E4 PUSH1 0x1E DUP4 PUSH2 0xFC2 JUMP JUMPDEST SWAP2 POP PUSH2 0x12EF DUP3 PUSH2 0x12AE JUMP JUMPDEST PUSH1 0x20 DUP3 ADD SWAP1 POP SWAP2 SWAP1 POP JUMP JUMPDEST PUSH1 0x0 PUSH1 0x20 DUP3 ADD SWAP1 POP DUP2 DUP2 SUB PUSH1 0x0 DUP4 ADD MSTORE PUSH2 0x1313 DUP2 PUSH2 0x12D7 JUMP JUMPDEST SWAP1 POP SWAP2 SWAP1 POP JUMP JUMPDEST PUSH32 0x7472616E7366657220746F20746865207A65726F206164647265737300000000 PUSH1 0x0 DUP3 ADD MSTORE POP JUMP JUMPDEST PUSH1 0x0 PUSH2 0x1350 PUSH1 0x1C DUP4 PUSH2 0xFC2 JUMP JUMPDEST SWAP2 POP PUSH2 0x135B DUP3 PUSH2 0x131A JUMP JUMPDEST PUSH1 0x20 DUP3 ADD SWAP1 POP SWAP2 SWAP1 POP JUMP JUMPDEST PUSH1 0x0 PUSH1 0x20 DUP3 ADD SWAP1 POP DUP2 DUP2 SUB PUSH1 0x0 DUP4 ADD MSTORE PUSH2 0x137F DUP2 PUSH2 0x1343 JUMP JUMPDEST SWAP1 POP SWAP2 SWAP1 POP JUMP INVALID LOG2 PUSH5 0x6970667358 0x22 SLT KECCAK256 CODESIZE STOP 0xD5 DIV CALLVALUE SWAP10 SWAP9 0x25 0xC3 DUP15 DIV 0x25 0xCB 0x23 PUSH21 0x3CD99B2B3E974E101462CB0650FCCE590364736F6C PUSH4 0x43000810 STOP CALLER "
				},
				"gasEstimates": {
					"creation": {
						"codeDepositCost": "1010400",
						"executionCost": "infinite",
						"totalCost": "infinite"
					},
					"external": {
						"Sign()": "infinite",
						"approver()": "2538",
						"cancelSubscribe(address)": "infinite",
						"firstTimestamp(address)": "5058",
						"nextTimestamp(address)": "5034",
						"owner()": "2545",
						"renounceOwnership()": "30463",
						"setUserState(address,bool)": "25014",
						"sub_price()": "2496",
						"subscribe(address)": "infinite",
						"subscribeState(address)": "2889",
						"transferFrom(address,address,uint256)": "infinite",
						"transferOwnership(address)": "30808",
						"withdrawSubscribe(address)": "infinite"
					},
					"internal": {
						"_transfer(address,address,uint256)": "infinite"
					}
				},
				"methodIdentifiers": {
					"Sign()": "b5d7df97",
					"approver()": "141a8dd8",
					"cancelSubscribe(address)": "e11d48b1",
					"firstTimestamp(address)": "159cfa6c",
					"nextTimestamp(address)": "d028fa0c",
					"owner()": "8da5cb5b",
					"renounceOwnership()": "715018a6",
					"setUserState(address,bool)": "2b6fb5ba",
					"sub_price()": "befa2fc6",
					"subscribe(address)": "41a7726a",
					"subscribeState(address)": "d353c0b7",
					"transferFrom(address,address,uint256)": "23b872dd",
					"transferOwnership(address)": "f2fde38b",
					"withdrawSubscribe(address)": "3a75b3ce"
				}
			},
			"storageLayout": {
				"storage": [
					{
						"astId": 466,
						"contract": "Subscribe.sol:Subscribe",
						"label": "_owner",
						"offset": 0,
						"slot": "0",
						"type": "t_address"
					},
					{
						"astId": 176,
						"contract": "Subscribe.sol:Subscribe",
						"label": "Sign",
						"offset": 0,
						"slot": "1",
						"type": "t_contract(Approve)167"
					},
					{
						"astId": 178,
						"contract": "Subscribe.sol:Subscribe",
						"label": "firstPayment",
						"offset": 0,
						"slot": "2",
						"type": "t_uint256"
					},
					{
						"astId": 180,
						"contract": "Subscribe.sol:Subscribe",
						"label": "nextPayment",
						"offset": 0,
						"slot": "3",
						"type": "t_uint256"
					},
					{
						"astId": 182,
						"contract": "Subscribe.sol:Subscribe",
						"label": "marketOwner",
						"offset": 0,
						"slot": "4",
						"type": "t_address"
					},
					{
						"astId": 184,
						"contract": "Subscribe.sol:Subscribe",
						"label": "approver",
						"offset": 0,
						"slot": "5",
						"type": "t_address"
					},
					{
						"astId": 187,
						"contract": "Subscribe.sol:Subscribe",
						"label": "sub_price",
						"offset": 0,
						"slot": "6",
						"type": "t_uint256"
					},
					{
						"astId": 191,
						"contract": "Subscribe.sol:Subscribe",
						"label": "subscribeState",
						"offset": 0,
						"slot": "7",
						"type": "t_mapping(t_address,t_bool)"
					},
					{
						"astId": 197,
						"contract": "Subscribe.sol:Subscribe",
						"label": "_allowances",
						"offset": 0,
						"slot": "8",
						"type": "t_mapping(t_address,t_mapping(t_address,t_uint256))"
					},
					{
						"astId": 203,
						"contract": "Subscribe.sol:Subscribe",
						"label": "_operatorApprovals",
						"offset": 0,
						"slot": "9",
						"type": "t_mapping(t_address,t_mapping(t_address,t_bool))"
					}
				],
				"types": {
					"t_address": {
						"encoding": "inplace",
						"label": "address",
						"numberOfBytes": "20"
					},
					"t_bool": {
						"encoding": "inplace",
						"label": "bool",
						"numberOfBytes": "1"
					},
					"t_contract(Approve)167": {
						"encoding": "inplace",
						"label": "contract Approve",
						"numberOfBytes": "20"
					},
					"t_mapping(t_address,t_bool)": {
						"encoding": "mapping",
						"key": "t_address",
						"label": "mapping(address => bool)",
						"numberOfBytes": "32",
						"value": "t_bool"
					},
					"t_mapping(t_address,t_mapping(t_address,t_bool))": {
						"encoding": "mapping",
						"key": "t_address",
						"label": "mapping(address => mapping(address => bool))",
						"numberOfBytes": "32",
						"value": "t_mapping(t_address,t_bool)"
					},
					"t_mapping(t_address,t_mapping(t_address,t_uint256))": {
						"encoding": "mapping",
						"key": "t_address",
						"label": "mapping(address => mapping(address => uint256))",
						"numberOfBytes": "32",
						"value": "t_mapping(t_address,t_uint256)"
					},
					"t_mapping(t_address,t_uint256)": {
						"encoding": "mapping",
						"key": "t_address",
						"label": "mapping(address => uint256)",
						"numberOfBytes": "32",
						"value": "t_uint256"
					},
					"t_uint256": {
						"encoding": "inplace",
						"label": "uint256",
						"numberOfBytes": "32"
					}
				}
			},
			"userdoc": {
				"kind": "user",
				"methods": {},
				"version": 1
			}
		}
	}
}