{
	"Subscribe.sol": {
		"Subscribe": {
			"abi": [
				{
					"anonymous": false,
					"inputs": [
						{
							"indexed": true,
							"internalType": "address",
							"name": "owner",
							"type": "address"
						},
						{
							"indexed": true,
							"internalType": "address",
							"name": "spender",
							"type": "address"
						},
						{
							"indexed": false,
							"internalType": "uint256",
							"name": "value",
							"type": "uint256"
						}
					],
					"name": "Approval",
					"type": "event"
				},
				{
					"anonymous": false,
					"inputs": [
						{
							"indexed": true,
							"internalType": "address",
							"name": "previousOwner",
							"type": "address"
						},
						{
							"indexed": true,
							"internalType": "address",
							"name": "newOwner",
							"type": "address"
						}
					],
					"name": "OwnershipTransferred",
					"type": "event"
				},
				{
					"anonymous": false,
					"inputs": [
						{
							"indexed": true,
							"internalType": "address",
							"name": "from",
							"type": "address"
						},
						{
							"indexed": true,
							"internalType": "address",
							"name": "to",
							"type": "address"
						},
						{
							"indexed": false,
							"internalType": "uint256",
							"name": "value",
							"type": "uint256"
						}
					],
					"name": "Transfer",
					"type": "event"
				},
				{
					"inputs": [],
					"name": "Sign",
					"outputs": [
						{
							"internalType": "contract Approve",
							"name": "",
							"type": "address"
						}
					],
					"stateMutability": "view",
					"type": "function"
				},
				{
					"inputs": [
						{
							"internalType": "address",
							"name": "owner",
							"type": "address"
						},
						{
							"internalType": "address",
							"name": "spender",
							"type": "address"
						}
					],
					"name": "allowance",
					"outputs": [
						{
							"internalType": "uint256",
							"name": "",
							"type": "uint256"
						}
					],
					"stateMutability": "view",
					"type": "function"
				},
				{
					"inputs": [],
					"name": "approver",
					"outputs": [
						{
							"internalType": "address",
							"name": "",
							"type": "address"
						}
					],
					"stateMutability": "view",
					"type": "function"
				},
				{
					"inputs": [
						{
							"internalType": "address payable",
							"name": "_owner",
							"type": "address"
						}
					],
					"name": "cancelSubscribe",
					"outputs": [],
					"stateMutability": "nonpayable",
					"type": "function"
				},
				{
					"inputs": [
						{
							"internalType": "address",
							"name": "_owner",
							"type": "address"
						}
					],
					"name": "firstTimestamp",
					"outputs": [
						{
							"internalType": "uint256",
							"name": "",
							"type": "uint256"
						}
					],
					"stateMutability": "view",
					"type": "function"
				},
				{
					"inputs": [
						{
							"internalType": "address",
							"name": "owner",
							"type": "address"
						},
						{
							"internalType": "address",
							"name": "operator",
							"type": "address"
						}
					],
					"name": "isApprovedForAll",
					"outputs": [
						{
							"internalType": "bool",
							"name": "",
							"type": "bool"
						}
					],
					"stateMutability": "view",
					"type": "function"
				},
				{
					"inputs": [
						{
							"internalType": "address",
							"name": "_owner",
							"type": "address"
						}
					],
					"name": "nextTimestamp",
					"outputs": [
						{
							"internalType": "uint256",
							"name": "",
							"type": "uint256"
						}
					],
					"stateMutability": "view",
					"type": "function"
				},
				{
					"inputs": [],
					"name": "owner",
					"outputs": [
						{
							"internalType": "address",
							"name": "",
							"type": "address"
						}
					],
					"stateMutability": "view",
					"type": "function"
				},
				{
					"inputs": [],
					"name": "renounceOwnership",
					"outputs": [],
					"stateMutability": "nonpayable",
					"type": "function"
				},
				{
					"inputs": [
						{
							"internalType": "address",
							"name": "_owner",
							"type": "address"
						},
						{
							"internalType": "bool",
							"name": "_state",
							"type": "bool"
						}
					],
					"name": "setUserState",
					"outputs": [],
					"stateMutability": "nonpayable",
					"type": "function"
				},
				{
					"inputs": [
						{
							"internalType": "address",
							"name": "owner",
							"type": "address"
						},
						{
							"internalType": "address",
							"name": "spender",
							"type": "address"
						},
						{
							"internalType": "uint256",
							"name": "amount",
							"type": "uint256"
						}
					],
					"name": "spendAllowance",
					"outputs": [],
					"stateMutability": "nonpayable",
					"type": "function"
				},
				{
					"inputs": [],
					"name": "sub_price",
					"outputs": [
						{
							"internalType": "uint256",
							"name": "",
							"type": "uint256"
						}
					],
					"stateMutability": "view",
					"type": "function"
				},
				{
					"inputs": [
						{
							"internalType": "address",
							"name": "_to",
							"type": "address"
						}
					],
					"name": "subscribe",
					"outputs": [],
					"stateMutability": "payable",
					"type": "function"
				},
				{
					"inputs": [
						{
							"internalType": "address",
							"name": "",
							"type": "address"
						}
					],
					"name": "subscribeState",
					"outputs": [
						{
							"internalType": "bool",
							"name": "",
							"type": "bool"
						}
					],
					"stateMutability": "view",
					"type": "function"
				},
				{
					"inputs": [
						{
							"internalType": "address",
							"name": "from",
							"type": "address"
						},
						{
							"internalType": "address",
							"name": "to",
							"type": "address"
						},
						{
							"internalType": "uint256",
							"name": "amount",
							"type": "uint256"
						}
					],
					"name": "transferFrom",
					"outputs": [
						{
							"internalType": "bool",
							"name": "",
							"type": "bool"
						}
					],
					"stateMutability": "nonpayable",
					"type": "function"
				},
				{
					"inputs": [
						{
							"internalType": "address",
							"name": "newOwner",
							"type": "address"
						}
					],
					"name": "transferOwnership",
					"outputs": [],
					"stateMutability": "nonpayable",
					"type": "function"
				},
				{
					"inputs": [
						{
							"internalType": "address payable",
							"name": "_owner",
							"type": "address"
						}
					],
					"name": "withdrawSubscribe",
					"outputs": [],
					"stateMutability": "payable",
					"type": "function"
				}
			],
			"devdoc": {
				"kind": "dev",
				"methods": {
					"owner()": {
						"details": "Returns the address of the current owner."
					},
					"renounceOwnership()": {
						"details": "Leaves the contract without owner. It will not be possible to call `onlyOwner` functions anymore. Can only be called by the current owner. NOTE: Renouncing ownership will leave the contract without an owner, thereby removing any functionality that is only available to the owner."
					},
					"transferOwnership(address)": {
						"details": "Transfers ownership of the contract to a new account (`newOwner`). Can only be called by the current owner."
					}
				},
				"version": 1
			},
			"evm": {
				"assembly": "    /* \"Subscribe.sol\":161:4122  contract Subscribe is Ownable{... */\n  mstore(0x40, 0x80)\n    /* \"Subscribe.sol\":400:407  1 ether */\n  0x0de0b6b3a7640000\n    /* \"Subscribe.sol\":373:407  uint256 public sub_price = 1 ether */\n  0x06\n  sstore\n    /* \"Subscribe.sol\":161:4122  contract Subscribe is Ownable{... */\n  callvalue\n  dup1\n  iszero\n  tag_1\n  jumpi\n  0x00\n  dup1\n  revert\ntag_1:\n  pop\n    /* \"node_modules/openzeppelin-solidity/contracts/access/Ownable.sol\":921:953  _transferOwnership(_msgSender()) */\n  tag_4\n    /* \"node_modules/openzeppelin-solidity/contracts/access/Ownable.sol\":940:952  _msgSender() */\n  tag_5\n    /* \"node_modules/openzeppelin-solidity/contracts/access/Ownable.sol\":940:950  _msgSender */\n  shl(0x20, tag_6)\n    /* \"node_modules/openzeppelin-solidity/contracts/access/Ownable.sol\":940:952  _msgSender() */\n  0x20\n  shr\n  jump\t// in\ntag_5:\n    /* \"node_modules/openzeppelin-solidity/contracts/access/Ownable.sol\":921:939  _transferOwnership */\n  shl(0x20, tag_7)\n    /* \"node_modules/openzeppelin-solidity/contracts/access/Ownable.sol\":921:953  _transferOwnership(_msgSender()) */\n  0x20\n  shr\n  jump\t// in\ntag_4:\n    /* \"Subscribe.sol\":161:4122  contract Subscribe is Ownable{... */\n  jump(tag_8)\n    /* \"node_modules/openzeppelin-solidity/contracts/utils/Context.sol\":640:736  function _msgSender() internal view virtual returns (address) {... */\ntag_6:\n    /* \"node_modules/openzeppelin-solidity/contracts/utils/Context.sol\":693:700  address */\n  0x00\n    /* \"node_modules/openzeppelin-solidity/contracts/utils/Context.sol\":719:729  msg.sender */\n  caller\n    /* \"node_modules/openzeppelin-solidity/contracts/utils/Context.sol\":712:729  return msg.sender */\n  swap1\n  pop\n    /* \"node_modules/openzeppelin-solidity/contracts/utils/Context.sol\":640:736  function _msgSender() internal view virtual returns (address) {... */\n  swap1\n  jump\t// out\n    /* \"node_modules/openzeppelin-solidity/contracts/access/Ownable.sol\":2270:2457  function _transferOwnership(address newOwner) internal virtual {... */\ntag_7:\n    /* \"node_modules/openzeppelin-solidity/contracts/access/Ownable.sol\":2343:2359  address oldOwner */\n  0x00\n    /* \"node_modules/openzeppelin-solidity/contracts/access/Ownable.sol\":2362:2368  _owner */\n  dup1\n  0x00\n  swap1\n  sload\n  swap1\n  0x0100\n  exp\n  swap1\n  div\n  0xffffffffffffffffffffffffffffffffffffffff\n  and\n    /* \"node_modules/openzeppelin-solidity/contracts/access/Ownable.sol\":2343:2368  address oldOwner = _owner */\n  swap1\n  pop\n    /* \"node_modules/openzeppelin-solidity/contracts/access/Ownable.sol\":2387:2395  newOwner */\n  dup2\n    /* \"node_modules/openzeppelin-solidity/contracts/access/Ownable.sol\":2378:2384  _owner */\n  0x00\n  dup1\n    /* \"node_modules/openzeppelin-solidity/contracts/access/Ownable.sol\":2378:2395  _owner = newOwner */\n  0x0100\n  exp\n  dup2\n  sload\n  dup2\n  0xffffffffffffffffffffffffffffffffffffffff\n  mul\n  not\n  and\n  swap1\n  dup4\n  0xffffffffffffffffffffffffffffffffffffffff\n  and\n  mul\n  or\n  swap1\n  sstore\n  pop\n    /* \"node_modules/openzeppelin-solidity/contracts/access/Ownable.sol\":2441:2449  newOwner */\n  dup2\n    /* \"node_modules/openzeppelin-solidity/contracts/access/Ownable.sol\":2410:2450  OwnershipTransferred(oldOwner, newOwner) */\n  0xffffffffffffffffffffffffffffffffffffffff\n  and\n    /* \"node_modules/openzeppelin-solidity/contracts/access/Ownable.sol\":2431:2439  oldOwner */\n  dup2\n    /* \"node_modules/openzeppelin-solidity/contracts/access/Ownable.sol\":2410:2450  OwnershipTransferred(oldOwner, newOwner) */\n  0xffffffffffffffffffffffffffffffffffffffff\n  and\n  0x8be0079c531659141344cd1fd0a4f28419497f9722a3daafe3b4186f6b6457e0\n  mload(0x40)\n  mload(0x40)\n  dup1\n  swap2\n  sub\n  swap1\n  log3\n    /* \"node_modules/openzeppelin-solidity/contracts/access/Ownable.sol\":2333:2457  {... */\n  pop\n    /* \"node_modules/openzeppelin-solidity/contracts/access/Ownable.sol\":2270:2457  function _transferOwnership(address newOwner) internal virtual {... */\n  pop\n  jump\t// out\n    /* \"Subscribe.sol\":161:4122  contract Subscribe is Ownable{... */\ntag_8:\n  dataSize(sub_0)\n  dup1\n  dataOffset(sub_0)\n  0x00\n  codecopy\n  0x00\n  return\nstop\n\nsub_0: assembly {\n        /* \"Subscribe.sol\":161:4122  contract Subscribe is Ownable{... */\n      mstore(0x40, 0x80)\n      jumpi(tag_1, lt(calldatasize, 0x04))\n      shr(0xe0, calldataload(0x00))\n      dup1\n      0xb5d7df97\n      gt\n      tag_19\n      jumpi\n      dup1\n      0xdd62ed3e\n      gt\n      tag_20\n      jumpi\n      dup1\n      0xdd62ed3e\n      eq\n      tag_14\n      jumpi\n      dup1\n      0xdd8aaa4f\n      eq\n      tag_15\n      jumpi\n      dup1\n      0xe11d48b1\n      eq\n      tag_16\n      jumpi\n      dup1\n      0xe985e9c5\n      eq\n      tag_17\n      jumpi\n      dup1\n      0xf2fde38b\n      eq\n      tag_18\n      jumpi\n      jump(tag_1)\n    tag_20:\n      dup1\n      0xb5d7df97\n      eq\n      tag_10\n      jumpi\n      dup1\n      0xbefa2fc6\n      eq\n      tag_11\n      jumpi\n      dup1\n      0xd028fa0c\n      eq\n      tag_12\n      jumpi\n      dup1\n      0xd353c0b7\n      eq\n      tag_13\n      jumpi\n      jump(tag_1)\n    tag_19:\n      dup1\n      0x3a75b3ce\n      gt\n      tag_21\n      jumpi\n      dup1\n      0x3a75b3ce\n      eq\n      tag_6\n      jumpi\n      dup1\n      0x41a7726a\n      eq\n      tag_7\n      jumpi\n      dup1\n      0x715018a6\n      eq\n      tag_8\n      jumpi\n      dup1\n      0x8da5cb5b\n      eq\n      tag_9\n      jumpi\n      jump(tag_1)\n    tag_21:\n      dup1\n      0x141a8dd8\n      eq\n      tag_2\n      jumpi\n      dup1\n      0x159cfa6c\n      eq\n      tag_3\n      jumpi\n      dup1\n      0x23b872dd\n      eq\n      tag_4\n      jumpi\n      dup1\n      0x2b6fb5ba\n      eq\n      tag_5\n      jumpi\n    tag_1:\n      0x00\n      dup1\n      revert\n        /* \"Subscribe.sol\":344:367  address public approver */\n    tag_2:\n      callvalue\n      dup1\n      iszero\n      tag_22\n      jumpi\n      0x00\n      dup1\n      revert\n    tag_22:\n      pop\n      tag_23\n      tag_24\n      jump\t// in\n    tag_23:\n      mload(0x40)\n      tag_25\n      swap2\n      swap1\n      tag_26\n      jump\t// in\n    tag_25:\n      mload(0x40)\n      dup1\n      swap2\n      sub\n      swap1\n      return\n        /* \"Subscribe.sol\":1944:2120  function firstTimestamp(address _owner) public view returns(uint){... */\n    tag_3:\n      callvalue\n      dup1\n      iszero\n      tag_27\n      jumpi\n      0x00\n      dup1\n      revert\n    tag_27:\n      pop\n      tag_28\n      0x04\n      dup1\n      calldatasize\n      sub\n      dup2\n      add\n      swap1\n      tag_29\n      swap2\n      swap1\n      tag_30\n      jump\t// in\n    tag_29:\n      tag_31\n      jump\t// in\n    tag_28:\n      mload(0x40)\n      tag_32\n      swap2\n      swap1\n      tag_33\n      jump\t// in\n    tag_32:\n      mload(0x40)\n      dup1\n      swap2\n      sub\n      swap1\n      return\n        /* \"Subscribe.sol\":1194:1434  function transferFrom(... */\n    tag_4:\n      callvalue\n      dup1\n      iszero\n      tag_34\n      jumpi\n      0x00\n      dup1\n      revert\n    tag_34:\n      pop\n      tag_35\n      0x04\n      dup1\n      calldatasize\n      sub\n      dup2\n      add\n      swap1\n      tag_36\n      swap2\n      swap1\n      tag_37\n      jump\t// in\n    tag_36:\n      tag_38\n      jump\t// in\n    tag_35:\n      mload(0x40)\n      tag_39\n      swap2\n      swap1\n      tag_40\n      jump\t// in\n    tag_39:\n      mload(0x40)\n      dup1\n      swap2\n      sub\n      swap1\n      return\n        /* \"Subscribe.sol\":778:883  function setUserState(address _owner, bool _state) public{... */\n    tag_5:\n      callvalue\n      dup1\n      iszero\n      tag_41\n      jumpi\n      0x00\n      dup1\n      revert\n    tag_41:\n      pop\n      tag_42\n      0x04\n      dup1\n      calldatasize\n      sub\n      dup2\n      add\n      swap1\n      tag_43\n      swap2\n      swap1\n      tag_44\n      jump\t// in\n    tag_43:\n      tag_45\n      jump\t// in\n    tag_42:\n      stop\n        /* \"Subscribe.sol\":2532:2791  function withdrawSubscribe(address payable _owner) public payable{... */\n    tag_6:\n      tag_46\n      0x04\n      dup1\n      calldatasize\n      sub\n      dup2\n      add\n      swap1\n      tag_47\n      swap2\n      swap1\n      tag_48\n      jump\t// in\n    tag_47:\n      tag_49\n      jump\t// in\n    tag_46:\n      stop\n        /* \"Subscribe.sol\":1440:1938  function subscribe(address _to) public payable{... */\n    tag_7:\n      tag_50\n      0x04\n      dup1\n      calldatasize\n      sub\n      dup2\n      add\n      swap1\n      tag_51\n      swap2\n      swap1\n      tag_30\n      jump\t// in\n    tag_51:\n      tag_52\n      jump\t// in\n    tag_50:\n      stop\n        /* \"node_modules/openzeppelin-solidity/contracts/access/Ownable.sol\":1668:1769  function renounceOwnership() public virtual onlyOwner {... */\n    tag_8:\n      callvalue\n      dup1\n      iszero\n      tag_53\n      jumpi\n      0x00\n      dup1\n      revert\n    tag_53:\n      pop\n      tag_54\n      tag_55\n      jump\t// in\n    tag_54:\n      stop\n        /* \"node_modules/openzeppelin-solidity/contracts/access/Ownable.sol\":1036:1121  function owner() public view virtual returns (address) {... */\n    tag_9:\n      callvalue\n      dup1\n      iszero\n      tag_56\n      jumpi\n      0x00\n      dup1\n      revert\n    tag_56:\n      pop\n      tag_57\n      tag_58\n      jump\t// in\n    tag_57:\n      mload(0x40)\n      tag_59\n      swap2\n      swap1\n      tag_26\n      jump\t// in\n    tag_59:\n      mload(0x40)\n      dup1\n      swap2\n      sub\n      swap1\n      return\n        /* \"Subscribe.sol\":197:216  Approve public Sign */\n    tag_10:\n      callvalue\n      dup1\n      iszero\n      tag_60\n      jumpi\n      0x00\n      dup1\n      revert\n    tag_60:\n      pop\n      tag_61\n      tag_62\n      jump\t// in\n    tag_61:\n      mload(0x40)\n      tag_63\n      swap2\n      swap1\n      tag_64\n      jump\t// in\n    tag_63:\n      mload(0x40)\n      dup1\n      swap2\n      sub\n      swap1\n      return\n        /* \"Subscribe.sol\":373:407  uint256 public sub_price = 1 ether */\n    tag_11:\n      callvalue\n      dup1\n      iszero\n      tag_65\n      jumpi\n      0x00\n      dup1\n      revert\n    tag_65:\n      pop\n      tag_66\n      tag_67\n      jump\t// in\n    tag_66:\n      mload(0x40)\n      tag_68\n      swap2\n      swap1\n      tag_33\n      jump\t// in\n    tag_68:\n      mload(0x40)\n      dup1\n      swap2\n      sub\n      swap1\n      return\n        /* \"Subscribe.sol\":2126:2300  function nextTimestamp(address _owner) public view returns(uint){... */\n    tag_12:\n      callvalue\n      dup1\n      iszero\n      tag_69\n      jumpi\n      0x00\n      dup1\n      revert\n    tag_69:\n      pop\n      tag_70\n      0x04\n      dup1\n      calldatasize\n      sub\n      dup2\n      add\n      swap1\n      tag_71\n      swap2\n      swap1\n      tag_30\n      jump\t// in\n    tag_71:\n      tag_72\n      jump\t// in\n    tag_70:\n      mload(0x40)\n      tag_73\n      swap2\n      swap1\n      tag_33\n      jump\t// in\n    tag_73:\n      mload(0x40)\n      dup1\n      swap2\n      sub\n      swap1\n      return\n        /* \"Subscribe.sol\":414:460  mapping(address => bool) public subscribeState */\n    tag_13:\n      callvalue\n      dup1\n      iszero\n      tag_74\n      jumpi\n      0x00\n      dup1\n      revert\n    tag_74:\n      pop\n      tag_75\n      0x04\n      dup1\n      calldatasize\n      sub\n      dup2\n      add\n      swap1\n      tag_76\n      swap2\n      swap1\n      tag_30\n      jump\t// in\n    tag_76:\n      tag_77\n      jump\t// in\n    tag_75:\n      mload(0x40)\n      tag_78\n      swap2\n      swap1\n      tag_40\n      jump\t// in\n    tag_78:\n      mload(0x40)\n      dup1\n      swap2\n      sub\n      swap1\n      return\n        /* \"Subscribe.sol\":3521:3661  function allowance(address owner, address spender) public view virtual returns (uint256) {... */\n    tag_14:\n      callvalue\n      dup1\n      iszero\n      tag_79\n      jumpi\n      0x00\n      dup1\n      revert\n    tag_79:\n      pop\n      tag_80\n      0x04\n      dup1\n      calldatasize\n      sub\n      dup2\n      add\n      swap1\n      tag_81\n      swap2\n      swap1\n      tag_82\n      jump\t// in\n    tag_81:\n      tag_83\n      jump\t// in\n    tag_80:\n      mload(0x40)\n      tag_84\n      swap2\n      swap1\n      tag_33\n      jump\t// in\n    tag_84:\n      mload(0x40)\n      dup1\n      swap2\n      sub\n      swap1\n      return\n        /* \"Subscribe.sol\":3667:4105  function spendAllowance(... */\n    tag_15:\n      callvalue\n      dup1\n      iszero\n      tag_85\n      jumpi\n      0x00\n      dup1\n      revert\n    tag_85:\n      pop\n      tag_86\n      0x04\n      dup1\n      calldatasize\n      sub\n      dup2\n      add\n      swap1\n      tag_87\n      swap2\n      swap1\n      tag_37\n      jump\t// in\n    tag_87:\n      tag_88\n      jump\t// in\n    tag_86:\n      stop\n        /* \"Subscribe.sol\":2307:2519  function cancelSubscribe(address payable _owner) public{... */\n    tag_16:\n      callvalue\n      dup1\n      iszero\n      tag_89\n      jumpi\n      0x00\n      dup1\n      revert\n    tag_89:\n      pop\n      tag_90\n      0x04\n      dup1\n      calldatasize\n      sub\n      dup2\n      add\n      swap1\n      tag_91\n      swap2\n      swap1\n      tag_48\n      jump\t// in\n    tag_91:\n      tag_92\n      jump\t// in\n    tag_90:\n      stop\n        /* \"Subscribe.sol\":2797:2950  function isApprovedForAll(address owner, address operator) public view virtual returns (bool) {... */\n    tag_17:\n      callvalue\n      dup1\n      iszero\n      tag_93\n      jumpi\n      0x00\n      dup1\n      revert\n    tag_93:\n      pop\n      tag_94\n      0x04\n      dup1\n      calldatasize\n      sub\n      dup2\n      add\n      swap1\n      tag_95\n      swap2\n      swap1\n      tag_82\n      jump\t// in\n    tag_95:\n      tag_96\n      jump\t// in\n    tag_94:\n      mload(0x40)\n      tag_97\n      swap2\n      swap1\n      tag_40\n      jump\t// in\n    tag_97:\n      mload(0x40)\n      dup1\n      swap2\n      sub\n      swap1\n      return\n        /* \"node_modules/openzeppelin-solidity/contracts/access/Ownable.sol\":1918:2116  function transferOwnership(address newOwner) public virtual onlyOwner {... */\n    tag_18:\n      callvalue\n      dup1\n      iszero\n      tag_98\n      jumpi\n      0x00\n      dup1\n      revert\n    tag_98:\n      pop\n      tag_99\n      0x04\n      dup1\n      calldatasize\n      sub\n      dup2\n      add\n      swap1\n      tag_100\n      swap2\n      swap1\n      tag_30\n      jump\t// in\n    tag_100:\n      tag_101\n      jump\t// in\n    tag_99:\n      stop\n        /* \"Subscribe.sol\":344:367  address public approver */\n    tag_24:\n      0x05\n      0x00\n      swap1\n      sload\n      swap1\n      0x0100\n      exp\n      swap1\n      div\n      0xffffffffffffffffffffffffffffffffffffffff\n      and\n      dup2\n      jump\t// out\n        /* \"Subscribe.sol\":1944:2120  function firstTimestamp(address _owner) public view returns(uint){... */\n    tag_31:\n        /* \"Subscribe.sol\":2004:2008  uint */\n      0x00\n        /* \"Subscribe.sol\":2053:2058  false */\n      dup1\n        /* \"Subscribe.sol\":2027:2058  subscribeState[_owner] != false */\n      iszero\n      iszero\n        /* \"Subscribe.sol\":2027:2041  subscribeState */\n      0x07\n        /* \"Subscribe.sol\":2027:2049  subscribeState[_owner] */\n      0x00\n        /* \"Subscribe.sol\":2042:2048  _owner */\n      dup5\n        /* \"Subscribe.sol\":2027:2049  subscribeState[_owner] */\n      0xffffffffffffffffffffffffffffffffffffffff\n      and\n      0xffffffffffffffffffffffffffffffffffffffff\n      and\n      dup2\n      mstore\n      0x20\n      add\n      swap1\n      dup2\n      mstore\n      0x20\n      add\n      0x00\n      keccak256\n      0x00\n      swap1\n      sload\n      swap1\n      0x0100\n      exp\n      swap1\n      div\n      0xff\n      and\n        /* \"Subscribe.sol\":2027:2058  subscribeState[_owner] != false */\n      iszero\n      iszero\n      sub\n        /* \"Subscribe.sol\":2019:2084  require(subscribeState[_owner] != false, \"Subscribe Our Service\") */\n      tag_103\n      jumpi\n      mload(0x40)\n      0x08c379a000000000000000000000000000000000000000000000000000000000\n      dup2\n      mstore\n      0x04\n      add\n      tag_104\n      swap1\n      tag_105\n      jump\t// in\n    tag_104:\n      mload(0x40)\n      dup1\n      swap2\n      sub\n      swap1\n      revert\n    tag_103:\n        /* \"Subscribe.sol\":2101:2113  firstPayment */\n      sload(0x02)\n        /* \"Subscribe.sol\":2094:2113  return firstPayment */\n      swap1\n      pop\n        /* \"Subscribe.sol\":1944:2120  function firstTimestamp(address _owner) public view returns(uint){... */\n      swap2\n      swap1\n      pop\n      jump\t// out\n        /* \"Subscribe.sol\":1194:1434  function transferFrom(... */\n    tag_38:\n        /* \"Subscribe.sol\":1312:1316  bool */\n      0x00\n        /* \"Subscribe.sol\":1328:1332  Sign */\n      0x01\n      0x00\n      swap1\n      sload\n      swap1\n      0x0100\n      exp\n      swap1\n      div\n      0xffffffffffffffffffffffffffffffffffffffff\n      and\n        /* \"Subscribe.sol\":1328:1347  Sign.spendAllowance */\n      0xffffffffffffffffffffffffffffffffffffffff\n      and\n      0xdd8aaa4f\n        /* \"Subscribe.sol\":1348:1352  from */\n      dup6\n        /* \"Subscribe.sol\":1354:1362  approver */\n      0x05\n      0x00\n      swap1\n      sload\n      swap1\n      0x0100\n      exp\n      swap1\n      div\n      0xffffffffffffffffffffffffffffffffffffffff\n      and\n        /* \"Subscribe.sol\":1364:1370  amount */\n      dup6\n        /* \"Subscribe.sol\":1328:1371  Sign.spendAllowance(from, approver, amount) */\n      mload(0x40)\n      dup5\n      0xffffffff\n      and\n      0xe0\n      shl\n      dup2\n      mstore\n      0x04\n      add\n      tag_107\n      swap4\n      swap3\n      swap2\n      swap1\n      tag_108\n      jump\t// in\n    tag_107:\n      0x00\n      mload(0x40)\n      dup1\n      dup4\n      sub\n      dup2\n      0x00\n      dup8\n      dup1\n      extcodesize\n      iszero\n      dup1\n      iszero\n      tag_109\n      jumpi\n      0x00\n      dup1\n      revert\n    tag_109:\n      pop\n      gas\n      call\n      iszero\n      dup1\n      iszero\n      tag_111\n      jumpi\n      returndatasize\n      0x00\n      dup1\n      returndatacopy\n      revert(0x00, returndatasize)\n    tag_111:\n      pop\n      pop\n      pop\n      pop\n        /* \"Subscribe.sol\":1381:1406  _transfer(from,to,amount) */\n      tag_112\n        /* \"Subscribe.sol\":1391:1395  from */\n      dup5\n        /* \"Subscribe.sol\":1396:1398  to */\n      dup5\n        /* \"Subscribe.sol\":1399:1405  amount */\n      dup5\n        /* \"Subscribe.sol\":1381:1390  _transfer */\n      tag_113\n        /* \"Subscribe.sol\":1381:1406  _transfer(from,to,amount) */\n      jump\t// in\n    tag_112:\n        /* \"Subscribe.sol\":1423:1427  true */\n      0x01\n        /* \"Subscribe.sol\":1416:1427  return true */\n      swap1\n      pop\n        /* \"Subscribe.sol\":1194:1434  function transferFrom(... */\n      swap4\n      swap3\n      pop\n      pop\n      pop\n      jump\t// out\n        /* \"Subscribe.sol\":778:883  function setUserState(address _owner, bool _state) public{... */\n    tag_45:\n        /* \"Subscribe.sol\":870:876  _state */\n      dup1\n        /* \"Subscribe.sol\":845:859  subscribeState */\n      0x07\n        /* \"Subscribe.sol\":845:867  subscribeState[_owner] */\n      0x00\n        /* \"Subscribe.sol\":860:866  _owner */\n      dup5\n        /* \"Subscribe.sol\":845:867  subscribeState[_owner] */\n      0xffffffffffffffffffffffffffffffffffffffff\n      and\n      0xffffffffffffffffffffffffffffffffffffffff\n      and\n      dup2\n      mstore\n      0x20\n      add\n      swap1\n      dup2\n      mstore\n      0x20\n      add\n      0x00\n      keccak256\n      0x00\n        /* \"Subscribe.sol\":845:876  subscribeState[_owner] = _state */\n      0x0100\n      exp\n      dup2\n      sload\n      dup2\n      0xff\n      mul\n      not\n      and\n      swap1\n      dup4\n      iszero\n      iszero\n      mul\n      or\n      swap1\n      sstore\n      pop\n        /* \"Subscribe.sol\":778:883  function setUserState(address _owner, bool _state) public{... */\n      pop\n      pop\n      jump\t// out\n        /* \"Subscribe.sol\":2532:2791  function withdrawSubscribe(address payable _owner) public payable{... */\n    tag_49:\n        /* \"Subscribe.sol\":2607:2618  uint refund */\n      0x00\n        /* \"Subscribe.sol\":2622:2631  sub_price */\n      sload(0x06)\n        /* \"Subscribe.sol\":2607:2631  uint refund =  sub_price */\n      swap1\n      pop\n        /* \"Subscribe.sol\":2680:2689  1 minutes */\n      0x3c\n        /* \"Subscribe.sol\":2668:2679  nextPayment */\n      sload(0x03)\n        /* \"Subscribe.sol\":2668:2689  nextPayment+1 minutes */\n      tag_116\n      swap2\n      swap1\n      tag_117\n      jump\t// in\n    tag_116:\n        /* \"Subscribe.sol\":2649:2664  block.timestamp */\n      timestamp\n        /* \"Subscribe.sol\":2649:2689  block.timestamp <= nextPayment+1 minutes */\n      gt\n      iszero\n        /* \"Subscribe.sol\":2641:2690  require(block.timestamp <= nextPayment+1 minutes) */\n      tag_118\n      jumpi\n      0x00\n      dup1\n      revert\n    tag_118:\n        /* \"Subscribe.sol\":2717:2727  msg.sender */\n      caller\n        /* \"Subscribe.sol\":2709:2737  payable(msg.sender).transfer */\n      0xffffffffffffffffffffffffffffffffffffffff\n      and\n        /* \"Subscribe.sol\":2709:2745  payable(msg.sender).transfer(refund) */\n      0x08fc\n        /* \"Subscribe.sol\":2738:2744  refund */\n      dup3\n        /* \"Subscribe.sol\":2709:2745  payable(msg.sender).transfer(refund) */\n      swap1\n      dup2\n      iszero\n      mul\n      swap1\n      mload(0x40)\n      0x00\n      mload(0x40)\n      dup1\n      dup4\n      sub\n      dup2\n      dup6\n      dup9\n      dup9\n      call\n      swap4\n      pop\n      pop\n      pop\n      pop\n      iszero\n      dup1\n      iszero\n      tag_120\n      jumpi\n      returndatasize\n      0x00\n      dup1\n      returndatacopy\n      revert(0x00, returndatasize)\n    tag_120:\n      pop\n        /* \"Subscribe.sol\":2756:2783  setUserState(_owner, false) */\n      tag_121\n        /* \"Subscribe.sol\":2769:2775  _owner */\n      dup3\n        /* \"Subscribe.sol\":2777:2782  false */\n      0x00\n        /* \"Subscribe.sol\":2756:2768  setUserState */\n      tag_45\n        /* \"Subscribe.sol\":2756:2783  setUserState(_owner, false) */\n      jump\t// in\n    tag_121:\n        /* \"Subscribe.sol\":2597:2791  {... */\n      pop\n        /* \"Subscribe.sol\":2532:2791  function withdrawSubscribe(address payable _owner) public payable{... */\n      pop\n      jump\t// out\n        /* \"Subscribe.sol\":1440:1938  function subscribe(address _to) public payable{... */\n    tag_52:\n        /* \"Subscribe.sol\":1510:1513  _to */\n      dup1\n        /* \"Subscribe.sol\":1496:1507  marketOwner */\n      0x04\n      0x00\n        /* \"Subscribe.sol\":1496:1513  marketOwner = _to */\n      0x0100\n      exp\n      dup2\n      sload\n      dup2\n      0xffffffffffffffffffffffffffffffffffffffff\n      mul\n      not\n      and\n      swap1\n      dup4\n      0xffffffffffffffffffffffffffffffffffffffff\n      and\n      mul\n      or\n      swap1\n      sstore\n      pop\n        /* \"Subscribe.sol\":1542:1546  this */\n      address\n        /* \"Subscribe.sol\":1523:1531  approver */\n      0x05\n      0x00\n        /* \"Subscribe.sol\":1523:1547  approver = address(this) */\n      0x0100\n      exp\n      dup2\n      sload\n      dup2\n      0xffffffffffffffffffffffffffffffffffffffff\n      mul\n      not\n      and\n      swap1\n      dup4\n      0xffffffffffffffffffffffffffffffffffffffff\n      and\n      mul\n      or\n      swap1\n      sstore\n      pop\n        /* \"Subscribe.sol\":1558:1587  setUserState(msg.sender,true) */\n      tag_123\n        /* \"Subscribe.sol\":1571:1581  msg.sender */\n      caller\n        /* \"Subscribe.sol\":1582:1586  true */\n      0x01\n        /* \"Subscribe.sol\":1558:1570  setUserState */\n      tag_45\n        /* \"Subscribe.sol\":1558:1587  setUserState(msg.sender,true) */\n      jump\t// in\n    tag_123:\n        /* \"Subscribe.sol\":1625:1634  sub_price */\n      sload(0x06)\n        /* \"Subscribe.sol\":1612:1621  msg.value */\n      callvalue\n        /* \"Subscribe.sol\":1612:1634  msg.value >= sub_price */\n      lt\n      iszero\n        /* \"Subscribe.sol\":1604:1664  require(msg.value >= sub_price, \"Please charge your wallet\") */\n      tag_124\n      jumpi\n      mload(0x40)\n      0x08c379a000000000000000000000000000000000000000000000000000000000\n      dup2\n      mstore\n      0x04\n      add\n      tag_125\n      swap1\n      tag_126\n      jump\t// in\n    tag_125:\n      mload(0x40)\n      dup1\n      swap2\n      sub\n      swap1\n      revert\n    tag_124:\n        /* \"Subscribe.sol\":1682:1686  Sign */\n      0x01\n      0x00\n      swap1\n      sload\n      swap1\n      0x0100\n      exp\n      swap1\n      div\n      0xffffffffffffffffffffffffffffffffffffffff\n      and\n        /* \"Subscribe.sol\":1682:1703  Sign.isApprovedForAll */\n      0xffffffffffffffffffffffffffffffffffffffff\n      and\n      0xe985e9c5\n        /* \"Subscribe.sol\":1704:1714  msg.sender */\n      caller\n        /* \"Subscribe.sol\":1715:1723  approver */\n      0x05\n      0x00\n      swap1\n      sload\n      swap1\n      0x0100\n      exp\n      swap1\n      div\n      0xffffffffffffffffffffffffffffffffffffffff\n      and\n        /* \"Subscribe.sol\":1682:1724  Sign.isApprovedForAll(msg.sender,approver) */\n      mload(0x40)\n      dup4\n      0xffffffff\n      and\n      0xe0\n      shl\n      dup2\n      mstore\n      0x04\n      add\n      tag_127\n      swap3\n      swap2\n      swap1\n      tag_128\n      jump\t// in\n    tag_127:\n      0x20\n      mload(0x40)\n      dup1\n      dup4\n      sub\n      dup2\n      dup7\n      gas\n      staticcall\n      iszero\n      dup1\n      iszero\n      tag_130\n      jumpi\n      returndatasize\n      0x00\n      dup1\n      returndatacopy\n      revert(0x00, returndatasize)\n    tag_130:\n      pop\n      pop\n      pop\n      pop\n      mload(0x40)\n      returndatasize\n      not(0x1f)\n      0x1f\n      dup3\n      add\n      and\n      dup3\n      add\n      dup1\n      0x40\n      mstore\n      pop\n      dup2\n      add\n      swap1\n      tag_131\n      swap2\n      swap1\n      tag_132\n      jump\t// in\n    tag_131:\n        /* \"Subscribe.sol\":1674:1725  require(Sign.isApprovedForAll(msg.sender,approver)) */\n      tag_133\n      jumpi\n      0x00\n      dup1\n      revert\n    tag_133:\n        /* \"Subscribe.sol\":1752:1762  msg.sender */\n      caller\n        /* \"Subscribe.sol\":1744:1772  payable(msg.sender).transfer */\n      0xffffffffffffffffffffffffffffffffffffffff\n      and\n        /* \"Subscribe.sol\":1744:1783  payable(msg.sender).transfer(msg.value) */\n      0x08fc\n        /* \"Subscribe.sol\":1773:1782  msg.value */\n      callvalue\n        /* \"Subscribe.sol\":1744:1783  payable(msg.sender).transfer(msg.value) */\n      swap1\n      dup2\n      iszero\n      mul\n      swap1\n      mload(0x40)\n      0x00\n      mload(0x40)\n      dup1\n      dup4\n      sub\n      dup2\n      dup6\n      dup9\n      dup9\n      call\n      swap4\n      pop\n      pop\n      pop\n      pop\n      iszero\n      dup1\n      iszero\n      tag_135\n      jumpi\n      returndatasize\n      0x00\n      dup1\n      returndatacopy\n      revert(0x00, returndatasize)\n    tag_135:\n      pop\n        /* \"Subscribe.sol\":1794:1838  transferFrom(approver,marketOwner,sub_price) */\n      tag_136\n        /* \"Subscribe.sol\":1807:1815  approver */\n      0x05\n      0x00\n      swap1\n      sload\n      swap1\n      0x0100\n      exp\n      swap1\n      div\n      0xffffffffffffffffffffffffffffffffffffffff\n      and\n        /* \"Subscribe.sol\":1816:1827  marketOwner */\n      0x04\n      0x00\n      swap1\n      sload\n      swap1\n      0x0100\n      exp\n      swap1\n      div\n      0xffffffffffffffffffffffffffffffffffffffff\n      and\n        /* \"Subscribe.sol\":1828:1837  sub_price */\n      sload(0x06)\n        /* \"Subscribe.sol\":1794:1806  transferFrom */\n      tag_38\n        /* \"Subscribe.sol\":1794:1838  transferFrom(approver,marketOwner,sub_price) */\n      jump\t// in\n    tag_136:\n      pop\n        /* \"Subscribe.sol\":1864:1879  block.timestamp */\n      timestamp\n        /* \"Subscribe.sol\":1849:1861  firstPayment */\n      0x02\n        /* \"Subscribe.sol\":1849:1879  firstPayment = block.timestamp */\n      dup2\n      swap1\n      sstore\n      pop\n        /* \"Subscribe.sol\":1922:1931  1 minutes */\n      0x3c\n        /* \"Subscribe.sol\":1907:1919  firstPayment */\n      sload(0x02)\n        /* \"Subscribe.sol\":1907:1931  firstPayment + 1 minutes */\n      tag_137\n      swap2\n      swap1\n      tag_117\n      jump\t// in\n    tag_137:\n        /* \"Subscribe.sol\":1893:1904  nextPayment */\n      0x03\n        /* \"Subscribe.sol\":1893:1931  nextPayment = firstPayment + 1 minutes */\n      dup2\n      swap1\n      sstore\n      pop\n        /* \"Subscribe.sol\":1440:1938  function subscribe(address _to) public payable{... */\n      pop\n      jump\t// out\n        /* \"node_modules/openzeppelin-solidity/contracts/access/Ownable.sol\":1668:1769  function renounceOwnership() public virtual onlyOwner {... */\n    tag_55:\n        /* \"node_modules/openzeppelin-solidity/contracts/access/Ownable.sol\":1259:1271  _msgSender() */\n      tag_139\n        /* \"node_modules/openzeppelin-solidity/contracts/access/Ownable.sol\":1259:1269  _msgSender */\n      tag_140\n        /* \"node_modules/openzeppelin-solidity/contracts/access/Ownable.sol\":1259:1271  _msgSender() */\n      jump\t// in\n    tag_139:\n        /* \"node_modules/openzeppelin-solidity/contracts/access/Ownable.sol\":1248:1271  owner() == _msgSender() */\n      0xffffffffffffffffffffffffffffffffffffffff\n      and\n        /* \"node_modules/openzeppelin-solidity/contracts/access/Ownable.sol\":1248:1255  owner() */\n      tag_141\n        /* \"node_modules/openzeppelin-solidity/contracts/access/Ownable.sol\":1248:1253  owner */\n      tag_58\n        /* \"node_modules/openzeppelin-solidity/contracts/access/Ownable.sol\":1248:1255  owner() */\n      jump\t// in\n    tag_141:\n        /* \"node_modules/openzeppelin-solidity/contracts/access/Ownable.sol\":1248:1271  owner() == _msgSender() */\n      0xffffffffffffffffffffffffffffffffffffffff\n      and\n      eq\n        /* \"node_modules/openzeppelin-solidity/contracts/access/Ownable.sol\":1240:1308  require(owner() == _msgSender(), \"Ownable: caller is not the owner\") */\n      tag_142\n      jumpi\n      mload(0x40)\n      0x08c379a000000000000000000000000000000000000000000000000000000000\n      dup2\n      mstore\n      0x04\n      add\n      tag_143\n      swap1\n      tag_144\n      jump\t// in\n    tag_143:\n      mload(0x40)\n      dup1\n      swap2\n      sub\n      swap1\n      revert\n    tag_142:\n        /* \"node_modules/openzeppelin-solidity/contracts/access/Ownable.sol\":1732:1762  _transferOwnership(address(0)) */\n      tag_146\n        /* \"node_modules/openzeppelin-solidity/contracts/access/Ownable.sol\":1759:1760  0 */\n      0x00\n        /* \"node_modules/openzeppelin-solidity/contracts/access/Ownable.sol\":1732:1750  _transferOwnership */\n      tag_147\n        /* \"node_modules/openzeppelin-solidity/contracts/access/Ownable.sol\":1732:1762  _transferOwnership(address(0)) */\n      jump\t// in\n    tag_146:\n        /* \"node_modules/openzeppelin-solidity/contracts/access/Ownable.sol\":1668:1769  function renounceOwnership() public virtual onlyOwner {... */\n      jump\t// out\n        /* \"node_modules/openzeppelin-solidity/contracts/access/Ownable.sol\":1036:1121  function owner() public view virtual returns (address) {... */\n    tag_58:\n        /* \"node_modules/openzeppelin-solidity/contracts/access/Ownable.sol\":1082:1089  address */\n      0x00\n        /* \"node_modules/openzeppelin-solidity/contracts/access/Ownable.sol\":1108:1114  _owner */\n      dup1\n      0x00\n      swap1\n      sload\n      swap1\n      0x0100\n      exp\n      swap1\n      div\n      0xffffffffffffffffffffffffffffffffffffffff\n      and\n        /* \"node_modules/openzeppelin-solidity/contracts/access/Ownable.sol\":1101:1114  return _owner */\n      swap1\n      pop\n        /* \"node_modules/openzeppelin-solidity/contracts/access/Ownable.sol\":1036:1121  function owner() public view virtual returns (address) {... */\n      swap1\n      jump\t// out\n        /* \"Subscribe.sol\":197:216  Approve public Sign */\n    tag_62:\n      0x01\n      0x00\n      swap1\n      sload\n      swap1\n      0x0100\n      exp\n      swap1\n      div\n      0xffffffffffffffffffffffffffffffffffffffff\n      and\n      dup2\n      jump\t// out\n        /* \"Subscribe.sol\":373:407  uint256 public sub_price = 1 ether */\n    tag_67:\n      sload(0x06)\n      dup2\n      jump\t// out\n        /* \"Subscribe.sol\":2126:2300  function nextTimestamp(address _owner) public view returns(uint){... */\n    tag_72:\n        /* \"Subscribe.sol\":2185:2189  uint */\n      0x00\n        /* \"Subscribe.sol\":2234:2239  false */\n      dup1\n        /* \"Subscribe.sol\":2208:2239  subscribeState[_owner] != false */\n      iszero\n      iszero\n        /* \"Subscribe.sol\":2208:2222  subscribeState */\n      0x07\n        /* \"Subscribe.sol\":2208:2230  subscribeState[_owner] */\n      0x00\n        /* \"Subscribe.sol\":2223:2229  _owner */\n      dup5\n        /* \"Subscribe.sol\":2208:2230  subscribeState[_owner] */\n      0xffffffffffffffffffffffffffffffffffffffff\n      and\n      0xffffffffffffffffffffffffffffffffffffffff\n      and\n      dup2\n      mstore\n      0x20\n      add\n      swap1\n      dup2\n      mstore\n      0x20\n      add\n      0x00\n      keccak256\n      0x00\n      swap1\n      sload\n      swap1\n      0x0100\n      exp\n      swap1\n      div\n      0xff\n      and\n        /* \"Subscribe.sol\":2208:2239  subscribeState[_owner] != false */\n      iszero\n      iszero\n      sub\n        /* \"Subscribe.sol\":2200:2265  require(subscribeState[_owner] != false, \"Subscribe Our Service\") */\n      tag_150\n      jumpi\n      mload(0x40)\n      0x08c379a000000000000000000000000000000000000000000000000000000000\n      dup2\n      mstore\n      0x04\n      add\n      tag_151\n      swap1\n      tag_105\n      jump\t// in\n    tag_151:\n      mload(0x40)\n      dup1\n      swap2\n      sub\n      swap1\n      revert\n    tag_150:\n        /* \"Subscribe.sol\":2282:2293  nextPayment */\n      sload(0x03)\n        /* \"Subscribe.sol\":2275:2293  return nextPayment */\n      swap1\n      pop\n        /* \"Subscribe.sol\":2126:2300  function nextTimestamp(address _owner) public view returns(uint){... */\n      swap2\n      swap1\n      pop\n      jump\t// out\n        /* \"Subscribe.sol\":414:460  mapping(address => bool) public subscribeState */\n    tag_77:\n      mstore(0x20, 0x07)\n      dup1\n      0x00\n      mstore\n      keccak256(0x00, 0x40)\n      0x00\n      swap2\n      pop\n      sload\n      swap1\n      0x0100\n      exp\n      swap1\n      div\n      0xff\n      and\n      dup2\n      jump\t// out\n        /* \"Subscribe.sol\":3521:3661  function allowance(address owner, address spender) public view virtual returns (uint256) {... */\n    tag_83:\n        /* \"Subscribe.sol\":3601:3608  uint256 */\n      0x00\n        /* \"Subscribe.sol\":3627:3638  _allowances */\n      0x08\n        /* \"Subscribe.sol\":3627:3645  _allowances[owner] */\n      0x00\n        /* \"Subscribe.sol\":3639:3644  owner */\n      dup5\n        /* \"Subscribe.sol\":3627:3645  _allowances[owner] */\n      0xffffffffffffffffffffffffffffffffffffffff\n      and\n      0xffffffffffffffffffffffffffffffffffffffff\n      and\n      dup2\n      mstore\n      0x20\n      add\n      swap1\n      dup2\n      mstore\n      0x20\n      add\n      0x00\n      keccak256\n        /* \"Subscribe.sol\":3627:3654  _allowances[owner][spender] */\n      0x00\n        /* \"Subscribe.sol\":3646:3653  spender */\n      dup4\n        /* \"Subscribe.sol\":3627:3654  _allowances[owner][spender] */\n      0xffffffffffffffffffffffffffffffffffffffff\n      and\n      0xffffffffffffffffffffffffffffffffffffffff\n      and\n      dup2\n      mstore\n      0x20\n      add\n      swap1\n      dup2\n      mstore\n      0x20\n      add\n      0x00\n      keccak256\n      sload\n        /* \"Subscribe.sol\":3620:3654  return _allowances[owner][spender] */\n      swap1\n      pop\n        /* \"Subscribe.sol\":3521:3661  function allowance(address owner, address spender) public view virtual returns (uint256) {... */\n      swap3\n      swap2\n      pop\n      pop\n      jump\t// out\n        /* \"Subscribe.sol\":3667:4105  function spendAllowance(... */\n    tag_88:\n        /* \"Subscribe.sol\":3794:3818  uint256 currentAllowance */\n      0x00\n        /* \"Subscribe.sol\":3821:3846  allowance(owner, spender) */\n      tag_154\n        /* \"Subscribe.sol\":3831:3836  owner */\n      dup5\n        /* \"Subscribe.sol\":3838:3845  spender */\n      dup5\n        /* \"Subscribe.sol\":3821:3830  allowance */\n      tag_83\n        /* \"Subscribe.sol\":3821:3846  allowance(owner, spender) */\n      jump\t// in\n    tag_154:\n        /* \"Subscribe.sol\":3794:3846  uint256 currentAllowance = allowance(owner, spender) */\n      swap1\n      pop\n        /* \"Subscribe.sol\":3880:3897  type(uint256).max */\n      0xffffffffffffffffffffffffffffffffffffffffffffffffffffffffffffffff\n        /* \"Subscribe.sol\":3860:3876  currentAllowance */\n      dup2\n        /* \"Subscribe.sol\":3860:3897  currentAllowance != type(uint256).max */\n      eq\n        /* \"Subscribe.sol\":3856:4099  if (currentAllowance != type(uint256).max) {... */\n      tag_155\n      jumpi\n        /* \"Subscribe.sol\":3941:3947  amount */\n      dup2\n        /* \"Subscribe.sol\":3921:3937  currentAllowance */\n      dup2\n        /* \"Subscribe.sol\":3921:3947  currentAllowance >= amount */\n      lt\n      iszero\n        /* \"Subscribe.sol\":3913:3981  require(currentAllowance >= amount, \"ERC20: insufficient allowance\") */\n      tag_156\n      jumpi\n      mload(0x40)\n      0x08c379a000000000000000000000000000000000000000000000000000000000\n      dup2\n      mstore\n      0x04\n      add\n      tag_157\n      swap1\n      tag_158\n      jump\t// in\n    tag_157:\n      mload(0x40)\n      dup1\n      swap2\n      sub\n      swap1\n      revert\n    tag_156:\n        /* \"Subscribe.sol\":4023:4074  _approve(owner, spender, currentAllowance - amount) */\n      tag_159\n        /* \"Subscribe.sol\":4032:4037  owner */\n      dup5\n        /* \"Subscribe.sol\":4039:4046  spender */\n      dup5\n        /* \"Subscribe.sol\":4067:4073  amount */\n      dup5\n        /* \"Subscribe.sol\":4048:4064  currentAllowance */\n      dup5\n        /* \"Subscribe.sol\":4048:4073  currentAllowance - amount */\n      sub\n        /* \"Subscribe.sol\":4023:4031  _approve */\n      tag_160\n        /* \"Subscribe.sol\":4023:4074  _approve(owner, spender, currentAllowance - amount) */\n      jump\t// in\n    tag_159:\n        /* \"Subscribe.sol\":3856:4099  if (currentAllowance != type(uint256).max) {... */\n    tag_155:\n        /* \"Subscribe.sol\":3784:4105  {... */\n      pop\n        /* \"Subscribe.sol\":3667:4105  function spendAllowance(... */\n      pop\n      pop\n      pop\n      jump\t// out\n        /* \"Subscribe.sol\":2307:2519  function cancelSubscribe(address payable _owner) public{... */\n    tag_92:\n        /* \"Subscribe.sol\":2393:2404  nextPayment */\n      sload(0x03)\n        /* \"Subscribe.sol\":2375:2390  block.timestamp */\n      timestamp\n        /* \"Subscribe.sol\":2375:2404  block.timestamp < nextPayment */\n      lt\n        /* \"Subscribe.sol\":2372:2513  if(block.timestamp < nextPayment){... */\n      iszero\n      tag_162\n      jumpi\n        /* \"Subscribe.sol\":2419:2446  setUserState(_owner, false) */\n      tag_163\n        /* \"Subscribe.sol\":2432:2438  _owner */\n      dup2\n        /* \"Subscribe.sol\":2440:2445  false */\n      0x00\n        /* \"Subscribe.sol\":2419:2431  setUserState */\n      tag_45\n        /* \"Subscribe.sol\":2419:2446  setUserState(_owner, false) */\n      jump\t// in\n    tag_163:\n        /* \"Subscribe.sol\":2372:2513  if(block.timestamp < nextPayment){... */\n      jump(tag_164)\n    tag_162:\n        /* \"Subscribe.sol\":2477:2502  withdrawSubscribe(_owner) */\n      tag_165\n        /* \"Subscribe.sol\":2495:2501  _owner */\n      dup2\n        /* \"Subscribe.sol\":2477:2494  withdrawSubscribe */\n      tag_49\n        /* \"Subscribe.sol\":2477:2502  withdrawSubscribe(_owner) */\n      jump\t// in\n    tag_165:\n        /* \"Subscribe.sol\":2372:2513  if(block.timestamp < nextPayment){... */\n    tag_164:\n        /* \"Subscribe.sol\":2307:2519  function cancelSubscribe(address payable _owner) public{... */\n      pop\n      jump\t// out\n        /* \"Subscribe.sol\":2797:2950  function isApprovedForAll(address owner, address operator) public view virtual returns (bool) {... */\n    tag_96:\n        /* \"Subscribe.sol\":2885:2889  bool */\n      0x00\n        /* \"Subscribe.sol\":2908:2926  _operatorApprovals */\n      0x09\n        /* \"Subscribe.sol\":2908:2933  _operatorApprovals[owner] */\n      0x00\n        /* \"Subscribe.sol\":2927:2932  owner */\n      dup5\n        /* \"Subscribe.sol\":2908:2933  _operatorApprovals[owner] */\n      0xffffffffffffffffffffffffffffffffffffffff\n      and\n      0xffffffffffffffffffffffffffffffffffffffff\n      and\n      dup2\n      mstore\n      0x20\n      add\n      swap1\n      dup2\n      mstore\n      0x20\n      add\n      0x00\n      keccak256\n        /* \"Subscribe.sol\":2908:2943  _operatorApprovals[owner][operator] */\n      0x00\n        /* \"Subscribe.sol\":2934:2942  operator */\n      dup4\n        /* \"Subscribe.sol\":2908:2943  _operatorApprovals[owner][operator] */\n      0xffffffffffffffffffffffffffffffffffffffff\n      and\n      0xffffffffffffffffffffffffffffffffffffffff\n      and\n      dup2\n      mstore\n      0x20\n      add\n      swap1\n      dup2\n      mstore\n      0x20\n      add\n      0x00\n      keccak256\n      0x00\n      swap1\n      sload\n      swap1\n      0x0100\n      exp\n      swap1\n      div\n      0xff\n      and\n        /* \"Subscribe.sol\":2901:2943  return _operatorApprovals[owner][operator] */\n      swap1\n      pop\n        /* \"Subscribe.sol\":2797:2950  function isApprovedForAll(address owner, address operator) public view virtual returns (bool) {... */\n      swap3\n      swap2\n      pop\n      pop\n      jump\t// out\n        /* \"node_modules/openzeppelin-solidity/contracts/access/Ownable.sol\":1918:2116  function transferOwnership(address newOwner) public virtual onlyOwner {... */\n    tag_101:\n        /* \"node_modules/openzeppelin-solidity/contracts/access/Ownable.sol\":1259:1271  _msgSender() */\n      tag_168\n        /* \"node_modules/openzeppelin-solidity/contracts/access/Ownable.sol\":1259:1269  _msgSender */\n      tag_140\n        /* \"node_modules/openzeppelin-solidity/contracts/access/Ownable.sol\":1259:1271  _msgSender() */\n      jump\t// in\n    tag_168:\n        /* \"node_modules/openzeppelin-solidity/contracts/access/Ownable.sol\":1248:1271  owner() == _msgSender() */\n      0xffffffffffffffffffffffffffffffffffffffff\n      and\n        /* \"node_modules/openzeppelin-solidity/contracts/access/Ownable.sol\":1248:1255  owner() */\n      tag_169\n        /* \"node_modules/openzeppelin-solidity/contracts/access/Ownable.sol\":1248:1253  owner */\n      tag_58\n        /* \"node_modules/openzeppelin-solidity/contracts/access/Ownable.sol\":1248:1255  owner() */\n      jump\t// in\n    tag_169:\n        /* \"node_modules/openzeppelin-solidity/contracts/access/Ownable.sol\":1248:1271  owner() == _msgSender() */\n      0xffffffffffffffffffffffffffffffffffffffff\n      and\n      eq\n        /* \"node_modules/openzeppelin-solidity/contracts/access/Ownable.sol\":1240:1308  require(owner() == _msgSender(), \"Ownable: caller is not the owner\") */\n      tag_170\n      jumpi\n      mload(0x40)\n      0x08c379a000000000000000000000000000000000000000000000000000000000\n      dup2\n      mstore\n      0x04\n      add\n      tag_171\n      swap1\n      tag_144\n      jump\t// in\n    tag_171:\n      mload(0x40)\n      dup1\n      swap2\n      sub\n      swap1\n      revert\n    tag_170:\n        /* \"node_modules/openzeppelin-solidity/contracts/access/Ownable.sol\":2026:2027  0 */\n      0x00\n        /* \"node_modules/openzeppelin-solidity/contracts/access/Ownable.sol\":2006:2028  newOwner != address(0) */\n      0xffffffffffffffffffffffffffffffffffffffff\n      and\n        /* \"node_modules/openzeppelin-solidity/contracts/access/Ownable.sol\":2006:2014  newOwner */\n      dup2\n        /* \"node_modules/openzeppelin-solidity/contracts/access/Ownable.sol\":2006:2028  newOwner != address(0) */\n      0xffffffffffffffffffffffffffffffffffffffff\n      and\n      sub\n        /* \"node_modules/openzeppelin-solidity/contracts/access/Ownable.sol\":1998:2071  require(newOwner != address(0), \"Ownable: new owner is the zero address\") */\n      tag_173\n      jumpi\n      mload(0x40)\n      0x08c379a000000000000000000000000000000000000000000000000000000000\n      dup2\n      mstore\n      0x04\n      add\n      tag_174\n      swap1\n      tag_175\n      jump\t// in\n    tag_174:\n      mload(0x40)\n      dup1\n      swap2\n      sub\n      swap1\n      revert\n    tag_173:\n        /* \"node_modules/openzeppelin-solidity/contracts/access/Ownable.sol\":2081:2109  _transferOwnership(newOwner) */\n      tag_176\n        /* \"node_modules/openzeppelin-solidity/contracts/access/Ownable.sol\":2100:2108  newOwner */\n      dup2\n        /* \"node_modules/openzeppelin-solidity/contracts/access/Ownable.sol\":2081:2099  _transferOwnership */\n      tag_147\n        /* \"node_modules/openzeppelin-solidity/contracts/access/Ownable.sol\":2081:2109  _transferOwnership(newOwner) */\n      jump\t// in\n    tag_176:\n        /* \"node_modules/openzeppelin-solidity/contracts/access/Ownable.sol\":1918:2116  function transferOwnership(address newOwner) public virtual onlyOwner {... */\n      pop\n      jump\t// out\n        /* \"Subscribe.sol\":889:1184  function _transfer(... */\n    tag_113:\n        /* \"Subscribe.sol\":1031:1032  0 */\n      0x00\n        /* \"Subscribe.sol\":1015:1033  from != address(0) */\n      0xffffffffffffffffffffffffffffffffffffffff\n      and\n        /* \"Subscribe.sol\":1015:1019  from */\n      dup4\n        /* \"Subscribe.sol\":1015:1033  from != address(0) */\n      0xffffffffffffffffffffffffffffffffffffffff\n      and\n      sub\n        /* \"Subscribe.sol\":1007:1068  require(from != address(0), \"transfer from the zero address\") */\n      tag_178\n      jumpi\n      mload(0x40)\n      0x08c379a000000000000000000000000000000000000000000000000000000000\n      dup2\n      mstore\n      0x04\n      add\n      tag_179\n      swap1\n      tag_180\n      jump\t// in\n    tag_179:\n      mload(0x40)\n      dup1\n      swap2\n      sub\n      swap1\n      revert\n    tag_178:\n        /* \"Subscribe.sol\":1100:1101  0 */\n      0x00\n        /* \"Subscribe.sol\":1086:1102  to != address(0) */\n      0xffffffffffffffffffffffffffffffffffffffff\n      and\n        /* \"Subscribe.sol\":1086:1088  to */\n      dup3\n        /* \"Subscribe.sol\":1086:1102  to != address(0) */\n      0xffffffffffffffffffffffffffffffffffffffff\n      and\n      sub\n        /* \"Subscribe.sol\":1078:1135  require(to != address(0), \"transfer to the zero address\") */\n      tag_181\n      jumpi\n      mload(0x40)\n      0x08c379a000000000000000000000000000000000000000000000000000000000\n      dup2\n      mstore\n      0x04\n      add\n      tag_182\n      swap1\n      tag_183\n      jump\t// in\n    tag_182:\n      mload(0x40)\n      dup1\n      swap2\n      sub\n      swap1\n      revert\n    tag_181:\n        /* \"Subscribe.sol\":1166:1168  to */\n      dup2\n        /* \"Subscribe.sol\":1151:1177  Transfer(from, to, amount) */\n      0xffffffffffffffffffffffffffffffffffffffff\n      and\n        /* \"Subscribe.sol\":1160:1164  from */\n      dup4\n        /* \"Subscribe.sol\":1151:1177  Transfer(from, to, amount) */\n      0xffffffffffffffffffffffffffffffffffffffff\n      and\n      0xddf252ad1be2c89b69c2b068fc378daa952ba7f163c4a11628f55a4df523b3ef\n        /* \"Subscribe.sol\":1170:1176  amount */\n      dup4\n        /* \"Subscribe.sol\":1151:1177  Transfer(from, to, amount) */\n      mload(0x40)\n      tag_184\n      swap2\n      swap1\n      tag_33\n      jump\t// in\n    tag_184:\n      mload(0x40)\n      dup1\n      swap2\n      sub\n      swap1\n      log3\n        /* \"Subscribe.sol\":889:1184  function _transfer(... */\n      pop\n      pop\n      pop\n      jump\t// out\n        /* \"node_modules/openzeppelin-solidity/contracts/utils/Context.sol\":640:736  function _msgSender() internal view virtual returns (address) {... */\n    tag_140:\n        /* \"node_modules/openzeppelin-solidity/contracts/utils/Context.sol\":693:700  address */\n      0x00\n        /* \"node_modules/openzeppelin-solidity/contracts/utils/Context.sol\":719:729  msg.sender */\n      caller\n        /* \"node_modules/openzeppelin-solidity/contracts/utils/Context.sol\":712:729  return msg.sender */\n      swap1\n      pop\n        /* \"node_modules/openzeppelin-solidity/contracts/utils/Context.sol\":640:736  function _msgSender() internal view virtual returns (address) {... */\n      swap1\n      jump\t// out\n        /* \"node_modules/openzeppelin-solidity/contracts/access/Ownable.sol\":2270:2457  function _transferOwnership(address newOwner) internal virtual {... */\n    tag_147:\n        /* \"node_modules/openzeppelin-solidity/contracts/access/Ownable.sol\":2343:2359  address oldOwner */\n      0x00\n        /* \"node_modules/openzeppelin-solidity/contracts/access/Ownable.sol\":2362:2368  _owner */\n      dup1\n      0x00\n      swap1\n      sload\n      swap1\n      0x0100\n      exp\n      swap1\n      div\n      0xffffffffffffffffffffffffffffffffffffffff\n      and\n        /* \"node_modules/openzeppelin-solidity/contracts/access/Ownable.sol\":2343:2368  address oldOwner = _owner */\n      swap1\n      pop\n        /* \"node_modules/openzeppelin-solidity/contracts/access/Ownable.sol\":2387:2395  newOwner */\n      dup2\n        /* \"node_modules/openzeppelin-solidity/contracts/access/Ownable.sol\":2378:2384  _owner */\n      0x00\n      dup1\n        /* \"node_modules/openzeppelin-solidity/contracts/access/Ownable.sol\":2378:2395  _owner = newOwner */\n      0x0100\n      exp\n      dup2\n      sload\n      dup2\n      0xffffffffffffffffffffffffffffffffffffffff\n      mul\n      not\n      and\n      swap1\n      dup4\n      0xffffffffffffffffffffffffffffffffffffffff\n      and\n      mul\n      or\n      swap1\n      sstore\n      pop\n        /* \"node_modules/openzeppelin-solidity/contracts/access/Ownable.sol\":2441:2449  newOwner */\n      dup2\n        /* \"node_modules/openzeppelin-solidity/contracts/access/Ownable.sol\":2410:2450  OwnershipTransferred(oldOwner, newOwner) */\n      0xffffffffffffffffffffffffffffffffffffffff\n      and\n        /* \"node_modules/openzeppelin-solidity/contracts/access/Ownable.sol\":2431:2439  oldOwner */\n      dup2\n        /* \"node_modules/openzeppelin-solidity/contracts/access/Ownable.sol\":2410:2450  OwnershipTransferred(oldOwner, newOwner) */\n      0xffffffffffffffffffffffffffffffffffffffff\n      and\n      0x8be0079c531659141344cd1fd0a4f28419497f9722a3daafe3b4186f6b6457e0\n      mload(0x40)\n      mload(0x40)\n      dup1\n      swap2\n      sub\n      swap1\n      log3\n        /* \"node_modules/openzeppelin-solidity/contracts/access/Ownable.sol\":2333:2457  {... */\n      pop\n        /* \"node_modules/openzeppelin-solidity/contracts/access/Ownable.sol\":2270:2457  function _transferOwnership(address newOwner) internal virtual {... */\n      pop\n      jump\t// out\n        /* \"Subscribe.sol\":3158:3515  function _approve(... */\n    tag_160:\n        /* \"Subscribe.sol\":3306:3307  0 */\n      0x00\n        /* \"Subscribe.sol\":3289:3308  owner != address(0) */\n      0xffffffffffffffffffffffffffffffffffffffff\n      and\n        /* \"Subscribe.sol\":3289:3294  owner */\n      dup4\n        /* \"Subscribe.sol\":3289:3308  owner != address(0) */\n      0xffffffffffffffffffffffffffffffffffffffff\n      and\n      sub\n        /* \"Subscribe.sol\":3281:3342  require(owner != address(0), \"approve from the zero address\") */\n      tag_188\n      jumpi\n      mload(0x40)\n      0x08c379a000000000000000000000000000000000000000000000000000000000\n      dup2\n      mstore\n      0x04\n      add\n      tag_189\n      swap1\n      tag_190\n      jump\t// in\n    tag_189:\n      mload(0x40)\n      dup1\n      swap2\n      sub\n      swap1\n      revert\n    tag_188:\n        /* \"Subscribe.sol\":3379:3380  0 */\n      0x00\n        /* \"Subscribe.sol\":3360:3381  spender != address(0) */\n      0xffffffffffffffffffffffffffffffffffffffff\n      and\n        /* \"Subscribe.sol\":3360:3367  spender */\n      dup3\n        /* \"Subscribe.sol\":3360:3381  spender != address(0) */\n      0xffffffffffffffffffffffffffffffffffffffff\n      and\n      sub\n        /* \"Subscribe.sol\":3352:3414  require(spender != address(0), \" approve to the zero address\") */\n      tag_191\n      jumpi\n      mload(0x40)\n      0x08c379a000000000000000000000000000000000000000000000000000000000\n      dup2\n      mstore\n      0x04\n      add\n      tag_192\n      swap1\n      tag_193\n      jump\t// in\n    tag_192:\n      mload(0x40)\n      dup1\n      swap2\n      sub\n      swap1\n      revert\n    tag_191:\n        /* \"Subscribe.sol\":3455:3461  amount */\n      dup1\n        /* \"Subscribe.sol\":3425:3436  _allowances */\n      0x08\n        /* \"Subscribe.sol\":3425:3443  _allowances[owner] */\n      0x00\n        /* \"Subscribe.sol\":3437:3442  owner */\n      dup6\n        /* \"Subscribe.sol\":3425:3443  _allowances[owner] */\n      0xffffffffffffffffffffffffffffffffffffffff\n      and\n      0xffffffffffffffffffffffffffffffffffffffff\n      and\n      dup2\n      mstore\n      0x20\n      add\n      swap1\n      dup2\n      mstore\n      0x20\n      add\n      0x00\n      keccak256\n        /* \"Subscribe.sol\":3425:3452  _allowances[owner][spender] */\n      0x00\n        /* \"Subscribe.sol\":3444:3451  spender */\n      dup5\n        /* \"Subscribe.sol\":3425:3452  _allowances[owner][spender] */\n      0xffffffffffffffffffffffffffffffffffffffff\n      and\n      0xffffffffffffffffffffffffffffffffffffffff\n      and\n      dup2\n      mstore\n      0x20\n      add\n      swap1\n      dup2\n      mstore\n      0x20\n      add\n      0x00\n      keccak256\n        /* \"Subscribe.sol\":3425:3461  _allowances[owner][spender] = amount */\n      dup2\n      swap1\n      sstore\n      pop\n        /* \"Subscribe.sol\":3492:3499  spender */\n      dup2\n        /* \"Subscribe.sol\":3476:3508  Approval(owner, spender, amount) */\n      0xffffffffffffffffffffffffffffffffffffffff\n      and\n        /* \"Subscribe.sol\":3485:3490  owner */\n      dup4\n        /* \"Subscribe.sol\":3476:3508  Approval(owner, spender, amount) */\n      0xffffffffffffffffffffffffffffffffffffffff\n      and\n      0x8c5be1e5ebec7d5bd14f71427d1e84f3dd0314c0f7b2291e5b200ac8c7c3b925\n        /* \"Subscribe.sol\":3501:3507  amount */\n      dup4\n        /* \"Subscribe.sol\":3476:3508  Approval(owner, spender, amount) */\n      mload(0x40)\n      tag_194\n      swap2\n      swap1\n      tag_33\n      jump\t// in\n    tag_194:\n      mload(0x40)\n      dup1\n      swap2\n      sub\n      swap1\n      log3\n        /* \"Subscribe.sol\":3158:3515  function _approve(... */\n      pop\n      pop\n      pop\n      jump\t// out\n        /* \"#utility.yul\":7:133   */\n    tag_195:\n        /* \"#utility.yul\":44:51   */\n      0x00\n        /* \"#utility.yul\":84:126   */\n      0xffffffffffffffffffffffffffffffffffffffff\n        /* \"#utility.yul\":77:82   */\n      dup3\n        /* \"#utility.yul\":73:127   */\n      and\n        /* \"#utility.yul\":62:127   */\n      swap1\n      pop\n        /* \"#utility.yul\":7:133   */\n      swap2\n      swap1\n      pop\n      jump\t// out\n        /* \"#utility.yul\":139:235   */\n    tag_196:\n        /* \"#utility.yul\":176:183   */\n      0x00\n        /* \"#utility.yul\":205:229   */\n      tag_243\n        /* \"#utility.yul\":223:228   */\n      dup3\n        /* \"#utility.yul\":205:229   */\n      tag_195\n      jump\t// in\n    tag_243:\n        /* \"#utility.yul\":194:229   */\n      swap1\n      pop\n        /* \"#utility.yul\":139:235   */\n      swap2\n      swap1\n      pop\n      jump\t// out\n        /* \"#utility.yul\":241:359   */\n    tag_197:\n        /* \"#utility.yul\":328:352   */\n      tag_245\n        /* \"#utility.yul\":346:351   */\n      dup2\n        /* \"#utility.yul\":328:352   */\n      tag_196\n      jump\t// in\n    tag_245:\n        /* \"#utility.yul\":323:326   */\n      dup3\n        /* \"#utility.yul\":316:353   */\n      mstore\n        /* \"#utility.yul\":241:359   */\n      pop\n      pop\n      jump\t// out\n        /* \"#utility.yul\":365:587   */\n    tag_26:\n        /* \"#utility.yul\":458:462   */\n      0x00\n        /* \"#utility.yul\":496:498   */\n      0x20\n        /* \"#utility.yul\":485:494   */\n      dup3\n        /* \"#utility.yul\":481:499   */\n      add\n        /* \"#utility.yul\":473:499   */\n      swap1\n      pop\n        /* \"#utility.yul\":509:580   */\n      tag_247\n        /* \"#utility.yul\":577:578   */\n      0x00\n        /* \"#utility.yul\":566:575   */\n      dup4\n        /* \"#utility.yul\":562:579   */\n      add\n        /* \"#utility.yul\":553:559   */\n      dup5\n        /* \"#utility.yul\":509:580   */\n      tag_197\n      jump\t// in\n    tag_247:\n        /* \"#utility.yul\":365:587   */\n      swap3\n      swap2\n      pop\n      pop\n      jump\t// out\n        /* \"#utility.yul\":674:791   */\n    tag_199:\n        /* \"#utility.yul\":783:784   */\n      0x00\n        /* \"#utility.yul\":780:781   */\n      dup1\n        /* \"#utility.yul\":773:785   */\n      revert\n        /* \"#utility.yul\":920:1042   */\n    tag_201:\n        /* \"#utility.yul\":993:1017   */\n      tag_252\n        /* \"#utility.yul\":1011:1016   */\n      dup2\n        /* \"#utility.yul\":993:1017   */\n      tag_196\n      jump\t// in\n    tag_252:\n        /* \"#utility.yul\":986:991   */\n      dup2\n        /* \"#utility.yul\":983:1018   */\n      eq\n        /* \"#utility.yul\":973:1036   */\n      tag_253\n      jumpi\n        /* \"#utility.yul\":1032:1033   */\n      0x00\n        /* \"#utility.yul\":1029:1030   */\n      dup1\n        /* \"#utility.yul\":1022:1034   */\n      revert\n        /* \"#utility.yul\":973:1036   */\n    tag_253:\n        /* \"#utility.yul\":920:1042   */\n      pop\n      jump\t// out\n        /* \"#utility.yul\":1048:1187   */\n    tag_202:\n        /* \"#utility.yul\":1094:1099   */\n      0x00\n        /* \"#utility.yul\":1132:1138   */\n      dup2\n        /* \"#utility.yul\":1119:1139   */\n      calldataload\n        /* \"#utility.yul\":1110:1139   */\n      swap1\n      pop\n        /* \"#utility.yul\":1148:1181   */\n      tag_255\n        /* \"#utility.yul\":1175:1180   */\n      dup2\n        /* \"#utility.yul\":1148:1181   */\n      tag_201\n      jump\t// in\n    tag_255:\n        /* \"#utility.yul\":1048:1187   */\n      swap3\n      swap2\n      pop\n      pop\n      jump\t// out\n        /* \"#utility.yul\":1193:1522   */\n    tag_30:\n        /* \"#utility.yul\":1252:1258   */\n      0x00\n        /* \"#utility.yul\":1301:1303   */\n      0x20\n        /* \"#utility.yul\":1289:1298   */\n      dup3\n        /* \"#utility.yul\":1280:1287   */\n      dup5\n        /* \"#utility.yul\":1276:1299   */\n      sub\n        /* \"#utility.yul\":1272:1304   */\n      slt\n        /* \"#utility.yul\":1269:1388   */\n      iszero\n      tag_257\n      jumpi\n        /* \"#utility.yul\":1307:1386   */\n      tag_258\n      tag_199\n      jump\t// in\n    tag_258:\n        /* \"#utility.yul\":1269:1388   */\n    tag_257:\n        /* \"#utility.yul\":1427:1428   */\n      0x00\n        /* \"#utility.yul\":1452:1505   */\n      tag_259\n        /* \"#utility.yul\":1497:1504   */\n      dup5\n        /* \"#utility.yul\":1488:1494   */\n      dup3\n        /* \"#utility.yul\":1477:1486   */\n      dup6\n        /* \"#utility.yul\":1473:1495   */\n      add\n        /* \"#utility.yul\":1452:1505   */\n      tag_202\n      jump\t// in\n    tag_259:\n        /* \"#utility.yul\":1442:1505   */\n      swap2\n      pop\n        /* \"#utility.yul\":1398:1515   */\n      pop\n        /* \"#utility.yul\":1193:1522   */\n      swap3\n      swap2\n      pop\n      pop\n      jump\t// out\n        /* \"#utility.yul\":1528:1605   */\n    tag_203:\n        /* \"#utility.yul\":1565:1572   */\n      0x00\n        /* \"#utility.yul\":1594:1599   */\n      dup2\n        /* \"#utility.yul\":1583:1599   */\n      swap1\n      pop\n        /* \"#utility.yul\":1528:1605   */\n      swap2\n      swap1\n      pop\n      jump\t// out\n        /* \"#utility.yul\":1611:1729   */\n    tag_204:\n        /* \"#utility.yul\":1698:1722   */\n      tag_262\n        /* \"#utility.yul\":1716:1721   */\n      dup2\n        /* \"#utility.yul\":1698:1722   */\n      tag_203\n      jump\t// in\n    tag_262:\n        /* \"#utility.yul\":1693:1696   */\n      dup3\n        /* \"#utility.yul\":1686:1723   */\n      mstore\n        /* \"#utility.yul\":1611:1729   */\n      pop\n      pop\n      jump\t// out\n        /* \"#utility.yul\":1735:1957   */\n    tag_33:\n        /* \"#utility.yul\":1828:1832   */\n      0x00\n        /* \"#utility.yul\":1866:1868   */\n      0x20\n        /* \"#utility.yul\":1855:1864   */\n      dup3\n        /* \"#utility.yul\":1851:1869   */\n      add\n        /* \"#utility.yul\":1843:1869   */\n      swap1\n      pop\n        /* \"#utility.yul\":1879:1950   */\n      tag_264\n        /* \"#utility.yul\":1947:1948   */\n      0x00\n        /* \"#utility.yul\":1936:1945   */\n      dup4\n        /* \"#utility.yul\":1932:1949   */\n      add\n        /* \"#utility.yul\":1923:1929   */\n      dup5\n        /* \"#utility.yul\":1879:1950   */\n      tag_204\n      jump\t// in\n    tag_264:\n        /* \"#utility.yul\":1735:1957   */\n      swap3\n      swap2\n      pop\n      pop\n      jump\t// out\n        /* \"#utility.yul\":1963:2085   */\n    tag_205:\n        /* \"#utility.yul\":2036:2060   */\n      tag_266\n        /* \"#utility.yul\":2054:2059   */\n      dup2\n        /* \"#utility.yul\":2036:2060   */\n      tag_203\n      jump\t// in\n    tag_266:\n        /* \"#utility.yul\":2029:2034   */\n      dup2\n        /* \"#utility.yul\":2026:2061   */\n      eq\n        /* \"#utility.yul\":2016:2079   */\n      tag_267\n      jumpi\n        /* \"#utility.yul\":2075:2076   */\n      0x00\n        /* \"#utility.yul\":2072:2073   */\n      dup1\n        /* \"#utility.yul\":2065:2077   */\n      revert\n        /* \"#utility.yul\":2016:2079   */\n    tag_267:\n        /* \"#utility.yul\":1963:2085   */\n      pop\n      jump\t// out\n        /* \"#utility.yul\":2091:2230   */\n    tag_206:\n        /* \"#utility.yul\":2137:2142   */\n      0x00\n        /* \"#utility.yul\":2175:2181   */\n      dup2\n        /* \"#utility.yul\":2162:2182   */\n      calldataload\n        /* \"#utility.yul\":2153:2182   */\n      swap1\n      pop\n        /* \"#utility.yul\":2191:2224   */\n      tag_269\n        /* \"#utility.yul\":2218:2223   */\n      dup2\n        /* \"#utility.yul\":2191:2224   */\n      tag_205\n      jump\t// in\n    tag_269:\n        /* \"#utility.yul\":2091:2230   */\n      swap3\n      swap2\n      pop\n      pop\n      jump\t// out\n        /* \"#utility.yul\":2236:2855   */\n    tag_37:\n        /* \"#utility.yul\":2313:2319   */\n      0x00\n        /* \"#utility.yul\":2321:2327   */\n      dup1\n        /* \"#utility.yul\":2329:2335   */\n      0x00\n        /* \"#utility.yul\":2378:2380   */\n      0x60\n        /* \"#utility.yul\":2366:2375   */\n      dup5\n        /* \"#utility.yul\":2357:2364   */\n      dup7\n        /* \"#utility.yul\":2353:2376   */\n      sub\n        /* \"#utility.yul\":2349:2381   */\n      slt\n        /* \"#utility.yul\":2346:2465   */\n      iszero\n      tag_271\n      jumpi\n        /* \"#utility.yul\":2384:2463   */\n      tag_272\n      tag_199\n      jump\t// in\n    tag_272:\n        /* \"#utility.yul\":2346:2465   */\n    tag_271:\n        /* \"#utility.yul\":2504:2505   */\n      0x00\n        /* \"#utility.yul\":2529:2582   */\n      tag_273\n        /* \"#utility.yul\":2574:2581   */\n      dup7\n        /* \"#utility.yul\":2565:2571   */\n      dup3\n        /* \"#utility.yul\":2554:2563   */\n      dup8\n        /* \"#utility.yul\":2550:2572   */\n      add\n        /* \"#utility.yul\":2529:2582   */\n      tag_202\n      jump\t// in\n    tag_273:\n        /* \"#utility.yul\":2519:2582   */\n      swap4\n      pop\n        /* \"#utility.yul\":2475:2592   */\n      pop\n        /* \"#utility.yul\":2631:2633   */\n      0x20\n        /* \"#utility.yul\":2657:2710   */\n      tag_274\n        /* \"#utility.yul\":2702:2709   */\n      dup7\n        /* \"#utility.yul\":2693:2699   */\n      dup3\n        /* \"#utility.yul\":2682:2691   */\n      dup8\n        /* \"#utility.yul\":2678:2700   */\n      add\n        /* \"#utility.yul\":2657:2710   */\n      tag_202\n      jump\t// in\n    tag_274:\n        /* \"#utility.yul\":2647:2710   */\n      swap3\n      pop\n        /* \"#utility.yul\":2602:2720   */\n      pop\n        /* \"#utility.yul\":2759:2761   */\n      0x40\n        /* \"#utility.yul\":2785:2838   */\n      tag_275\n        /* \"#utility.yul\":2830:2837   */\n      dup7\n        /* \"#utility.yul\":2821:2827   */\n      dup3\n        /* \"#utility.yul\":2810:2819   */\n      dup8\n        /* \"#utility.yul\":2806:2828   */\n      add\n        /* \"#utility.yul\":2785:2838   */\n      tag_206\n      jump\t// in\n    tag_275:\n        /* \"#utility.yul\":2775:2838   */\n      swap2\n      pop\n        /* \"#utility.yul\":2730:2848   */\n      pop\n        /* \"#utility.yul\":2236:2855   */\n      swap3\n      pop\n      swap3\n      pop\n      swap3\n      jump\t// out\n        /* \"#utility.yul\":2861:2951   */\n    tag_207:\n        /* \"#utility.yul\":2895:2902   */\n      0x00\n        /* \"#utility.yul\":2938:2943   */\n      dup2\n        /* \"#utility.yul\":2931:2944   */\n      iszero\n        /* \"#utility.yul\":2924:2945   */\n      iszero\n        /* \"#utility.yul\":2913:2945   */\n      swap1\n      pop\n        /* \"#utility.yul\":2861:2951   */\n      swap2\n      swap1\n      pop\n      jump\t// out\n        /* \"#utility.yul\":2957:3066   */\n    tag_208:\n        /* \"#utility.yul\":3038:3059   */\n      tag_278\n        /* \"#utility.yul\":3053:3058   */\n      dup2\n        /* \"#utility.yul\":3038:3059   */\n      tag_207\n      jump\t// in\n    tag_278:\n        /* \"#utility.yul\":3033:3036   */\n      dup3\n        /* \"#utility.yul\":3026:3060   */\n      mstore\n        /* \"#utility.yul\":2957:3066   */\n      pop\n      pop\n      jump\t// out\n        /* \"#utility.yul\":3072:3282   */\n    tag_40:\n        /* \"#utility.yul\":3159:3163   */\n      0x00\n        /* \"#utility.yul\":3197:3199   */\n      0x20\n        /* \"#utility.yul\":3186:3195   */\n      dup3\n        /* \"#utility.yul\":3182:3200   */\n      add\n        /* \"#utility.yul\":3174:3200   */\n      swap1\n      pop\n        /* \"#utility.yul\":3210:3275   */\n      tag_280\n        /* \"#utility.yul\":3272:3273   */\n      0x00\n        /* \"#utility.yul\":3261:3270   */\n      dup4\n        /* \"#utility.yul\":3257:3274   */\n      add\n        /* \"#utility.yul\":3248:3254   */\n      dup5\n        /* \"#utility.yul\":3210:3275   */\n      tag_208\n      jump\t// in\n    tag_280:\n        /* \"#utility.yul\":3072:3282   */\n      swap3\n      swap2\n      pop\n      pop\n      jump\t// out\n        /* \"#utility.yul\":3288:3404   */\n    tag_209:\n        /* \"#utility.yul\":3358:3379   */\n      tag_282\n        /* \"#utility.yul\":3373:3378   */\n      dup2\n        /* \"#utility.yul\":3358:3379   */\n      tag_207\n      jump\t// in\n    tag_282:\n        /* \"#utility.yul\":3351:3356   */\n      dup2\n        /* \"#utility.yul\":3348:3380   */\n      eq\n        /* \"#utility.yul\":3338:3398   */\n      tag_283\n      jumpi\n        /* \"#utility.yul\":3394:3395   */\n      0x00\n        /* \"#utility.yul\":3391:3392   */\n      dup1\n        /* \"#utility.yul\":3384:3396   */\n      revert\n        /* \"#utility.yul\":3338:3398   */\n    tag_283:\n        /* \"#utility.yul\":3288:3404   */\n      pop\n      jump\t// out\n        /* \"#utility.yul\":3410:3543   */\n    tag_210:\n        /* \"#utility.yul\":3453:3458   */\n      0x00\n        /* \"#utility.yul\":3491:3497   */\n      dup2\n        /* \"#utility.yul\":3478:3498   */\n      calldataload\n        /* \"#utility.yul\":3469:3498   */\n      swap1\n      pop\n        /* \"#utility.yul\":3507:3537   */\n      tag_285\n        /* \"#utility.yul\":3531:3536   */\n      dup2\n        /* \"#utility.yul\":3507:3537   */\n      tag_209\n      jump\t// in\n    tag_285:\n        /* \"#utility.yul\":3410:3543   */\n      swap3\n      swap2\n      pop\n      pop\n      jump\t// out\n        /* \"#utility.yul\":3549:4017   */\n    tag_44:\n        /* \"#utility.yul\":3614:3620   */\n      0x00\n        /* \"#utility.yul\":3622:3628   */\n      dup1\n        /* \"#utility.yul\":3671:3673   */\n      0x40\n        /* \"#utility.yul\":3659:3668   */\n      dup4\n        /* \"#utility.yul\":3650:3657   */\n      dup6\n        /* \"#utility.yul\":3646:3669   */\n      sub\n        /* \"#utility.yul\":3642:3674   */\n      slt\n        /* \"#utility.yul\":3639:3758   */\n      iszero\n      tag_287\n      jumpi\n        /* \"#utility.yul\":3677:3756   */\n      tag_288\n      tag_199\n      jump\t// in\n    tag_288:\n        /* \"#utility.yul\":3639:3758   */\n    tag_287:\n        /* \"#utility.yul\":3797:3798   */\n      0x00\n        /* \"#utility.yul\":3822:3875   */\n      tag_289\n        /* \"#utility.yul\":3867:3874   */\n      dup6\n        /* \"#utility.yul\":3858:3864   */\n      dup3\n        /* \"#utility.yul\":3847:3856   */\n      dup7\n        /* \"#utility.yul\":3843:3865   */\n      add\n        /* \"#utility.yul\":3822:3875   */\n      tag_202\n      jump\t// in\n    tag_289:\n        /* \"#utility.yul\":3812:3875   */\n      swap3\n      pop\n        /* \"#utility.yul\":3768:3885   */\n      pop\n        /* \"#utility.yul\":3924:3926   */\n      0x20\n        /* \"#utility.yul\":3950:4000   */\n      tag_290\n        /* \"#utility.yul\":3992:3999   */\n      dup6\n        /* \"#utility.yul\":3983:3989   */\n      dup3\n        /* \"#utility.yul\":3972:3981   */\n      dup7\n        /* \"#utility.yul\":3968:3990   */\n      add\n        /* \"#utility.yul\":3950:4000   */\n      tag_210\n      jump\t// in\n    tag_290:\n        /* \"#utility.yul\":3940:4000   */\n      swap2\n      pop\n        /* \"#utility.yul\":3895:4010   */\n      pop\n        /* \"#utility.yul\":3549:4017   */\n      swap3\n      pop\n      swap3\n      swap1\n      pop\n      jump\t// out\n        /* \"#utility.yul\":4023:4127   */\n    tag_211:\n        /* \"#utility.yul\":4068:4075   */\n      0x00\n        /* \"#utility.yul\":4097:4121   */\n      tag_292\n        /* \"#utility.yul\":4115:4120   */\n      dup3\n        /* \"#utility.yul\":4097:4121   */\n      tag_195\n      jump\t// in\n    tag_292:\n        /* \"#utility.yul\":4086:4121   */\n      swap1\n      pop\n        /* \"#utility.yul\":4023:4127   */\n      swap2\n      swap1\n      pop\n      jump\t// out\n        /* \"#utility.yul\":4133:4271   */\n    tag_212:\n        /* \"#utility.yul\":4214:4246   */\n      tag_294\n        /* \"#utility.yul\":4240:4245   */\n      dup2\n        /* \"#utility.yul\":4214:4246   */\n      tag_211\n      jump\t// in\n    tag_294:\n        /* \"#utility.yul\":4207:4212   */\n      dup2\n        /* \"#utility.yul\":4204:4247   */\n      eq\n        /* \"#utility.yul\":4194:4265   */\n      tag_295\n      jumpi\n        /* \"#utility.yul\":4261:4262   */\n      0x00\n        /* \"#utility.yul\":4258:4259   */\n      dup1\n        /* \"#utility.yul\":4251:4263   */\n      revert\n        /* \"#utility.yul\":4194:4265   */\n    tag_295:\n        /* \"#utility.yul\":4133:4271   */\n      pop\n      jump\t// out\n        /* \"#utility.yul\":4277:4432   */\n    tag_213:\n        /* \"#utility.yul\":4331:4336   */\n      0x00\n        /* \"#utility.yul\":4369:4375   */\n      dup2\n        /* \"#utility.yul\":4356:4376   */\n      calldataload\n        /* \"#utility.yul\":4347:4376   */\n      swap1\n      pop\n        /* \"#utility.yul\":4385:4426   */\n      tag_297\n        /* \"#utility.yul\":4420:4425   */\n      dup2\n        /* \"#utility.yul\":4385:4426   */\n      tag_212\n      jump\t// in\n    tag_297:\n        /* \"#utility.yul\":4277:4432   */\n      swap3\n      swap2\n      pop\n      pop\n      jump\t// out\n        /* \"#utility.yul\":4438:4783   */\n    tag_48:\n        /* \"#utility.yul\":4505:4511   */\n      0x00\n        /* \"#utility.yul\":4554:4556   */\n      0x20\n        /* \"#utility.yul\":4542:4551   */\n      dup3\n        /* \"#utility.yul\":4533:4540   */\n      dup5\n        /* \"#utility.yul\":4529:4552   */\n      sub\n        /* \"#utility.yul\":4525:4557   */\n      slt\n        /* \"#utility.yul\":4522:4641   */\n      iszero\n      tag_299\n      jumpi\n        /* \"#utility.yul\":4560:4639   */\n      tag_300\n      tag_199\n      jump\t// in\n    tag_300:\n        /* \"#utility.yul\":4522:4641   */\n    tag_299:\n        /* \"#utility.yul\":4680:4681   */\n      0x00\n        /* \"#utility.yul\":4705:4766   */\n      tag_301\n        /* \"#utility.yul\":4758:4765   */\n      dup5\n        /* \"#utility.yul\":4749:4755   */\n      dup3\n        /* \"#utility.yul\":4738:4747   */\n      dup6\n        /* \"#utility.yul\":4734:4756   */\n      add\n        /* \"#utility.yul\":4705:4766   */\n      tag_213\n      jump\t// in\n    tag_301:\n        /* \"#utility.yul\":4695:4766   */\n      swap2\n      pop\n        /* \"#utility.yul\":4651:4776   */\n      pop\n        /* \"#utility.yul\":4438:4783   */\n      swap3\n      swap2\n      pop\n      pop\n      jump\t// out\n        /* \"#utility.yul\":4789:4849   */\n    tag_214:\n        /* \"#utility.yul\":4817:4820   */\n      0x00\n        /* \"#utility.yul\":4838:4843   */\n      dup2\n        /* \"#utility.yul\":4831:4843   */\n      swap1\n      pop\n        /* \"#utility.yul\":4789:4849   */\n      swap2\n      swap1\n      pop\n      jump\t// out\n        /* \"#utility.yul\":4855:4997   */\n    tag_215:\n        /* \"#utility.yul\":4905:4914   */\n      0x00\n        /* \"#utility.yul\":4938:4991   */\n      tag_304\n        /* \"#utility.yul\":4956:4990   */\n      tag_305\n        /* \"#utility.yul\":4965:4989   */\n      tag_306\n        /* \"#utility.yul\":4983:4988   */\n      dup5\n        /* \"#utility.yul\":4965:4989   */\n      tag_195\n      jump\t// in\n    tag_306:\n        /* \"#utility.yul\":4956:4990   */\n      tag_214\n      jump\t// in\n    tag_305:\n        /* \"#utility.yul\":4938:4991   */\n      tag_195\n      jump\t// in\n    tag_304:\n        /* \"#utility.yul\":4925:4991   */\n      swap1\n      pop\n        /* \"#utility.yul\":4855:4997   */\n      swap2\n      swap1\n      pop\n      jump\t// out\n        /* \"#utility.yul\":5003:5129   */\n    tag_216:\n        /* \"#utility.yul\":5053:5062   */\n      0x00\n        /* \"#utility.yul\":5086:5123   */\n      tag_308\n        /* \"#utility.yul\":5117:5122   */\n      dup3\n        /* \"#utility.yul\":5086:5123   */\n      tag_215\n      jump\t// in\n    tag_308:\n        /* \"#utility.yul\":5073:5123   */\n      swap1\n      pop\n        /* \"#utility.yul\":5003:5129   */\n      swap2\n      swap1\n      pop\n      jump\t// out\n        /* \"#utility.yul\":5135:5276   */\n    tag_217:\n        /* \"#utility.yul\":5200:5209   */\n      0x00\n        /* \"#utility.yul\":5233:5270   */\n      tag_310\n        /* \"#utility.yul\":5264:5269   */\n      dup3\n        /* \"#utility.yul\":5233:5270   */\n      tag_216\n      jump\t// in\n    tag_310:\n        /* \"#utility.yul\":5220:5270   */\n      swap1\n      pop\n        /* \"#utility.yul\":5135:5276   */\n      swap2\n      swap1\n      pop\n      jump\t// out\n        /* \"#utility.yul\":5282:5443   */\n    tag_218:\n        /* \"#utility.yul\":5384:5436   */\n      tag_312\n        /* \"#utility.yul\":5430:5435   */\n      dup2\n        /* \"#utility.yul\":5384:5436   */\n      tag_217\n      jump\t// in\n    tag_312:\n        /* \"#utility.yul\":5379:5382   */\n      dup3\n        /* \"#utility.yul\":5372:5437   */\n      mstore\n        /* \"#utility.yul\":5282:5443   */\n      pop\n      pop\n      jump\t// out\n        /* \"#utility.yul\":5449:5701   */\n    tag_64:\n        /* \"#utility.yul\":5557:5561   */\n      0x00\n        /* \"#utility.yul\":5595:5597   */\n      0x20\n        /* \"#utility.yul\":5584:5593   */\n      dup3\n        /* \"#utility.yul\":5580:5598   */\n      add\n        /* \"#utility.yul\":5572:5598   */\n      swap1\n      pop\n        /* \"#utility.yul\":5608:5694   */\n      tag_314\n        /* \"#utility.yul\":5691:5692   */\n      0x00\n        /* \"#utility.yul\":5680:5689   */\n      dup4\n        /* \"#utility.yul\":5676:5693   */\n      add\n        /* \"#utility.yul\":5667:5673   */\n      dup5\n        /* \"#utility.yul\":5608:5694   */\n      tag_218\n      jump\t// in\n    tag_314:\n        /* \"#utility.yul\":5449:5701   */\n      swap3\n      swap2\n      pop\n      pop\n      jump\t// out\n        /* \"#utility.yul\":5707:6181   */\n    tag_82:\n        /* \"#utility.yul\":5775:5781   */\n      0x00\n        /* \"#utility.yul\":5783:5789   */\n      dup1\n        /* \"#utility.yul\":5832:5834   */\n      0x40\n        /* \"#utility.yul\":5820:5829   */\n      dup4\n        /* \"#utility.yul\":5811:5818   */\n      dup6\n        /* \"#utility.yul\":5807:5830   */\n      sub\n        /* \"#utility.yul\":5803:5835   */\n      slt\n        /* \"#utility.yul\":5800:5919   */\n      iszero\n      tag_316\n      jumpi\n        /* \"#utility.yul\":5838:5917   */\n      tag_317\n      tag_199\n      jump\t// in\n    tag_317:\n        /* \"#utility.yul\":5800:5919   */\n    tag_316:\n        /* \"#utility.yul\":5958:5959   */\n      0x00\n        /* \"#utility.yul\":5983:6036   */\n      tag_318\n        /* \"#utility.yul\":6028:6035   */\n      dup6\n        /* \"#utility.yul\":6019:6025   */\n      dup3\n        /* \"#utility.yul\":6008:6017   */\n      dup7\n        /* \"#utility.yul\":6004:6026   */\n      add\n        /* \"#utility.yul\":5983:6036   */\n      tag_202\n      jump\t// in\n    tag_318:\n        /* \"#utility.yul\":5973:6036   */\n      swap3\n      pop\n        /* \"#utility.yul\":5929:6046   */\n      pop\n        /* \"#utility.yul\":6085:6087   */\n      0x20\n        /* \"#utility.yul\":6111:6164   */\n      tag_319\n        /* \"#utility.yul\":6156:6163   */\n      dup6\n        /* \"#utility.yul\":6147:6153   */\n      dup3\n        /* \"#utility.yul\":6136:6145   */\n      dup7\n        /* \"#utility.yul\":6132:6154   */\n      add\n        /* \"#utility.yul\":6111:6164   */\n      tag_202\n      jump\t// in\n    tag_319:\n        /* \"#utility.yul\":6101:6164   */\n      swap2\n      pop\n        /* \"#utility.yul\":6056:6174   */\n      pop\n        /* \"#utility.yul\":5707:6181   */\n      swap3\n      pop\n      swap3\n      swap1\n      pop\n      jump\t// out\n        /* \"#utility.yul\":6187:6356   */\n    tag_219:\n        /* \"#utility.yul\":6271:6282   */\n      0x00\n        /* \"#utility.yul\":6305:6311   */\n      dup3\n        /* \"#utility.yul\":6300:6303   */\n      dup3\n        /* \"#utility.yul\":6293:6312   */\n      mstore\n        /* \"#utility.yul\":6345:6349   */\n      0x20\n        /* \"#utility.yul\":6340:6343   */\n      dup3\n        /* \"#utility.yul\":6336:6350   */\n      add\n        /* \"#utility.yul\":6321:6350   */\n      swap1\n      pop\n        /* \"#utility.yul\":6187:6356   */\n      swap3\n      swap2\n      pop\n      pop\n      jump\t// out\n        /* \"#utility.yul\":6362:6533   */\n    tag_220:\n        /* \"#utility.yul\":6502:6525   */\n      0x537562736372696265204f757220536572766963650000000000000000000000\n        /* \"#utility.yul\":6498:6499   */\n      0x00\n        /* \"#utility.yul\":6490:6496   */\n      dup3\n        /* \"#utility.yul\":6486:6500   */\n      add\n        /* \"#utility.yul\":6479:6526   */\n      mstore\n        /* \"#utility.yul\":6362:6533   */\n      pop\n      jump\t// out\n        /* \"#utility.yul\":6539:6905   */\n    tag_221:\n        /* \"#utility.yul\":6681:6684   */\n      0x00\n        /* \"#utility.yul\":6702:6769   */\n      tag_323\n        /* \"#utility.yul\":6766:6768   */\n      0x15\n        /* \"#utility.yul\":6761:6764   */\n      dup4\n        /* \"#utility.yul\":6702:6769   */\n      tag_219\n      jump\t// in\n    tag_323:\n        /* \"#utility.yul\":6695:6769   */\n      swap2\n      pop\n        /* \"#utility.yul\":6778:6871   */\n      tag_324\n        /* \"#utility.yul\":6867:6870   */\n      dup3\n        /* \"#utility.yul\":6778:6871   */\n      tag_220\n      jump\t// in\n    tag_324:\n        /* \"#utility.yul\":6896:6898   */\n      0x20\n        /* \"#utility.yul\":6891:6894   */\n      dup3\n        /* \"#utility.yul\":6887:6899   */\n      add\n        /* \"#utility.yul\":6880:6899   */\n      swap1\n      pop\n        /* \"#utility.yul\":6539:6905   */\n      swap2\n      swap1\n      pop\n      jump\t// out\n        /* \"#utility.yul\":6911:7330   */\n    tag_105:\n        /* \"#utility.yul\":7077:7081   */\n      0x00\n        /* \"#utility.yul\":7115:7117   */\n      0x20\n        /* \"#utility.yul\":7104:7113   */\n      dup3\n        /* \"#utility.yul\":7100:7118   */\n      add\n        /* \"#utility.yul\":7092:7118   */\n      swap1\n      pop\n        /* \"#utility.yul\":7164:7173   */\n      dup2\n        /* \"#utility.yul\":7158:7162   */\n      dup2\n        /* \"#utility.yul\":7154:7174   */\n      sub\n        /* \"#utility.yul\":7150:7151   */\n      0x00\n        /* \"#utility.yul\":7139:7148   */\n      dup4\n        /* \"#utility.yul\":7135:7152   */\n      add\n        /* \"#utility.yul\":7128:7175   */\n      mstore\n        /* \"#utility.yul\":7192:7323   */\n      tag_326\n        /* \"#utility.yul\":7318:7322   */\n      dup2\n        /* \"#utility.yul\":7192:7323   */\n      tag_221\n      jump\t// in\n    tag_326:\n        /* \"#utility.yul\":7184:7323   */\n      swap1\n      pop\n        /* \"#utility.yul\":6911:7330   */\n      swap2\n      swap1\n      pop\n      jump\t// out\n        /* \"#utility.yul\":7336:7778   */\n    tag_108:\n        /* \"#utility.yul\":7485:7489   */\n      0x00\n        /* \"#utility.yul\":7523:7525   */\n      0x60\n        /* \"#utility.yul\":7512:7521   */\n      dup3\n        /* \"#utility.yul\":7508:7526   */\n      add\n        /* \"#utility.yul\":7500:7526   */\n      swap1\n      pop\n        /* \"#utility.yul\":7536:7607   */\n      tag_328\n        /* \"#utility.yul\":7604:7605   */\n      0x00\n        /* \"#utility.yul\":7593:7602   */\n      dup4\n        /* \"#utility.yul\":7589:7606   */\n      add\n        /* \"#utility.yul\":7580:7586   */\n      dup7\n        /* \"#utility.yul\":7536:7607   */\n      tag_197\n      jump\t// in\n    tag_328:\n        /* \"#utility.yul\":7617:7689   */\n      tag_329\n        /* \"#utility.yul\":7685:7687   */\n      0x20\n        /* \"#utility.yul\":7674:7683   */\n      dup4\n        /* \"#utility.yul\":7670:7688   */\n      add\n        /* \"#utility.yul\":7661:7667   */\n      dup6\n        /* \"#utility.yul\":7617:7689   */\n      tag_197\n      jump\t// in\n    tag_329:\n        /* \"#utility.yul\":7699:7771   */\n      tag_330\n        /* \"#utility.yul\":7767:7769   */\n      0x40\n        /* \"#utility.yul\":7756:7765   */\n      dup4\n        /* \"#utility.yul\":7752:7770   */\n      add\n        /* \"#utility.yul\":7743:7749   */\n      dup5\n        /* \"#utility.yul\":7699:7771   */\n      tag_204\n      jump\t// in\n    tag_330:\n        /* \"#utility.yul\":7336:7778   */\n      swap5\n      swap4\n      pop\n      pop\n      pop\n      pop\n      jump\t// out\n        /* \"#utility.yul\":7784:7964   */\n    tag_222:\n        /* \"#utility.yul\":7832:7909   */\n      0x4e487b7100000000000000000000000000000000000000000000000000000000\n        /* \"#utility.yul\":7829:7830   */\n      0x00\n        /* \"#utility.yul\":7822:7910   */\n      mstore\n        /* \"#utility.yul\":7929:7933   */\n      0x11\n        /* \"#utility.yul\":7926:7927   */\n      0x04\n        /* \"#utility.yul\":7919:7934   */\n      mstore\n        /* \"#utility.yul\":7953:7957   */\n      0x24\n        /* \"#utility.yul\":7950:7951   */\n      0x00\n        /* \"#utility.yul\":7943:7958   */\n      revert\n        /* \"#utility.yul\":7970:8161   */\n    tag_117:\n        /* \"#utility.yul\":8010:8013   */\n      0x00\n        /* \"#utility.yul\":8029:8049   */\n      tag_333\n        /* \"#utility.yul\":8047:8048   */\n      dup3\n        /* \"#utility.yul\":8029:8049   */\n      tag_203\n      jump\t// in\n    tag_333:\n        /* \"#utility.yul\":8024:8049   */\n      swap2\n      pop\n        /* \"#utility.yul\":8063:8083   */\n      tag_334\n        /* \"#utility.yul\":8081:8082   */\n      dup4\n        /* \"#utility.yul\":8063:8083   */\n      tag_203\n      jump\t// in\n    tag_334:\n        /* \"#utility.yul\":8058:8083   */\n      swap3\n      pop\n        /* \"#utility.yul\":8106:8107   */\n      dup3\n        /* \"#utility.yul\":8103:8104   */\n      dup3\n        /* \"#utility.yul\":8099:8108   */\n      add\n        /* \"#utility.yul\":8092:8108   */\n      swap1\n      pop\n        /* \"#utility.yul\":8127:8130   */\n      dup1\n        /* \"#utility.yul\":8124:8125   */\n      dup3\n        /* \"#utility.yul\":8121:8131   */\n      gt\n        /* \"#utility.yul\":8118:8154   */\n      iszero\n      tag_335\n      jumpi\n        /* \"#utility.yul\":8134:8152   */\n      tag_336\n      tag_222\n      jump\t// in\n    tag_336:\n        /* \"#utility.yul\":8118:8154   */\n    tag_335:\n        /* \"#utility.yul\":7970:8161   */\n      swap3\n      swap2\n      pop\n      pop\n      jump\t// out\n        /* \"#utility.yul\":8167:8342   */\n    tag_223:\n        /* \"#utility.yul\":8307:8334   */\n      0x506c656173652063686172676520796f75722077616c6c657400000000000000\n        /* \"#utility.yul\":8303:8304   */\n      0x00\n        /* \"#utility.yul\":8295:8301   */\n      dup3\n        /* \"#utility.yul\":8291:8305   */\n      add\n        /* \"#utility.yul\":8284:8335   */\n      mstore\n        /* \"#utility.yul\":8167:8342   */\n      pop\n      jump\t// out\n        /* \"#utility.yul\":8348:8714   */\n    tag_224:\n        /* \"#utility.yul\":8490:8493   */\n      0x00\n        /* \"#utility.yul\":8511:8578   */\n      tag_339\n        /* \"#utility.yul\":8575:8577   */\n      0x19\n        /* \"#utility.yul\":8570:8573   */\n      dup4\n        /* \"#utility.yul\":8511:8578   */\n      tag_219\n      jump\t// in\n    tag_339:\n        /* \"#utility.yul\":8504:8578   */\n      swap2\n      pop\n        /* \"#utility.yul\":8587:8680   */\n      tag_340\n        /* \"#utility.yul\":8676:8679   */\n      dup3\n        /* \"#utility.yul\":8587:8680   */\n      tag_223\n      jump\t// in\n    tag_340:\n        /* \"#utility.yul\":8705:8707   */\n      0x20\n        /* \"#utility.yul\":8700:8703   */\n      dup3\n        /* \"#utility.yul\":8696:8708   */\n      add\n        /* \"#utility.yul\":8689:8708   */\n      swap1\n      pop\n        /* \"#utility.yul\":8348:8714   */\n      swap2\n      swap1\n      pop\n      jump\t// out\n        /* \"#utility.yul\":8720:9139   */\n    tag_126:\n        /* \"#utility.yul\":8886:8890   */\n      0x00\n        /* \"#utility.yul\":8924:8926   */\n      0x20\n        /* \"#utility.yul\":8913:8922   */\n      dup3\n        /* \"#utility.yul\":8909:8927   */\n      add\n        /* \"#utility.yul\":8901:8927   */\n      swap1\n      pop\n        /* \"#utility.yul\":8973:8982   */\n      dup2\n        /* \"#utility.yul\":8967:8971   */\n      dup2\n        /* \"#utility.yul\":8963:8983   */\n      sub\n        /* \"#utility.yul\":8959:8960   */\n      0x00\n        /* \"#utility.yul\":8948:8957   */\n      dup4\n        /* \"#utility.yul\":8944:8961   */\n      add\n        /* \"#utility.yul\":8937:8984   */\n      mstore\n        /* \"#utility.yul\":9001:9132   */\n      tag_342\n        /* \"#utility.yul\":9127:9131   */\n      dup2\n        /* \"#utility.yul\":9001:9132   */\n      tag_224\n      jump\t// in\n    tag_342:\n        /* \"#utility.yul\":8993:9132   */\n      swap1\n      pop\n        /* \"#utility.yul\":8720:9139   */\n      swap2\n      swap1\n      pop\n      jump\t// out\n        /* \"#utility.yul\":9145:9477   */\n    tag_128:\n        /* \"#utility.yul\":9266:9270   */\n      0x00\n        /* \"#utility.yul\":9304:9306   */\n      0x40\n        /* \"#utility.yul\":9293:9302   */\n      dup3\n        /* \"#utility.yul\":9289:9307   */\n      add\n        /* \"#utility.yul\":9281:9307   */\n      swap1\n      pop\n        /* \"#utility.yul\":9317:9388   */\n      tag_344\n        /* \"#utility.yul\":9385:9386   */\n      0x00\n        /* \"#utility.yul\":9374:9383   */\n      dup4\n        /* \"#utility.yul\":9370:9387   */\n      add\n        /* \"#utility.yul\":9361:9367   */\n      dup6\n        /* \"#utility.yul\":9317:9388   */\n      tag_197\n      jump\t// in\n    tag_344:\n        /* \"#utility.yul\":9398:9470   */\n      tag_345\n        /* \"#utility.yul\":9466:9468   */\n      0x20\n        /* \"#utility.yul\":9455:9464   */\n      dup4\n        /* \"#utility.yul\":9451:9469   */\n      add\n        /* \"#utility.yul\":9442:9448   */\n      dup5\n        /* \"#utility.yul\":9398:9470   */\n      tag_197\n      jump\t// in\n    tag_345:\n        /* \"#utility.yul\":9145:9477   */\n      swap4\n      swap3\n      pop\n      pop\n      pop\n      jump\t// out\n        /* \"#utility.yul\":9483:9620   */\n    tag_225:\n        /* \"#utility.yul\":9537:9542   */\n      0x00\n        /* \"#utility.yul\":9568:9574   */\n      dup2\n        /* \"#utility.yul\":9562:9575   */\n      mload\n        /* \"#utility.yul\":9553:9575   */\n      swap1\n      pop\n        /* \"#utility.yul\":9584:9614   */\n      tag_347\n        /* \"#utility.yul\":9608:9613   */\n      dup2\n        /* \"#utility.yul\":9584:9614   */\n      tag_209\n      jump\t// in\n    tag_347:\n        /* \"#utility.yul\":9483:9620   */\n      swap3\n      swap2\n      pop\n      pop\n      jump\t// out\n        /* \"#utility.yul\":9626:9971   */\n    tag_132:\n        /* \"#utility.yul\":9693:9699   */\n      0x00\n        /* \"#utility.yul\":9742:9744   */\n      0x20\n        /* \"#utility.yul\":9730:9739   */\n      dup3\n        /* \"#utility.yul\":9721:9728   */\n      dup5\n        /* \"#utility.yul\":9717:9740   */\n      sub\n        /* \"#utility.yul\":9713:9745   */\n      slt\n        /* \"#utility.yul\":9710:9829   */\n      iszero\n      tag_349\n      jumpi\n        /* \"#utility.yul\":9748:9827   */\n      tag_350\n      tag_199\n      jump\t// in\n    tag_350:\n        /* \"#utility.yul\":9710:9829   */\n    tag_349:\n        /* \"#utility.yul\":9868:9869   */\n      0x00\n        /* \"#utility.yul\":9893:9954   */\n      tag_351\n        /* \"#utility.yul\":9946:9953   */\n      dup5\n        /* \"#utility.yul\":9937:9943   */\n      dup3\n        /* \"#utility.yul\":9926:9935   */\n      dup6\n        /* \"#utility.yul\":9922:9944   */\n      add\n        /* \"#utility.yul\":9893:9954   */\n      tag_225\n      jump\t// in\n    tag_351:\n        /* \"#utility.yul\":9883:9954   */\n      swap2\n      pop\n        /* \"#utility.yul\":9839:9964   */\n      pop\n        /* \"#utility.yul\":9626:9971   */\n      swap3\n      swap2\n      pop\n      pop\n      jump\t// out\n        /* \"#utility.yul\":9977:10159   */\n    tag_226:\n        /* \"#utility.yul\":10117:10151   */\n      0x4f776e61626c653a2063616c6c6572206973206e6f7420746865206f776e6572\n        /* \"#utility.yul\":10113:10114   */\n      0x00\n        /* \"#utility.yul\":10105:10111   */\n      dup3\n        /* \"#utility.yul\":10101:10115   */\n      add\n        /* \"#utility.yul\":10094:10152   */\n      mstore\n        /* \"#utility.yul\":9977:10159   */\n      pop\n      jump\t// out\n        /* \"#utility.yul\":10165:10531   */\n    tag_227:\n        /* \"#utility.yul\":10307:10310   */\n      0x00\n        /* \"#utility.yul\":10328:10395   */\n      tag_354\n        /* \"#utility.yul\":10392:10394   */\n      0x20\n        /* \"#utility.yul\":10387:10390   */\n      dup4\n        /* \"#utility.yul\":10328:10395   */\n      tag_219\n      jump\t// in\n    tag_354:\n        /* \"#utility.yul\":10321:10395   */\n      swap2\n      pop\n        /* \"#utility.yul\":10404:10497   */\n      tag_355\n        /* \"#utility.yul\":10493:10496   */\n      dup3\n        /* \"#utility.yul\":10404:10497   */\n      tag_226\n      jump\t// in\n    tag_355:\n        /* \"#utility.yul\":10522:10524   */\n      0x20\n        /* \"#utility.yul\":10517:10520   */\n      dup3\n        /* \"#utility.yul\":10513:10525   */\n      add\n        /* \"#utility.yul\":10506:10525   */\n      swap1\n      pop\n        /* \"#utility.yul\":10165:10531   */\n      swap2\n      swap1\n      pop\n      jump\t// out\n        /* \"#utility.yul\":10537:10956   */\n    tag_144:\n        /* \"#utility.yul\":10703:10707   */\n      0x00\n        /* \"#utility.yul\":10741:10743   */\n      0x20\n        /* \"#utility.yul\":10730:10739   */\n      dup3\n        /* \"#utility.yul\":10726:10744   */\n      add\n        /* \"#utility.yul\":10718:10744   */\n      swap1\n      pop\n        /* \"#utility.yul\":10790:10799   */\n      dup2\n        /* \"#utility.yul\":10784:10788   */\n      dup2\n        /* \"#utility.yul\":10780:10800   */\n      sub\n        /* \"#utility.yul\":10776:10777   */\n      0x00\n        /* \"#utility.yul\":10765:10774   */\n      dup4\n        /* \"#utility.yul\":10761:10778   */\n      add\n        /* \"#utility.yul\":10754:10801   */\n      mstore\n        /* \"#utility.yul\":10818:10949   */\n      tag_357\n        /* \"#utility.yul\":10944:10948   */\n      dup2\n        /* \"#utility.yul\":10818:10949   */\n      tag_227\n      jump\t// in\n    tag_357:\n        /* \"#utility.yul\":10810:10949   */\n      swap1\n      pop\n        /* \"#utility.yul\":10537:10956   */\n      swap2\n      swap1\n      pop\n      jump\t// out\n        /* \"#utility.yul\":10962:11141   */\n    tag_228:\n        /* \"#utility.yul\":11102:11133   */\n      0x45524332303a20696e73756666696369656e7420616c6c6f77616e6365000000\n        /* \"#utility.yul\":11098:11099   */\n      0x00\n        /* \"#utility.yul\":11090:11096   */\n      dup3\n        /* \"#utility.yul\":11086:11100   */\n      add\n        /* \"#utility.yul\":11079:11134   */\n      mstore\n        /* \"#utility.yul\":10962:11141   */\n      pop\n      jump\t// out\n        /* \"#utility.yul\":11147:11513   */\n    tag_229:\n        /* \"#utility.yul\":11289:11292   */\n      0x00\n        /* \"#utility.yul\":11310:11377   */\n      tag_360\n        /* \"#utility.yul\":11374:11376   */\n      0x1d\n        /* \"#utility.yul\":11369:11372   */\n      dup4\n        /* \"#utility.yul\":11310:11377   */\n      tag_219\n      jump\t// in\n    tag_360:\n        /* \"#utility.yul\":11303:11377   */\n      swap2\n      pop\n        /* \"#utility.yul\":11386:11479   */\n      tag_361\n        /* \"#utility.yul\":11475:11478   */\n      dup3\n        /* \"#utility.yul\":11386:11479   */\n      tag_228\n      jump\t// in\n    tag_361:\n        /* \"#utility.yul\":11504:11506   */\n      0x20\n        /* \"#utility.yul\":11499:11502   */\n      dup3\n        /* \"#utility.yul\":11495:11507   */\n      add\n        /* \"#utility.yul\":11488:11507   */\n      swap1\n      pop\n        /* \"#utility.yul\":11147:11513   */\n      swap2\n      swap1\n      pop\n      jump\t// out\n        /* \"#utility.yul\":11519:11938   */\n    tag_158:\n        /* \"#utility.yul\":11685:11689   */\n      0x00\n        /* \"#utility.yul\":11723:11725   */\n      0x20\n        /* \"#utility.yul\":11712:11721   */\n      dup3\n        /* \"#utility.yul\":11708:11726   */\n      add\n        /* \"#utility.yul\":11700:11726   */\n      swap1\n      pop\n        /* \"#utility.yul\":11772:11781   */\n      dup2\n        /* \"#utility.yul\":11766:11770   */\n      dup2\n        /* \"#utility.yul\":11762:11782   */\n      sub\n        /* \"#utility.yul\":11758:11759   */\n      0x00\n        /* \"#utility.yul\":11747:11756   */\n      dup4\n        /* \"#utility.yul\":11743:11760   */\n      add\n        /* \"#utility.yul\":11736:11783   */\n      mstore\n        /* \"#utility.yul\":11800:11931   */\n      tag_363\n        /* \"#utility.yul\":11926:11930   */\n      dup2\n        /* \"#utility.yul\":11800:11931   */\n      tag_229\n      jump\t// in\n    tag_363:\n        /* \"#utility.yul\":11792:11931   */\n      swap1\n      pop\n        /* \"#utility.yul\":11519:11938   */\n      swap2\n      swap1\n      pop\n      jump\t// out\n        /* \"#utility.yul\":11944:12169   */\n    tag_230:\n        /* \"#utility.yul\":12084:12118   */\n      0x4f776e61626c653a206e6577206f776e657220697320746865207a65726f2061\n        /* \"#utility.yul\":12080:12081   */\n      0x00\n        /* \"#utility.yul\":12072:12078   */\n      dup3\n        /* \"#utility.yul\":12068:12082   */\n      add\n        /* \"#utility.yul\":12061:12119   */\n      mstore\n        /* \"#utility.yul\":12153:12161   */\n      0x6464726573730000000000000000000000000000000000000000000000000000\n        /* \"#utility.yul\":12148:12150   */\n      0x20\n        /* \"#utility.yul\":12140:12146   */\n      dup3\n        /* \"#utility.yul\":12136:12151   */\n      add\n        /* \"#utility.yul\":12129:12162   */\n      mstore\n        /* \"#utility.yul\":11944:12169   */\n      pop\n      jump\t// out\n        /* \"#utility.yul\":12175:12541   */\n    tag_231:\n        /* \"#utility.yul\":12317:12320   */\n      0x00\n        /* \"#utility.yul\":12338:12405   */\n      tag_366\n        /* \"#utility.yul\":12402:12404   */\n      0x26\n        /* \"#utility.yul\":12397:12400   */\n      dup4\n        /* \"#utility.yul\":12338:12405   */\n      tag_219\n      jump\t// in\n    tag_366:\n        /* \"#utility.yul\":12331:12405   */\n      swap2\n      pop\n        /* \"#utility.yul\":12414:12507   */\n      tag_367\n        /* \"#utility.yul\":12503:12506   */\n      dup3\n        /* \"#utility.yul\":12414:12507   */\n      tag_230\n      jump\t// in\n    tag_367:\n        /* \"#utility.yul\":12532:12534   */\n      0x40\n        /* \"#utility.yul\":12527:12530   */\n      dup3\n        /* \"#utility.yul\":12523:12535   */\n      add\n        /* \"#utility.yul\":12516:12535   */\n      swap1\n      pop\n        /* \"#utility.yul\":12175:12541   */\n      swap2\n      swap1\n      pop\n      jump\t// out\n        /* \"#utility.yul\":12547:12966   */\n    tag_175:\n        /* \"#utility.yul\":12713:12717   */\n      0x00\n        /* \"#utility.yul\":12751:12753   */\n      0x20\n        /* \"#utility.yul\":12740:12749   */\n      dup3\n        /* \"#utility.yul\":12736:12754   */\n      add\n        /* \"#utility.yul\":12728:12754   */\n      swap1\n      pop\n        /* \"#utility.yul\":12800:12809   */\n      dup2\n        /* \"#utility.yul\":12794:12798   */\n      dup2\n        /* \"#utility.yul\":12790:12810   */\n      sub\n        /* \"#utility.yul\":12786:12787   */\n      0x00\n        /* \"#utility.yul\":12775:12784   */\n      dup4\n        /* \"#utility.yul\":12771:12788   */\n      add\n        /* \"#utility.yul\":12764:12811   */\n      mstore\n        /* \"#utility.yul\":12828:12959   */\n      tag_369\n        /* \"#utility.yul\":12954:12958   */\n      dup2\n        /* \"#utility.yul\":12828:12959   */\n      tag_231\n      jump\t// in\n    tag_369:\n        /* \"#utility.yul\":12820:12959   */\n      swap1\n      pop\n        /* \"#utility.yul\":12547:12966   */\n      swap2\n      swap1\n      pop\n      jump\t// out\n        /* \"#utility.yul\":12972:13152   */\n    tag_232:\n        /* \"#utility.yul\":13112:13144   */\n      0x7472616e736665722066726f6d20746865207a65726f20616464726573730000\n        /* \"#utility.yul\":13108:13109   */\n      0x00\n        /* \"#utility.yul\":13100:13106   */\n      dup3\n        /* \"#utility.yul\":13096:13110   */\n      add\n        /* \"#utility.yul\":13089:13145   */\n      mstore\n        /* \"#utility.yul\":12972:13152   */\n      pop\n      jump\t// out\n        /* \"#utility.yul\":13158:13524   */\n    tag_233:\n        /* \"#utility.yul\":13300:13303   */\n      0x00\n        /* \"#utility.yul\":13321:13388   */\n      tag_372\n        /* \"#utility.yul\":13385:13387   */\n      0x1e\n        /* \"#utility.yul\":13380:13383   */\n      dup4\n        /* \"#utility.yul\":13321:13388   */\n      tag_219\n      jump\t// in\n    tag_372:\n        /* \"#utility.yul\":13314:13388   */\n      swap2\n      pop\n        /* \"#utility.yul\":13397:13490   */\n      tag_373\n        /* \"#utility.yul\":13486:13489   */\n      dup3\n        /* \"#utility.yul\":13397:13490   */\n      tag_232\n      jump\t// in\n    tag_373:\n        /* \"#utility.yul\":13515:13517   */\n      0x20\n        /* \"#utility.yul\":13510:13513   */\n      dup3\n        /* \"#utility.yul\":13506:13518   */\n      add\n        /* \"#utility.yul\":13499:13518   */\n      swap1\n      pop\n        /* \"#utility.yul\":13158:13524   */\n      swap2\n      swap1\n      pop\n      jump\t// out\n        /* \"#utility.yul\":13530:13949   */\n    tag_180:\n        /* \"#utility.yul\":13696:13700   */\n      0x00\n        /* \"#utility.yul\":13734:13736   */\n      0x20\n        /* \"#utility.yul\":13723:13732   */\n      dup3\n        /* \"#utility.yul\":13719:13737   */\n      add\n        /* \"#utility.yul\":13711:13737   */\n      swap1\n      pop\n        /* \"#utility.yul\":13783:13792   */\n      dup2\n        /* \"#utility.yul\":13777:13781   */\n      dup2\n        /* \"#utility.yul\":13773:13793   */\n      sub\n        /* \"#utility.yul\":13769:13770   */\n      0x00\n        /* \"#utility.yul\":13758:13767   */\n      dup4\n        /* \"#utility.yul\":13754:13771   */\n      add\n        /* \"#utility.yul\":13747:13794   */\n      mstore\n        /* \"#utility.yul\":13811:13942   */\n      tag_375\n        /* \"#utility.yul\":13937:13941   */\n      dup2\n        /* \"#utility.yul\":13811:13942   */\n      tag_233\n      jump\t// in\n    tag_375:\n        /* \"#utility.yul\":13803:13942   */\n      swap1\n      pop\n        /* \"#utility.yul\":13530:13949   */\n      swap2\n      swap1\n      pop\n      jump\t// out\n        /* \"#utility.yul\":13955:14133   */\n    tag_234:\n        /* \"#utility.yul\":14095:14125   */\n      0x7472616e7366657220746f20746865207a65726f206164647265737300000000\n        /* \"#utility.yul\":14091:14092   */\n      0x00\n        /* \"#utility.yul\":14083:14089   */\n      dup3\n        /* \"#utility.yul\":14079:14093   */\n      add\n        /* \"#utility.yul\":14072:14126   */\n      mstore\n        /* \"#utility.yul\":13955:14133   */\n      pop\n      jump\t// out\n        /* \"#utility.yul\":14139:14505   */\n    tag_235:\n        /* \"#utility.yul\":14281:14284   */\n      0x00\n        /* \"#utility.yul\":14302:14369   */\n      tag_378\n        /* \"#utility.yul\":14366:14368   */\n      0x1c\n        /* \"#utility.yul\":14361:14364   */\n      dup4\n        /* \"#utility.yul\":14302:14369   */\n      tag_219\n      jump\t// in\n    tag_378:\n        /* \"#utility.yul\":14295:14369   */\n      swap2\n      pop\n        /* \"#utility.yul\":14378:14471   */\n      tag_379\n        /* \"#utility.yul\":14467:14470   */\n      dup3\n        /* \"#utility.yul\":14378:14471   */\n      tag_234\n      jump\t// in\n    tag_379:\n        /* \"#utility.yul\":14496:14498   */\n      0x20\n        /* \"#utility.yul\":14491:14494   */\n      dup3\n        /* \"#utility.yul\":14487:14499   */\n      add\n        /* \"#utility.yul\":14480:14499   */\n      swap1\n      pop\n        /* \"#utility.yul\":14139:14505   */\n      swap2\n      swap1\n      pop\n      jump\t// out\n        /* \"#utility.yul\":14511:14930   */\n    tag_183:\n        /* \"#utility.yul\":14677:14681   */\n      0x00\n        /* \"#utility.yul\":14715:14717   */\n      0x20\n        /* \"#utility.yul\":14704:14713   */\n      dup3\n        /* \"#utility.yul\":14700:14718   */\n      add\n        /* \"#utility.yul\":14692:14718   */\n      swap1\n      pop\n        /* \"#utility.yul\":14764:14773   */\n      dup2\n        /* \"#utility.yul\":14758:14762   */\n      dup2\n        /* \"#utility.yul\":14754:14774   */\n      sub\n        /* \"#utility.yul\":14750:14751   */\n      0x00\n        /* \"#utility.yul\":14739:14748   */\n      dup4\n        /* \"#utility.yul\":14735:14752   */\n      add\n        /* \"#utility.yul\":14728:14775   */\n      mstore\n        /* \"#utility.yul\":14792:14923   */\n      tag_381\n        /* \"#utility.yul\":14918:14922   */\n      dup2\n        /* \"#utility.yul\":14792:14923   */\n      tag_235\n      jump\t// in\n    tag_381:\n        /* \"#utility.yul\":14784:14923   */\n      swap1\n      pop\n        /* \"#utility.yul\":14511:14930   */\n      swap2\n      swap1\n      pop\n      jump\t// out\n        /* \"#utility.yul\":14936:15115   */\n    tag_236:\n        /* \"#utility.yul\":15076:15107   */\n      0x617070726f76652066726f6d20746865207a65726f2061646472657373000000\n        /* \"#utility.yul\":15072:15073   */\n      0x00\n        /* \"#utility.yul\":15064:15070   */\n      dup3\n        /* \"#utility.yul\":15060:15074   */\n      add\n        /* \"#utility.yul\":15053:15108   */\n      mstore\n        /* \"#utility.yul\":14936:15115   */\n      pop\n      jump\t// out\n        /* \"#utility.yul\":15121:15487   */\n    tag_237:\n        /* \"#utility.yul\":15263:15266   */\n      0x00\n        /* \"#utility.yul\":15284:15351   */\n      tag_384\n        /* \"#utility.yul\":15348:15350   */\n      0x1d\n        /* \"#utility.yul\":15343:15346   */\n      dup4\n        /* \"#utility.yul\":15284:15351   */\n      tag_219\n      jump\t// in\n    tag_384:\n        /* \"#utility.yul\":15277:15351   */\n      swap2\n      pop\n        /* \"#utility.yul\":15360:15453   */\n      tag_385\n        /* \"#utility.yul\":15449:15452   */\n      dup3\n        /* \"#utility.yul\":15360:15453   */\n      tag_236\n      jump\t// in\n    tag_385:\n        /* \"#utility.yul\":15478:15480   */\n      0x20\n        /* \"#utility.yul\":15473:15476   */\n      dup3\n        /* \"#utility.yul\":15469:15481   */\n      add\n        /* \"#utility.yul\":15462:15481   */\n      swap1\n      pop\n        /* \"#utility.yul\":15121:15487   */\n      swap2\n      swap1\n      pop\n      jump\t// out\n        /* \"#utility.yul\":15493:15912   */\n    tag_190:\n        /* \"#utility.yul\":15659:15663   */\n      0x00\n        /* \"#utility.yul\":15697:15699   */\n      0x20\n        /* \"#utility.yul\":15686:15695   */\n      dup3\n        /* \"#utility.yul\":15682:15700   */\n      add\n        /* \"#utility.yul\":15674:15700   */\n      swap1\n      pop\n        /* \"#utility.yul\":15746:15755   */\n      dup2\n        /* \"#utility.yul\":15740:15744   */\n      dup2\n        /* \"#utility.yul\":15736:15756   */\n      sub\n        /* \"#utility.yul\":15732:15733   */\n      0x00\n        /* \"#utility.yul\":15721:15730   */\n      dup4\n        /* \"#utility.yul\":15717:15734   */\n      add\n        /* \"#utility.yul\":15710:15757   */\n      mstore\n        /* \"#utility.yul\":15774:15905   */\n      tag_387\n        /* \"#utility.yul\":15900:15904   */\n      dup2\n        /* \"#utility.yul\":15774:15905   */\n      tag_237\n      jump\t// in\n    tag_387:\n        /* \"#utility.yul\":15766:15905   */\n      swap1\n      pop\n        /* \"#utility.yul\":15493:15912   */\n      swap2\n      swap1\n      pop\n      jump\t// out\n        /* \"#utility.yul\":15918:16096   */\n    tag_238:\n        /* \"#utility.yul\":16058:16088   */\n      0x20617070726f766520746f20746865207a65726f206164647265737300000000\n        /* \"#utility.yul\":16054:16055   */\n      0x00\n        /* \"#utility.yul\":16046:16052   */\n      dup3\n        /* \"#utility.yul\":16042:16056   */\n      add\n        /* \"#utility.yul\":16035:16089   */\n      mstore\n        /* \"#utility.yul\":15918:16096   */\n      pop\n      jump\t// out\n        /* \"#utility.yul\":16102:16468   */\n    tag_239:\n        /* \"#utility.yul\":16244:16247   */\n      0x00\n        /* \"#utility.yul\":16265:16332   */\n      tag_390\n        /* \"#utility.yul\":16329:16331   */\n      0x1c\n        /* \"#utility.yul\":16324:16327   */\n      dup4\n        /* \"#utility.yul\":16265:16332   */\n      tag_219\n      jump\t// in\n    tag_390:\n        /* \"#utility.yul\":16258:16332   */\n      swap2\n      pop\n        /* \"#utility.yul\":16341:16434   */\n      tag_391\n        /* \"#utility.yul\":16430:16433   */\n      dup3\n        /* \"#utility.yul\":16341:16434   */\n      tag_238\n      jump\t// in\n    tag_391:\n        /* \"#utility.yul\":16459:16461   */\n      0x20\n        /* \"#utility.yul\":16454:16457   */\n      dup3\n        /* \"#utility.yul\":16450:16462   */\n      add\n        /* \"#utility.yul\":16443:16462   */\n      swap1\n      pop\n        /* \"#utility.yul\":16102:16468   */\n      swap2\n      swap1\n      pop\n      jump\t// out\n        /* \"#utility.yul\":16474:16893   */\n    tag_193:\n        /* \"#utility.yul\":16640:16644   */\n      0x00\n        /* \"#utility.yul\":16678:16680   */\n      0x20\n        /* \"#utility.yul\":16667:16676   */\n      dup3\n        /* \"#utility.yul\":16663:16681   */\n      add\n        /* \"#utility.yul\":16655:16681   */\n      swap1\n      pop\n        /* \"#utility.yul\":16727:16736   */\n      dup2\n        /* \"#utility.yul\":16721:16725   */\n      dup2\n        /* \"#utility.yul\":16717:16737   */\n      sub\n        /* \"#utility.yul\":16713:16714   */\n      0x00\n        /* \"#utility.yul\":16702:16711   */\n      dup4\n        /* \"#utility.yul\":16698:16715   */\n      add\n        /* \"#utility.yul\":16691:16738   */\n      mstore\n        /* \"#utility.yul\":16755:16886   */\n      tag_393\n        /* \"#utility.yul\":16881:16885   */\n      dup2\n        /* \"#utility.yul\":16755:16886   */\n      tag_239\n      jump\t// in\n    tag_393:\n        /* \"#utility.yul\":16747:16886   */\n      swap1\n      pop\n        /* \"#utility.yul\":16474:16893   */\n      swap2\n      swap1\n      pop\n      jump\t// out\n\n    auxdata: 0xa26469706673582212208c16c1583783174f69c2f7a4842dcc7ca649253add9d6f53b0db79e634ad361e64736f6c63430008100033\n}\n",
				"bytecode": {
					"linkReferences": {},
					"object": "6080604052670de0b6b3a764000060065534801561001c57600080fd5b5061003961002e61003e60201b60201c565b61004660201b60201c565b61010a565b600033905090565b60008060009054906101000a900473ffffffffffffffffffffffffffffffffffffffff169050816000806101000a81548173ffffffffffffffffffffffffffffffffffffffff021916908373ffffffffffffffffffffffffffffffffffffffff1602179055508173ffffffffffffffffffffffffffffffffffffffff168173ffffffffffffffffffffffffffffffffffffffff167f8be0079c531659141344cd1fd0a4f28419497f9722a3daafe3b4186f6b6457e060405160405180910390a35050565b611974806101196000396000f3fe6080604052600436106100fe5760003560e01c8063b5d7df9711610095578063dd62ed3e11610064578063dd62ed3e1461031b578063dd8aaa4f14610358578063e11d48b114610381578063e985e9c5146103aa578063f2fde38b146103e7576100fe565b8063b5d7df971461024b578063befa2fc614610276578063d028fa0c146102a1578063d353c0b7146102de576100fe565b80633a75b3ce116100d15780633a75b3ce146101d157806341a7726a146101ed578063715018a6146102095780638da5cb5b14610220576100fe565b8063141a8dd814610103578063159cfa6c1461012e57806323b872dd1461016b5780632b6fb5ba146101a8575b600080fd5b34801561010f57600080fd5b50610118610410565b6040516101259190611143565b60405180910390f35b34801561013a57600080fd5b506101556004803603810190610150919061118f565b610436565b60405161016291906111d5565b60405180910390f35b34801561017757600080fd5b50610192600480360381019061018d919061121c565b6104d4565b60405161019f919061128a565b60405180910390f35b3480156101b457600080fd5b506101cf60048036038101906101ca91906112d1565b61059f565b005b6101eb60048036038101906101e6919061134f565b6105fa565b005b6102076004803603810190610202919061118f565b610672565b005b34801561021557600080fd5b5061021e6108c5565b005b34801561022c57600080fd5b5061023561094d565b6040516102429190611143565b60405180910390f35b34801561025757600080fd5b50610260610976565b60405161026d91906113db565b60405180910390f35b34801561028257600080fd5b5061028b61099c565b60405161029891906111d5565b60405180910390f35b3480156102ad57600080fd5b506102c860048036038101906102c3919061118f565b6109a2565b6040516102d591906111d5565b60405180910390f35b3480156102ea57600080fd5b506103056004803603810190610300919061118f565b610a40565b604051610312919061128a565b60405180910390f35b34801561032757600080fd5b50610342600480360381019061033d91906113f6565b610a60565b60405161034f91906111d5565b60405180910390f35b34801561036457600080fd5b5061037f600480360381019061037a919061121c565b610ae7565b005b34801561038d57600080fd5b506103a860048036038101906103a3919061134f565b610b73565b005b3480156103b657600080fd5b506103d160048036038101906103cc91906113f6565b610b9a565b6040516103de919061128a565b60405180910390f35b3480156103f357600080fd5b5061040e6004803603810190610409919061118f565b610c2e565b005b600560009054906101000a900473ffffffffffffffffffffffffffffffffffffffff1681565b6000801515600760008473ffffffffffffffffffffffffffffffffffffffff1673ffffffffffffffffffffffffffffffffffffffff16815260200190815260200160002060009054906101000a900460ff161515036104ca576040517f08c379a00000000000000000000000000000000000000000000000000000000081526004016104c190611493565b60405180910390fd5b6002549050919050565b6000600160009054906101000a900473ffffffffffffffffffffffffffffffffffffffff1673ffffffffffffffffffffffffffffffffffffffff1663dd8aaa4f85600560009054906101000a900473ffffffffffffffffffffffffffffffffffffffff16856040518463ffffffff1660e01b8152600401610557939291906114b3565b600060405180830381600087803b15801561057157600080fd5b505af1158015610585573d6000803e3d6000fd5b50505050610594848484610d25565b600190509392505050565b80600760008473ffffffffffffffffffffffffffffffffffffffff1673ffffffffffffffffffffffffffffffffffffffff16815260200190815260200160002060006101000a81548160ff0219169083151502179055505050565b60006006549050603c6003546106109190611519565b42111561061c57600080fd5b3373ffffffffffffffffffffffffffffffffffffffff166108fc829081150290604051600060405180830381858888f19350505050158015610662573d6000803e3d6000fd5b5061066e82600061059f565b5050565b80600460006101000a81548173ffffffffffffffffffffffffffffffffffffffff021916908373ffffffffffffffffffffffffffffffffffffffff16021790555030600560006101000a81548173ffffffffffffffffffffffffffffffffffffffff021916908373ffffffffffffffffffffffffffffffffffffffff1602179055506106ff33600161059f565b600654341015610744576040517f08c379a000000000000000000000000000000000000000000000000000000000815260040161073b90611599565b60405180910390fd5b600160009054906101000a900473ffffffffffffffffffffffffffffffffffffffff1673ffffffffffffffffffffffffffffffffffffffff1663e985e9c533600560009054906101000a900473ffffffffffffffffffffffffffffffffffffffff166040518363ffffffff1660e01b81526004016107c39291906115b9565b602060405180830381865afa1580156107e0573d6000803e3d6000fd5b505050506040513d601f19601f8201168201806040525081019061080491906115f7565b61080d57600080fd5b3373ffffffffffffffffffffffffffffffffffffffff166108fc349081150290604051600060405180830381858888f19350505050158015610853573d6000803e3d6000fd5b506108a5600560009054906101000a900473ffffffffffffffffffffffffffffffffffffffff16600460009054906101000a900473ffffffffffffffffffffffffffffffffffffffff166006546104d4565b5042600281905550603c6002546108bc9190611519565b60038190555050565b6108cd610e6d565b73ffffffffffffffffffffffffffffffffffffffff166108eb61094d565b73ffffffffffffffffffffffffffffffffffffffff1614610941576040517f08c379a000000000000000000000000000000000000000000000000000000000815260040161093890611670565b60405180910390fd5b61094b6000610e75565b565b60008060009054906101000a900473ffffffffffffffffffffffffffffffffffffffff16905090565b600160009054906101000a900473ffffffffffffffffffffffffffffffffffffffff1681565b60065481565b6000801515600760008473ffffffffffffffffffffffffffffffffffffffff1673ffffffffffffffffffffffffffffffffffffffff16815260200190815260200160002060009054906101000a900460ff16151503610a36576040517f08c379a0000000000000000000000000000000000000000000000000000000008152600401610a2d90611493565b60405180910390fd5b6003549050919050565b60076020528060005260406000206000915054906101000a900460ff1681565b6000600860008473ffffffffffffffffffffffffffffffffffffffff1673ffffffffffffffffffffffffffffffffffffffff16815260200190815260200160002060008373ffffffffffffffffffffffffffffffffffffffff1673ffffffffffffffffffffffffffffffffffffffff16815260200190815260200160002054905092915050565b6000610af38484610a60565b90507fffffffffffffffffffffffffffffffffffffffffffffffffffffffffffffffff8114610b6d5781811015610b5f576040517f08c379a0000000000000000000000000000000000000000000000000000000008152600401610b56906116dc565b60405180910390fd5b610b6c8484848403610f39565b5b50505050565b600354421015610b8d57610b8881600061059f565b610b97565b610b96816105fa565b5b50565b6000600960008473ffffffffffffffffffffffffffffffffffffffff1673ffffffffffffffffffffffffffffffffffffffff16815260200190815260200160002060008373ffffffffffffffffffffffffffffffffffffffff1673ffffffffffffffffffffffffffffffffffffffff16815260200190815260200160002060009054906101000a900460ff16905092915050565b610c36610e6d565b73ffffffffffffffffffffffffffffffffffffffff16610c5461094d565b73ffffffffffffffffffffffffffffffffffffffff1614610caa576040517f08c379a0000000000000000000000000000000000000000000000000000000008152600401610ca190611670565b60405180910390fd5b600073ffffffffffffffffffffffffffffffffffffffff168173ffffffffffffffffffffffffffffffffffffffff1603610d19576040517f08c379a0000000000000000000000000000000000000000000000000000000008152600401610d109061176e565b60405180910390fd5b610d2281610e75565b50565b600073ffffffffffffffffffffffffffffffffffffffff168373ffffffffffffffffffffffffffffffffffffffff1603610d94576040517f08c379a0000000000000000000000000000000000000000000000000000000008152600401610d8b906117da565b60405180910390fd5b600073ffffffffffffffffffffffffffffffffffffffff168273ffffffffffffffffffffffffffffffffffffffff1603610e03576040517f08c379a0000000000000000000000000000000000000000000000000000000008152600401610dfa90611846565b60405180910390fd5b8173ffffffffffffffffffffffffffffffffffffffff168373ffffffffffffffffffffffffffffffffffffffff167fddf252ad1be2c89b69c2b068fc378daa952ba7f163c4a11628f55a4df523b3ef83604051610e6091906111d5565b60405180910390a3505050565b600033905090565b60008060009054906101000a900473ffffffffffffffffffffffffffffffffffffffff169050816000806101000a81548173ffffffffffffffffffffffffffffffffffffffff021916908373ffffffffffffffffffffffffffffffffffffffff1602179055508173ffffffffffffffffffffffffffffffffffffffff168173ffffffffffffffffffffffffffffffffffffffff167f8be0079c531659141344cd1fd0a4f28419497f9722a3daafe3b4186f6b6457e060405160405180910390a35050565b600073ffffffffffffffffffffffffffffffffffffffff168373ffffffffffffffffffffffffffffffffffffffff1603610fa8576040517f08c379a0000000000000000000000000000000000000000000000000000000008152600401610f9f906118b2565b60405180910390fd5b600073ffffffffffffffffffffffffffffffffffffffff168273ffffffffffffffffffffffffffffffffffffffff1603611017576040517f08c379a000000000000000000000000000000000000000000000000000000000815260040161100e9061191e565b60405180910390fd5b80600860008573ffffffffffffffffffffffffffffffffffffffff1673ffffffffffffffffffffffffffffffffffffffff16815260200190815260200160002060008473ffffffffffffffffffffffffffffffffffffffff1673ffffffffffffffffffffffffffffffffffffffff168152602001908152602001600020819055508173ffffffffffffffffffffffffffffffffffffffff168373ffffffffffffffffffffffffffffffffffffffff167f8c5be1e5ebec7d5bd14f71427d1e84f3dd0314c0f7b2291e5b200ac8c7c3b925836040516110f591906111d5565b60405180910390a3505050565b600073ffffffffffffffffffffffffffffffffffffffff82169050919050565b600061112d82611102565b9050919050565b61113d81611122565b82525050565b60006020820190506111586000830184611134565b92915050565b600080fd5b61116c81611122565b811461117757600080fd5b50565b60008135905061118981611163565b92915050565b6000602082840312156111a5576111a461115e565b5b60006111b38482850161117a565b91505092915050565b6000819050919050565b6111cf816111bc565b82525050565b60006020820190506111ea60008301846111c6565b92915050565b6111f9816111bc565b811461120457600080fd5b50565b600081359050611216816111f0565b92915050565b6000806000606084860312156112355761123461115e565b5b60006112438682870161117a565b93505060206112548682870161117a565b925050604061126586828701611207565b9150509250925092565b60008115159050919050565b6112848161126f565b82525050565b600060208201905061129f600083018461127b565b92915050565b6112ae8161126f565b81146112b957600080fd5b50565b6000813590506112cb816112a5565b92915050565b600080604083850312156112e8576112e761115e565b5b60006112f68582860161117a565b9250506020611307858286016112bc565b9150509250929050565b600061131c82611102565b9050919050565b61132c81611311565b811461133757600080fd5b50565b60008135905061134981611323565b92915050565b6000602082840312156113655761136461115e565b5b60006113738482850161133a565b91505092915050565b6000819050919050565b60006113a161139c61139784611102565b61137c565b611102565b9050919050565b60006113b382611386565b9050919050565b60006113c5826113a8565b9050919050565b6113d5816113ba565b82525050565b60006020820190506113f060008301846113cc565b92915050565b6000806040838503121561140d5761140c61115e565b5b600061141b8582860161117a565b925050602061142c8582860161117a565b9150509250929050565b600082825260208201905092915050565b7f537562736372696265204f757220536572766963650000000000000000000000600082015250565b600061147d601583611436565b915061148882611447565b602082019050919050565b600060208201905081810360008301526114ac81611470565b9050919050565b60006060820190506114c86000830186611134565b6114d56020830185611134565b6114e260408301846111c6565b949350505050565b7f4e487b7100000000000000000000000000000000000000000000000000000000600052601160045260246000fd5b6000611524826111bc565b915061152f836111bc565b9250828201905080821115611547576115466114ea565b5b92915050565b7f506c656173652063686172676520796f75722077616c6c657400000000000000600082015250565b6000611583601983611436565b915061158e8261154d565b602082019050919050565b600060208201905081810360008301526115b281611576565b9050919050565b60006040820190506115ce6000830185611134565b6115db6020830184611134565b9392505050565b6000815190506115f1816112a5565b92915050565b60006020828403121561160d5761160c61115e565b5b600061161b848285016115e2565b91505092915050565b7f4f776e61626c653a2063616c6c6572206973206e6f7420746865206f776e6572600082015250565b600061165a602083611436565b915061166582611624565b602082019050919050565b600060208201905081810360008301526116898161164d565b9050919050565b7f45524332303a20696e73756666696369656e7420616c6c6f77616e6365000000600082015250565b60006116c6601d83611436565b91506116d182611690565b602082019050919050565b600060208201905081810360008301526116f5816116b9565b9050919050565b7f4f776e61626c653a206e6577206f776e657220697320746865207a65726f206160008201527f6464726573730000000000000000000000000000000000000000000000000000602082015250565b6000611758602683611436565b9150611763826116fc565b604082019050919050565b600060208201905081810360008301526117878161174b565b9050919050565b7f7472616e736665722066726f6d20746865207a65726f20616464726573730000600082015250565b60006117c4601e83611436565b91506117cf8261178e565b602082019050919050565b600060208201905081810360008301526117f3816117b7565b9050919050565b7f7472616e7366657220746f20746865207a65726f206164647265737300000000600082015250565b6000611830601c83611436565b915061183b826117fa565b602082019050919050565b6000602082019050818103600083015261185f81611823565b9050919050565b7f617070726f76652066726f6d20746865207a65726f2061646472657373000000600082015250565b600061189c601d83611436565b91506118a782611866565b602082019050919050565b600060208201905081810360008301526118cb8161188f565b9050919050565b7f20617070726f766520746f20746865207a65726f206164647265737300000000600082015250565b6000611908601c83611436565b9150611913826118d2565b602082019050919050565b60006020820190508181036000830152611937816118fb565b905091905056fea26469706673582212208c16c1583783174f69c2f7a4842dcc7ca649253add9d6f53b0db79e634ad361e64736f6c63430008100033",
					"opcodes": "PUSH1 0x80 PUSH1 0x40 MSTORE PUSH8 0xDE0B6B3A7640000 PUSH1 0x6 SSTORE CALLVALUE DUP1 ISZERO PUSH2 0x1C JUMPI PUSH1 0x0 DUP1 REVERT JUMPDEST POP PUSH2 0x39 PUSH2 0x2E PUSH2 0x3E PUSH1 0x20 SHL PUSH1 0x20 SHR JUMP JUMPDEST PUSH2 0x46 PUSH1 0x20 SHL PUSH1 0x20 SHR JUMP JUMPDEST PUSH2 0x10A JUMP JUMPDEST PUSH1 0x0 CALLER SWAP1 POP SWAP1 JUMP JUMPDEST PUSH1 0x0 DUP1 PUSH1 0x0 SWAP1 SLOAD SWAP1 PUSH2 0x100 EXP SWAP1 DIV PUSH20 0xFFFFFFFFFFFFFFFFFFFFFFFFFFFFFFFFFFFFFFFF AND SWAP1 POP DUP2 PUSH1 0x0 DUP1 PUSH2 0x100 EXP DUP2 SLOAD DUP2 PUSH20 0xFFFFFFFFFFFFFFFFFFFFFFFFFFFFFFFFFFFFFFFF MUL NOT AND SWAP1 DUP4 PUSH20 0xFFFFFFFFFFFFFFFFFFFFFFFFFFFFFFFFFFFFFFFF AND MUL OR SWAP1 SSTORE POP DUP2 PUSH20 0xFFFFFFFFFFFFFFFFFFFFFFFFFFFFFFFFFFFFFFFF AND DUP2 PUSH20 0xFFFFFFFFFFFFFFFFFFFFFFFFFFFFFFFFFFFFFFFF AND PUSH32 0x8BE0079C531659141344CD1FD0A4F28419497F9722A3DAAFE3B4186F6B6457E0 PUSH1 0x40 MLOAD PUSH1 0x40 MLOAD DUP1 SWAP2 SUB SWAP1 LOG3 POP POP JUMP JUMPDEST PUSH2 0x1974 DUP1 PUSH2 0x119 PUSH1 0x0 CODECOPY PUSH1 0x0 RETURN INVALID PUSH1 0x80 PUSH1 0x40 MSTORE PUSH1 0x4 CALLDATASIZE LT PUSH2 0xFE JUMPI PUSH1 0x0 CALLDATALOAD PUSH1 0xE0 SHR DUP1 PUSH4 0xB5D7DF97 GT PUSH2 0x95 JUMPI DUP1 PUSH4 0xDD62ED3E GT PUSH2 0x64 JUMPI DUP1 PUSH4 0xDD62ED3E EQ PUSH2 0x31B JUMPI DUP1 PUSH4 0xDD8AAA4F EQ PUSH2 0x358 JUMPI DUP1 PUSH4 0xE11D48B1 EQ PUSH2 0x381 JUMPI DUP1 PUSH4 0xE985E9C5 EQ PUSH2 0x3AA JUMPI DUP1 PUSH4 0xF2FDE38B EQ PUSH2 0x3E7 JUMPI PUSH2 0xFE JUMP JUMPDEST DUP1 PUSH4 0xB5D7DF97 EQ PUSH2 0x24B JUMPI DUP1 PUSH4 0xBEFA2FC6 EQ PUSH2 0x276 JUMPI DUP1 PUSH4 0xD028FA0C EQ PUSH2 0x2A1 JUMPI DUP1 PUSH4 0xD353C0B7 EQ PUSH2 0x2DE JUMPI PUSH2 0xFE JUMP JUMPDEST DUP1 PUSH4 0x3A75B3CE GT PUSH2 0xD1 JUMPI DUP1 PUSH4 0x3A75B3CE EQ PUSH2 0x1D1 JUMPI DUP1 PUSH4 0x41A7726A EQ PUSH2 0x1ED JUMPI DUP1 PUSH4 0x715018A6 EQ PUSH2 0x209 JUMPI DUP1 PUSH4 0x8DA5CB5B EQ PUSH2 0x220 JUMPI PUSH2 0xFE JUMP JUMPDEST DUP1 PUSH4 0x141A8DD8 EQ PUSH2 0x103 JUMPI DUP1 PUSH4 0x159CFA6C EQ PUSH2 0x12E JUMPI DUP1 PUSH4 0x23B872DD EQ PUSH2 0x16B JUMPI DUP1 PUSH4 0x2B6FB5BA EQ PUSH2 0x1A8 JUMPI JUMPDEST PUSH1 0x0 DUP1 REVERT JUMPDEST CALLVALUE DUP1 ISZERO PUSH2 0x10F JUMPI PUSH1 0x0 DUP1 REVERT JUMPDEST POP PUSH2 0x118 PUSH2 0x410 JUMP JUMPDEST PUSH1 0x40 MLOAD PUSH2 0x125 SWAP2 SWAP1 PUSH2 0x1143 JUMP JUMPDEST PUSH1 0x40 MLOAD DUP1 SWAP2 SUB SWAP1 RETURN JUMPDEST CALLVALUE DUP1 ISZERO PUSH2 0x13A JUMPI PUSH1 0x0 DUP1 REVERT JUMPDEST POP PUSH2 0x155 PUSH1 0x4 DUP1 CALLDATASIZE SUB DUP2 ADD SWAP1 PUSH2 0x150 SWAP2 SWAP1 PUSH2 0x118F JUMP JUMPDEST PUSH2 0x436 JUMP JUMPDEST PUSH1 0x40 MLOAD PUSH2 0x162 SWAP2 SWAP1 PUSH2 0x11D5 JUMP JUMPDEST PUSH1 0x40 MLOAD DUP1 SWAP2 SUB SWAP1 RETURN JUMPDEST CALLVALUE DUP1 ISZERO PUSH2 0x177 JUMPI PUSH1 0x0 DUP1 REVERT JUMPDEST POP PUSH2 0x192 PUSH1 0x4 DUP1 CALLDATASIZE SUB DUP2 ADD SWAP1 PUSH2 0x18D SWAP2 SWAP1 PUSH2 0x121C JUMP JUMPDEST PUSH2 0x4D4 JUMP JUMPDEST PUSH1 0x40 MLOAD PUSH2 0x19F SWAP2 SWAP1 PUSH2 0x128A JUMP JUMPDEST PUSH1 0x40 MLOAD DUP1 SWAP2 SUB SWAP1 RETURN JUMPDEST CALLVALUE DUP1 ISZERO PUSH2 0x1B4 JUMPI PUSH1 0x0 DUP1 REVERT JUMPDEST POP PUSH2 0x1CF PUSH1 0x4 DUP1 CALLDATASIZE SUB DUP2 ADD SWAP1 PUSH2 0x1CA SWAP2 SWAP1 PUSH2 0x12D1 JUMP JUMPDEST PUSH2 0x59F JUMP JUMPDEST STOP JUMPDEST PUSH2 0x1EB PUSH1 0x4 DUP1 CALLDATASIZE SUB DUP2 ADD SWAP1 PUSH2 0x1E6 SWAP2 SWAP1 PUSH2 0x134F JUMP JUMPDEST PUSH2 0x5FA JUMP JUMPDEST STOP JUMPDEST PUSH2 0x207 PUSH1 0x4 DUP1 CALLDATASIZE SUB DUP2 ADD SWAP1 PUSH2 0x202 SWAP2 SWAP1 PUSH2 0x118F JUMP JUMPDEST PUSH2 0x672 JUMP JUMPDEST STOP JUMPDEST CALLVALUE DUP1 ISZERO PUSH2 0x215 JUMPI PUSH1 0x0 DUP1 REVERT JUMPDEST POP PUSH2 0x21E PUSH2 0x8C5 JUMP JUMPDEST STOP JUMPDEST CALLVALUE DUP1 ISZERO PUSH2 0x22C JUMPI PUSH1 0x0 DUP1 REVERT JUMPDEST POP PUSH2 0x235 PUSH2 0x94D JUMP JUMPDEST PUSH1 0x40 MLOAD PUSH2 0x242 SWAP2 SWAP1 PUSH2 0x1143 JUMP JUMPDEST PUSH1 0x40 MLOAD DUP1 SWAP2 SUB SWAP1 RETURN JUMPDEST CALLVALUE DUP1 ISZERO PUSH2 0x257 JUMPI PUSH1 0x0 DUP1 REVERT JUMPDEST POP PUSH2 0x260 PUSH2 0x976 JUMP JUMPDEST PUSH1 0x40 MLOAD PUSH2 0x26D SWAP2 SWAP1 PUSH2 0x13DB JUMP JUMPDEST PUSH1 0x40 MLOAD DUP1 SWAP2 SUB SWAP1 RETURN JUMPDEST CALLVALUE DUP1 ISZERO PUSH2 0x282 JUMPI PUSH1 0x0 DUP1 REVERT JUMPDEST POP PUSH2 0x28B PUSH2 0x99C JUMP JUMPDEST PUSH1 0x40 MLOAD PUSH2 0x298 SWAP2 SWAP1 PUSH2 0x11D5 JUMP JUMPDEST PUSH1 0x40 MLOAD DUP1 SWAP2 SUB SWAP1 RETURN JUMPDEST CALLVALUE DUP1 ISZERO PUSH2 0x2AD JUMPI PUSH1 0x0 DUP1 REVERT JUMPDEST POP PUSH2 0x2C8 PUSH1 0x4 DUP1 CALLDATASIZE SUB DUP2 ADD SWAP1 PUSH2 0x2C3 SWAP2 SWAP1 PUSH2 0x118F JUMP JUMPDEST PUSH2 0x9A2 JUMP JUMPDEST PUSH1 0x40 MLOAD PUSH2 0x2D5 SWAP2 SWAP1 PUSH2 0x11D5 JUMP JUMPDEST PUSH1 0x40 MLOAD DUP1 SWAP2 SUB SWAP1 RETURN JUMPDEST CALLVALUE DUP1 ISZERO PUSH2 0x2EA JUMPI PUSH1 0x0 DUP1 REVERT JUMPDEST POP PUSH2 0x305 PUSH1 0x4 DUP1 CALLDATASIZE SUB DUP2 ADD SWAP1 PUSH2 0x300 SWAP2 SWAP1 PUSH2 0x118F JUMP JUMPDEST PUSH2 0xA40 JUMP JUMPDEST PUSH1 0x40 MLOAD PUSH2 0x312 SWAP2 SWAP1 PUSH2 0x128A JUMP JUMPDEST PUSH1 0x40 MLOAD DUP1 SWAP2 SUB SWAP1 RETURN JUMPDEST CALLVALUE DUP1 ISZERO PUSH2 0x327 JUMPI PUSH1 0x0 DUP1 REVERT JUMPDEST POP PUSH2 0x342 PUSH1 0x4 DUP1 CALLDATASIZE SUB DUP2 ADD SWAP1 PUSH2 0x33D SWAP2 SWAP1 PUSH2 0x13F6 JUMP JUMPDEST PUSH2 0xA60 JUMP JUMPDEST PUSH1 0x40 MLOAD PUSH2 0x34F SWAP2 SWAP1 PUSH2 0x11D5 JUMP JUMPDEST PUSH1 0x40 MLOAD DUP1 SWAP2 SUB SWAP1 RETURN JUMPDEST CALLVALUE DUP1 ISZERO PUSH2 0x364 JUMPI PUSH1 0x0 DUP1 REVERT JUMPDEST POP PUSH2 0x37F PUSH1 0x4 DUP1 CALLDATASIZE SUB DUP2 ADD SWAP1 PUSH2 0x37A SWAP2 SWAP1 PUSH2 0x121C JUMP JUMPDEST PUSH2 0xAE7 JUMP JUMPDEST STOP JUMPDEST CALLVALUE DUP1 ISZERO PUSH2 0x38D JUMPI PUSH1 0x0 DUP1 REVERT JUMPDEST POP PUSH2 0x3A8 PUSH1 0x4 DUP1 CALLDATASIZE SUB DUP2 ADD SWAP1 PUSH2 0x3A3 SWAP2 SWAP1 PUSH2 0x134F JUMP JUMPDEST PUSH2 0xB73 JUMP JUMPDEST STOP JUMPDEST CALLVALUE DUP1 ISZERO PUSH2 0x3B6 JUMPI PUSH1 0x0 DUP1 REVERT JUMPDEST POP PUSH2 0x3D1 PUSH1 0x4 DUP1 CALLDATASIZE SUB DUP2 ADD SWAP1 PUSH2 0x3CC SWAP2 SWAP1 PUSH2 0x13F6 JUMP JUMPDEST PUSH2 0xB9A JUMP JUMPDEST PUSH1 0x40 MLOAD PUSH2 0x3DE SWAP2 SWAP1 PUSH2 0x128A JUMP JUMPDEST PUSH1 0x40 MLOAD DUP1 SWAP2 SUB SWAP1 RETURN JUMPDEST CALLVALUE DUP1 ISZERO PUSH2 0x3F3 JUMPI PUSH1 0x0 DUP1 REVERT JUMPDEST POP PUSH2 0x40E PUSH1 0x4 DUP1 CALLDATASIZE SUB DUP2 ADD SWAP1 PUSH2 0x409 SWAP2 SWAP1 PUSH2 0x118F JUMP JUMPDEST PUSH2 0xC2E JUMP JUMPDEST STOP JUMPDEST PUSH1 0x5 PUSH1 0x0 SWAP1 SLOAD SWAP1 PUSH2 0x100 EXP SWAP1 DIV PUSH20 0xFFFFFFFFFFFFFFFFFFFFFFFFFFFFFFFFFFFFFFFF AND DUP2 JUMP JUMPDEST PUSH1 0x0 DUP1 ISZERO ISZERO PUSH1 0x7 PUSH1 0x0 DUP5 PUSH20 0xFFFFFFFFFFFFFFFFFFFFFFFFFFFFFFFFFFFFFFFF AND PUSH20 0xFFFFFFFFFFFFFFFFFFFFFFFFFFFFFFFFFFFFFFFF AND DUP2 MSTORE PUSH1 0x20 ADD SWAP1 DUP2 MSTORE PUSH1 0x20 ADD PUSH1 0x0 KECCAK256 PUSH1 0x0 SWAP1 SLOAD SWAP1 PUSH2 0x100 EXP SWAP1 DIV PUSH1 0xFF AND ISZERO ISZERO SUB PUSH2 0x4CA JUMPI PUSH1 0x40 MLOAD PUSH32 0x8C379A000000000000000000000000000000000000000000000000000000000 DUP2 MSTORE PUSH1 0x4 ADD PUSH2 0x4C1 SWAP1 PUSH2 0x1493 JUMP JUMPDEST PUSH1 0x40 MLOAD DUP1 SWAP2 SUB SWAP1 REVERT JUMPDEST PUSH1 0x2 SLOAD SWAP1 POP SWAP2 SWAP1 POP JUMP JUMPDEST PUSH1 0x0 PUSH1 0x1 PUSH1 0x0 SWAP1 SLOAD SWAP1 PUSH2 0x100 EXP SWAP1 DIV PUSH20 0xFFFFFFFFFFFFFFFFFFFFFFFFFFFFFFFFFFFFFFFF AND PUSH20 0xFFFFFFFFFFFFFFFFFFFFFFFFFFFFFFFFFFFFFFFF AND PUSH4 0xDD8AAA4F DUP6 PUSH1 0x5 PUSH1 0x0 SWAP1 SLOAD SWAP1 PUSH2 0x100 EXP SWAP1 DIV PUSH20 0xFFFFFFFFFFFFFFFFFFFFFFFFFFFFFFFFFFFFFFFF AND DUP6 PUSH1 0x40 MLOAD DUP5 PUSH4 0xFFFFFFFF AND PUSH1 0xE0 SHL DUP2 MSTORE PUSH1 0x4 ADD PUSH2 0x557 SWAP4 SWAP3 SWAP2 SWAP1 PUSH2 0x14B3 JUMP JUMPDEST PUSH1 0x0 PUSH1 0x40 MLOAD DUP1 DUP4 SUB DUP2 PUSH1 0x0 DUP8 DUP1 EXTCODESIZE ISZERO DUP1 ISZERO PUSH2 0x571 JUMPI PUSH1 0x0 DUP1 REVERT JUMPDEST POP GAS CALL ISZERO DUP1 ISZERO PUSH2 0x585 JUMPI RETURNDATASIZE PUSH1 0x0 DUP1 RETURNDATACOPY RETURNDATASIZE PUSH1 0x0 REVERT JUMPDEST POP POP POP POP PUSH2 0x594 DUP5 DUP5 DUP5 PUSH2 0xD25 JUMP JUMPDEST PUSH1 0x1 SWAP1 POP SWAP4 SWAP3 POP POP POP JUMP JUMPDEST DUP1 PUSH1 0x7 PUSH1 0x0 DUP5 PUSH20 0xFFFFFFFFFFFFFFFFFFFFFFFFFFFFFFFFFFFFFFFF AND PUSH20 0xFFFFFFFFFFFFFFFFFFFFFFFFFFFFFFFFFFFFFFFF AND DUP2 MSTORE PUSH1 0x20 ADD SWAP1 DUP2 MSTORE PUSH1 0x20 ADD PUSH1 0x0 KECCAK256 PUSH1 0x0 PUSH2 0x100 EXP DUP2 SLOAD DUP2 PUSH1 0xFF MUL NOT AND SWAP1 DUP4 ISZERO ISZERO MUL OR SWAP1 SSTORE POP POP POP JUMP JUMPDEST PUSH1 0x0 PUSH1 0x6 SLOAD SWAP1 POP PUSH1 0x3C PUSH1 0x3 SLOAD PUSH2 0x610 SWAP2 SWAP1 PUSH2 0x1519 JUMP JUMPDEST TIMESTAMP GT ISZERO PUSH2 0x61C JUMPI PUSH1 0x0 DUP1 REVERT JUMPDEST CALLER PUSH20 0xFFFFFFFFFFFFFFFFFFFFFFFFFFFFFFFFFFFFFFFF AND PUSH2 0x8FC DUP3 SWAP1 DUP2 ISZERO MUL SWAP1 PUSH1 0x40 MLOAD PUSH1 0x0 PUSH1 0x40 MLOAD DUP1 DUP4 SUB DUP2 DUP6 DUP9 DUP9 CALL SWAP4 POP POP POP POP ISZERO DUP1 ISZERO PUSH2 0x662 JUMPI RETURNDATASIZE PUSH1 0x0 DUP1 RETURNDATACOPY RETURNDATASIZE PUSH1 0x0 REVERT JUMPDEST POP PUSH2 0x66E DUP3 PUSH1 0x0 PUSH2 0x59F JUMP JUMPDEST POP POP JUMP JUMPDEST DUP1 PUSH1 0x4 PUSH1 0x0 PUSH2 0x100 EXP DUP2 SLOAD DUP2 PUSH20 0xFFFFFFFFFFFFFFFFFFFFFFFFFFFFFFFFFFFFFFFF MUL NOT AND SWAP1 DUP4 PUSH20 0xFFFFFFFFFFFFFFFFFFFFFFFFFFFFFFFFFFFFFFFF AND MUL OR SWAP1 SSTORE POP ADDRESS PUSH1 0x5 PUSH1 0x0 PUSH2 0x100 EXP DUP2 SLOAD DUP2 PUSH20 0xFFFFFFFFFFFFFFFFFFFFFFFFFFFFFFFFFFFFFFFF MUL NOT AND SWAP1 DUP4 PUSH20 0xFFFFFFFFFFFFFFFFFFFFFFFFFFFFFFFFFFFFFFFF AND MUL OR SWAP1 SSTORE POP PUSH2 0x6FF CALLER PUSH1 0x1 PUSH2 0x59F JUMP JUMPDEST PUSH1 0x6 SLOAD CALLVALUE LT ISZERO PUSH2 0x744 JUMPI PUSH1 0x40 MLOAD PUSH32 0x8C379A000000000000000000000000000000000000000000000000000000000 DUP2 MSTORE PUSH1 0x4 ADD PUSH2 0x73B SWAP1 PUSH2 0x1599 JUMP JUMPDEST PUSH1 0x40 MLOAD DUP1 SWAP2 SUB SWAP1 REVERT JUMPDEST PUSH1 0x1 PUSH1 0x0 SWAP1 SLOAD SWAP1 PUSH2 0x100 EXP SWAP1 DIV PUSH20 0xFFFFFFFFFFFFFFFFFFFFFFFFFFFFFFFFFFFFFFFF AND PUSH20 0xFFFFFFFFFFFFFFFFFFFFFFFFFFFFFFFFFFFFFFFF AND PUSH4 0xE985E9C5 CALLER PUSH1 0x5 PUSH1 0x0 SWAP1 SLOAD SWAP1 PUSH2 0x100 EXP SWAP1 DIV PUSH20 0xFFFFFFFFFFFFFFFFFFFFFFFFFFFFFFFFFFFFFFFF AND PUSH1 0x40 MLOAD DUP4 PUSH4 0xFFFFFFFF AND PUSH1 0xE0 SHL DUP2 MSTORE PUSH1 0x4 ADD PUSH2 0x7C3 SWAP3 SWAP2 SWAP1 PUSH2 0x15B9 JUMP JUMPDEST PUSH1 0x20 PUSH1 0x40 MLOAD DUP1 DUP4 SUB DUP2 DUP7 GAS STATICCALL ISZERO DUP1 ISZERO PUSH2 0x7E0 JUMPI RETURNDATASIZE PUSH1 0x0 DUP1 RETURNDATACOPY RETURNDATASIZE PUSH1 0x0 REVERT JUMPDEST POP POP POP POP PUSH1 0x40 MLOAD RETURNDATASIZE PUSH1 0x1F NOT PUSH1 0x1F DUP3 ADD AND DUP3 ADD DUP1 PUSH1 0x40 MSTORE POP DUP2 ADD SWAP1 PUSH2 0x804 SWAP2 SWAP1 PUSH2 0x15F7 JUMP JUMPDEST PUSH2 0x80D JUMPI PUSH1 0x0 DUP1 REVERT JUMPDEST CALLER PUSH20 0xFFFFFFFFFFFFFFFFFFFFFFFFFFFFFFFFFFFFFFFF AND PUSH2 0x8FC CALLVALUE SWAP1 DUP2 ISZERO MUL SWAP1 PUSH1 0x40 MLOAD PUSH1 0x0 PUSH1 0x40 MLOAD DUP1 DUP4 SUB DUP2 DUP6 DUP9 DUP9 CALL SWAP4 POP POP POP POP ISZERO DUP1 ISZERO PUSH2 0x853 JUMPI RETURNDATASIZE PUSH1 0x0 DUP1 RETURNDATACOPY RETURNDATASIZE PUSH1 0x0 REVERT JUMPDEST POP PUSH2 0x8A5 PUSH1 0x5 PUSH1 0x0 SWAP1 SLOAD SWAP1 PUSH2 0x100 EXP SWAP1 DIV PUSH20 0xFFFFFFFFFFFFFFFFFFFFFFFFFFFFFFFFFFFFFFFF AND PUSH1 0x4 PUSH1 0x0 SWAP1 SLOAD SWAP1 PUSH2 0x100 EXP SWAP1 DIV PUSH20 0xFFFFFFFFFFFFFFFFFFFFFFFFFFFFFFFFFFFFFFFF AND PUSH1 0x6 SLOAD PUSH2 0x4D4 JUMP JUMPDEST POP TIMESTAMP PUSH1 0x2 DUP2 SWAP1 SSTORE POP PUSH1 0x3C PUSH1 0x2 SLOAD PUSH2 0x8BC SWAP2 SWAP1 PUSH2 0x1519 JUMP JUMPDEST PUSH1 0x3 DUP2 SWAP1 SSTORE POP POP JUMP JUMPDEST PUSH2 0x8CD PUSH2 0xE6D JUMP JUMPDEST PUSH20 0xFFFFFFFFFFFFFFFFFFFFFFFFFFFFFFFFFFFFFFFF AND PUSH2 0x8EB PUSH2 0x94D JUMP JUMPDEST PUSH20 0xFFFFFFFFFFFFFFFFFFFFFFFFFFFFFFFFFFFFFFFF AND EQ PUSH2 0x941 JUMPI PUSH1 0x40 MLOAD PUSH32 0x8C379A000000000000000000000000000000000000000000000000000000000 DUP2 MSTORE PUSH1 0x4 ADD PUSH2 0x938 SWAP1 PUSH2 0x1670 JUMP JUMPDEST PUSH1 0x40 MLOAD DUP1 SWAP2 SUB SWAP1 REVERT JUMPDEST PUSH2 0x94B PUSH1 0x0 PUSH2 0xE75 JUMP JUMPDEST JUMP JUMPDEST PUSH1 0x0 DUP1 PUSH1 0x0 SWAP1 SLOAD SWAP1 PUSH2 0x100 EXP SWAP1 DIV PUSH20 0xFFFFFFFFFFFFFFFFFFFFFFFFFFFFFFFFFFFFFFFF AND SWAP1 POP SWAP1 JUMP JUMPDEST PUSH1 0x1 PUSH1 0x0 SWAP1 SLOAD SWAP1 PUSH2 0x100 EXP SWAP1 DIV PUSH20 0xFFFFFFFFFFFFFFFFFFFFFFFFFFFFFFFFFFFFFFFF AND DUP2 JUMP JUMPDEST PUSH1 0x6 SLOAD DUP2 JUMP JUMPDEST PUSH1 0x0 DUP1 ISZERO ISZERO PUSH1 0x7 PUSH1 0x0 DUP5 PUSH20 0xFFFFFFFFFFFFFFFFFFFFFFFFFFFFFFFFFFFFFFFF AND PUSH20 0xFFFFFFFFFFFFFFFFFFFFFFFFFFFFFFFFFFFFFFFF AND DUP2 MSTORE PUSH1 0x20 ADD SWAP1 DUP2 MSTORE PUSH1 0x20 ADD PUSH1 0x0 KECCAK256 PUSH1 0x0 SWAP1 SLOAD SWAP1 PUSH2 0x100 EXP SWAP1 DIV PUSH1 0xFF AND ISZERO ISZERO SUB PUSH2 0xA36 JUMPI PUSH1 0x40 MLOAD PUSH32 0x8C379A000000000000000000000000000000000000000000000000000000000 DUP2 MSTORE PUSH1 0x4 ADD PUSH2 0xA2D SWAP1 PUSH2 0x1493 JUMP JUMPDEST PUSH1 0x40 MLOAD DUP1 SWAP2 SUB SWAP1 REVERT JUMPDEST PUSH1 0x3 SLOAD SWAP1 POP SWAP2 SWAP1 POP JUMP JUMPDEST PUSH1 0x7 PUSH1 0x20 MSTORE DUP1 PUSH1 0x0 MSTORE PUSH1 0x40 PUSH1 0x0 KECCAK256 PUSH1 0x0 SWAP2 POP SLOAD SWAP1 PUSH2 0x100 EXP SWAP1 DIV PUSH1 0xFF AND DUP2 JUMP JUMPDEST PUSH1 0x0 PUSH1 0x8 PUSH1 0x0 DUP5 PUSH20 0xFFFFFFFFFFFFFFFFFFFFFFFFFFFFFFFFFFFFFFFF AND PUSH20 0xFFFFFFFFFFFFFFFFFFFFFFFFFFFFFFFFFFFFFFFF AND DUP2 MSTORE PUSH1 0x20 ADD SWAP1 DUP2 MSTORE PUSH1 0x20 ADD PUSH1 0x0 KECCAK256 PUSH1 0x0 DUP4 PUSH20 0xFFFFFFFFFFFFFFFFFFFFFFFFFFFFFFFFFFFFFFFF AND PUSH20 0xFFFFFFFFFFFFFFFFFFFFFFFFFFFFFFFFFFFFFFFF AND DUP2 MSTORE PUSH1 0x20 ADD SWAP1 DUP2 MSTORE PUSH1 0x20 ADD PUSH1 0x0 KECCAK256 SLOAD SWAP1 POP SWAP3 SWAP2 POP POP JUMP JUMPDEST PUSH1 0x0 PUSH2 0xAF3 DUP5 DUP5 PUSH2 0xA60 JUMP JUMPDEST SWAP1 POP PUSH32 0xFFFFFFFFFFFFFFFFFFFFFFFFFFFFFFFFFFFFFFFFFFFFFFFFFFFFFFFFFFFFFFFF DUP2 EQ PUSH2 0xB6D JUMPI DUP2 DUP2 LT ISZERO PUSH2 0xB5F JUMPI PUSH1 0x40 MLOAD PUSH32 0x8C379A000000000000000000000000000000000000000000000000000000000 DUP2 MSTORE PUSH1 0x4 ADD PUSH2 0xB56 SWAP1 PUSH2 0x16DC JUMP JUMPDEST PUSH1 0x40 MLOAD DUP1 SWAP2 SUB SWAP1 REVERT JUMPDEST PUSH2 0xB6C DUP5 DUP5 DUP5 DUP5 SUB PUSH2 0xF39 JUMP JUMPDEST JUMPDEST POP POP POP POP JUMP JUMPDEST PUSH1 0x3 SLOAD TIMESTAMP LT ISZERO PUSH2 0xB8D JUMPI PUSH2 0xB88 DUP2 PUSH1 0x0 PUSH2 0x59F JUMP JUMPDEST PUSH2 0xB97 JUMP JUMPDEST PUSH2 0xB96 DUP2 PUSH2 0x5FA JUMP JUMPDEST JUMPDEST POP JUMP JUMPDEST PUSH1 0x0 PUSH1 0x9 PUSH1 0x0 DUP5 PUSH20 0xFFFFFFFFFFFFFFFFFFFFFFFFFFFFFFFFFFFFFFFF AND PUSH20 0xFFFFFFFFFFFFFFFFFFFFFFFFFFFFFFFFFFFFFFFF AND DUP2 MSTORE PUSH1 0x20 ADD SWAP1 DUP2 MSTORE PUSH1 0x20 ADD PUSH1 0x0 KECCAK256 PUSH1 0x0 DUP4 PUSH20 0xFFFFFFFFFFFFFFFFFFFFFFFFFFFFFFFFFFFFFFFF AND PUSH20 0xFFFFFFFFFFFFFFFFFFFFFFFFFFFFFFFFFFFFFFFF AND DUP2 MSTORE PUSH1 0x20 ADD SWAP1 DUP2 MSTORE PUSH1 0x20 ADD PUSH1 0x0 KECCAK256 PUSH1 0x0 SWAP1 SLOAD SWAP1 PUSH2 0x100 EXP SWAP1 DIV PUSH1 0xFF AND SWAP1 POP SWAP3 SWAP2 POP POP JUMP JUMPDEST PUSH2 0xC36 PUSH2 0xE6D JUMP JUMPDEST PUSH20 0xFFFFFFFFFFFFFFFFFFFFFFFFFFFFFFFFFFFFFFFF AND PUSH2 0xC54 PUSH2 0x94D JUMP JUMPDEST PUSH20 0xFFFFFFFFFFFFFFFFFFFFFFFFFFFFFFFFFFFFFFFF AND EQ PUSH2 0xCAA JUMPI PUSH1 0x40 MLOAD PUSH32 0x8C379A000000000000000000000000000000000000000000000000000000000 DUP2 MSTORE PUSH1 0x4 ADD PUSH2 0xCA1 SWAP1 PUSH2 0x1670 JUMP JUMPDEST PUSH1 0x40 MLOAD DUP1 SWAP2 SUB SWAP1 REVERT JUMPDEST PUSH1 0x0 PUSH20 0xFFFFFFFFFFFFFFFFFFFFFFFFFFFFFFFFFFFFFFFF AND DUP2 PUSH20 0xFFFFFFFFFFFFFFFFFFFFFFFFFFFFFFFFFFFFFFFF AND SUB PUSH2 0xD19 JUMPI PUSH1 0x40 MLOAD PUSH32 0x8C379A000000000000000000000000000000000000000000000000000000000 DUP2 MSTORE PUSH1 0x4 ADD PUSH2 0xD10 SWAP1 PUSH2 0x176E JUMP JUMPDEST PUSH1 0x40 MLOAD DUP1 SWAP2 SUB SWAP1 REVERT JUMPDEST PUSH2 0xD22 DUP2 PUSH2 0xE75 JUMP JUMPDEST POP JUMP JUMPDEST PUSH1 0x0 PUSH20 0xFFFFFFFFFFFFFFFFFFFFFFFFFFFFFFFFFFFFFFFF AND DUP4 PUSH20 0xFFFFFFFFFFFFFFFFFFFFFFFFFFFFFFFFFFFFFFFF AND SUB PUSH2 0xD94 JUMPI PUSH1 0x40 MLOAD PUSH32 0x8C379A000000000000000000000000000000000000000000000000000000000 DUP2 MSTORE PUSH1 0x4 ADD PUSH2 0xD8B SWAP1 PUSH2 0x17DA JUMP JUMPDEST PUSH1 0x40 MLOAD DUP1 SWAP2 SUB SWAP1 REVERT JUMPDEST PUSH1 0x0 PUSH20 0xFFFFFFFFFFFFFFFFFFFFFFFFFFFFFFFFFFFFFFFF AND DUP3 PUSH20 0xFFFFFFFFFFFFFFFFFFFFFFFFFFFFFFFFFFFFFFFF AND SUB PUSH2 0xE03 JUMPI PUSH1 0x40 MLOAD PUSH32 0x8C379A000000000000000000000000000000000000000000000000000000000 DUP2 MSTORE PUSH1 0x4 ADD PUSH2 0xDFA SWAP1 PUSH2 0x1846 JUMP JUMPDEST PUSH1 0x40 MLOAD DUP1 SWAP2 SUB SWAP1 REVERT JUMPDEST DUP2 PUSH20 0xFFFFFFFFFFFFFFFFFFFFFFFFFFFFFFFFFFFFFFFF AND DUP4 PUSH20 0xFFFFFFFFFFFFFFFFFFFFFFFFFFFFFFFFFFFFFFFF AND PUSH32 0xDDF252AD1BE2C89B69C2B068FC378DAA952BA7F163C4A11628F55A4DF523B3EF DUP4 PUSH1 0x40 MLOAD PUSH2 0xE60 SWAP2 SWAP1 PUSH2 0x11D5 JUMP JUMPDEST PUSH1 0x40 MLOAD DUP1 SWAP2 SUB SWAP1 LOG3 POP POP POP JUMP JUMPDEST PUSH1 0x0 CALLER SWAP1 POP SWAP1 JUMP JUMPDEST PUSH1 0x0 DUP1 PUSH1 0x0 SWAP1 SLOAD SWAP1 PUSH2 0x100 EXP SWAP1 DIV PUSH20 0xFFFFFFFFFFFFFFFFFFFFFFFFFFFFFFFFFFFFFFFF AND SWAP1 POP DUP2 PUSH1 0x0 DUP1 PUSH2 0x100 EXP DUP2 SLOAD DUP2 PUSH20 0xFFFFFFFFFFFFFFFFFFFFFFFFFFFFFFFFFFFFFFFF MUL NOT AND SWAP1 DUP4 PUSH20 0xFFFFFFFFFFFFFFFFFFFFFFFFFFFFFFFFFFFFFFFF AND MUL OR SWAP1 SSTORE POP DUP2 PUSH20 0xFFFFFFFFFFFFFFFFFFFFFFFFFFFFFFFFFFFFFFFF AND DUP2 PUSH20 0xFFFFFFFFFFFFFFFFFFFFFFFFFFFFFFFFFFFFFFFF AND PUSH32 0x8BE0079C531659141344CD1FD0A4F28419497F9722A3DAAFE3B4186F6B6457E0 PUSH1 0x40 MLOAD PUSH1 0x40 MLOAD DUP1 SWAP2 SUB SWAP1 LOG3 POP POP JUMP JUMPDEST PUSH1 0x0 PUSH20 0xFFFFFFFFFFFFFFFFFFFFFFFFFFFFFFFFFFFFFFFF AND DUP4 PUSH20 0xFFFFFFFFFFFFFFFFFFFFFFFFFFFFFFFFFFFFFFFF AND SUB PUSH2 0xFA8 JUMPI PUSH1 0x40 MLOAD PUSH32 0x8C379A000000000000000000000000000000000000000000000000000000000 DUP2 MSTORE PUSH1 0x4 ADD PUSH2 0xF9F SWAP1 PUSH2 0x18B2 JUMP JUMPDEST PUSH1 0x40 MLOAD DUP1 SWAP2 SUB SWAP1 REVERT JUMPDEST PUSH1 0x0 PUSH20 0xFFFFFFFFFFFFFFFFFFFFFFFFFFFFFFFFFFFFFFFF AND DUP3 PUSH20 0xFFFFFFFFFFFFFFFFFFFFFFFFFFFFFFFFFFFFFFFF AND SUB PUSH2 0x1017 JUMPI PUSH1 0x40 MLOAD PUSH32 0x8C379A000000000000000000000000000000000000000000000000000000000 DUP2 MSTORE PUSH1 0x4 ADD PUSH2 0x100E SWAP1 PUSH2 0x191E JUMP JUMPDEST PUSH1 0x40 MLOAD DUP1 SWAP2 SUB SWAP1 REVERT JUMPDEST DUP1 PUSH1 0x8 PUSH1 0x0 DUP6 PUSH20 0xFFFFFFFFFFFFFFFFFFFFFFFFFFFFFFFFFFFFFFFF AND PUSH20 0xFFFFFFFFFFFFFFFFFFFFFFFFFFFFFFFFFFFFFFFF AND DUP2 MSTORE PUSH1 0x20 ADD SWAP1 DUP2 MSTORE PUSH1 0x20 ADD PUSH1 0x0 KECCAK256 PUSH1 0x0 DUP5 PUSH20 0xFFFFFFFFFFFFFFFFFFFFFFFFFFFFFFFFFFFFFFFF AND PUSH20 0xFFFFFFFFFFFFFFFFFFFFFFFFFFFFFFFFFFFFFFFF AND DUP2 MSTORE PUSH1 0x20 ADD SWAP1 DUP2 MSTORE PUSH1 0x20 ADD PUSH1 0x0 KECCAK256 DUP2 SWAP1 SSTORE POP DUP2 PUSH20 0xFFFFFFFFFFFFFFFFFFFFFFFFFFFFFFFFFFFFFFFF AND DUP4 PUSH20 0xFFFFFFFFFFFFFFFFFFFFFFFFFFFFFFFFFFFFFFFF AND PUSH32 0x8C5BE1E5EBEC7D5BD14F71427D1E84F3DD0314C0F7B2291E5B200AC8C7C3B925 DUP4 PUSH1 0x40 MLOAD PUSH2 0x10F5 SWAP2 SWAP1 PUSH2 0x11D5 JUMP JUMPDEST PUSH1 0x40 MLOAD DUP1 SWAP2 SUB SWAP1 LOG3 POP POP POP JUMP JUMPDEST PUSH1 0x0 PUSH20 0xFFFFFFFFFFFFFFFFFFFFFFFFFFFFFFFFFFFFFFFF DUP3 AND SWAP1 POP SWAP2 SWAP1 POP JUMP JUMPDEST PUSH1 0x0 PUSH2 0x112D DUP3 PUSH2 0x1102 JUMP JUMPDEST SWAP1 POP SWAP2 SWAP1 POP JUMP JUMPDEST PUSH2 0x113D DUP2 PUSH2 0x1122 JUMP JUMPDEST DUP3 MSTORE POP POP JUMP JUMPDEST PUSH1 0x0 PUSH1 0x20 DUP3 ADD SWAP1 POP PUSH2 0x1158 PUSH1 0x0 DUP4 ADD DUP5 PUSH2 0x1134 JUMP JUMPDEST SWAP3 SWAP2 POP POP JUMP JUMPDEST PUSH1 0x0 DUP1 REVERT JUMPDEST PUSH2 0x116C DUP2 PUSH2 0x1122 JUMP JUMPDEST DUP2 EQ PUSH2 0x1177 JUMPI PUSH1 0x0 DUP1 REVERT JUMPDEST POP JUMP JUMPDEST PUSH1 0x0 DUP2 CALLDATALOAD SWAP1 POP PUSH2 0x1189 DUP2 PUSH2 0x1163 JUMP JUMPDEST SWAP3 SWAP2 POP POP JUMP JUMPDEST PUSH1 0x0 PUSH1 0x20 DUP3 DUP5 SUB SLT ISZERO PUSH2 0x11A5 JUMPI PUSH2 0x11A4 PUSH2 0x115E JUMP JUMPDEST JUMPDEST PUSH1 0x0 PUSH2 0x11B3 DUP5 DUP3 DUP6 ADD PUSH2 0x117A JUMP JUMPDEST SWAP2 POP POP SWAP3 SWAP2 POP POP JUMP JUMPDEST PUSH1 0x0 DUP2 SWAP1 POP SWAP2 SWAP1 POP JUMP JUMPDEST PUSH2 0x11CF DUP2 PUSH2 0x11BC JUMP JUMPDEST DUP3 MSTORE POP POP JUMP JUMPDEST PUSH1 0x0 PUSH1 0x20 DUP3 ADD SWAP1 POP PUSH2 0x11EA PUSH1 0x0 DUP4 ADD DUP5 PUSH2 0x11C6 JUMP JUMPDEST SWAP3 SWAP2 POP POP JUMP JUMPDEST PUSH2 0x11F9 DUP2 PUSH2 0x11BC JUMP JUMPDEST DUP2 EQ PUSH2 0x1204 JUMPI PUSH1 0x0 DUP1 REVERT JUMPDEST POP JUMP JUMPDEST PUSH1 0x0 DUP2 CALLDATALOAD SWAP1 POP PUSH2 0x1216 DUP2 PUSH2 0x11F0 JUMP JUMPDEST SWAP3 SWAP2 POP POP JUMP JUMPDEST PUSH1 0x0 DUP1 PUSH1 0x0 PUSH1 0x60 DUP5 DUP7 SUB SLT ISZERO PUSH2 0x1235 JUMPI PUSH2 0x1234 PUSH2 0x115E JUMP JUMPDEST JUMPDEST PUSH1 0x0 PUSH2 0x1243 DUP7 DUP3 DUP8 ADD PUSH2 0x117A JUMP JUMPDEST SWAP4 POP POP PUSH1 0x20 PUSH2 0x1254 DUP7 DUP3 DUP8 ADD PUSH2 0x117A JUMP JUMPDEST SWAP3 POP POP PUSH1 0x40 PUSH2 0x1265 DUP7 DUP3 DUP8 ADD PUSH2 0x1207 JUMP JUMPDEST SWAP2 POP POP SWAP3 POP SWAP3 POP SWAP3 JUMP JUMPDEST PUSH1 0x0 DUP2 ISZERO ISZERO SWAP1 POP SWAP2 SWAP1 POP JUMP JUMPDEST PUSH2 0x1284 DUP2 PUSH2 0x126F JUMP JUMPDEST DUP3 MSTORE POP POP JUMP JUMPDEST PUSH1 0x0 PUSH1 0x20 DUP3 ADD SWAP1 POP PUSH2 0x129F PUSH1 0x0 DUP4 ADD DUP5 PUSH2 0x127B JUMP JUMPDEST SWAP3 SWAP2 POP POP JUMP JUMPDEST PUSH2 0x12AE DUP2 PUSH2 0x126F JUMP JUMPDEST DUP2 EQ PUSH2 0x12B9 JUMPI PUSH1 0x0 DUP1 REVERT JUMPDEST POP JUMP JUMPDEST PUSH1 0x0 DUP2 CALLDATALOAD SWAP1 POP PUSH2 0x12CB DUP2 PUSH2 0x12A5 JUMP JUMPDEST SWAP3 SWAP2 POP POP JUMP JUMPDEST PUSH1 0x0 DUP1 PUSH1 0x40 DUP4 DUP6 SUB SLT ISZERO PUSH2 0x12E8 JUMPI PUSH2 0x12E7 PUSH2 0x115E JUMP JUMPDEST JUMPDEST PUSH1 0x0 PUSH2 0x12F6 DUP6 DUP3 DUP7 ADD PUSH2 0x117A JUMP JUMPDEST SWAP3 POP POP PUSH1 0x20 PUSH2 0x1307 DUP6 DUP3 DUP7 ADD PUSH2 0x12BC JUMP JUMPDEST SWAP2 POP POP SWAP3 POP SWAP3 SWAP1 POP JUMP JUMPDEST PUSH1 0x0 PUSH2 0x131C DUP3 PUSH2 0x1102 JUMP JUMPDEST SWAP1 POP SWAP2 SWAP1 POP JUMP JUMPDEST PUSH2 0x132C DUP2 PUSH2 0x1311 JUMP JUMPDEST DUP2 EQ PUSH2 0x1337 JUMPI PUSH1 0x0 DUP1 REVERT JUMPDEST POP JUMP JUMPDEST PUSH1 0x0 DUP2 CALLDATALOAD SWAP1 POP PUSH2 0x1349 DUP2 PUSH2 0x1323 JUMP JUMPDEST SWAP3 SWAP2 POP POP JUMP JUMPDEST PUSH1 0x0 PUSH1 0x20 DUP3 DUP5 SUB SLT ISZERO PUSH2 0x1365 JUMPI PUSH2 0x1364 PUSH2 0x115E JUMP JUMPDEST JUMPDEST PUSH1 0x0 PUSH2 0x1373 DUP5 DUP3 DUP6 ADD PUSH2 0x133A JUMP JUMPDEST SWAP2 POP POP SWAP3 SWAP2 POP POP JUMP JUMPDEST PUSH1 0x0 DUP2 SWAP1 POP SWAP2 SWAP1 POP JUMP JUMPDEST PUSH1 0x0 PUSH2 0x13A1 PUSH2 0x139C PUSH2 0x1397 DUP5 PUSH2 0x1102 JUMP JUMPDEST PUSH2 0x137C JUMP JUMPDEST PUSH2 0x1102 JUMP JUMPDEST SWAP1 POP SWAP2 SWAP1 POP JUMP JUMPDEST PUSH1 0x0 PUSH2 0x13B3 DUP3 PUSH2 0x1386 JUMP JUMPDEST SWAP1 POP SWAP2 SWAP1 POP JUMP JUMPDEST PUSH1 0x0 PUSH2 0x13C5 DUP3 PUSH2 0x13A8 JUMP JUMPDEST SWAP1 POP SWAP2 SWAP1 POP JUMP JUMPDEST PUSH2 0x13D5 DUP2 PUSH2 0x13BA JUMP JUMPDEST DUP3 MSTORE POP POP JUMP JUMPDEST PUSH1 0x0 PUSH1 0x20 DUP3 ADD SWAP1 POP PUSH2 0x13F0 PUSH1 0x0 DUP4 ADD DUP5 PUSH2 0x13CC JUMP JUMPDEST SWAP3 SWAP2 POP POP JUMP JUMPDEST PUSH1 0x0 DUP1 PUSH1 0x40 DUP4 DUP6 SUB SLT ISZERO PUSH2 0x140D JUMPI PUSH2 0x140C PUSH2 0x115E JUMP JUMPDEST JUMPDEST PUSH1 0x0 PUSH2 0x141B DUP6 DUP3 DUP7 ADD PUSH2 0x117A JUMP JUMPDEST SWAP3 POP POP PUSH1 0x20 PUSH2 0x142C DUP6 DUP3 DUP7 ADD PUSH2 0x117A JUMP JUMPDEST SWAP2 POP POP SWAP3 POP SWAP3 SWAP1 POP JUMP JUMPDEST PUSH1 0x0 DUP3 DUP3 MSTORE PUSH1 0x20 DUP3 ADD SWAP1 POP SWAP3 SWAP2 POP POP JUMP JUMPDEST PUSH32 0x537562736372696265204F757220536572766963650000000000000000000000 PUSH1 0x0 DUP3 ADD MSTORE POP JUMP JUMPDEST PUSH1 0x0 PUSH2 0x147D PUSH1 0x15 DUP4 PUSH2 0x1436 JUMP JUMPDEST SWAP2 POP PUSH2 0x1488 DUP3 PUSH2 0x1447 JUMP JUMPDEST PUSH1 0x20 DUP3 ADD SWAP1 POP SWAP2 SWAP1 POP JUMP JUMPDEST PUSH1 0x0 PUSH1 0x20 DUP3 ADD SWAP1 POP DUP2 DUP2 SUB PUSH1 0x0 DUP4 ADD MSTORE PUSH2 0x14AC DUP2 PUSH2 0x1470 JUMP JUMPDEST SWAP1 POP SWAP2 SWAP1 POP JUMP JUMPDEST PUSH1 0x0 PUSH1 0x60 DUP3 ADD SWAP1 POP PUSH2 0x14C8 PUSH1 0x0 DUP4 ADD DUP7 PUSH2 0x1134 JUMP JUMPDEST PUSH2 0x14D5 PUSH1 0x20 DUP4 ADD DUP6 PUSH2 0x1134 JUMP JUMPDEST PUSH2 0x14E2 PUSH1 0x40 DUP4 ADD DUP5 PUSH2 0x11C6 JUMP JUMPDEST SWAP5 SWAP4 POP POP POP POP JUMP JUMPDEST PUSH32 0x4E487B7100000000000000000000000000000000000000000000000000000000 PUSH1 0x0 MSTORE PUSH1 0x11 PUSH1 0x4 MSTORE PUSH1 0x24 PUSH1 0x0 REVERT JUMPDEST PUSH1 0x0 PUSH2 0x1524 DUP3 PUSH2 0x11BC JUMP JUMPDEST SWAP2 POP PUSH2 0x152F DUP4 PUSH2 0x11BC JUMP JUMPDEST SWAP3 POP DUP3 DUP3 ADD SWAP1 POP DUP1 DUP3 GT ISZERO PUSH2 0x1547 JUMPI PUSH2 0x1546 PUSH2 0x14EA JUMP JUMPDEST JUMPDEST SWAP3 SWAP2 POP POP JUMP JUMPDEST PUSH32 0x506C656173652063686172676520796F75722077616C6C657400000000000000 PUSH1 0x0 DUP3 ADD MSTORE POP JUMP JUMPDEST PUSH1 0x0 PUSH2 0x1583 PUSH1 0x19 DUP4 PUSH2 0x1436 JUMP JUMPDEST SWAP2 POP PUSH2 0x158E DUP3 PUSH2 0x154D JUMP JUMPDEST PUSH1 0x20 DUP3 ADD SWAP1 POP SWAP2 SWAP1 POP JUMP JUMPDEST PUSH1 0x0 PUSH1 0x20 DUP3 ADD SWAP1 POP DUP2 DUP2 SUB PUSH1 0x0 DUP4 ADD MSTORE PUSH2 0x15B2 DUP2 PUSH2 0x1576 JUMP JUMPDEST SWAP1 POP SWAP2 SWAP1 POP JUMP JUMPDEST PUSH1 0x0 PUSH1 0x40 DUP3 ADD SWAP1 POP PUSH2 0x15CE PUSH1 0x0 DUP4 ADD DUP6 PUSH2 0x1134 JUMP JUMPDEST PUSH2 0x15DB PUSH1 0x20 DUP4 ADD DUP5 PUSH2 0x1134 JUMP JUMPDEST SWAP4 SWAP3 POP POP POP JUMP JUMPDEST PUSH1 0x0 DUP2 MLOAD SWAP1 POP PUSH2 0x15F1 DUP2 PUSH2 0x12A5 JUMP JUMPDEST SWAP3 SWAP2 POP POP JUMP JUMPDEST PUSH1 0x0 PUSH1 0x20 DUP3 DUP5 SUB SLT ISZERO PUSH2 0x160D JUMPI PUSH2 0x160C PUSH2 0x115E JUMP JUMPDEST JUMPDEST PUSH1 0x0 PUSH2 0x161B DUP5 DUP3 DUP6 ADD PUSH2 0x15E2 JUMP JUMPDEST SWAP2 POP POP SWAP3 SWAP2 POP POP JUMP JUMPDEST PUSH32 0x4F776E61626C653A2063616C6C6572206973206E6F7420746865206F776E6572 PUSH1 0x0 DUP3 ADD MSTORE POP JUMP JUMPDEST PUSH1 0x0 PUSH2 0x165A PUSH1 0x20 DUP4 PUSH2 0x1436 JUMP JUMPDEST SWAP2 POP PUSH2 0x1665 DUP3 PUSH2 0x1624 JUMP JUMPDEST PUSH1 0x20 DUP3 ADD SWAP1 POP SWAP2 SWAP1 POP JUMP JUMPDEST PUSH1 0x0 PUSH1 0x20 DUP3 ADD SWAP1 POP DUP2 DUP2 SUB PUSH1 0x0 DUP4 ADD MSTORE PUSH2 0x1689 DUP2 PUSH2 0x164D JUMP JUMPDEST SWAP1 POP SWAP2 SWAP1 POP JUMP JUMPDEST PUSH32 0x45524332303A20696E73756666696369656E7420616C6C6F77616E6365000000 PUSH1 0x0 DUP3 ADD MSTORE POP JUMP JUMPDEST PUSH1 0x0 PUSH2 0x16C6 PUSH1 0x1D DUP4 PUSH2 0x1436 JUMP JUMPDEST SWAP2 POP PUSH2 0x16D1 DUP3 PUSH2 0x1690 JUMP JUMPDEST PUSH1 0x20 DUP3 ADD SWAP1 POP SWAP2 SWAP1 POP JUMP JUMPDEST PUSH1 0x0 PUSH1 0x20 DUP3 ADD SWAP1 POP DUP2 DUP2 SUB PUSH1 0x0 DUP4 ADD MSTORE PUSH2 0x16F5 DUP2 PUSH2 0x16B9 JUMP JUMPDEST SWAP1 POP SWAP2 SWAP1 POP JUMP JUMPDEST PUSH32 0x4F776E61626C653A206E6577206F776E657220697320746865207A65726F2061 PUSH1 0x0 DUP3 ADD MSTORE PUSH32 0x6464726573730000000000000000000000000000000000000000000000000000 PUSH1 0x20 DUP3 ADD MSTORE POP JUMP JUMPDEST PUSH1 0x0 PUSH2 0x1758 PUSH1 0x26 DUP4 PUSH2 0x1436 JUMP JUMPDEST SWAP2 POP PUSH2 0x1763 DUP3 PUSH2 0x16FC JUMP JUMPDEST PUSH1 0x40 DUP3 ADD SWAP1 POP SWAP2 SWAP1 POP JUMP JUMPDEST PUSH1 0x0 PUSH1 0x20 DUP3 ADD SWAP1 POP DUP2 DUP2 SUB PUSH1 0x0 DUP4 ADD MSTORE PUSH2 0x1787 DUP2 PUSH2 0x174B JUMP JUMPDEST SWAP1 POP SWAP2 SWAP1 POP JUMP JUMPDEST PUSH32 0x7472616E736665722066726F6D20746865207A65726F20616464726573730000 PUSH1 0x0 DUP3 ADD MSTORE POP JUMP JUMPDEST PUSH1 0x0 PUSH2 0x17C4 PUSH1 0x1E DUP4 PUSH2 0x1436 JUMP JUMPDEST SWAP2 POP PUSH2 0x17CF DUP3 PUSH2 0x178E JUMP JUMPDEST PUSH1 0x20 DUP3 ADD SWAP1 POP SWAP2 SWAP1 POP JUMP JUMPDEST PUSH1 0x0 PUSH1 0x20 DUP3 ADD SWAP1 POP DUP2 DUP2 SUB PUSH1 0x0 DUP4 ADD MSTORE PUSH2 0x17F3 DUP2 PUSH2 0x17B7 JUMP JUMPDEST SWAP1 POP SWAP2 SWAP1 POP JUMP JUMPDEST PUSH32 0x7472616E7366657220746F20746865207A65726F206164647265737300000000 PUSH1 0x0 DUP3 ADD MSTORE POP JUMP JUMPDEST PUSH1 0x0 PUSH2 0x1830 PUSH1 0x1C DUP4 PUSH2 0x1436 JUMP JUMPDEST SWAP2 POP PUSH2 0x183B DUP3 PUSH2 0x17FA JUMP JUMPDEST PUSH1 0x20 DUP3 ADD SWAP1 POP SWAP2 SWAP1 POP JUMP JUMPDEST PUSH1 0x0 PUSH1 0x20 DUP3 ADD SWAP1 POP DUP2 DUP2 SUB PUSH1 0x0 DUP4 ADD MSTORE PUSH2 0x185F DUP2 PUSH2 0x1823 JUMP JUMPDEST SWAP1 POP SWAP2 SWAP1 POP JUMP JUMPDEST PUSH32 0x617070726F76652066726F6D20746865207A65726F2061646472657373000000 PUSH1 0x0 DUP3 ADD MSTORE POP JUMP JUMPDEST PUSH1 0x0 PUSH2 0x189C PUSH1 0x1D DUP4 PUSH2 0x1436 JUMP JUMPDEST SWAP2 POP PUSH2 0x18A7 DUP3 PUSH2 0x1866 JUMP JUMPDEST PUSH1 0x20 DUP3 ADD SWAP1 POP SWAP2 SWAP1 POP JUMP JUMPDEST PUSH1 0x0 PUSH1 0x20 DUP3 ADD SWAP1 POP DUP2 DUP2 SUB PUSH1 0x0 DUP4 ADD MSTORE PUSH2 0x18CB DUP2 PUSH2 0x188F JUMP JUMPDEST SWAP1 POP SWAP2 SWAP1 POP JUMP JUMPDEST PUSH32 0x20617070726F766520746F20746865207A65726F206164647265737300000000 PUSH1 0x0 DUP3 ADD MSTORE POP JUMP JUMPDEST PUSH1 0x0 PUSH2 0x1908 PUSH1 0x1C DUP4 PUSH2 0x1436 JUMP JUMPDEST SWAP2 POP PUSH2 0x1913 DUP3 PUSH2 0x18D2 JUMP JUMPDEST PUSH1 0x20 DUP3 ADD SWAP1 POP SWAP2 SWAP1 POP JUMP JUMPDEST PUSH1 0x0 PUSH1 0x20 DUP3 ADD SWAP1 POP DUP2 DUP2 SUB PUSH1 0x0 DUP4 ADD MSTORE PUSH2 0x1937 DUP2 PUSH2 0x18FB JUMP JUMPDEST SWAP1 POP SWAP2 SWAP1 POP JUMP INVALID LOG2 PUSH5 0x6970667358 0x22 SLT KECCAK256 DUP13 AND 0xC1 PC CALLDATACOPY DUP4 OR 0x4F PUSH10 0xC2F7A4842DCC7CA64925 GASPRICE 0xDD SWAP14 PUSH16 0x53B0DB79E634AD361E64736F6C634300 ADDMOD LT STOP CALLER "
				},
				"gasEstimates": {
					"creation": {
						"codeDepositCost": "1303200",
						"executionCost": "infinite",
						"totalCost": "infinite"
					},
					"external": {
						"Sign()": "infinite",
						"allowance(address,address)": "infinite",
						"approver()": "2538",
						"cancelSubscribe(address)": "infinite",
						"firstTimestamp(address)": "5058",
						"isApprovedForAll(address,address)": "infinite",
						"nextTimestamp(address)": "5079",
						"owner()": "2611",
						"renounceOwnership()": "30441",
						"setUserState(address,bool)": "25081",
						"spendAllowance(address,address,uint256)": "infinite",
						"sub_price()": "2474",
						"subscribe(address)": "infinite",
						"subscribeState(address)": "2934",
						"transferFrom(address,address,uint256)": "infinite",
						"transferOwnership(address)": "30830",
						"withdrawSubscribe(address)": "infinite"
					},
					"internal": {
						"_approve(address,address,uint256)": "infinite",
						"_isApprovedOrOwner(address)": "infinite",
						"_transfer(address,address,uint256)": "infinite"
					}
				},
				"methodIdentifiers": {
					"Sign()": "b5d7df97",
					"allowance(address,address)": "dd62ed3e",
					"approver()": "141a8dd8",
					"cancelSubscribe(address)": "e11d48b1",
					"firstTimestamp(address)": "159cfa6c",
					"isApprovedForAll(address,address)": "e985e9c5",
					"nextTimestamp(address)": "d028fa0c",
					"owner()": "8da5cb5b",
					"renounceOwnership()": "715018a6",
					"setUserState(address,bool)": "2b6fb5ba",
					"spendAllowance(address,address,uint256)": "dd8aaa4f",
					"sub_price()": "befa2fc6",
					"subscribe(address)": "41a7726a",
					"subscribeState(address)": "d353c0b7",
					"transferFrom(address,address,uint256)": "23b872dd",
					"transferOwnership(address)": "f2fde38b",
					"withdrawSubscribe(address)": "3a75b3ce"
				}
			},
			"storageLayout": {
				"storage": [
					{
						"astId": 603,
						"contract": "Subscribe.sol:Subscribe",
						"label": "_owner",
						"offset": 0,
						"slot": "0",
						"type": "t_address"
					},
					{
						"astId": 172,
						"contract": "Subscribe.sol:Subscribe",
						"label": "Sign",
						"offset": 0,
						"slot": "1",
						"type": "t_contract(Approve)163"
					},
					{
						"astId": 174,
						"contract": "Subscribe.sol:Subscribe",
						"label": "firstPayment",
						"offset": 0,
						"slot": "2",
						"type": "t_uint256"
					},
					{
						"astId": 176,
						"contract": "Subscribe.sol:Subscribe",
						"label": "nextPayment",
						"offset": 0,
						"slot": "3",
						"type": "t_uint256"
					},
					{
						"astId": 178,
						"contract": "Subscribe.sol:Subscribe",
						"label": "marketOwner",
						"offset": 0,
						"slot": "4",
						"type": "t_address"
					},
					{
						"astId": 180,
						"contract": "Subscribe.sol:Subscribe",
						"label": "approver",
						"offset": 0,
						"slot": "5",
						"type": "t_address"
					},
					{
						"astId": 183,
						"contract": "Subscribe.sol:Subscribe",
						"label": "sub_price",
						"offset": 0,
						"slot": "6",
						"type": "t_uint256"
					},
					{
						"astId": 187,
						"contract": "Subscribe.sol:Subscribe",
						"label": "subscribeState",
						"offset": 0,
						"slot": "7",
						"type": "t_mapping(t_address,t_bool)"
					},
					{
						"astId": 193,
						"contract": "Subscribe.sol:Subscribe",
						"label": "_allowances",
						"offset": 0,
						"slot": "8",
						"type": "t_mapping(t_address,t_mapping(t_address,t_uint256))"
					},
					{
						"astId": 199,
						"contract": "Subscribe.sol:Subscribe",
						"label": "_operatorApprovals",
						"offset": 0,
						"slot": "9",
						"type": "t_mapping(t_address,t_mapping(t_address,t_bool))"
					}
				],
				"types": {
					"t_address": {
						"encoding": "inplace",
						"label": "address",
						"numberOfBytes": "20"
					},
					"t_bool": {
						"encoding": "inplace",
						"label": "bool",
						"numberOfBytes": "1"
					},
					"t_contract(Approve)163": {
						"encoding": "inplace",
						"label": "contract Approve",
						"numberOfBytes": "20"
					},
					"t_mapping(t_address,t_bool)": {
						"encoding": "mapping",
						"key": "t_address",
						"label": "mapping(address => bool)",
						"numberOfBytes": "32",
						"value": "t_bool"
					},
					"t_mapping(t_address,t_mapping(t_address,t_bool))": {
						"encoding": "mapping",
						"key": "t_address",
						"label": "mapping(address => mapping(address => bool))",
						"numberOfBytes": "32",
						"value": "t_mapping(t_address,t_bool)"
					},
					"t_mapping(t_address,t_mapping(t_address,t_uint256))": {
						"encoding": "mapping",
						"key": "t_address",
						"label": "mapping(address => mapping(address => uint256))",
						"numberOfBytes": "32",
						"value": "t_mapping(t_address,t_uint256)"
					},
					"t_mapping(t_address,t_uint256)": {
						"encoding": "mapping",
						"key": "t_address",
						"label": "mapping(address => uint256)",
						"numberOfBytes": "32",
						"value": "t_uint256"
					},
					"t_uint256": {
						"encoding": "inplace",
						"label": "uint256",
						"numberOfBytes": "32"
					}
				}
			},
			"userdoc": {
				"kind": "user",
				"methods": {},
				"version": 1
			}
		}
	}
}