{
	"Approve.sol": {
		"Approve": {
			"abi": [
				{
					"anonymous": false,
					"inputs": [
						{
							"indexed": true,
							"internalType": "address",
							"name": "owner",
							"type": "address"
						},
						{
							"indexed": true,
							"internalType": "address",
							"name": "spender",
							"type": "address"
						},
						{
							"indexed": false,
							"internalType": "uint256",
							"name": "value",
							"type": "uint256"
						}
					],
					"name": "Approval",
					"type": "event"
				},
				{
					"inputs": [
						{
							"internalType": "address",
							"name": "owner",
							"type": "address"
						},
						{
							"internalType": "address",
							"name": "spender",
							"type": "address"
						}
					],
					"name": "allowance",
					"outputs": [
						{
							"internalType": "uint256",
							"name": "",
							"type": "uint256"
						}
					],
					"stateMutability": "view",
					"type": "function"
				},
				{
					"inputs": [
						{
							"internalType": "address",
							"name": "owner",
							"type": "address"
						},
						{
							"internalType": "address",
							"name": "operator",
							"type": "address"
						}
					],
					"name": "isApprovedForAll",
					"outputs": [
						{
							"internalType": "bool",
							"name": "",
							"type": "bool"
						}
					],
					"stateMutability": "view",
					"type": "function"
				},
				{
					"inputs": [
						{
							"internalType": "address",
							"name": "owner",
							"type": "address"
						},
						{
							"internalType": "address",
							"name": "spender",
							"type": "address"
						},
						{
							"internalType": "uint256",
							"name": "amount",
							"type": "uint256"
						}
					],
					"name": "spendAllowance",
					"outputs": [],
					"stateMutability": "nonpayable",
					"type": "function"
				}
			],
			"devdoc": {
				"kind": "dev",
				"methods": {},
				"version": 1
			},
			"evm": {
				"assembly": "    /* \"Approve.sol\":59:1634  contract Approve {... */\n  mstore(0x40, 0x80)\n  callvalue\n  dup1\n  iszero\n  tag_1\n  jumpi\n  0x00\n  dup1\n  revert\ntag_1:\n  pop\n  dataSize(sub_0)\n  dup1\n  dataOffset(sub_0)\n  0x00\n  codecopy\n  0x00\n  return\nstop\n\nsub_0: assembly {\n        /* \"Approve.sol\":59:1634  contract Approve {... */\n      mstore(0x40, 0x80)\n      callvalue\n      dup1\n      iszero\n      tag_1\n      jumpi\n      0x00\n      dup1\n      revert\n    tag_1:\n      pop\n      jumpi(tag_2, lt(calldatasize, 0x04))\n      shr(0xe0, calldataload(0x00))\n      dup1\n      0xdd62ed3e\n      eq\n      tag_3\n      jumpi\n      dup1\n      0xdd8aaa4f\n      eq\n      tag_4\n      jumpi\n      dup1\n      0xe985e9c5\n      eq\n      tag_5\n      jumpi\n    tag_2:\n      0x00\n      dup1\n      revert\n        /* \"Approve.sol\":1042:1182  function allowance(address owner, address spender) public view virtual returns (uint256) {... */\n    tag_3:\n      tag_6\n      0x04\n      dup1\n      calldatasize\n      sub\n      dup2\n      add\n      swap1\n      tag_7\n      swap2\n      swap1\n      tag_8\n      jump\t// in\n    tag_7:\n      tag_9\n      jump\t// in\n    tag_6:\n      mload(0x40)\n      tag_10\n      swap2\n      swap1\n      tag_11\n      jump\t// in\n    tag_10:\n      mload(0x40)\n      dup1\n      swap2\n      sub\n      swap1\n      return\n        /* \"Approve.sol\":1188:1626  function spendAllowance(... */\n    tag_4:\n      tag_12\n      0x04\n      dup1\n      calldatasize\n      sub\n      dup2\n      add\n      swap1\n      tag_13\n      swap2\n      swap1\n      tag_14\n      jump\t// in\n    tag_13:\n      tag_15\n      jump\t// in\n    tag_12:\n      stop\n        /* \"Approve.sol\":318:471  function isApprovedForAll(address owner, address operator) public view virtual returns (bool) {... */\n    tag_5:\n      tag_16\n      0x04\n      dup1\n      calldatasize\n      sub\n      dup2\n      add\n      swap1\n      tag_17\n      swap2\n      swap1\n      tag_8\n      jump\t// in\n    tag_17:\n      tag_18\n      jump\t// in\n    tag_16:\n      mload(0x40)\n      tag_19\n      swap2\n      swap1\n      tag_20\n      jump\t// in\n    tag_19:\n      mload(0x40)\n      dup1\n      swap2\n      sub\n      swap1\n      return\n        /* \"Approve.sol\":1042:1182  function allowance(address owner, address spender) public view virtual returns (uint256) {... */\n    tag_9:\n        /* \"Approve.sol\":1122:1129  uint256 */\n      0x00\n        /* \"Approve.sol\":1148:1159  _allowances */\n      dup1\n        /* \"Approve.sol\":1148:1166  _allowances[owner] */\n      0x00\n        /* \"Approve.sol\":1160:1165  owner */\n      dup5\n        /* \"Approve.sol\":1148:1166  _allowances[owner] */\n      0xffffffffffffffffffffffffffffffffffffffff\n      and\n      0xffffffffffffffffffffffffffffffffffffffff\n      and\n      dup2\n      mstore\n      0x20\n      add\n      swap1\n      dup2\n      mstore\n      0x20\n      add\n      0x00\n      keccak256\n        /* \"Approve.sol\":1148:1175  _allowances[owner][spender] */\n      0x00\n        /* \"Approve.sol\":1167:1174  spender */\n      dup4\n        /* \"Approve.sol\":1148:1175  _allowances[owner][spender] */\n      0xffffffffffffffffffffffffffffffffffffffff\n      and\n      0xffffffffffffffffffffffffffffffffffffffff\n      and\n      dup2\n      mstore\n      0x20\n      add\n      swap1\n      dup2\n      mstore\n      0x20\n      add\n      0x00\n      keccak256\n      sload\n        /* \"Approve.sol\":1141:1175  return _allowances[owner][spender] */\n      swap1\n      pop\n        /* \"Approve.sol\":1042:1182  function allowance(address owner, address spender) public view virtual returns (uint256) {... */\n      swap3\n      swap2\n      pop\n      pop\n      jump\t// out\n        /* \"Approve.sol\":1188:1626  function spendAllowance(... */\n    tag_15:\n        /* \"Approve.sol\":1315:1339  uint256 currentAllowance */\n      0x00\n        /* \"Approve.sol\":1342:1367  allowance(owner, spender) */\n      tag_23\n        /* \"Approve.sol\":1352:1357  owner */\n      dup5\n        /* \"Approve.sol\":1359:1366  spender */\n      dup5\n        /* \"Approve.sol\":1342:1351  allowance */\n      tag_9\n        /* \"Approve.sol\":1342:1367  allowance(owner, spender) */\n      jump\t// in\n    tag_23:\n        /* \"Approve.sol\":1315:1367  uint256 currentAllowance = allowance(owner, spender) */\n      swap1\n      pop\n        /* \"Approve.sol\":1401:1418  type(uint256).max */\n      0xffffffffffffffffffffffffffffffffffffffffffffffffffffffffffffffff\n        /* \"Approve.sol\":1381:1397  currentAllowance */\n      dup2\n        /* \"Approve.sol\":1381:1418  currentAllowance != type(uint256).max */\n      eq\n        /* \"Approve.sol\":1377:1620  if (currentAllowance != type(uint256).max) {... */\n      tag_24\n      jumpi\n        /* \"Approve.sol\":1462:1468  amount */\n      dup2\n        /* \"Approve.sol\":1442:1458  currentAllowance */\n      dup2\n        /* \"Approve.sol\":1442:1468  currentAllowance >= amount */\n      lt\n      iszero\n        /* \"Approve.sol\":1434:1502  require(currentAllowance >= amount, \"ERC20: insufficient allowance\") */\n      tag_25\n      jumpi\n      mload(0x40)\n      0x08c379a000000000000000000000000000000000000000000000000000000000\n      dup2\n      mstore\n      0x04\n      add\n      tag_26\n      swap1\n      tag_27\n      jump\t// in\n    tag_26:\n      mload(0x40)\n      dup1\n      swap2\n      sub\n      swap1\n      revert\n    tag_25:\n        /* \"Approve.sol\":1544:1595  _approve(owner, spender, currentAllowance - amount) */\n      tag_28\n        /* \"Approve.sol\":1553:1558  owner */\n      dup5\n        /* \"Approve.sol\":1560:1567  spender */\n      dup5\n        /* \"Approve.sol\":1588:1594  amount */\n      dup5\n        /* \"Approve.sol\":1569:1585  currentAllowance */\n      dup5\n        /* \"Approve.sol\":1569:1594  currentAllowance - amount */\n      sub\n        /* \"Approve.sol\":1544:1552  _approve */\n      tag_29\n        /* \"Approve.sol\":1544:1595  _approve(owner, spender, currentAllowance - amount) */\n      jump\t// in\n    tag_28:\n        /* \"Approve.sol\":1377:1620  if (currentAllowance != type(uint256).max) {... */\n    tag_24:\n        /* \"Approve.sol\":1305:1626  {... */\n      pop\n        /* \"Approve.sol\":1188:1626  function spendAllowance(... */\n      pop\n      pop\n      pop\n      jump\t// out\n        /* \"Approve.sol\":318:471  function isApprovedForAll(address owner, address operator) public view virtual returns (bool) {... */\n    tag_18:\n        /* \"Approve.sol\":406:410  bool */\n      0x00\n        /* \"Approve.sol\":429:447  _operatorApprovals */\n      0x01\n        /* \"Approve.sol\":429:454  _operatorApprovals[owner] */\n      0x00\n        /* \"Approve.sol\":448:453  owner */\n      dup5\n        /* \"Approve.sol\":429:454  _operatorApprovals[owner] */\n      0xffffffffffffffffffffffffffffffffffffffff\n      and\n      0xffffffffffffffffffffffffffffffffffffffff\n      and\n      dup2\n      mstore\n      0x20\n      add\n      swap1\n      dup2\n      mstore\n      0x20\n      add\n      0x00\n      keccak256\n        /* \"Approve.sol\":429:464  _operatorApprovals[owner][operator] */\n      0x00\n        /* \"Approve.sol\":455:463  operator */\n      dup4\n        /* \"Approve.sol\":429:464  _operatorApprovals[owner][operator] */\n      0xffffffffffffffffffffffffffffffffffffffff\n      and\n      0xffffffffffffffffffffffffffffffffffffffff\n      and\n      dup2\n      mstore\n      0x20\n      add\n      swap1\n      dup2\n      mstore\n      0x20\n      add\n      0x00\n      keccak256\n      0x00\n      swap1\n      sload\n      swap1\n      0x0100\n      exp\n      swap1\n      div\n      0xff\n      and\n        /* \"Approve.sol\":422:464  return _operatorApprovals[owner][operator] */\n      swap1\n      pop\n        /* \"Approve.sol\":318:471  function isApprovedForAll(address owner, address operator) public view virtual returns (bool) {... */\n      swap3\n      swap2\n      pop\n      pop\n      jump\t// out\n        /* \"Approve.sol\":679:1036  function _approve(... */\n    tag_29:\n        /* \"Approve.sol\":827:828  0 */\n      0x00\n        /* \"Approve.sol\":810:829  owner != address(0) */\n      0xffffffffffffffffffffffffffffffffffffffff\n      and\n        /* \"Approve.sol\":810:815  owner */\n      dup4\n        /* \"Approve.sol\":810:829  owner != address(0) */\n      0xffffffffffffffffffffffffffffffffffffffff\n      and\n      sub\n        /* \"Approve.sol\":802:863  require(owner != address(0), \"approve from the zero address\") */\n      tag_32\n      jumpi\n      mload(0x40)\n      0x08c379a000000000000000000000000000000000000000000000000000000000\n      dup2\n      mstore\n      0x04\n      add\n      tag_33\n      swap1\n      tag_34\n      jump\t// in\n    tag_33:\n      mload(0x40)\n      dup1\n      swap2\n      sub\n      swap1\n      revert\n    tag_32:\n        /* \"Approve.sol\":900:901  0 */\n      0x00\n        /* \"Approve.sol\":881:902  spender != address(0) */\n      0xffffffffffffffffffffffffffffffffffffffff\n      and\n        /* \"Approve.sol\":881:888  spender */\n      dup3\n        /* \"Approve.sol\":881:902  spender != address(0) */\n      0xffffffffffffffffffffffffffffffffffffffff\n      and\n      sub\n        /* \"Approve.sol\":873:935  require(spender != address(0), \" approve to the zero address\") */\n      tag_35\n      jumpi\n      mload(0x40)\n      0x08c379a000000000000000000000000000000000000000000000000000000000\n      dup2\n      mstore\n      0x04\n      add\n      tag_36\n      swap1\n      tag_37\n      jump\t// in\n    tag_36:\n      mload(0x40)\n      dup1\n      swap2\n      sub\n      swap1\n      revert\n    tag_35:\n        /* \"Approve.sol\":976:982  amount */\n      dup1\n        /* \"Approve.sol\":946:957  _allowances */\n      0x00\n        /* \"Approve.sol\":946:964  _allowances[owner] */\n      dup1\n        /* \"Approve.sol\":958:963  owner */\n      dup6\n        /* \"Approve.sol\":946:964  _allowances[owner] */\n      0xffffffffffffffffffffffffffffffffffffffff\n      and\n      0xffffffffffffffffffffffffffffffffffffffff\n      and\n      dup2\n      mstore\n      0x20\n      add\n      swap1\n      dup2\n      mstore\n      0x20\n      add\n      0x00\n      keccak256\n        /* \"Approve.sol\":946:973  _allowances[owner][spender] */\n      0x00\n        /* \"Approve.sol\":965:972  spender */\n      dup5\n        /* \"Approve.sol\":946:973  _allowances[owner][spender] */\n      0xffffffffffffffffffffffffffffffffffffffff\n      and\n      0xffffffffffffffffffffffffffffffffffffffff\n      and\n      dup2\n      mstore\n      0x20\n      add\n      swap1\n      dup2\n      mstore\n      0x20\n      add\n      0x00\n      keccak256\n        /* \"Approve.sol\":946:982  _allowances[owner][spender] = amount */\n      dup2\n      swap1\n      sstore\n      pop\n        /* \"Approve.sol\":1013:1020  spender */\n      dup2\n        /* \"Approve.sol\":997:1029  Approval(owner, spender, amount) */\n      0xffffffffffffffffffffffffffffffffffffffff\n      and\n        /* \"Approve.sol\":1006:1011  owner */\n      dup4\n        /* \"Approve.sol\":997:1029  Approval(owner, spender, amount) */\n      0xffffffffffffffffffffffffffffffffffffffff\n      and\n      0x8c5be1e5ebec7d5bd14f71427d1e84f3dd0314c0f7b2291e5b200ac8c7c3b925\n        /* \"Approve.sol\":1022:1028  amount */\n      dup4\n        /* \"Approve.sol\":997:1029  Approval(owner, spender, amount) */\n      mload(0x40)\n      tag_38\n      swap2\n      swap1\n      tag_11\n      jump\t// in\n    tag_38:\n      mload(0x40)\n      dup1\n      swap2\n      sub\n      swap1\n      log3\n        /* \"Approve.sol\":679:1036  function _approve(... */\n      pop\n      pop\n      pop\n      jump\t// out\n        /* \"#utility.yul\":88:205   */\n    tag_40:\n        /* \"#utility.yul\":197:198   */\n      0x00\n        /* \"#utility.yul\":194:195   */\n      dup1\n        /* \"#utility.yul\":187:199   */\n      revert\n        /* \"#utility.yul\":334:460   */\n    tag_42:\n        /* \"#utility.yul\":371:378   */\n      0x00\n        /* \"#utility.yul\":411:453   */\n      0xffffffffffffffffffffffffffffffffffffffff\n        /* \"#utility.yul\":404:409   */\n      dup3\n        /* \"#utility.yul\":400:454   */\n      and\n        /* \"#utility.yul\":389:454   */\n      swap1\n      pop\n        /* \"#utility.yul\":334:460   */\n      swap2\n      swap1\n      pop\n      jump\t// out\n        /* \"#utility.yul\":466:562   */\n    tag_43:\n        /* \"#utility.yul\":503:510   */\n      0x00\n        /* \"#utility.yul\":532:556   */\n      tag_65\n        /* \"#utility.yul\":550:555   */\n      dup3\n        /* \"#utility.yul\":532:556   */\n      tag_42\n      jump\t// in\n    tag_65:\n        /* \"#utility.yul\":521:556   */\n      swap1\n      pop\n        /* \"#utility.yul\":466:562   */\n      swap2\n      swap1\n      pop\n      jump\t// out\n        /* \"#utility.yul\":568:690   */\n    tag_44:\n        /* \"#utility.yul\":641:665   */\n      tag_67\n        /* \"#utility.yul\":659:664   */\n      dup2\n        /* \"#utility.yul\":641:665   */\n      tag_43\n      jump\t// in\n    tag_67:\n        /* \"#utility.yul\":634:639   */\n      dup2\n        /* \"#utility.yul\":631:666   */\n      eq\n        /* \"#utility.yul\":621:684   */\n      tag_68\n      jumpi\n        /* \"#utility.yul\":680:681   */\n      0x00\n        /* \"#utility.yul\":677:678   */\n      dup1\n        /* \"#utility.yul\":670:682   */\n      revert\n        /* \"#utility.yul\":621:684   */\n    tag_68:\n        /* \"#utility.yul\":568:690   */\n      pop\n      jump\t// out\n        /* \"#utility.yul\":696:835   */\n    tag_45:\n        /* \"#utility.yul\":742:747   */\n      0x00\n        /* \"#utility.yul\":780:786   */\n      dup2\n        /* \"#utility.yul\":767:787   */\n      calldataload\n        /* \"#utility.yul\":758:787   */\n      swap1\n      pop\n        /* \"#utility.yul\":796:829   */\n      tag_70\n        /* \"#utility.yul\":823:828   */\n      dup2\n        /* \"#utility.yul\":796:829   */\n      tag_44\n      jump\t// in\n    tag_70:\n        /* \"#utility.yul\":696:835   */\n      swap3\n      swap2\n      pop\n      pop\n      jump\t// out\n        /* \"#utility.yul\":841:1315   */\n    tag_8:\n        /* \"#utility.yul\":909:915   */\n      0x00\n        /* \"#utility.yul\":917:923   */\n      dup1\n        /* \"#utility.yul\":966:968   */\n      0x40\n        /* \"#utility.yul\":954:963   */\n      dup4\n        /* \"#utility.yul\":945:952   */\n      dup6\n        /* \"#utility.yul\":941:964   */\n      sub\n        /* \"#utility.yul\":937:969   */\n      slt\n        /* \"#utility.yul\":934:1053   */\n      iszero\n      tag_72\n      jumpi\n        /* \"#utility.yul\":972:1051   */\n      tag_73\n      tag_40\n      jump\t// in\n    tag_73:\n        /* \"#utility.yul\":934:1053   */\n    tag_72:\n        /* \"#utility.yul\":1092:1093   */\n      0x00\n        /* \"#utility.yul\":1117:1170   */\n      tag_74\n        /* \"#utility.yul\":1162:1169   */\n      dup6\n        /* \"#utility.yul\":1153:1159   */\n      dup3\n        /* \"#utility.yul\":1142:1151   */\n      dup7\n        /* \"#utility.yul\":1138:1160   */\n      add\n        /* \"#utility.yul\":1117:1170   */\n      tag_45\n      jump\t// in\n    tag_74:\n        /* \"#utility.yul\":1107:1170   */\n      swap3\n      pop\n        /* \"#utility.yul\":1063:1180   */\n      pop\n        /* \"#utility.yul\":1219:1221   */\n      0x20\n        /* \"#utility.yul\":1245:1298   */\n      tag_75\n        /* \"#utility.yul\":1290:1297   */\n      dup6\n        /* \"#utility.yul\":1281:1287   */\n      dup3\n        /* \"#utility.yul\":1270:1279   */\n      dup7\n        /* \"#utility.yul\":1266:1288   */\n      add\n        /* \"#utility.yul\":1245:1298   */\n      tag_45\n      jump\t// in\n    tag_75:\n        /* \"#utility.yul\":1235:1298   */\n      swap2\n      pop\n        /* \"#utility.yul\":1190:1308   */\n      pop\n        /* \"#utility.yul\":841:1315   */\n      swap3\n      pop\n      swap3\n      swap1\n      pop\n      jump\t// out\n        /* \"#utility.yul\":1321:1398   */\n    tag_46:\n        /* \"#utility.yul\":1358:1365   */\n      0x00\n        /* \"#utility.yul\":1387:1392   */\n      dup2\n        /* \"#utility.yul\":1376:1392   */\n      swap1\n      pop\n        /* \"#utility.yul\":1321:1398   */\n      swap2\n      swap1\n      pop\n      jump\t// out\n        /* \"#utility.yul\":1404:1522   */\n    tag_47:\n        /* \"#utility.yul\":1491:1515   */\n      tag_78\n        /* \"#utility.yul\":1509:1514   */\n      dup2\n        /* \"#utility.yul\":1491:1515   */\n      tag_46\n      jump\t// in\n    tag_78:\n        /* \"#utility.yul\":1486:1489   */\n      dup3\n        /* \"#utility.yul\":1479:1516   */\n      mstore\n        /* \"#utility.yul\":1404:1522   */\n      pop\n      pop\n      jump\t// out\n        /* \"#utility.yul\":1528:1750   */\n    tag_11:\n        /* \"#utility.yul\":1621:1625   */\n      0x00\n        /* \"#utility.yul\":1659:1661   */\n      0x20\n        /* \"#utility.yul\":1648:1657   */\n      dup3\n        /* \"#utility.yul\":1644:1662   */\n      add\n        /* \"#utility.yul\":1636:1662   */\n      swap1\n      pop\n        /* \"#utility.yul\":1672:1743   */\n      tag_80\n        /* \"#utility.yul\":1740:1741   */\n      0x00\n        /* \"#utility.yul\":1729:1738   */\n      dup4\n        /* \"#utility.yul\":1725:1742   */\n      add\n        /* \"#utility.yul\":1716:1722   */\n      dup5\n        /* \"#utility.yul\":1672:1743   */\n      tag_47\n      jump\t// in\n    tag_80:\n        /* \"#utility.yul\":1528:1750   */\n      swap3\n      swap2\n      pop\n      pop\n      jump\t// out\n        /* \"#utility.yul\":1756:1878   */\n    tag_48:\n        /* \"#utility.yul\":1829:1853   */\n      tag_82\n        /* \"#utility.yul\":1847:1852   */\n      dup2\n        /* \"#utility.yul\":1829:1853   */\n      tag_46\n      jump\t// in\n    tag_82:\n        /* \"#utility.yul\":1822:1827   */\n      dup2\n        /* \"#utility.yul\":1819:1854   */\n      eq\n        /* \"#utility.yul\":1809:1872   */\n      tag_83\n      jumpi\n        /* \"#utility.yul\":1868:1869   */\n      0x00\n        /* \"#utility.yul\":1865:1866   */\n      dup1\n        /* \"#utility.yul\":1858:1870   */\n      revert\n        /* \"#utility.yul\":1809:1872   */\n    tag_83:\n        /* \"#utility.yul\":1756:1878   */\n      pop\n      jump\t// out\n        /* \"#utility.yul\":1884:2023   */\n    tag_49:\n        /* \"#utility.yul\":1930:1935   */\n      0x00\n        /* \"#utility.yul\":1968:1974   */\n      dup2\n        /* \"#utility.yul\":1955:1975   */\n      calldataload\n        /* \"#utility.yul\":1946:1975   */\n      swap1\n      pop\n        /* \"#utility.yul\":1984:2017   */\n      tag_85\n        /* \"#utility.yul\":2011:2016   */\n      dup2\n        /* \"#utility.yul\":1984:2017   */\n      tag_48\n      jump\t// in\n    tag_85:\n        /* \"#utility.yul\":1884:2023   */\n      swap3\n      swap2\n      pop\n      pop\n      jump\t// out\n        /* \"#utility.yul\":2029:2648   */\n    tag_14:\n        /* \"#utility.yul\":2106:2112   */\n      0x00\n        /* \"#utility.yul\":2114:2120   */\n      dup1\n        /* \"#utility.yul\":2122:2128   */\n      0x00\n        /* \"#utility.yul\":2171:2173   */\n      0x60\n        /* \"#utility.yul\":2159:2168   */\n      dup5\n        /* \"#utility.yul\":2150:2157   */\n      dup7\n        /* \"#utility.yul\":2146:2169   */\n      sub\n        /* \"#utility.yul\":2142:2174   */\n      slt\n        /* \"#utility.yul\":2139:2258   */\n      iszero\n      tag_87\n      jumpi\n        /* \"#utility.yul\":2177:2256   */\n      tag_88\n      tag_40\n      jump\t// in\n    tag_88:\n        /* \"#utility.yul\":2139:2258   */\n    tag_87:\n        /* \"#utility.yul\":2297:2298   */\n      0x00\n        /* \"#utility.yul\":2322:2375   */\n      tag_89\n        /* \"#utility.yul\":2367:2374   */\n      dup7\n        /* \"#utility.yul\":2358:2364   */\n      dup3\n        /* \"#utility.yul\":2347:2356   */\n      dup8\n        /* \"#utility.yul\":2343:2365   */\n      add\n        /* \"#utility.yul\":2322:2375   */\n      tag_45\n      jump\t// in\n    tag_89:\n        /* \"#utility.yul\":2312:2375   */\n      swap4\n      pop\n        /* \"#utility.yul\":2268:2385   */\n      pop\n        /* \"#utility.yul\":2424:2426   */\n      0x20\n        /* \"#utility.yul\":2450:2503   */\n      tag_90\n        /* \"#utility.yul\":2495:2502   */\n      dup7\n        /* \"#utility.yul\":2486:2492   */\n      dup3\n        /* \"#utility.yul\":2475:2484   */\n      dup8\n        /* \"#utility.yul\":2471:2493   */\n      add\n        /* \"#utility.yul\":2450:2503   */\n      tag_45\n      jump\t// in\n    tag_90:\n        /* \"#utility.yul\":2440:2503   */\n      swap3\n      pop\n        /* \"#utility.yul\":2395:2513   */\n      pop\n        /* \"#utility.yul\":2552:2554   */\n      0x40\n        /* \"#utility.yul\":2578:2631   */\n      tag_91\n        /* \"#utility.yul\":2623:2630   */\n      dup7\n        /* \"#utility.yul\":2614:2620   */\n      dup3\n        /* \"#utility.yul\":2603:2612   */\n      dup8\n        /* \"#utility.yul\":2599:2621   */\n      add\n        /* \"#utility.yul\":2578:2631   */\n      tag_49\n      jump\t// in\n    tag_91:\n        /* \"#utility.yul\":2568:2631   */\n      swap2\n      pop\n        /* \"#utility.yul\":2523:2641   */\n      pop\n        /* \"#utility.yul\":2029:2648   */\n      swap3\n      pop\n      swap3\n      pop\n      swap3\n      jump\t// out\n        /* \"#utility.yul\":2654:2744   */\n    tag_50:\n        /* \"#utility.yul\":2688:2695   */\n      0x00\n        /* \"#utility.yul\":2731:2736   */\n      dup2\n        /* \"#utility.yul\":2724:2737   */\n      iszero\n        /* \"#utility.yul\":2717:2738   */\n      iszero\n        /* \"#utility.yul\":2706:2738   */\n      swap1\n      pop\n        /* \"#utility.yul\":2654:2744   */\n      swap2\n      swap1\n      pop\n      jump\t// out\n        /* \"#utility.yul\":2750:2859   */\n    tag_51:\n        /* \"#utility.yul\":2831:2852   */\n      tag_94\n        /* \"#utility.yul\":2846:2851   */\n      dup2\n        /* \"#utility.yul\":2831:2852   */\n      tag_50\n      jump\t// in\n    tag_94:\n        /* \"#utility.yul\":2826:2829   */\n      dup3\n        /* \"#utility.yul\":2819:2853   */\n      mstore\n        /* \"#utility.yul\":2750:2859   */\n      pop\n      pop\n      jump\t// out\n        /* \"#utility.yul\":2865:3075   */\n    tag_20:\n        /* \"#utility.yul\":2952:2956   */\n      0x00\n        /* \"#utility.yul\":2990:2992   */\n      0x20\n        /* \"#utility.yul\":2979:2988   */\n      dup3\n        /* \"#utility.yul\":2975:2993   */\n      add\n        /* \"#utility.yul\":2967:2993   */\n      swap1\n      pop\n        /* \"#utility.yul\":3003:3068   */\n      tag_96\n        /* \"#utility.yul\":3065:3066   */\n      0x00\n        /* \"#utility.yul\":3054:3063   */\n      dup4\n        /* \"#utility.yul\":3050:3067   */\n      add\n        /* \"#utility.yul\":3041:3047   */\n      dup5\n        /* \"#utility.yul\":3003:3068   */\n      tag_51\n      jump\t// in\n    tag_96:\n        /* \"#utility.yul\":2865:3075   */\n      swap3\n      swap2\n      pop\n      pop\n      jump\t// out\n        /* \"#utility.yul\":3081:3250   */\n    tag_52:\n        /* \"#utility.yul\":3165:3176   */\n      0x00\n        /* \"#utility.yul\":3199:3205   */\n      dup3\n        /* \"#utility.yul\":3194:3197   */\n      dup3\n        /* \"#utility.yul\":3187:3206   */\n      mstore\n        /* \"#utility.yul\":3239:3243   */\n      0x20\n        /* \"#utility.yul\":3234:3237   */\n      dup3\n        /* \"#utility.yul\":3230:3244   */\n      add\n        /* \"#utility.yul\":3215:3244   */\n      swap1\n      pop\n        /* \"#utility.yul\":3081:3250   */\n      swap3\n      swap2\n      pop\n      pop\n      jump\t// out\n        /* \"#utility.yul\":3256:3435   */\n    tag_53:\n        /* \"#utility.yul\":3396:3427   */\n      0x45524332303a20696e73756666696369656e7420616c6c6f77616e6365000000\n        /* \"#utility.yul\":3392:3393   */\n      0x00\n        /* \"#utility.yul\":3384:3390   */\n      dup3\n        /* \"#utility.yul\":3380:3394   */\n      add\n        /* \"#utility.yul\":3373:3428   */\n      mstore\n        /* \"#utility.yul\":3256:3435   */\n      pop\n      jump\t// out\n        /* \"#utility.yul\":3441:3807   */\n    tag_54:\n        /* \"#utility.yul\":3583:3586   */\n      0x00\n        /* \"#utility.yul\":3604:3671   */\n      tag_100\n        /* \"#utility.yul\":3668:3670   */\n      0x1d\n        /* \"#utility.yul\":3663:3666   */\n      dup4\n        /* \"#utility.yul\":3604:3671   */\n      tag_52\n      jump\t// in\n    tag_100:\n        /* \"#utility.yul\":3597:3671   */\n      swap2\n      pop\n        /* \"#utility.yul\":3680:3773   */\n      tag_101\n        /* \"#utility.yul\":3769:3772   */\n      dup3\n        /* \"#utility.yul\":3680:3773   */\n      tag_53\n      jump\t// in\n    tag_101:\n        /* \"#utility.yul\":3798:3800   */\n      0x20\n        /* \"#utility.yul\":3793:3796   */\n      dup3\n        /* \"#utility.yul\":3789:3801   */\n      add\n        /* \"#utility.yul\":3782:3801   */\n      swap1\n      pop\n        /* \"#utility.yul\":3441:3807   */\n      swap2\n      swap1\n      pop\n      jump\t// out\n        /* \"#utility.yul\":3813:4232   */\n    tag_27:\n        /* \"#utility.yul\":3979:3983   */\n      0x00\n        /* \"#utility.yul\":4017:4019   */\n      0x20\n        /* \"#utility.yul\":4006:4015   */\n      dup3\n        /* \"#utility.yul\":4002:4020   */\n      add\n        /* \"#utility.yul\":3994:4020   */\n      swap1\n      pop\n        /* \"#utility.yul\":4066:4075   */\n      dup2\n        /* \"#utility.yul\":4060:4064   */\n      dup2\n        /* \"#utility.yul\":4056:4076   */\n      sub\n        /* \"#utility.yul\":4052:4053   */\n      0x00\n        /* \"#utility.yul\":4041:4050   */\n      dup4\n        /* \"#utility.yul\":4037:4054   */\n      add\n        /* \"#utility.yul\":4030:4077   */\n      mstore\n        /* \"#utility.yul\":4094:4225   */\n      tag_103\n        /* \"#utility.yul\":4220:4224   */\n      dup2\n        /* \"#utility.yul\":4094:4225   */\n      tag_54\n      jump\t// in\n    tag_103:\n        /* \"#utility.yul\":4086:4225   */\n      swap1\n      pop\n        /* \"#utility.yul\":3813:4232   */\n      swap2\n      swap1\n      pop\n      jump\t// out\n        /* \"#utility.yul\":4238:4417   */\n    tag_55:\n        /* \"#utility.yul\":4378:4409   */\n      0x617070726f76652066726f6d20746865207a65726f2061646472657373000000\n        /* \"#utility.yul\":4374:4375   */\n      0x00\n        /* \"#utility.yul\":4366:4372   */\n      dup3\n        /* \"#utility.yul\":4362:4376   */\n      add\n        /* \"#utility.yul\":4355:4410   */\n      mstore\n        /* \"#utility.yul\":4238:4417   */\n      pop\n      jump\t// out\n        /* \"#utility.yul\":4423:4789   */\n    tag_56:\n        /* \"#utility.yul\":4565:4568   */\n      0x00\n        /* \"#utility.yul\":4586:4653   */\n      tag_106\n        /* \"#utility.yul\":4650:4652   */\n      0x1d\n        /* \"#utility.yul\":4645:4648   */\n      dup4\n        /* \"#utility.yul\":4586:4653   */\n      tag_52\n      jump\t// in\n    tag_106:\n        /* \"#utility.yul\":4579:4653   */\n      swap2\n      pop\n        /* \"#utility.yul\":4662:4755   */\n      tag_107\n        /* \"#utility.yul\":4751:4754   */\n      dup3\n        /* \"#utility.yul\":4662:4755   */\n      tag_55\n      jump\t// in\n    tag_107:\n        /* \"#utility.yul\":4780:4782   */\n      0x20\n        /* \"#utility.yul\":4775:4778   */\n      dup3\n        /* \"#utility.yul\":4771:4783   */\n      add\n        /* \"#utility.yul\":4764:4783   */\n      swap1\n      pop\n        /* \"#utility.yul\":4423:4789   */\n      swap2\n      swap1\n      pop\n      jump\t// out\n        /* \"#utility.yul\":4795:5214   */\n    tag_34:\n        /* \"#utility.yul\":4961:4965   */\n      0x00\n        /* \"#utility.yul\":4999:5001   */\n      0x20\n        /* \"#utility.yul\":4988:4997   */\n      dup3\n        /* \"#utility.yul\":4984:5002   */\n      add\n        /* \"#utility.yul\":4976:5002   */\n      swap1\n      pop\n        /* \"#utility.yul\":5048:5057   */\n      dup2\n        /* \"#utility.yul\":5042:5046   */\n      dup2\n        /* \"#utility.yul\":5038:5058   */\n      sub\n        /* \"#utility.yul\":5034:5035   */\n      0x00\n        /* \"#utility.yul\":5023:5032   */\n      dup4\n        /* \"#utility.yul\":5019:5036   */\n      add\n        /* \"#utility.yul\":5012:5059   */\n      mstore\n        /* \"#utility.yul\":5076:5207   */\n      tag_109\n        /* \"#utility.yul\":5202:5206   */\n      dup2\n        /* \"#utility.yul\":5076:5207   */\n      tag_56\n      jump\t// in\n    tag_109:\n        /* \"#utility.yul\":5068:5207   */\n      swap1\n      pop\n        /* \"#utility.yul\":4795:5214   */\n      swap2\n      swap1\n      pop\n      jump\t// out\n        /* \"#utility.yul\":5220:5398   */\n    tag_57:\n        /* \"#utility.yul\":5360:5390   */\n      0x20617070726f766520746f20746865207a65726f206164647265737300000000\n        /* \"#utility.yul\":5356:5357   */\n      0x00\n        /* \"#utility.yul\":5348:5354   */\n      dup3\n        /* \"#utility.yul\":5344:5358   */\n      add\n        /* \"#utility.yul\":5337:5391   */\n      mstore\n        /* \"#utility.yul\":5220:5398   */\n      pop\n      jump\t// out\n        /* \"#utility.yul\":5404:5770   */\n    tag_58:\n        /* \"#utility.yul\":5546:5549   */\n      0x00\n        /* \"#utility.yul\":5567:5634   */\n      tag_112\n        /* \"#utility.yul\":5631:5633   */\n      0x1c\n        /* \"#utility.yul\":5626:5629   */\n      dup4\n        /* \"#utility.yul\":5567:5634   */\n      tag_52\n      jump\t// in\n    tag_112:\n        /* \"#utility.yul\":5560:5634   */\n      swap2\n      pop\n        /* \"#utility.yul\":5643:5736   */\n      tag_113\n        /* \"#utility.yul\":5732:5735   */\n      dup3\n        /* \"#utility.yul\":5643:5736   */\n      tag_57\n      jump\t// in\n    tag_113:\n        /* \"#utility.yul\":5761:5763   */\n      0x20\n        /* \"#utility.yul\":5756:5759   */\n      dup3\n        /* \"#utility.yul\":5752:5764   */\n      add\n        /* \"#utility.yul\":5745:5764   */\n      swap1\n      pop\n        /* \"#utility.yul\":5404:5770   */\n      swap2\n      swap1\n      pop\n      jump\t// out\n        /* \"#utility.yul\":5776:6195   */\n    tag_37:\n        /* \"#utility.yul\":5942:5946   */\n      0x00\n        /* \"#utility.yul\":5980:5982   */\n      0x20\n        /* \"#utility.yul\":5969:5978   */\n      dup3\n        /* \"#utility.yul\":5965:5983   */\n      add\n        /* \"#utility.yul\":5957:5983   */\n      swap1\n      pop\n        /* \"#utility.yul\":6029:6038   */\n      dup2\n        /* \"#utility.yul\":6023:6027   */\n      dup2\n        /* \"#utility.yul\":6019:6039   */\n      sub\n        /* \"#utility.yul\":6015:6016   */\n      0x00\n        /* \"#utility.yul\":6004:6013   */\n      dup4\n        /* \"#utility.yul\":6000:6017   */\n      add\n        /* \"#utility.yul\":5993:6040   */\n      mstore\n        /* \"#utility.yul\":6057:6188   */\n      tag_115\n        /* \"#utility.yul\":6183:6187   */\n      dup2\n        /* \"#utility.yul\":6057:6188   */\n      tag_58\n      jump\t// in\n    tag_115:\n        /* \"#utility.yul\":6049:6188   */\n      swap1\n      pop\n        /* \"#utility.yul\":5776:6195   */\n      swap2\n      swap1\n      pop\n      jump\t// out\n\n    auxdata: 0xa2646970667358221220fc4b859d9c9acc96b3984bab71170951054819d20912f4ec945543c18f20d6dd64736f6c63430008100033\n}\n",
				"bytecode": {
					"linkReferences": {},
					"object": "608060405234801561001057600080fd5b50610747806100206000396000f3fe608060405234801561001057600080fd5b50600436106100415760003560e01c8063dd62ed3e14610046578063dd8aaa4f14610076578063e985e9c514610092575b600080fd5b610060600480360381019061005b9190610493565b6100c2565b60405161006d91906104ec565b60405180910390f35b610090600480360381019061008b9190610533565b610148565b005b6100ac60048036038101906100a79190610493565b6101d4565b6040516100b991906105a1565b60405180910390f35b60008060008473ffffffffffffffffffffffffffffffffffffffff1673ffffffffffffffffffffffffffffffffffffffff16815260200190815260200160002060008373ffffffffffffffffffffffffffffffffffffffff1673ffffffffffffffffffffffffffffffffffffffff16815260200190815260200160002054905092915050565b600061015484846100c2565b90507fffffffffffffffffffffffffffffffffffffffffffffffffffffffffffffffff81146101ce57818110156101c0576040517f08c379a00000000000000000000000000000000000000000000000000000000081526004016101b790610619565b60405180910390fd5b6101cd8484848403610268565b5b50505050565b6000600160008473ffffffffffffffffffffffffffffffffffffffff1673ffffffffffffffffffffffffffffffffffffffff16815260200190815260200160002060008373ffffffffffffffffffffffffffffffffffffffff1673ffffffffffffffffffffffffffffffffffffffff16815260200190815260200160002060009054906101000a900460ff16905092915050565b600073ffffffffffffffffffffffffffffffffffffffff168373ffffffffffffffffffffffffffffffffffffffff16036102d7576040517f08c379a00000000000000000000000000000000000000000000000000000000081526004016102ce90610685565b60405180910390fd5b600073ffffffffffffffffffffffffffffffffffffffff168273ffffffffffffffffffffffffffffffffffffffff1603610346576040517f08c379a000000000000000000000000000000000000000000000000000000000815260040161033d906106f1565b60405180910390fd5b806000808573ffffffffffffffffffffffffffffffffffffffff1673ffffffffffffffffffffffffffffffffffffffff16815260200190815260200160002060008473ffffffffffffffffffffffffffffffffffffffff1673ffffffffffffffffffffffffffffffffffffffff168152602001908152602001600020819055508173ffffffffffffffffffffffffffffffffffffffff168373ffffffffffffffffffffffffffffffffffffffff167f8c5be1e5ebec7d5bd14f71427d1e84f3dd0314c0f7b2291e5b200ac8c7c3b9258360405161042391906104ec565b60405180910390a3505050565b600080fd5b600073ffffffffffffffffffffffffffffffffffffffff82169050919050565b600061046082610435565b9050919050565b61047081610455565b811461047b57600080fd5b50565b60008135905061048d81610467565b92915050565b600080604083850312156104aa576104a9610430565b5b60006104b88582860161047e565b92505060206104c98582860161047e565b9150509250929050565b6000819050919050565b6104e6816104d3565b82525050565b600060208201905061050160008301846104dd565b92915050565b610510816104d3565b811461051b57600080fd5b50565b60008135905061052d81610507565b92915050565b60008060006060848603121561054c5761054b610430565b5b600061055a8682870161047e565b935050602061056b8682870161047e565b925050604061057c8682870161051e565b9150509250925092565b60008115159050919050565b61059b81610586565b82525050565b60006020820190506105b66000830184610592565b92915050565b600082825260208201905092915050565b7f45524332303a20696e73756666696369656e7420616c6c6f77616e6365000000600082015250565b6000610603601d836105bc565b915061060e826105cd565b602082019050919050565b60006020820190508181036000830152610632816105f6565b9050919050565b7f617070726f76652066726f6d20746865207a65726f2061646472657373000000600082015250565b600061066f601d836105bc565b915061067a82610639565b602082019050919050565b6000602082019050818103600083015261069e81610662565b9050919050565b7f20617070726f766520746f20746865207a65726f206164647265737300000000600082015250565b60006106db601c836105bc565b91506106e6826106a5565b602082019050919050565b6000602082019050818103600083015261070a816106ce565b905091905056fea2646970667358221220fc4b859d9c9acc96b3984bab71170951054819d20912f4ec945543c18f20d6dd64736f6c63430008100033",
					"opcodes": "PUSH1 0x80 PUSH1 0x40 MSTORE CALLVALUE DUP1 ISZERO PUSH2 0x10 JUMPI PUSH1 0x0 DUP1 REVERT JUMPDEST POP PUSH2 0x747 DUP1 PUSH2 0x20 PUSH1 0x0 CODECOPY PUSH1 0x0 RETURN INVALID PUSH1 0x80 PUSH1 0x40 MSTORE CALLVALUE DUP1 ISZERO PUSH2 0x10 JUMPI PUSH1 0x0 DUP1 REVERT JUMPDEST POP PUSH1 0x4 CALLDATASIZE LT PUSH2 0x41 JUMPI PUSH1 0x0 CALLDATALOAD PUSH1 0xE0 SHR DUP1 PUSH4 0xDD62ED3E EQ PUSH2 0x46 JUMPI DUP1 PUSH4 0xDD8AAA4F EQ PUSH2 0x76 JUMPI DUP1 PUSH4 0xE985E9C5 EQ PUSH2 0x92 JUMPI JUMPDEST PUSH1 0x0 DUP1 REVERT JUMPDEST PUSH2 0x60 PUSH1 0x4 DUP1 CALLDATASIZE SUB DUP2 ADD SWAP1 PUSH2 0x5B SWAP2 SWAP1 PUSH2 0x493 JUMP JUMPDEST PUSH2 0xC2 JUMP JUMPDEST PUSH1 0x40 MLOAD PUSH2 0x6D SWAP2 SWAP1 PUSH2 0x4EC JUMP JUMPDEST PUSH1 0x40 MLOAD DUP1 SWAP2 SUB SWAP1 RETURN JUMPDEST PUSH2 0x90 PUSH1 0x4 DUP1 CALLDATASIZE SUB DUP2 ADD SWAP1 PUSH2 0x8B SWAP2 SWAP1 PUSH2 0x533 JUMP JUMPDEST PUSH2 0x148 JUMP JUMPDEST STOP JUMPDEST PUSH2 0xAC PUSH1 0x4 DUP1 CALLDATASIZE SUB DUP2 ADD SWAP1 PUSH2 0xA7 SWAP2 SWAP1 PUSH2 0x493 JUMP JUMPDEST PUSH2 0x1D4 JUMP JUMPDEST PUSH1 0x40 MLOAD PUSH2 0xB9 SWAP2 SWAP1 PUSH2 0x5A1 JUMP JUMPDEST PUSH1 0x40 MLOAD DUP1 SWAP2 SUB SWAP1 RETURN JUMPDEST PUSH1 0x0 DUP1 PUSH1 0x0 DUP5 PUSH20 0xFFFFFFFFFFFFFFFFFFFFFFFFFFFFFFFFFFFFFFFF AND PUSH20 0xFFFFFFFFFFFFFFFFFFFFFFFFFFFFFFFFFFFFFFFF AND DUP2 MSTORE PUSH1 0x20 ADD SWAP1 DUP2 MSTORE PUSH1 0x20 ADD PUSH1 0x0 KECCAK256 PUSH1 0x0 DUP4 PUSH20 0xFFFFFFFFFFFFFFFFFFFFFFFFFFFFFFFFFFFFFFFF AND PUSH20 0xFFFFFFFFFFFFFFFFFFFFFFFFFFFFFFFFFFFFFFFF AND DUP2 MSTORE PUSH1 0x20 ADD SWAP1 DUP2 MSTORE PUSH1 0x20 ADD PUSH1 0x0 KECCAK256 SLOAD SWAP1 POP SWAP3 SWAP2 POP POP JUMP JUMPDEST PUSH1 0x0 PUSH2 0x154 DUP5 DUP5 PUSH2 0xC2 JUMP JUMPDEST SWAP1 POP PUSH32 0xFFFFFFFFFFFFFFFFFFFFFFFFFFFFFFFFFFFFFFFFFFFFFFFFFFFFFFFFFFFFFFFF DUP2 EQ PUSH2 0x1CE JUMPI DUP2 DUP2 LT ISZERO PUSH2 0x1C0 JUMPI PUSH1 0x40 MLOAD PUSH32 0x8C379A000000000000000000000000000000000000000000000000000000000 DUP2 MSTORE PUSH1 0x4 ADD PUSH2 0x1B7 SWAP1 PUSH2 0x619 JUMP JUMPDEST PUSH1 0x40 MLOAD DUP1 SWAP2 SUB SWAP1 REVERT JUMPDEST PUSH2 0x1CD DUP5 DUP5 DUP5 DUP5 SUB PUSH2 0x268 JUMP JUMPDEST JUMPDEST POP POP POP POP JUMP JUMPDEST PUSH1 0x0 PUSH1 0x1 PUSH1 0x0 DUP5 PUSH20 0xFFFFFFFFFFFFFFFFFFFFFFFFFFFFFFFFFFFFFFFF AND PUSH20 0xFFFFFFFFFFFFFFFFFFFFFFFFFFFFFFFFFFFFFFFF AND DUP2 MSTORE PUSH1 0x20 ADD SWAP1 DUP2 MSTORE PUSH1 0x20 ADD PUSH1 0x0 KECCAK256 PUSH1 0x0 DUP4 PUSH20 0xFFFFFFFFFFFFFFFFFFFFFFFFFFFFFFFFFFFFFFFF AND PUSH20 0xFFFFFFFFFFFFFFFFFFFFFFFFFFFFFFFFFFFFFFFF AND DUP2 MSTORE PUSH1 0x20 ADD SWAP1 DUP2 MSTORE PUSH1 0x20 ADD PUSH1 0x0 KECCAK256 PUSH1 0x0 SWAP1 SLOAD SWAP1 PUSH2 0x100 EXP SWAP1 DIV PUSH1 0xFF AND SWAP1 POP SWAP3 SWAP2 POP POP JUMP JUMPDEST PUSH1 0x0 PUSH20 0xFFFFFFFFFFFFFFFFFFFFFFFFFFFFFFFFFFFFFFFF AND DUP4 PUSH20 0xFFFFFFFFFFFFFFFFFFFFFFFFFFFFFFFFFFFFFFFF AND SUB PUSH2 0x2D7 JUMPI PUSH1 0x40 MLOAD PUSH32 0x8C379A000000000000000000000000000000000000000000000000000000000 DUP2 MSTORE PUSH1 0x4 ADD PUSH2 0x2CE SWAP1 PUSH2 0x685 JUMP JUMPDEST PUSH1 0x40 MLOAD DUP1 SWAP2 SUB SWAP1 REVERT JUMPDEST PUSH1 0x0 PUSH20 0xFFFFFFFFFFFFFFFFFFFFFFFFFFFFFFFFFFFFFFFF AND DUP3 PUSH20 0xFFFFFFFFFFFFFFFFFFFFFFFFFFFFFFFFFFFFFFFF AND SUB PUSH2 0x346 JUMPI PUSH1 0x40 MLOAD PUSH32 0x8C379A000000000000000000000000000000000000000000000000000000000 DUP2 MSTORE PUSH1 0x4 ADD PUSH2 0x33D SWAP1 PUSH2 0x6F1 JUMP JUMPDEST PUSH1 0x40 MLOAD DUP1 SWAP2 SUB SWAP1 REVERT JUMPDEST DUP1 PUSH1 0x0 DUP1 DUP6 PUSH20 0xFFFFFFFFFFFFFFFFFFFFFFFFFFFFFFFFFFFFFFFF AND PUSH20 0xFFFFFFFFFFFFFFFFFFFFFFFFFFFFFFFFFFFFFFFF AND DUP2 MSTORE PUSH1 0x20 ADD SWAP1 DUP2 MSTORE PUSH1 0x20 ADD PUSH1 0x0 KECCAK256 PUSH1 0x0 DUP5 PUSH20 0xFFFFFFFFFFFFFFFFFFFFFFFFFFFFFFFFFFFFFFFF AND PUSH20 0xFFFFFFFFFFFFFFFFFFFFFFFFFFFFFFFFFFFFFFFF AND DUP2 MSTORE PUSH1 0x20 ADD SWAP1 DUP2 MSTORE PUSH1 0x20 ADD PUSH1 0x0 KECCAK256 DUP2 SWAP1 SSTORE POP DUP2 PUSH20 0xFFFFFFFFFFFFFFFFFFFFFFFFFFFFFFFFFFFFFFFF AND DUP4 PUSH20 0xFFFFFFFFFFFFFFFFFFFFFFFFFFFFFFFFFFFFFFFF AND PUSH32 0x8C5BE1E5EBEC7D5BD14F71427D1E84F3DD0314C0F7B2291E5B200AC8C7C3B925 DUP4 PUSH1 0x40 MLOAD PUSH2 0x423 SWAP2 SWAP1 PUSH2 0x4EC JUMP JUMPDEST PUSH1 0x40 MLOAD DUP1 SWAP2 SUB SWAP1 LOG3 POP POP POP JUMP JUMPDEST PUSH1 0x0 DUP1 REVERT JUMPDEST PUSH1 0x0 PUSH20 0xFFFFFFFFFFFFFFFFFFFFFFFFFFFFFFFFFFFFFFFF DUP3 AND SWAP1 POP SWAP2 SWAP1 POP JUMP JUMPDEST PUSH1 0x0 PUSH2 0x460 DUP3 PUSH2 0x435 JUMP JUMPDEST SWAP1 POP SWAP2 SWAP1 POP JUMP JUMPDEST PUSH2 0x470 DUP2 PUSH2 0x455 JUMP JUMPDEST DUP2 EQ PUSH2 0x47B JUMPI PUSH1 0x0 DUP1 REVERT JUMPDEST POP JUMP JUMPDEST PUSH1 0x0 DUP2 CALLDATALOAD SWAP1 POP PUSH2 0x48D DUP2 PUSH2 0x467 JUMP JUMPDEST SWAP3 SWAP2 POP POP JUMP JUMPDEST PUSH1 0x0 DUP1 PUSH1 0x40 DUP4 DUP6 SUB SLT ISZERO PUSH2 0x4AA JUMPI PUSH2 0x4A9 PUSH2 0x430 JUMP JUMPDEST JUMPDEST PUSH1 0x0 PUSH2 0x4B8 DUP6 DUP3 DUP7 ADD PUSH2 0x47E JUMP JUMPDEST SWAP3 POP POP PUSH1 0x20 PUSH2 0x4C9 DUP6 DUP3 DUP7 ADD PUSH2 0x47E JUMP JUMPDEST SWAP2 POP POP SWAP3 POP SWAP3 SWAP1 POP JUMP JUMPDEST PUSH1 0x0 DUP2 SWAP1 POP SWAP2 SWAP1 POP JUMP JUMPDEST PUSH2 0x4E6 DUP2 PUSH2 0x4D3 JUMP JUMPDEST DUP3 MSTORE POP POP JUMP JUMPDEST PUSH1 0x0 PUSH1 0x20 DUP3 ADD SWAP1 POP PUSH2 0x501 PUSH1 0x0 DUP4 ADD DUP5 PUSH2 0x4DD JUMP JUMPDEST SWAP3 SWAP2 POP POP JUMP JUMPDEST PUSH2 0x510 DUP2 PUSH2 0x4D3 JUMP JUMPDEST DUP2 EQ PUSH2 0x51B JUMPI PUSH1 0x0 DUP1 REVERT JUMPDEST POP JUMP JUMPDEST PUSH1 0x0 DUP2 CALLDATALOAD SWAP1 POP PUSH2 0x52D DUP2 PUSH2 0x507 JUMP JUMPDEST SWAP3 SWAP2 POP POP JUMP JUMPDEST PUSH1 0x0 DUP1 PUSH1 0x0 PUSH1 0x60 DUP5 DUP7 SUB SLT ISZERO PUSH2 0x54C JUMPI PUSH2 0x54B PUSH2 0x430 JUMP JUMPDEST JUMPDEST PUSH1 0x0 PUSH2 0x55A DUP7 DUP3 DUP8 ADD PUSH2 0x47E JUMP JUMPDEST SWAP4 POP POP PUSH1 0x20 PUSH2 0x56B DUP7 DUP3 DUP8 ADD PUSH2 0x47E JUMP JUMPDEST SWAP3 POP POP PUSH1 0x40 PUSH2 0x57C DUP7 DUP3 DUP8 ADD PUSH2 0x51E JUMP JUMPDEST SWAP2 POP POP SWAP3 POP SWAP3 POP SWAP3 JUMP JUMPDEST PUSH1 0x0 DUP2 ISZERO ISZERO SWAP1 POP SWAP2 SWAP1 POP JUMP JUMPDEST PUSH2 0x59B DUP2 PUSH2 0x586 JUMP JUMPDEST DUP3 MSTORE POP POP JUMP JUMPDEST PUSH1 0x0 PUSH1 0x20 DUP3 ADD SWAP1 POP PUSH2 0x5B6 PUSH1 0x0 DUP4 ADD DUP5 PUSH2 0x592 JUMP JUMPDEST SWAP3 SWAP2 POP POP JUMP JUMPDEST PUSH1 0x0 DUP3 DUP3 MSTORE PUSH1 0x20 DUP3 ADD SWAP1 POP SWAP3 SWAP2 POP POP JUMP JUMPDEST PUSH32 0x45524332303A20696E73756666696369656E7420616C6C6F77616E6365000000 PUSH1 0x0 DUP3 ADD MSTORE POP JUMP JUMPDEST PUSH1 0x0 PUSH2 0x603 PUSH1 0x1D DUP4 PUSH2 0x5BC JUMP JUMPDEST SWAP2 POP PUSH2 0x60E DUP3 PUSH2 0x5CD JUMP JUMPDEST PUSH1 0x20 DUP3 ADD SWAP1 POP SWAP2 SWAP1 POP JUMP JUMPDEST PUSH1 0x0 PUSH1 0x20 DUP3 ADD SWAP1 POP DUP2 DUP2 SUB PUSH1 0x0 DUP4 ADD MSTORE PUSH2 0x632 DUP2 PUSH2 0x5F6 JUMP JUMPDEST SWAP1 POP SWAP2 SWAP1 POP JUMP JUMPDEST PUSH32 0x617070726F76652066726F6D20746865207A65726F2061646472657373000000 PUSH1 0x0 DUP3 ADD MSTORE POP JUMP JUMPDEST PUSH1 0x0 PUSH2 0x66F PUSH1 0x1D DUP4 PUSH2 0x5BC JUMP JUMPDEST SWAP2 POP PUSH2 0x67A DUP3 PUSH2 0x639 JUMP JUMPDEST PUSH1 0x20 DUP3 ADD SWAP1 POP SWAP2 SWAP1 POP JUMP JUMPDEST PUSH1 0x0 PUSH1 0x20 DUP3 ADD SWAP1 POP DUP2 DUP2 SUB PUSH1 0x0 DUP4 ADD MSTORE PUSH2 0x69E DUP2 PUSH2 0x662 JUMP JUMPDEST SWAP1 POP SWAP2 SWAP1 POP JUMP JUMPDEST PUSH32 0x20617070726F766520746F20746865207A65726F206164647265737300000000 PUSH1 0x0 DUP3 ADD MSTORE POP JUMP JUMPDEST PUSH1 0x0 PUSH2 0x6DB PUSH1 0x1C DUP4 PUSH2 0x5BC JUMP JUMPDEST SWAP2 POP PUSH2 0x6E6 DUP3 PUSH2 0x6A5 JUMP JUMPDEST PUSH1 0x20 DUP3 ADD SWAP1 POP SWAP2 SWAP1 POP JUMP JUMPDEST PUSH1 0x0 PUSH1 0x20 DUP3 ADD SWAP1 POP DUP2 DUP2 SUB PUSH1 0x0 DUP4 ADD MSTORE PUSH2 0x70A DUP2 PUSH2 0x6CE JUMP JUMPDEST SWAP1 POP SWAP2 SWAP1 POP JUMP INVALID LOG2 PUSH5 0x6970667358 0x22 SLT KECCAK256 0xFC 0x4B DUP6 SWAP14 SWAP13 SWAP11 0xCC SWAP7 0xB3 SWAP9 0x4B 0xAB PUSH18 0x170951054819D20912F4EC945543C18F20D6 0xDD PUSH5 0x736F6C6343 STOP ADDMOD LT STOP CALLER "
				},
				"gasEstimates": {
					"creation": {
						"codeDepositCost": "372600",
						"executionCost": "411",
						"totalCost": "373011"
					},
					"external": {
						"allowance(address,address)": "infinite",
						"isApprovedForAll(address,address)": "infinite",
						"spendAllowance(address,address,uint256)": "infinite"
					},
					"internal": {
						"_approve(address,address,uint256)": "infinite",
						"_isApprovedOrOwner(address)": "infinite"
					}
				},
				"methodIdentifiers": {
					"allowance(address,address)": "dd62ed3e",
					"isApprovedForAll(address,address)": "e985e9c5",
					"spendAllowance(address,address,uint256)": "dd8aaa4f"
				}
			},
			"storageLayout": {
				"storage": [
					{
						"astId": 7,
						"contract": "Approve.sol:Approve",
						"label": "_allowances",
						"offset": 0,
						"slot": "0",
						"type": "t_mapping(t_address,t_mapping(t_address,t_uint256))"
					},
					{
						"astId": 13,
						"contract": "Approve.sol:Approve",
						"label": "_operatorApprovals",
						"offset": 0,
						"slot": "1",
						"type": "t_mapping(t_address,t_mapping(t_address,t_bool))"
					}
				],
				"types": {
					"t_address": {
						"encoding": "inplace",
						"label": "address",
						"numberOfBytes": "20"
					},
					"t_bool": {
						"encoding": "inplace",
						"label": "bool",
						"numberOfBytes": "1"
					},
					"t_mapping(t_address,t_bool)": {
						"encoding": "mapping",
						"key": "t_address",
						"label": "mapping(address => bool)",
						"numberOfBytes": "32",
						"value": "t_bool"
					},
					"t_mapping(t_address,t_mapping(t_address,t_bool))": {
						"encoding": "mapping",
						"key": "t_address",
						"label": "mapping(address => mapping(address => bool))",
						"numberOfBytes": "32",
						"value": "t_mapping(t_address,t_bool)"
					},
					"t_mapping(t_address,t_mapping(t_address,t_uint256))": {
						"encoding": "mapping",
						"key": "t_address",
						"label": "mapping(address => mapping(address => uint256))",
						"numberOfBytes": "32",
						"value": "t_mapping(t_address,t_uint256)"
					},
					"t_mapping(t_address,t_uint256)": {
						"encoding": "mapping",
						"key": "t_address",
						"label": "mapping(address => uint256)",
						"numberOfBytes": "32",
						"value": "t_uint256"
					},
					"t_uint256": {
						"encoding": "inplace",
						"label": "uint256",
						"numberOfBytes": "32"
					}
				}
			},
			"userdoc": {
				"kind": "user",
				"methods": {},
				"version": 1
			}
		}
	}
}