{
	"Subscribe.sol": {
		"Subscribe": {
			"abi": [
				{
					"anonymous": false,
					"inputs": [
						{
							"indexed": true,
							"internalType": "address",
							"name": "owner",
							"type": "address"
						},
						{
							"indexed": true,
							"internalType": "address",
							"name": "spender",
							"type": "address"
						},
						{
							"indexed": false,
							"internalType": "uint256",
							"name": "value",
							"type": "uint256"
						}
					],
					"name": "Approval",
					"type": "event"
				},
				{
					"anonymous": false,
					"inputs": [
						{
							"indexed": true,
							"internalType": "address",
							"name": "previousOwner",
							"type": "address"
						},
						{
							"indexed": true,
							"internalType": "address",
							"name": "newOwner",
							"type": "address"
						}
					],
					"name": "OwnershipTransferred",
					"type": "event"
				},
				{
					"anonymous": false,
					"inputs": [
						{
							"indexed": true,
							"internalType": "address",
							"name": "from",
							"type": "address"
						},
						{
							"indexed": true,
							"internalType": "address",
							"name": "to",
							"type": "address"
						},
						{
							"indexed": false,
							"internalType": "uint256",
							"name": "value",
							"type": "uint256"
						}
					],
					"name": "Transfer",
					"type": "event"
				},
				{
					"inputs": [
						{
							"internalType": "address",
							"name": "owner",
							"type": "address"
						},
						{
							"internalType": "address",
							"name": "spender",
							"type": "address"
						}
					],
					"name": "allowance",
					"outputs": [
						{
							"internalType": "uint256",
							"name": "",
							"type": "uint256"
						}
					],
					"stateMutability": "view",
					"type": "function"
				},
				{
					"inputs": [],
					"name": "approver",
					"outputs": [
						{
							"internalType": "address",
							"name": "",
							"type": "address"
						}
					],
					"stateMutability": "view",
					"type": "function"
				},
				{
					"inputs": [
						{
							"internalType": "address payable",
							"name": "_owner",
							"type": "address"
						}
					],
					"name": "cancelSubscribe",
					"outputs": [],
					"stateMutability": "nonpayable",
					"type": "function"
				},
				{
					"inputs": [
						{
							"internalType": "address",
							"name": "_owner",
							"type": "address"
						}
					],
					"name": "firstTimestamp",
					"outputs": [
						{
							"internalType": "uint256",
							"name": "",
							"type": "uint256"
						}
					],
					"stateMutability": "view",
					"type": "function"
				},
				{
					"inputs": [
						{
							"internalType": "address",
							"name": "owner",
							"type": "address"
						},
						{
							"internalType": "address",
							"name": "operator",
							"type": "address"
						}
					],
					"name": "isApprovedForAll",
					"outputs": [
						{
							"internalType": "bool",
							"name": "",
							"type": "bool"
						}
					],
					"stateMutability": "view",
					"type": "function"
				},
				{
					"inputs": [
						{
							"internalType": "address",
							"name": "_owner",
							"type": "address"
						}
					],
					"name": "nextTimestamp",
					"outputs": [
						{
							"internalType": "uint256",
							"name": "",
							"type": "uint256"
						}
					],
					"stateMutability": "view",
					"type": "function"
				},
				{
					"inputs": [],
					"name": "owner",
					"outputs": [
						{
							"internalType": "address",
							"name": "",
							"type": "address"
						}
					],
					"stateMutability": "view",
					"type": "function"
				},
				{
					"inputs": [],
					"name": "renounceOwnership",
					"outputs": [],
					"stateMutability": "nonpayable",
					"type": "function"
				},
				{
					"inputs": [
						{
							"internalType": "address",
							"name": "_owner",
							"type": "address"
						},
						{
							"internalType": "bool",
							"name": "_state",
							"type": "bool"
						}
					],
					"name": "setUserState",
					"outputs": [],
					"stateMutability": "nonpayable",
					"type": "function"
				},
				{
					"inputs": [
						{
							"internalType": "address",
							"name": "owner",
							"type": "address"
						},
						{
							"internalType": "address",
							"name": "spender",
							"type": "address"
						},
						{
							"internalType": "uint256",
							"name": "amount",
							"type": "uint256"
						}
					],
					"name": "spendAllowance",
					"outputs": [],
					"stateMutability": "nonpayable",
					"type": "function"
				},
				{
					"inputs": [],
					"name": "sub_price",
					"outputs": [
						{
							"internalType": "uint256",
							"name": "",
							"type": "uint256"
						}
					],
					"stateMutability": "view",
					"type": "function"
				},
				{
					"inputs": [
						{
							"internalType": "address",
							"name": "_to",
							"type": "address"
						}
					],
					"name": "subscribe",
					"outputs": [],
					"stateMutability": "payable",
					"type": "function"
				},
				{
					"inputs": [
						{
							"internalType": "address",
							"name": "",
							"type": "address"
						}
					],
					"name": "subscribeState",
					"outputs": [
						{
							"internalType": "bool",
							"name": "",
							"type": "bool"
						}
					],
					"stateMutability": "view",
					"type": "function"
				},
				{
					"inputs": [
						{
							"internalType": "address",
							"name": "from",
							"type": "address"
						},
						{
							"internalType": "address",
							"name": "to",
							"type": "address"
						},
						{
							"internalType": "uint256",
							"name": "amount",
							"type": "uint256"
						}
					],
					"name": "transferFrom",
					"outputs": [
						{
							"internalType": "bool",
							"name": "",
							"type": "bool"
						}
					],
					"stateMutability": "nonpayable",
					"type": "function"
				},
				{
					"inputs": [
						{
							"internalType": "address",
							"name": "newOwner",
							"type": "address"
						}
					],
					"name": "transferOwnership",
					"outputs": [],
					"stateMutability": "nonpayable",
					"type": "function"
				},
				{
					"inputs": [
						{
							"internalType": "address payable",
							"name": "_owner",
							"type": "address"
						}
					],
					"name": "withdrawSubscribe",
					"outputs": [],
					"stateMutability": "payable",
					"type": "function"
				}
			],
			"devdoc": {
				"kind": "dev",
				"methods": {
					"owner()": {
						"details": "Returns the address of the current owner."
					},
					"renounceOwnership()": {
						"details": "Leaves the contract without owner. It will not be possible to call `onlyOwner` functions anymore. Can only be called by the current owner. NOTE: Renouncing ownership will leave the contract without an owner, thereby removing any functionality that is only available to the owner."
					},
					"transferOwnership(address)": {
						"details": "Transfers ownership of the contract to a new account (`newOwner`). Can only be called by the current owner."
					}
				},
				"version": 1
			},
			"evm": {
				"assembly": "    /* \"Subscribe.sol\":164:4118  contract Subscribe is Ownable{... */\n  mstore(0x40, 0x80)\n    /* \"Subscribe.sol\":406:413  1 ether */\n  0x0de0b6b3a7640000\n    /* \"Subscribe.sol\":379:413  uint256 public sub_price = 1 ether */\n  0x05\n  sstore\n    /* \"Subscribe.sol\":164:4118  contract Subscribe is Ownable{... */\n  callvalue\n  dup1\n  iszero\n  tag_1\n  jumpi\n  0x00\n  dup1\n  revert\ntag_1:\n  pop\n    /* \"node_modules/openzeppelin-solidity/contracts/access/Ownable.sol\":921:953  _transferOwnership(_msgSender()) */\n  tag_4\n    /* \"node_modules/openzeppelin-solidity/contracts/access/Ownable.sol\":940:952  _msgSender() */\n  tag_5\n    /* \"node_modules/openzeppelin-solidity/contracts/access/Ownable.sol\":940:950  _msgSender */\n  shl(0x20, tag_6)\n    /* \"node_modules/openzeppelin-solidity/contracts/access/Ownable.sol\":940:952  _msgSender() */\n  0x20\n  shr\n  jump\t// in\ntag_5:\n    /* \"node_modules/openzeppelin-solidity/contracts/access/Ownable.sol\":921:939  _transferOwnership */\n  shl(0x20, tag_7)\n    /* \"node_modules/openzeppelin-solidity/contracts/access/Ownable.sol\":921:953  _transferOwnership(_msgSender()) */\n  0x20\n  shr\n  jump\t// in\ntag_4:\n    /* \"Subscribe.sol\":164:4118  contract Subscribe is Ownable{... */\n  jump(tag_8)\n    /* \"node_modules/openzeppelin-solidity/contracts/utils/Context.sol\":640:736  function _msgSender() internal view virtual returns (address) {... */\ntag_6:\n    /* \"node_modules/openzeppelin-solidity/contracts/utils/Context.sol\":693:700  address */\n  0x00\n    /* \"node_modules/openzeppelin-solidity/contracts/utils/Context.sol\":719:729  msg.sender */\n  caller\n    /* \"node_modules/openzeppelin-solidity/contracts/utils/Context.sol\":712:729  return msg.sender */\n  swap1\n  pop\n    /* \"node_modules/openzeppelin-solidity/contracts/utils/Context.sol\":640:736  function _msgSender() internal view virtual returns (address) {... */\n  swap1\n  jump\t// out\n    /* \"node_modules/openzeppelin-solidity/contracts/access/Ownable.sol\":2270:2457  function _transferOwnership(address newOwner) internal virtual {... */\ntag_7:\n    /* \"node_modules/openzeppelin-solidity/contracts/access/Ownable.sol\":2343:2359  address oldOwner */\n  0x00\n    /* \"node_modules/openzeppelin-solidity/contracts/access/Ownable.sol\":2362:2368  _owner */\n  dup1\n  0x00\n  swap1\n  sload\n  swap1\n  0x0100\n  exp\n  swap1\n  div\n  0xffffffffffffffffffffffffffffffffffffffff\n  and\n    /* \"node_modules/openzeppelin-solidity/contracts/access/Ownable.sol\":2343:2368  address oldOwner = _owner */\n  swap1\n  pop\n    /* \"node_modules/openzeppelin-solidity/contracts/access/Ownable.sol\":2387:2395  newOwner */\n  dup2\n    /* \"node_modules/openzeppelin-solidity/contracts/access/Ownable.sol\":2378:2384  _owner */\n  0x00\n  dup1\n    /* \"node_modules/openzeppelin-solidity/contracts/access/Ownable.sol\":2378:2395  _owner = newOwner */\n  0x0100\n  exp\n  dup2\n  sload\n  dup2\n  0xffffffffffffffffffffffffffffffffffffffff\n  mul\n  not\n  and\n  swap1\n  dup4\n  0xffffffffffffffffffffffffffffffffffffffff\n  and\n  mul\n  or\n  swap1\n  sstore\n  pop\n    /* \"node_modules/openzeppelin-solidity/contracts/access/Ownable.sol\":2441:2449  newOwner */\n  dup2\n    /* \"node_modules/openzeppelin-solidity/contracts/access/Ownable.sol\":2410:2450  OwnershipTransferred(oldOwner, newOwner) */\n  0xffffffffffffffffffffffffffffffffffffffff\n  and\n    /* \"node_modules/openzeppelin-solidity/contracts/access/Ownable.sol\":2431:2439  oldOwner */\n  dup2\n    /* \"node_modules/openzeppelin-solidity/contracts/access/Ownable.sol\":2410:2450  OwnershipTransferred(oldOwner, newOwner) */\n  0xffffffffffffffffffffffffffffffffffffffff\n  and\n  0x8be0079c531659141344cd1fd0a4f28419497f9722a3daafe3b4186f6b6457e0\n  mload(0x40)\n  mload(0x40)\n  dup1\n  swap2\n  sub\n  swap1\n  log3\n    /* \"node_modules/openzeppelin-solidity/contracts/access/Ownable.sol\":2333:2457  {... */\n  pop\n    /* \"node_modules/openzeppelin-solidity/contracts/access/Ownable.sol\":2270:2457  function _transferOwnership(address newOwner) internal virtual {... */\n  pop\n  jump\t// out\n    /* \"Subscribe.sol\":164:4118  contract Subscribe is Ownable{... */\ntag_8:\n  dataSize(sub_0)\n  dup1\n  dataOffset(sub_0)\n  0x00\n  codecopy\n  0x00\n  return\nstop\n\nsub_0: assembly {\n        /* \"Subscribe.sol\":164:4118  contract Subscribe is Ownable{... */\n      mstore(0x40, 0x80)\n      jumpi(tag_1, lt(calldatasize, 0x04))\n      shr(0xe0, calldataload(0x00))\n      dup1\n      0xbefa2fc6\n      gt\n      tag_18\n      jumpi\n      dup1\n      0xdd8aaa4f\n      gt\n      tag_19\n      jumpi\n      dup1\n      0xdd8aaa4f\n      eq\n      tag_14\n      jumpi\n      dup1\n      0xe11d48b1\n      eq\n      tag_15\n      jumpi\n      dup1\n      0xe985e9c5\n      eq\n      tag_16\n      jumpi\n      dup1\n      0xf2fde38b\n      eq\n      tag_17\n      jumpi\n      jump(tag_1)\n    tag_19:\n      dup1\n      0xbefa2fc6\n      eq\n      tag_10\n      jumpi\n      dup1\n      0xd028fa0c\n      eq\n      tag_11\n      jumpi\n      dup1\n      0xd353c0b7\n      eq\n      tag_12\n      jumpi\n      dup1\n      0xdd62ed3e\n      eq\n      tag_13\n      jumpi\n      jump(tag_1)\n    tag_18:\n      dup1\n      0x3a75b3ce\n      gt\n      tag_20\n      jumpi\n      dup1\n      0x3a75b3ce\n      eq\n      tag_6\n      jumpi\n      dup1\n      0x41a7726a\n      eq\n      tag_7\n      jumpi\n      dup1\n      0x715018a6\n      eq\n      tag_8\n      jumpi\n      dup1\n      0x8da5cb5b\n      eq\n      tag_9\n      jumpi\n      jump(tag_1)\n    tag_20:\n      dup1\n      0x141a8dd8\n      eq\n      tag_2\n      jumpi\n      dup1\n      0x159cfa6c\n      eq\n      tag_3\n      jumpi\n      dup1\n      0x23b872dd\n      eq\n      tag_4\n      jumpi\n      dup1\n      0x2b6fb5ba\n      eq\n      tag_5\n      jumpi\n    tag_1:\n      0x00\n      dup1\n      revert\n        /* \"Subscribe.sol\":350:373  address public approver */\n    tag_2:\n      callvalue\n      dup1\n      iszero\n      tag_21\n      jumpi\n      0x00\n      dup1\n      revert\n    tag_21:\n      pop\n      tag_22\n      tag_23\n      jump\t// in\n    tag_22:\n      mload(0x40)\n      tag_24\n      swap2\n      swap1\n      tag_25\n      jump\t// in\n    tag_24:\n      mload(0x40)\n      dup1\n      swap2\n      sub\n      swap1\n      return\n        /* \"Subscribe.sol\":1940:2116  function firstTimestamp(address _owner) public view returns(uint){... */\n    tag_3:\n      callvalue\n      dup1\n      iszero\n      tag_26\n      jumpi\n      0x00\n      dup1\n      revert\n    tag_26:\n      pop\n      tag_27\n      0x04\n      dup1\n      calldatasize\n      sub\n      dup2\n      add\n      swap1\n      tag_28\n      swap2\n      swap1\n      tag_29\n      jump\t// in\n    tag_28:\n      tag_30\n      jump\t// in\n    tag_27:\n      mload(0x40)\n      tag_31\n      swap2\n      swap1\n      tag_32\n      jump\t// in\n    tag_31:\n      mload(0x40)\n      dup1\n      swap2\n      sub\n      swap1\n      return\n        /* \"Subscribe.sol\":1200:1435  function transferFrom(... */\n    tag_4:\n      callvalue\n      dup1\n      iszero\n      tag_33\n      jumpi\n      0x00\n      dup1\n      revert\n    tag_33:\n      pop\n      tag_34\n      0x04\n      dup1\n      calldatasize\n      sub\n      dup2\n      add\n      swap1\n      tag_35\n      swap2\n      swap1\n      tag_36\n      jump\t// in\n    tag_35:\n      tag_37\n      jump\t// in\n    tag_34:\n      mload(0x40)\n      tag_38\n      swap2\n      swap1\n      tag_39\n      jump\t// in\n    tag_38:\n      mload(0x40)\n      dup1\n      swap2\n      sub\n      swap1\n      return\n        /* \"Subscribe.sol\":784:889  function setUserState(address _owner, bool _state) public{... */\n    tag_5:\n      callvalue\n      dup1\n      iszero\n      tag_40\n      jumpi\n      0x00\n      dup1\n      revert\n    tag_40:\n      pop\n      tag_41\n      0x04\n      dup1\n      calldatasize\n      sub\n      dup2\n      add\n      swap1\n      tag_42\n      swap2\n      swap1\n      tag_43\n      jump\t// in\n    tag_42:\n      tag_44\n      jump\t// in\n    tag_41:\n      stop\n        /* \"Subscribe.sol\":2528:2787  function withdrawSubscribe(address payable _owner) public payable{... */\n    tag_6:\n      tag_45\n      0x04\n      dup1\n      calldatasize\n      sub\n      dup2\n      add\n      swap1\n      tag_46\n      swap2\n      swap1\n      tag_47\n      jump\t// in\n    tag_46:\n      tag_48\n      jump\t// in\n    tag_45:\n      stop\n        /* \"Subscribe.sol\":1441:1934  function subscribe(address _to) public payable{... */\n    tag_7:\n      tag_49\n      0x04\n      dup1\n      calldatasize\n      sub\n      dup2\n      add\n      swap1\n      tag_50\n      swap2\n      swap1\n      tag_29\n      jump\t// in\n    tag_50:\n      tag_51\n      jump\t// in\n    tag_49:\n      stop\n        /* \"node_modules/openzeppelin-solidity/contracts/access/Ownable.sol\":1668:1769  function renounceOwnership() public virtual onlyOwner {... */\n    tag_8:\n      callvalue\n      dup1\n      iszero\n      tag_52\n      jumpi\n      0x00\n      dup1\n      revert\n    tag_52:\n      pop\n      tag_53\n      tag_54\n      jump\t// in\n    tag_53:\n      stop\n        /* \"node_modules/openzeppelin-solidity/contracts/access/Ownable.sol\":1036:1121  function owner() public view virtual returns (address) {... */\n    tag_9:\n      callvalue\n      dup1\n      iszero\n      tag_55\n      jumpi\n      0x00\n      dup1\n      revert\n    tag_55:\n      pop\n      tag_56\n      tag_57\n      jump\t// in\n    tag_56:\n      mload(0x40)\n      tag_58\n      swap2\n      swap1\n      tag_25\n      jump\t// in\n    tag_58:\n      mload(0x40)\n      dup1\n      swap2\n      sub\n      swap1\n      return\n        /* \"Subscribe.sol\":379:413  uint256 public sub_price = 1 ether */\n    tag_10:\n      callvalue\n      dup1\n      iszero\n      tag_59\n      jumpi\n      0x00\n      dup1\n      revert\n    tag_59:\n      pop\n      tag_60\n      tag_61\n      jump\t// in\n    tag_60:\n      mload(0x40)\n      tag_62\n      swap2\n      swap1\n      tag_32\n      jump\t// in\n    tag_62:\n      mload(0x40)\n      dup1\n      swap2\n      sub\n      swap1\n      return\n        /* \"Subscribe.sol\":2122:2296  function nextTimestamp(address _owner) public view returns(uint){... */\n    tag_11:\n      callvalue\n      dup1\n      iszero\n      tag_63\n      jumpi\n      0x00\n      dup1\n      revert\n    tag_63:\n      pop\n      tag_64\n      0x04\n      dup1\n      calldatasize\n      sub\n      dup2\n      add\n      swap1\n      tag_65\n      swap2\n      swap1\n      tag_29\n      jump\t// in\n    tag_65:\n      tag_66\n      jump\t// in\n    tag_64:\n      mload(0x40)\n      tag_67\n      swap2\n      swap1\n      tag_32\n      jump\t// in\n    tag_67:\n      mload(0x40)\n      dup1\n      swap2\n      sub\n      swap1\n      return\n        /* \"Subscribe.sol\":420:466  mapping(address => bool) public subscribeState */\n    tag_12:\n      callvalue\n      dup1\n      iszero\n      tag_68\n      jumpi\n      0x00\n      dup1\n      revert\n    tag_68:\n      pop\n      tag_69\n      0x04\n      dup1\n      calldatasize\n      sub\n      dup2\n      add\n      swap1\n      tag_70\n      swap2\n      swap1\n      tag_29\n      jump\t// in\n    tag_70:\n      tag_71\n      jump\t// in\n    tag_69:\n      mload(0x40)\n      tag_72\n      swap2\n      swap1\n      tag_39\n      jump\t// in\n    tag_72:\n      mload(0x40)\n      dup1\n      swap2\n      sub\n      swap1\n      return\n        /* \"Subscribe.sol\":3517:3657  function allowance(address owner, address spender) public view virtual returns (uint256) {... */\n    tag_13:\n      callvalue\n      dup1\n      iszero\n      tag_73\n      jumpi\n      0x00\n      dup1\n      revert\n    tag_73:\n      pop\n      tag_74\n      0x04\n      dup1\n      calldatasize\n      sub\n      dup2\n      add\n      swap1\n      tag_75\n      swap2\n      swap1\n      tag_76\n      jump\t// in\n    tag_75:\n      tag_77\n      jump\t// in\n    tag_74:\n      mload(0x40)\n      tag_78\n      swap2\n      swap1\n      tag_32\n      jump\t// in\n    tag_78:\n      mload(0x40)\n      dup1\n      swap2\n      sub\n      swap1\n      return\n        /* \"Subscribe.sol\":3663:4101  function spendAllowance(... */\n    tag_14:\n      callvalue\n      dup1\n      iszero\n      tag_79\n      jumpi\n      0x00\n      dup1\n      revert\n    tag_79:\n      pop\n      tag_80\n      0x04\n      dup1\n      calldatasize\n      sub\n      dup2\n      add\n      swap1\n      tag_81\n      swap2\n      swap1\n      tag_36\n      jump\t// in\n    tag_81:\n      tag_82\n      jump\t// in\n    tag_80:\n      stop\n        /* \"Subscribe.sol\":2303:2515  function cancelSubscribe(address payable _owner) public{... */\n    tag_15:\n      callvalue\n      dup1\n      iszero\n      tag_83\n      jumpi\n      0x00\n      dup1\n      revert\n    tag_83:\n      pop\n      tag_84\n      0x04\n      dup1\n      calldatasize\n      sub\n      dup2\n      add\n      swap1\n      tag_85\n      swap2\n      swap1\n      tag_47\n      jump\t// in\n    tag_85:\n      tag_86\n      jump\t// in\n    tag_84:\n      stop\n        /* \"Subscribe.sol\":2793:2946  function isApprovedForAll(address owner, address operator) public view virtual returns (bool) {... */\n    tag_16:\n      callvalue\n      dup1\n      iszero\n      tag_87\n      jumpi\n      0x00\n      dup1\n      revert\n    tag_87:\n      pop\n      tag_88\n      0x04\n      dup1\n      calldatasize\n      sub\n      dup2\n      add\n      swap1\n      tag_89\n      swap2\n      swap1\n      tag_76\n      jump\t// in\n    tag_89:\n      tag_90\n      jump\t// in\n    tag_88:\n      mload(0x40)\n      tag_91\n      swap2\n      swap1\n      tag_39\n      jump\t// in\n    tag_91:\n      mload(0x40)\n      dup1\n      swap2\n      sub\n      swap1\n      return\n        /* \"node_modules/openzeppelin-solidity/contracts/access/Ownable.sol\":1918:2116  function transferOwnership(address newOwner) public virtual onlyOwner {... */\n    tag_17:\n      callvalue\n      dup1\n      iszero\n      tag_92\n      jumpi\n      0x00\n      dup1\n      revert\n    tag_92:\n      pop\n      tag_93\n      0x04\n      dup1\n      calldatasize\n      sub\n      dup2\n      add\n      swap1\n      tag_94\n      swap2\n      swap1\n      tag_29\n      jump\t// in\n    tag_94:\n      tag_95\n      jump\t// in\n    tag_93:\n      stop\n        /* \"Subscribe.sol\":350:373  address public approver */\n    tag_23:\n      0x04\n      0x00\n      swap1\n      sload\n      swap1\n      0x0100\n      exp\n      swap1\n      div\n      0xffffffffffffffffffffffffffffffffffffffff\n      and\n      dup2\n      jump\t// out\n        /* \"Subscribe.sol\":1940:2116  function firstTimestamp(address _owner) public view returns(uint){... */\n    tag_30:\n        /* \"Subscribe.sol\":2000:2004  uint */\n      0x00\n        /* \"Subscribe.sol\":2049:2054  false */\n      dup1\n        /* \"Subscribe.sol\":2023:2054  subscribeState[_owner] != false */\n      iszero\n      iszero\n        /* \"Subscribe.sol\":2023:2037  subscribeState */\n      0x06\n        /* \"Subscribe.sol\":2023:2045  subscribeState[_owner] */\n      0x00\n        /* \"Subscribe.sol\":2038:2044  _owner */\n      dup5\n        /* \"Subscribe.sol\":2023:2045  subscribeState[_owner] */\n      0xffffffffffffffffffffffffffffffffffffffff\n      and\n      0xffffffffffffffffffffffffffffffffffffffff\n      and\n      dup2\n      mstore\n      0x20\n      add\n      swap1\n      dup2\n      mstore\n      0x20\n      add\n      0x00\n      keccak256\n      0x00\n      swap1\n      sload\n      swap1\n      0x0100\n      exp\n      swap1\n      div\n      0xff\n      and\n        /* \"Subscribe.sol\":2023:2054  subscribeState[_owner] != false */\n      iszero\n      iszero\n      sub\n        /* \"Subscribe.sol\":2015:2080  require(subscribeState[_owner] != false, \"Subscribe Our Service\") */\n      tag_97\n      jumpi\n      mload(0x40)\n      0x08c379a000000000000000000000000000000000000000000000000000000000\n      dup2\n      mstore\n      0x04\n      add\n      tag_98\n      swap1\n      tag_99\n      jump\t// in\n    tag_98:\n      mload(0x40)\n      dup1\n      swap2\n      sub\n      swap1\n      revert\n    tag_97:\n        /* \"Subscribe.sol\":2097:2109  firstPayment */\n      sload(0x01)\n        /* \"Subscribe.sol\":2090:2109  return firstPayment */\n      swap1\n      pop\n        /* \"Subscribe.sol\":1940:2116  function firstTimestamp(address _owner) public view returns(uint){... */\n      swap2\n      swap1\n      pop\n      jump\t// out\n        /* \"Subscribe.sol\":1200:1435  function transferFrom(... */\n    tag_37:\n        /* \"Subscribe.sol\":1318:1322  bool */\n      0x00\n        /* \"Subscribe.sol\":1334:1372  spendAllowance(from, approver, amount) */\n      tag_101\n        /* \"Subscribe.sol\":1349:1353  from */\n      dup5\n        /* \"Subscribe.sol\":1355:1363  approver */\n      0x04\n      0x00\n      swap1\n      sload\n      swap1\n      0x0100\n      exp\n      swap1\n      div\n      0xffffffffffffffffffffffffffffffffffffffff\n      and\n        /* \"Subscribe.sol\":1365:1371  amount */\n      dup5\n        /* \"Subscribe.sol\":1334:1348  spendAllowance */\n      tag_82\n        /* \"Subscribe.sol\":1334:1372  spendAllowance(from, approver, amount) */\n      jump\t// in\n    tag_101:\n        /* \"Subscribe.sol\":1382:1407  _transfer(from,to,amount) */\n      tag_102\n        /* \"Subscribe.sol\":1392:1396  from */\n      dup5\n        /* \"Subscribe.sol\":1397:1399  to */\n      dup5\n        /* \"Subscribe.sol\":1400:1406  amount */\n      dup5\n        /* \"Subscribe.sol\":1382:1391  _transfer */\n      tag_103\n        /* \"Subscribe.sol\":1382:1407  _transfer(from,to,amount) */\n      jump\t// in\n    tag_102:\n        /* \"Subscribe.sol\":1424:1428  true */\n      0x01\n        /* \"Subscribe.sol\":1417:1428  return true */\n      swap1\n      pop\n        /* \"Subscribe.sol\":1200:1435  function transferFrom(... */\n      swap4\n      swap3\n      pop\n      pop\n      pop\n      jump\t// out\n        /* \"Subscribe.sol\":784:889  function setUserState(address _owner, bool _state) public{... */\n    tag_44:\n        /* \"Subscribe.sol\":876:882  _state */\n      dup1\n        /* \"Subscribe.sol\":851:865  subscribeState */\n      0x06\n        /* \"Subscribe.sol\":851:873  subscribeState[_owner] */\n      0x00\n        /* \"Subscribe.sol\":866:872  _owner */\n      dup5\n        /* \"Subscribe.sol\":851:873  subscribeState[_owner] */\n      0xffffffffffffffffffffffffffffffffffffffff\n      and\n      0xffffffffffffffffffffffffffffffffffffffff\n      and\n      dup2\n      mstore\n      0x20\n      add\n      swap1\n      dup2\n      mstore\n      0x20\n      add\n      0x00\n      keccak256\n      0x00\n        /* \"Subscribe.sol\":851:882  subscribeState[_owner] = _state */\n      0x0100\n      exp\n      dup2\n      sload\n      dup2\n      0xff\n      mul\n      not\n      and\n      swap1\n      dup4\n      iszero\n      iszero\n      mul\n      or\n      swap1\n      sstore\n      pop\n        /* \"Subscribe.sol\":784:889  function setUserState(address _owner, bool _state) public{... */\n      pop\n      pop\n      jump\t// out\n        /* \"Subscribe.sol\":2528:2787  function withdrawSubscribe(address payable _owner) public payable{... */\n    tag_48:\n        /* \"Subscribe.sol\":2603:2614  uint refund */\n      0x00\n        /* \"Subscribe.sol\":2618:2627  sub_price */\n      sload(0x05)\n        /* \"Subscribe.sol\":2603:2627  uint refund =  sub_price */\n      swap1\n      pop\n        /* \"Subscribe.sol\":2676:2685  1 minutes */\n      0x3c\n        /* \"Subscribe.sol\":2664:2675  nextPayment */\n      sload(0x02)\n        /* \"Subscribe.sol\":2664:2685  nextPayment+1 minutes */\n      tag_106\n      swap2\n      swap1\n      tag_107\n      jump\t// in\n    tag_106:\n        /* \"Subscribe.sol\":2645:2660  block.timestamp */\n      timestamp\n        /* \"Subscribe.sol\":2645:2685  block.timestamp <= nextPayment+1 minutes */\n      gt\n      iszero\n        /* \"Subscribe.sol\":2637:2686  require(block.timestamp <= nextPayment+1 minutes) */\n      tag_108\n      jumpi\n      0x00\n      dup1\n      revert\n    tag_108:\n        /* \"Subscribe.sol\":2713:2723  msg.sender */\n      caller\n        /* \"Subscribe.sol\":2705:2733  payable(msg.sender).transfer */\n      0xffffffffffffffffffffffffffffffffffffffff\n      and\n        /* \"Subscribe.sol\":2705:2741  payable(msg.sender).transfer(refund) */\n      0x08fc\n        /* \"Subscribe.sol\":2734:2740  refund */\n      dup3\n        /* \"Subscribe.sol\":2705:2741  payable(msg.sender).transfer(refund) */\n      swap1\n      dup2\n      iszero\n      mul\n      swap1\n      mload(0x40)\n      0x00\n      mload(0x40)\n      dup1\n      dup4\n      sub\n      dup2\n      dup6\n      dup9\n      dup9\n      call\n      swap4\n      pop\n      pop\n      pop\n      pop\n      iszero\n      dup1\n      iszero\n      tag_110\n      jumpi\n      returndatasize\n      0x00\n      dup1\n      returndatacopy\n      revert(0x00, returndatasize)\n    tag_110:\n      pop\n        /* \"Subscribe.sol\":2752:2779  setUserState(_owner, false) */\n      tag_111\n        /* \"Subscribe.sol\":2765:2771  _owner */\n      dup3\n        /* \"Subscribe.sol\":2773:2778  false */\n      0x00\n        /* \"Subscribe.sol\":2752:2764  setUserState */\n      tag_44\n        /* \"Subscribe.sol\":2752:2779  setUserState(_owner, false) */\n      jump\t// in\n    tag_111:\n        /* \"Subscribe.sol\":2593:2787  {... */\n      pop\n        /* \"Subscribe.sol\":2528:2787  function withdrawSubscribe(address payable _owner) public payable{... */\n      pop\n      jump\t// out\n        /* \"Subscribe.sol\":1441:1934  function subscribe(address _to) public payable{... */\n    tag_51:\n        /* \"Subscribe.sol\":1511:1514  _to */\n      dup1\n        /* \"Subscribe.sol\":1497:1508  marketOwner */\n      0x03\n      0x00\n        /* \"Subscribe.sol\":1497:1514  marketOwner = _to */\n      0x0100\n      exp\n      dup2\n      sload\n      dup2\n      0xffffffffffffffffffffffffffffffffffffffff\n      mul\n      not\n      and\n      swap1\n      dup4\n      0xffffffffffffffffffffffffffffffffffffffff\n      and\n      mul\n      or\n      swap1\n      sstore\n      pop\n        /* \"Subscribe.sol\":1543:1547  this */\n      address\n        /* \"Subscribe.sol\":1524:1532  approver */\n      0x04\n      0x00\n        /* \"Subscribe.sol\":1524:1548  approver = address(this) */\n      0x0100\n      exp\n      dup2\n      sload\n      dup2\n      0xffffffffffffffffffffffffffffffffffffffff\n      mul\n      not\n      and\n      swap1\n      dup4\n      0xffffffffffffffffffffffffffffffffffffffff\n      and\n      mul\n      or\n      swap1\n      sstore\n      pop\n        /* \"Subscribe.sol\":1559:1588  setUserState(msg.sender,true) */\n      tag_113\n        /* \"Subscribe.sol\":1572:1582  msg.sender */\n      caller\n        /* \"Subscribe.sol\":1583:1587  true */\n      0x01\n        /* \"Subscribe.sol\":1559:1571  setUserState */\n      tag_44\n        /* \"Subscribe.sol\":1559:1588  setUserState(msg.sender,true) */\n      jump\t// in\n    tag_113:\n        /* \"Subscribe.sol\":1626:1635  sub_price */\n      sload(0x05)\n        /* \"Subscribe.sol\":1613:1622  msg.value */\n      callvalue\n        /* \"Subscribe.sol\":1613:1635  msg.value >= sub_price */\n      lt\n      iszero\n        /* \"Subscribe.sol\":1605:1665  require(msg.value >= sub_price, \"Please charge your wallet\") */\n      tag_114\n      jumpi\n      mload(0x40)\n      0x08c379a000000000000000000000000000000000000000000000000000000000\n      dup2\n      mstore\n      0x04\n      add\n      tag_115\n      swap1\n      tag_116\n      jump\t// in\n    tag_115:\n      mload(0x40)\n      dup1\n      swap2\n      sub\n      swap1\n      revert\n    tag_114:\n        /* \"Subscribe.sol\":1683:1720  isApprovedForAll(msg.sender,approver) */\n      tag_117\n        /* \"Subscribe.sol\":1700:1710  msg.sender */\n      caller\n        /* \"Subscribe.sol\":1711:1719  approver */\n      0x04\n      0x00\n      swap1\n      sload\n      swap1\n      0x0100\n      exp\n      swap1\n      div\n      0xffffffffffffffffffffffffffffffffffffffff\n      and\n        /* \"Subscribe.sol\":1683:1699  isApprovedForAll */\n      tag_90\n        /* \"Subscribe.sol\":1683:1720  isApprovedForAll(msg.sender,approver) */\n      jump\t// in\n    tag_117:\n        /* \"Subscribe.sol\":1675:1721  require(isApprovedForAll(msg.sender,approver)) */\n      tag_118\n      jumpi\n      0x00\n      dup1\n      revert\n    tag_118:\n        /* \"Subscribe.sol\":1748:1758  msg.sender */\n      caller\n        /* \"Subscribe.sol\":1740:1768  payable(msg.sender).transfer */\n      0xffffffffffffffffffffffffffffffffffffffff\n      and\n        /* \"Subscribe.sol\":1740:1779  payable(msg.sender).transfer(msg.value) */\n      0x08fc\n        /* \"Subscribe.sol\":1769:1778  msg.value */\n      callvalue\n        /* \"Subscribe.sol\":1740:1779  payable(msg.sender).transfer(msg.value) */\n      swap1\n      dup2\n      iszero\n      mul\n      swap1\n      mload(0x40)\n      0x00\n      mload(0x40)\n      dup1\n      dup4\n      sub\n      dup2\n      dup6\n      dup9\n      dup9\n      call\n      swap4\n      pop\n      pop\n      pop\n      pop\n      iszero\n      dup1\n      iszero\n      tag_120\n      jumpi\n      returndatasize\n      0x00\n      dup1\n      returndatacopy\n      revert(0x00, returndatasize)\n    tag_120:\n      pop\n        /* \"Subscribe.sol\":1790:1834  transferFrom(approver,marketOwner,sub_price) */\n      tag_121\n        /* \"Subscribe.sol\":1803:1811  approver */\n      0x04\n      0x00\n      swap1\n      sload\n      swap1\n      0x0100\n      exp\n      swap1\n      div\n      0xffffffffffffffffffffffffffffffffffffffff\n      and\n        /* \"Subscribe.sol\":1812:1823  marketOwner */\n      0x03\n      0x00\n      swap1\n      sload\n      swap1\n      0x0100\n      exp\n      swap1\n      div\n      0xffffffffffffffffffffffffffffffffffffffff\n      and\n        /* \"Subscribe.sol\":1824:1833  sub_price */\n      sload(0x05)\n        /* \"Subscribe.sol\":1790:1802  transferFrom */\n      tag_37\n        /* \"Subscribe.sol\":1790:1834  transferFrom(approver,marketOwner,sub_price) */\n      jump\t// in\n    tag_121:\n      pop\n        /* \"Subscribe.sol\":1860:1875  block.timestamp */\n      timestamp\n        /* \"Subscribe.sol\":1845:1857  firstPayment */\n      0x01\n        /* \"Subscribe.sol\":1845:1875  firstPayment = block.timestamp */\n      dup2\n      swap1\n      sstore\n      pop\n        /* \"Subscribe.sol\":1918:1927  1 minutes */\n      0x3c\n        /* \"Subscribe.sol\":1903:1915  firstPayment */\n      sload(0x01)\n        /* \"Subscribe.sol\":1903:1927  firstPayment + 1 minutes */\n      tag_122\n      swap2\n      swap1\n      tag_107\n      jump\t// in\n    tag_122:\n        /* \"Subscribe.sol\":1889:1900  nextPayment */\n      0x02\n        /* \"Subscribe.sol\":1889:1927  nextPayment = firstPayment + 1 minutes */\n      dup2\n      swap1\n      sstore\n      pop\n        /* \"Subscribe.sol\":1441:1934  function subscribe(address _to) public payable{... */\n      pop\n      jump\t// out\n        /* \"node_modules/openzeppelin-solidity/contracts/access/Ownable.sol\":1668:1769  function renounceOwnership() public virtual onlyOwner {... */\n    tag_54:\n        /* \"node_modules/openzeppelin-solidity/contracts/access/Ownable.sol\":1259:1271  _msgSender() */\n      tag_124\n        /* \"node_modules/openzeppelin-solidity/contracts/access/Ownable.sol\":1259:1269  _msgSender */\n      tag_125\n        /* \"node_modules/openzeppelin-solidity/contracts/access/Ownable.sol\":1259:1271  _msgSender() */\n      jump\t// in\n    tag_124:\n        /* \"node_modules/openzeppelin-solidity/contracts/access/Ownable.sol\":1248:1271  owner() == _msgSender() */\n      0xffffffffffffffffffffffffffffffffffffffff\n      and\n        /* \"node_modules/openzeppelin-solidity/contracts/access/Ownable.sol\":1248:1255  owner() */\n      tag_126\n        /* \"node_modules/openzeppelin-solidity/contracts/access/Ownable.sol\":1248:1253  owner */\n      tag_57\n        /* \"node_modules/openzeppelin-solidity/contracts/access/Ownable.sol\":1248:1255  owner() */\n      jump\t// in\n    tag_126:\n        /* \"node_modules/openzeppelin-solidity/contracts/access/Ownable.sol\":1248:1271  owner() == _msgSender() */\n      0xffffffffffffffffffffffffffffffffffffffff\n      and\n      eq\n        /* \"node_modules/openzeppelin-solidity/contracts/access/Ownable.sol\":1240:1308  require(owner() == _msgSender(), \"Ownable: caller is not the owner\") */\n      tag_127\n      jumpi\n      mload(0x40)\n      0x08c379a000000000000000000000000000000000000000000000000000000000\n      dup2\n      mstore\n      0x04\n      add\n      tag_128\n      swap1\n      tag_129\n      jump\t// in\n    tag_128:\n      mload(0x40)\n      dup1\n      swap2\n      sub\n      swap1\n      revert\n    tag_127:\n        /* \"node_modules/openzeppelin-solidity/contracts/access/Ownable.sol\":1732:1762  _transferOwnership(address(0)) */\n      tag_131\n        /* \"node_modules/openzeppelin-solidity/contracts/access/Ownable.sol\":1759:1760  0 */\n      0x00\n        /* \"node_modules/openzeppelin-solidity/contracts/access/Ownable.sol\":1732:1750  _transferOwnership */\n      tag_132\n        /* \"node_modules/openzeppelin-solidity/contracts/access/Ownable.sol\":1732:1762  _transferOwnership(address(0)) */\n      jump\t// in\n    tag_131:\n        /* \"node_modules/openzeppelin-solidity/contracts/access/Ownable.sol\":1668:1769  function renounceOwnership() public virtual onlyOwner {... */\n      jump\t// out\n        /* \"node_modules/openzeppelin-solidity/contracts/access/Ownable.sol\":1036:1121  function owner() public view virtual returns (address) {... */\n    tag_57:\n        /* \"node_modules/openzeppelin-solidity/contracts/access/Ownable.sol\":1082:1089  address */\n      0x00\n        /* \"node_modules/openzeppelin-solidity/contracts/access/Ownable.sol\":1108:1114  _owner */\n      dup1\n      0x00\n      swap1\n      sload\n      swap1\n      0x0100\n      exp\n      swap1\n      div\n      0xffffffffffffffffffffffffffffffffffffffff\n      and\n        /* \"node_modules/openzeppelin-solidity/contracts/access/Ownable.sol\":1101:1114  return _owner */\n      swap1\n      pop\n        /* \"node_modules/openzeppelin-solidity/contracts/access/Ownable.sol\":1036:1121  function owner() public view virtual returns (address) {... */\n      swap1\n      jump\t// out\n        /* \"Subscribe.sol\":379:413  uint256 public sub_price = 1 ether */\n    tag_61:\n      sload(0x05)\n      dup2\n      jump\t// out\n        /* \"Subscribe.sol\":2122:2296  function nextTimestamp(address _owner) public view returns(uint){... */\n    tag_66:\n        /* \"Subscribe.sol\":2181:2185  uint */\n      0x00\n        /* \"Subscribe.sol\":2230:2235  false */\n      dup1\n        /* \"Subscribe.sol\":2204:2235  subscribeState[_owner] != false */\n      iszero\n      iszero\n        /* \"Subscribe.sol\":2204:2218  subscribeState */\n      0x06\n        /* \"Subscribe.sol\":2204:2226  subscribeState[_owner] */\n      0x00\n        /* \"Subscribe.sol\":2219:2225  _owner */\n      dup5\n        /* \"Subscribe.sol\":2204:2226  subscribeState[_owner] */\n      0xffffffffffffffffffffffffffffffffffffffff\n      and\n      0xffffffffffffffffffffffffffffffffffffffff\n      and\n      dup2\n      mstore\n      0x20\n      add\n      swap1\n      dup2\n      mstore\n      0x20\n      add\n      0x00\n      keccak256\n      0x00\n      swap1\n      sload\n      swap1\n      0x0100\n      exp\n      swap1\n      div\n      0xff\n      and\n        /* \"Subscribe.sol\":2204:2235  subscribeState[_owner] != false */\n      iszero\n      iszero\n      sub\n        /* \"Subscribe.sol\":2196:2261  require(subscribeState[_owner] != false, \"Subscribe Our Service\") */\n      tag_135\n      jumpi\n      mload(0x40)\n      0x08c379a000000000000000000000000000000000000000000000000000000000\n      dup2\n      mstore\n      0x04\n      add\n      tag_136\n      swap1\n      tag_99\n      jump\t// in\n    tag_136:\n      mload(0x40)\n      dup1\n      swap2\n      sub\n      swap1\n      revert\n    tag_135:\n        /* \"Subscribe.sol\":2278:2289  nextPayment */\n      sload(0x02)\n        /* \"Subscribe.sol\":2271:2289  return nextPayment */\n      swap1\n      pop\n        /* \"Subscribe.sol\":2122:2296  function nextTimestamp(address _owner) public view returns(uint){... */\n      swap2\n      swap1\n      pop\n      jump\t// out\n        /* \"Subscribe.sol\":420:466  mapping(address => bool) public subscribeState */\n    tag_71:\n      mstore(0x20, 0x06)\n      dup1\n      0x00\n      mstore\n      keccak256(0x00, 0x40)\n      0x00\n      swap2\n      pop\n      sload\n      swap1\n      0x0100\n      exp\n      swap1\n      div\n      0xff\n      and\n      dup2\n      jump\t// out\n        /* \"Subscribe.sol\":3517:3657  function allowance(address owner, address spender) public view virtual returns (uint256) {... */\n    tag_77:\n        /* \"Subscribe.sol\":3597:3604  uint256 */\n      0x00\n        /* \"Subscribe.sol\":3623:3634  _allowances */\n      0x07\n        /* \"Subscribe.sol\":3623:3641  _allowances[owner] */\n      0x00\n        /* \"Subscribe.sol\":3635:3640  owner */\n      dup5\n        /* \"Subscribe.sol\":3623:3641  _allowances[owner] */\n      0xffffffffffffffffffffffffffffffffffffffff\n      and\n      0xffffffffffffffffffffffffffffffffffffffff\n      and\n      dup2\n      mstore\n      0x20\n      add\n      swap1\n      dup2\n      mstore\n      0x20\n      add\n      0x00\n      keccak256\n        /* \"Subscribe.sol\":3623:3650  _allowances[owner][spender] */\n      0x00\n        /* \"Subscribe.sol\":3642:3649  spender */\n      dup4\n        /* \"Subscribe.sol\":3623:3650  _allowances[owner][spender] */\n      0xffffffffffffffffffffffffffffffffffffffff\n      and\n      0xffffffffffffffffffffffffffffffffffffffff\n      and\n      dup2\n      mstore\n      0x20\n      add\n      swap1\n      dup2\n      mstore\n      0x20\n      add\n      0x00\n      keccak256\n      sload\n        /* \"Subscribe.sol\":3616:3650  return _allowances[owner][spender] */\n      swap1\n      pop\n        /* \"Subscribe.sol\":3517:3657  function allowance(address owner, address spender) public view virtual returns (uint256) {... */\n      swap3\n      swap2\n      pop\n      pop\n      jump\t// out\n        /* \"Subscribe.sol\":3663:4101  function spendAllowance(... */\n    tag_82:\n        /* \"Subscribe.sol\":3790:3814  uint256 currentAllowance */\n      0x00\n        /* \"Subscribe.sol\":3817:3842  allowance(owner, spender) */\n      tag_139\n        /* \"Subscribe.sol\":3827:3832  owner */\n      dup5\n        /* \"Subscribe.sol\":3834:3841  spender */\n      dup5\n        /* \"Subscribe.sol\":3817:3826  allowance */\n      tag_77\n        /* \"Subscribe.sol\":3817:3842  allowance(owner, spender) */\n      jump\t// in\n    tag_139:\n        /* \"Subscribe.sol\":3790:3842  uint256 currentAllowance = allowance(owner, spender) */\n      swap1\n      pop\n        /* \"Subscribe.sol\":3876:3893  type(uint256).max */\n      0xffffffffffffffffffffffffffffffffffffffffffffffffffffffffffffffff\n        /* \"Subscribe.sol\":3856:3872  currentAllowance */\n      dup2\n        /* \"Subscribe.sol\":3856:3893  currentAllowance != type(uint256).max */\n      eq\n        /* \"Subscribe.sol\":3852:4095  if (currentAllowance != type(uint256).max) {... */\n      tag_140\n      jumpi\n        /* \"Subscribe.sol\":3937:3943  amount */\n      dup2\n        /* \"Subscribe.sol\":3917:3933  currentAllowance */\n      dup2\n        /* \"Subscribe.sol\":3917:3943  currentAllowance >= amount */\n      lt\n      iszero\n        /* \"Subscribe.sol\":3909:3977  require(currentAllowance >= amount, \"ERC20: insufficient allowance\") */\n      tag_141\n      jumpi\n      mload(0x40)\n      0x08c379a000000000000000000000000000000000000000000000000000000000\n      dup2\n      mstore\n      0x04\n      add\n      tag_142\n      swap1\n      tag_143\n      jump\t// in\n    tag_142:\n      mload(0x40)\n      dup1\n      swap2\n      sub\n      swap1\n      revert\n    tag_141:\n        /* \"Subscribe.sol\":4019:4070  _approve(owner, spender, currentAllowance - amount) */\n      tag_144\n        /* \"Subscribe.sol\":4028:4033  owner */\n      dup5\n        /* \"Subscribe.sol\":4035:4042  spender */\n      dup5\n        /* \"Subscribe.sol\":4063:4069  amount */\n      dup5\n        /* \"Subscribe.sol\":4044:4060  currentAllowance */\n      dup5\n        /* \"Subscribe.sol\":4044:4069  currentAllowance - amount */\n      sub\n        /* \"Subscribe.sol\":4019:4027  _approve */\n      tag_145\n        /* \"Subscribe.sol\":4019:4070  _approve(owner, spender, currentAllowance - amount) */\n      jump\t// in\n    tag_144:\n        /* \"Subscribe.sol\":3852:4095  if (currentAllowance != type(uint256).max) {... */\n    tag_140:\n        /* \"Subscribe.sol\":3780:4101  {... */\n      pop\n        /* \"Subscribe.sol\":3663:4101  function spendAllowance(... */\n      pop\n      pop\n      pop\n      jump\t// out\n        /* \"Subscribe.sol\":2303:2515  function cancelSubscribe(address payable _owner) public{... */\n    tag_86:\n        /* \"Subscribe.sol\":2389:2400  nextPayment */\n      sload(0x02)\n        /* \"Subscribe.sol\":2371:2386  block.timestamp */\n      timestamp\n        /* \"Subscribe.sol\":2371:2400  block.timestamp < nextPayment */\n      lt\n        /* \"Subscribe.sol\":2368:2509  if(block.timestamp < nextPayment){... */\n      iszero\n      tag_147\n      jumpi\n        /* \"Subscribe.sol\":2415:2442  setUserState(_owner, false) */\n      tag_148\n        /* \"Subscribe.sol\":2428:2434  _owner */\n      dup2\n        /* \"Subscribe.sol\":2436:2441  false */\n      0x00\n        /* \"Subscribe.sol\":2415:2427  setUserState */\n      tag_44\n        /* \"Subscribe.sol\":2415:2442  setUserState(_owner, false) */\n      jump\t// in\n    tag_148:\n        /* \"Subscribe.sol\":2368:2509  if(block.timestamp < nextPayment){... */\n      jump(tag_149)\n    tag_147:\n        /* \"Subscribe.sol\":2473:2498  withdrawSubscribe(_owner) */\n      tag_150\n        /* \"Subscribe.sol\":2491:2497  _owner */\n      dup2\n        /* \"Subscribe.sol\":2473:2490  withdrawSubscribe */\n      tag_48\n        /* \"Subscribe.sol\":2473:2498  withdrawSubscribe(_owner) */\n      jump\t// in\n    tag_150:\n        /* \"Subscribe.sol\":2368:2509  if(block.timestamp < nextPayment){... */\n    tag_149:\n        /* \"Subscribe.sol\":2303:2515  function cancelSubscribe(address payable _owner) public{... */\n      pop\n      jump\t// out\n        /* \"Subscribe.sol\":2793:2946  function isApprovedForAll(address owner, address operator) public view virtual returns (bool) {... */\n    tag_90:\n        /* \"Subscribe.sol\":2881:2885  bool */\n      0x00\n        /* \"Subscribe.sol\":2904:2922  _operatorApprovals */\n      0x08\n        /* \"Subscribe.sol\":2904:2929  _operatorApprovals[owner] */\n      0x00\n        /* \"Subscribe.sol\":2923:2928  owner */\n      dup5\n        /* \"Subscribe.sol\":2904:2929  _operatorApprovals[owner] */\n      0xffffffffffffffffffffffffffffffffffffffff\n      and\n      0xffffffffffffffffffffffffffffffffffffffff\n      and\n      dup2\n      mstore\n      0x20\n      add\n      swap1\n      dup2\n      mstore\n      0x20\n      add\n      0x00\n      keccak256\n        /* \"Subscribe.sol\":2904:2939  _operatorApprovals[owner][operator] */\n      0x00\n        /* \"Subscribe.sol\":2930:2938  operator */\n      dup4\n        /* \"Subscribe.sol\":2904:2939  _operatorApprovals[owner][operator] */\n      0xffffffffffffffffffffffffffffffffffffffff\n      and\n      0xffffffffffffffffffffffffffffffffffffffff\n      and\n      dup2\n      mstore\n      0x20\n      add\n      swap1\n      dup2\n      mstore\n      0x20\n      add\n      0x00\n      keccak256\n      0x00\n      swap1\n      sload\n      swap1\n      0x0100\n      exp\n      swap1\n      div\n      0xff\n      and\n        /* \"Subscribe.sol\":2897:2939  return _operatorApprovals[owner][operator] */\n      swap1\n      pop\n        /* \"Subscribe.sol\":2793:2946  function isApprovedForAll(address owner, address operator) public view virtual returns (bool) {... */\n      swap3\n      swap2\n      pop\n      pop\n      jump\t// out\n        /* \"node_modules/openzeppelin-solidity/contracts/access/Ownable.sol\":1918:2116  function transferOwnership(address newOwner) public virtual onlyOwner {... */\n    tag_95:\n        /* \"node_modules/openzeppelin-solidity/contracts/access/Ownable.sol\":1259:1271  _msgSender() */\n      tag_153\n        /* \"node_modules/openzeppelin-solidity/contracts/access/Ownable.sol\":1259:1269  _msgSender */\n      tag_125\n        /* \"node_modules/openzeppelin-solidity/contracts/access/Ownable.sol\":1259:1271  _msgSender() */\n      jump\t// in\n    tag_153:\n        /* \"node_modules/openzeppelin-solidity/contracts/access/Ownable.sol\":1248:1271  owner() == _msgSender() */\n      0xffffffffffffffffffffffffffffffffffffffff\n      and\n        /* \"node_modules/openzeppelin-solidity/contracts/access/Ownable.sol\":1248:1255  owner() */\n      tag_154\n        /* \"node_modules/openzeppelin-solidity/contracts/access/Ownable.sol\":1248:1253  owner */\n      tag_57\n        /* \"node_modules/openzeppelin-solidity/contracts/access/Ownable.sol\":1248:1255  owner() */\n      jump\t// in\n    tag_154:\n        /* \"node_modules/openzeppelin-solidity/contracts/access/Ownable.sol\":1248:1271  owner() == _msgSender() */\n      0xffffffffffffffffffffffffffffffffffffffff\n      and\n      eq\n        /* \"node_modules/openzeppelin-solidity/contracts/access/Ownable.sol\":1240:1308  require(owner() == _msgSender(), \"Ownable: caller is not the owner\") */\n      tag_155\n      jumpi\n      mload(0x40)\n      0x08c379a000000000000000000000000000000000000000000000000000000000\n      dup2\n      mstore\n      0x04\n      add\n      tag_156\n      swap1\n      tag_129\n      jump\t// in\n    tag_156:\n      mload(0x40)\n      dup1\n      swap2\n      sub\n      swap1\n      revert\n    tag_155:\n        /* \"node_modules/openzeppelin-solidity/contracts/access/Ownable.sol\":2026:2027  0 */\n      0x00\n        /* \"node_modules/openzeppelin-solidity/contracts/access/Ownable.sol\":2006:2028  newOwner != address(0) */\n      0xffffffffffffffffffffffffffffffffffffffff\n      and\n        /* \"node_modules/openzeppelin-solidity/contracts/access/Ownable.sol\":2006:2014  newOwner */\n      dup2\n        /* \"node_modules/openzeppelin-solidity/contracts/access/Ownable.sol\":2006:2028  newOwner != address(0) */\n      0xffffffffffffffffffffffffffffffffffffffff\n      and\n      sub\n        /* \"node_modules/openzeppelin-solidity/contracts/access/Ownable.sol\":1998:2071  require(newOwner != address(0), \"Ownable: new owner is the zero address\") */\n      tag_158\n      jumpi\n      mload(0x40)\n      0x08c379a000000000000000000000000000000000000000000000000000000000\n      dup2\n      mstore\n      0x04\n      add\n      tag_159\n      swap1\n      tag_160\n      jump\t// in\n    tag_159:\n      mload(0x40)\n      dup1\n      swap2\n      sub\n      swap1\n      revert\n    tag_158:\n        /* \"node_modules/openzeppelin-solidity/contracts/access/Ownable.sol\":2081:2109  _transferOwnership(newOwner) */\n      tag_161\n        /* \"node_modules/openzeppelin-solidity/contracts/access/Ownable.sol\":2100:2108  newOwner */\n      dup2\n        /* \"node_modules/openzeppelin-solidity/contracts/access/Ownable.sol\":2081:2099  _transferOwnership */\n      tag_132\n        /* \"node_modules/openzeppelin-solidity/contracts/access/Ownable.sol\":2081:2109  _transferOwnership(newOwner) */\n      jump\t// in\n    tag_161:\n        /* \"node_modules/openzeppelin-solidity/contracts/access/Ownable.sol\":1918:2116  function transferOwnership(address newOwner) public virtual onlyOwner {... */\n      pop\n      jump\t// out\n        /* \"Subscribe.sol\":895:1190  function _transfer(... */\n    tag_103:\n        /* \"Subscribe.sol\":1037:1038  0 */\n      0x00\n        /* \"Subscribe.sol\":1021:1039  from != address(0) */\n      0xffffffffffffffffffffffffffffffffffffffff\n      and\n        /* \"Subscribe.sol\":1021:1025  from */\n      dup4\n        /* \"Subscribe.sol\":1021:1039  from != address(0) */\n      0xffffffffffffffffffffffffffffffffffffffff\n      and\n      sub\n        /* \"Subscribe.sol\":1013:1074  require(from != address(0), \"transfer from the zero address\") */\n      tag_163\n      jumpi\n      mload(0x40)\n      0x08c379a000000000000000000000000000000000000000000000000000000000\n      dup2\n      mstore\n      0x04\n      add\n      tag_164\n      swap1\n      tag_165\n      jump\t// in\n    tag_164:\n      mload(0x40)\n      dup1\n      swap2\n      sub\n      swap1\n      revert\n    tag_163:\n        /* \"Subscribe.sol\":1106:1107  0 */\n      0x00\n        /* \"Subscribe.sol\":1092:1108  to != address(0) */\n      0xffffffffffffffffffffffffffffffffffffffff\n      and\n        /* \"Subscribe.sol\":1092:1094  to */\n      dup3\n        /* \"Subscribe.sol\":1092:1108  to != address(0) */\n      0xffffffffffffffffffffffffffffffffffffffff\n      and\n      sub\n        /* \"Subscribe.sol\":1084:1141  require(to != address(0), \"transfer to the zero address\") */\n      tag_166\n      jumpi\n      mload(0x40)\n      0x08c379a000000000000000000000000000000000000000000000000000000000\n      dup2\n      mstore\n      0x04\n      add\n      tag_167\n      swap1\n      tag_168\n      jump\t// in\n    tag_167:\n      mload(0x40)\n      dup1\n      swap2\n      sub\n      swap1\n      revert\n    tag_166:\n        /* \"Subscribe.sol\":1172:1174  to */\n      dup2\n        /* \"Subscribe.sol\":1157:1183  Transfer(from, to, amount) */\n      0xffffffffffffffffffffffffffffffffffffffff\n      and\n        /* \"Subscribe.sol\":1166:1170  from */\n      dup4\n        /* \"Subscribe.sol\":1157:1183  Transfer(from, to, amount) */\n      0xffffffffffffffffffffffffffffffffffffffff\n      and\n      0xddf252ad1be2c89b69c2b068fc378daa952ba7f163c4a11628f55a4df523b3ef\n        /* \"Subscribe.sol\":1176:1182  amount */\n      dup4\n        /* \"Subscribe.sol\":1157:1183  Transfer(from, to, amount) */\n      mload(0x40)\n      tag_169\n      swap2\n      swap1\n      tag_32\n      jump\t// in\n    tag_169:\n      mload(0x40)\n      dup1\n      swap2\n      sub\n      swap1\n      log3\n        /* \"Subscribe.sol\":895:1190  function _transfer(... */\n      pop\n      pop\n      pop\n      jump\t// out\n        /* \"node_modules/openzeppelin-solidity/contracts/utils/Context.sol\":640:736  function _msgSender() internal view virtual returns (address) {... */\n    tag_125:\n        /* \"node_modules/openzeppelin-solidity/contracts/utils/Context.sol\":693:700  address */\n      0x00\n        /* \"node_modules/openzeppelin-solidity/contracts/utils/Context.sol\":719:729  msg.sender */\n      caller\n        /* \"node_modules/openzeppelin-solidity/contracts/utils/Context.sol\":712:729  return msg.sender */\n      swap1\n      pop\n        /* \"node_modules/openzeppelin-solidity/contracts/utils/Context.sol\":640:736  function _msgSender() internal view virtual returns (address) {... */\n      swap1\n      jump\t// out\n        /* \"node_modules/openzeppelin-solidity/contracts/access/Ownable.sol\":2270:2457  function _transferOwnership(address newOwner) internal virtual {... */\n    tag_132:\n        /* \"node_modules/openzeppelin-solidity/contracts/access/Ownable.sol\":2343:2359  address oldOwner */\n      0x00\n        /* \"node_modules/openzeppelin-solidity/contracts/access/Ownable.sol\":2362:2368  _owner */\n      dup1\n      0x00\n      swap1\n      sload\n      swap1\n      0x0100\n      exp\n      swap1\n      div\n      0xffffffffffffffffffffffffffffffffffffffff\n      and\n        /* \"node_modules/openzeppelin-solidity/contracts/access/Ownable.sol\":2343:2368  address oldOwner = _owner */\n      swap1\n      pop\n        /* \"node_modules/openzeppelin-solidity/contracts/access/Ownable.sol\":2387:2395  newOwner */\n      dup2\n        /* \"node_modules/openzeppelin-solidity/contracts/access/Ownable.sol\":2378:2384  _owner */\n      0x00\n      dup1\n        /* \"node_modules/openzeppelin-solidity/contracts/access/Ownable.sol\":2378:2395  _owner = newOwner */\n      0x0100\n      exp\n      dup2\n      sload\n      dup2\n      0xffffffffffffffffffffffffffffffffffffffff\n      mul\n      not\n      and\n      swap1\n      dup4\n      0xffffffffffffffffffffffffffffffffffffffff\n      and\n      mul\n      or\n      swap1\n      sstore\n      pop\n        /* \"node_modules/openzeppelin-solidity/contracts/access/Ownable.sol\":2441:2449  newOwner */\n      dup2\n        /* \"node_modules/openzeppelin-solidity/contracts/access/Ownable.sol\":2410:2450  OwnershipTransferred(oldOwner, newOwner) */\n      0xffffffffffffffffffffffffffffffffffffffff\n      and\n        /* \"node_modules/openzeppelin-solidity/contracts/access/Ownable.sol\":2431:2439  oldOwner */\n      dup2\n        /* \"node_modules/openzeppelin-solidity/contracts/access/Ownable.sol\":2410:2450  OwnershipTransferred(oldOwner, newOwner) */\n      0xffffffffffffffffffffffffffffffffffffffff\n      and\n      0x8be0079c531659141344cd1fd0a4f28419497f9722a3daafe3b4186f6b6457e0\n      mload(0x40)\n      mload(0x40)\n      dup1\n      swap2\n      sub\n      swap1\n      log3\n        /* \"node_modules/openzeppelin-solidity/contracts/access/Ownable.sol\":2333:2457  {... */\n      pop\n        /* \"node_modules/openzeppelin-solidity/contracts/access/Ownable.sol\":2270:2457  function _transferOwnership(address newOwner) internal virtual {... */\n      pop\n      jump\t// out\n        /* \"Subscribe.sol\":3154:3511  function _approve(... */\n    tag_145:\n        /* \"Subscribe.sol\":3302:3303  0 */\n      0x00\n        /* \"Subscribe.sol\":3285:3304  owner != address(0) */\n      0xffffffffffffffffffffffffffffffffffffffff\n      and\n        /* \"Subscribe.sol\":3285:3290  owner */\n      dup4\n        /* \"Subscribe.sol\":3285:3304  owner != address(0) */\n      0xffffffffffffffffffffffffffffffffffffffff\n      and\n      sub\n        /* \"Subscribe.sol\":3277:3338  require(owner != address(0), \"approve from the zero address\") */\n      tag_173\n      jumpi\n      mload(0x40)\n      0x08c379a000000000000000000000000000000000000000000000000000000000\n      dup2\n      mstore\n      0x04\n      add\n      tag_174\n      swap1\n      tag_175\n      jump\t// in\n    tag_174:\n      mload(0x40)\n      dup1\n      swap2\n      sub\n      swap1\n      revert\n    tag_173:\n        /* \"Subscribe.sol\":3375:3376  0 */\n      0x00\n        /* \"Subscribe.sol\":3356:3377  spender != address(0) */\n      0xffffffffffffffffffffffffffffffffffffffff\n      and\n        /* \"Subscribe.sol\":3356:3363  spender */\n      dup3\n        /* \"Subscribe.sol\":3356:3377  spender != address(0) */\n      0xffffffffffffffffffffffffffffffffffffffff\n      and\n      sub\n        /* \"Subscribe.sol\":3348:3410  require(spender != address(0), \" approve to the zero address\") */\n      tag_176\n      jumpi\n      mload(0x40)\n      0x08c379a000000000000000000000000000000000000000000000000000000000\n      dup2\n      mstore\n      0x04\n      add\n      tag_177\n      swap1\n      tag_178\n      jump\t// in\n    tag_177:\n      mload(0x40)\n      dup1\n      swap2\n      sub\n      swap1\n      revert\n    tag_176:\n        /* \"Subscribe.sol\":3451:3457  amount */\n      dup1\n        /* \"Subscribe.sol\":3421:3432  _allowances */\n      0x07\n        /* \"Subscribe.sol\":3421:3439  _allowances[owner] */\n      0x00\n        /* \"Subscribe.sol\":3433:3438  owner */\n      dup6\n        /* \"Subscribe.sol\":3421:3439  _allowances[owner] */\n      0xffffffffffffffffffffffffffffffffffffffff\n      and\n      0xffffffffffffffffffffffffffffffffffffffff\n      and\n      dup2\n      mstore\n      0x20\n      add\n      swap1\n      dup2\n      mstore\n      0x20\n      add\n      0x00\n      keccak256\n        /* \"Subscribe.sol\":3421:3448  _allowances[owner][spender] */\n      0x00\n        /* \"Subscribe.sol\":3440:3447  spender */\n      dup5\n        /* \"Subscribe.sol\":3421:3448  _allowances[owner][spender] */\n      0xffffffffffffffffffffffffffffffffffffffff\n      and\n      0xffffffffffffffffffffffffffffffffffffffff\n      and\n      dup2\n      mstore\n      0x20\n      add\n      swap1\n      dup2\n      mstore\n      0x20\n      add\n      0x00\n      keccak256\n        /* \"Subscribe.sol\":3421:3457  _allowances[owner][spender] = amount */\n      dup2\n      swap1\n      sstore\n      pop\n        /* \"Subscribe.sol\":3488:3495  spender */\n      dup2\n        /* \"Subscribe.sol\":3472:3504  Approval(owner, spender, amount) */\n      0xffffffffffffffffffffffffffffffffffffffff\n      and\n        /* \"Subscribe.sol\":3481:3486  owner */\n      dup4\n        /* \"Subscribe.sol\":3472:3504  Approval(owner, spender, amount) */\n      0xffffffffffffffffffffffffffffffffffffffff\n      and\n      0x8c5be1e5ebec7d5bd14f71427d1e84f3dd0314c0f7b2291e5b200ac8c7c3b925\n        /* \"Subscribe.sol\":3497:3503  amount */\n      dup4\n        /* \"Subscribe.sol\":3472:3504  Approval(owner, spender, amount) */\n      mload(0x40)\n      tag_179\n      swap2\n      swap1\n      tag_32\n      jump\t// in\n    tag_179:\n      mload(0x40)\n      dup1\n      swap2\n      sub\n      swap1\n      log3\n        /* \"Subscribe.sol\":3154:3511  function _approve(... */\n      pop\n      pop\n      pop\n      jump\t// out\n        /* \"#utility.yul\":7:133   */\n    tag_180:\n        /* \"#utility.yul\":44:51   */\n      0x00\n        /* \"#utility.yul\":84:126   */\n      0xffffffffffffffffffffffffffffffffffffffff\n        /* \"#utility.yul\":77:82   */\n      dup3\n        /* \"#utility.yul\":73:127   */\n      and\n        /* \"#utility.yul\":62:127   */\n      swap1\n      pop\n        /* \"#utility.yul\":7:133   */\n      swap2\n      swap1\n      pop\n      jump\t// out\n        /* \"#utility.yul\":139:235   */\n    tag_181:\n        /* \"#utility.yul\":176:183   */\n      0x00\n        /* \"#utility.yul\":205:229   */\n      tag_222\n        /* \"#utility.yul\":223:228   */\n      dup3\n        /* \"#utility.yul\":205:229   */\n      tag_180\n      jump\t// in\n    tag_222:\n        /* \"#utility.yul\":194:229   */\n      swap1\n      pop\n        /* \"#utility.yul\":139:235   */\n      swap2\n      swap1\n      pop\n      jump\t// out\n        /* \"#utility.yul\":241:359   */\n    tag_182:\n        /* \"#utility.yul\":328:352   */\n      tag_224\n        /* \"#utility.yul\":346:351   */\n      dup2\n        /* \"#utility.yul\":328:352   */\n      tag_181\n      jump\t// in\n    tag_224:\n        /* \"#utility.yul\":323:326   */\n      dup3\n        /* \"#utility.yul\":316:353   */\n      mstore\n        /* \"#utility.yul\":241:359   */\n      pop\n      pop\n      jump\t// out\n        /* \"#utility.yul\":365:587   */\n    tag_25:\n        /* \"#utility.yul\":458:462   */\n      0x00\n        /* \"#utility.yul\":496:498   */\n      0x20\n        /* \"#utility.yul\":485:494   */\n      dup3\n        /* \"#utility.yul\":481:499   */\n      add\n        /* \"#utility.yul\":473:499   */\n      swap1\n      pop\n        /* \"#utility.yul\":509:580   */\n      tag_226\n        /* \"#utility.yul\":577:578   */\n      0x00\n        /* \"#utility.yul\":566:575   */\n      dup4\n        /* \"#utility.yul\":562:579   */\n      add\n        /* \"#utility.yul\":553:559   */\n      dup5\n        /* \"#utility.yul\":509:580   */\n      tag_182\n      jump\t// in\n    tag_226:\n        /* \"#utility.yul\":365:587   */\n      swap3\n      swap2\n      pop\n      pop\n      jump\t// out\n        /* \"#utility.yul\":674:791   */\n    tag_184:\n        /* \"#utility.yul\":783:784   */\n      0x00\n        /* \"#utility.yul\":780:781   */\n      dup1\n        /* \"#utility.yul\":773:785   */\n      revert\n        /* \"#utility.yul\":920:1042   */\n    tag_186:\n        /* \"#utility.yul\":993:1017   */\n      tag_231\n        /* \"#utility.yul\":1011:1016   */\n      dup2\n        /* \"#utility.yul\":993:1017   */\n      tag_181\n      jump\t// in\n    tag_231:\n        /* \"#utility.yul\":986:991   */\n      dup2\n        /* \"#utility.yul\":983:1018   */\n      eq\n        /* \"#utility.yul\":973:1036   */\n      tag_232\n      jumpi\n        /* \"#utility.yul\":1032:1033   */\n      0x00\n        /* \"#utility.yul\":1029:1030   */\n      dup1\n        /* \"#utility.yul\":1022:1034   */\n      revert\n        /* \"#utility.yul\":973:1036   */\n    tag_232:\n        /* \"#utility.yul\":920:1042   */\n      pop\n      jump\t// out\n        /* \"#utility.yul\":1048:1187   */\n    tag_187:\n        /* \"#utility.yul\":1094:1099   */\n      0x00\n        /* \"#utility.yul\":1132:1138   */\n      dup2\n        /* \"#utility.yul\":1119:1139   */\n      calldataload\n        /* \"#utility.yul\":1110:1139   */\n      swap1\n      pop\n        /* \"#utility.yul\":1148:1181   */\n      tag_234\n        /* \"#utility.yul\":1175:1180   */\n      dup2\n        /* \"#utility.yul\":1148:1181   */\n      tag_186\n      jump\t// in\n    tag_234:\n        /* \"#utility.yul\":1048:1187   */\n      swap3\n      swap2\n      pop\n      pop\n      jump\t// out\n        /* \"#utility.yul\":1193:1522   */\n    tag_29:\n        /* \"#utility.yul\":1252:1258   */\n      0x00\n        /* \"#utility.yul\":1301:1303   */\n      0x20\n        /* \"#utility.yul\":1289:1298   */\n      dup3\n        /* \"#utility.yul\":1280:1287   */\n      dup5\n        /* \"#utility.yul\":1276:1299   */\n      sub\n        /* \"#utility.yul\":1272:1304   */\n      slt\n        /* \"#utility.yul\":1269:1388   */\n      iszero\n      tag_236\n      jumpi\n        /* \"#utility.yul\":1307:1386   */\n      tag_237\n      tag_184\n      jump\t// in\n    tag_237:\n        /* \"#utility.yul\":1269:1388   */\n    tag_236:\n        /* \"#utility.yul\":1427:1428   */\n      0x00\n        /* \"#utility.yul\":1452:1505   */\n      tag_238\n        /* \"#utility.yul\":1497:1504   */\n      dup5\n        /* \"#utility.yul\":1488:1494   */\n      dup3\n        /* \"#utility.yul\":1477:1486   */\n      dup6\n        /* \"#utility.yul\":1473:1495   */\n      add\n        /* \"#utility.yul\":1452:1505   */\n      tag_187\n      jump\t// in\n    tag_238:\n        /* \"#utility.yul\":1442:1505   */\n      swap2\n      pop\n        /* \"#utility.yul\":1398:1515   */\n      pop\n        /* \"#utility.yul\":1193:1522   */\n      swap3\n      swap2\n      pop\n      pop\n      jump\t// out\n        /* \"#utility.yul\":1528:1605   */\n    tag_188:\n        /* \"#utility.yul\":1565:1572   */\n      0x00\n        /* \"#utility.yul\":1594:1599   */\n      dup2\n        /* \"#utility.yul\":1583:1599   */\n      swap1\n      pop\n        /* \"#utility.yul\":1528:1605   */\n      swap2\n      swap1\n      pop\n      jump\t// out\n        /* \"#utility.yul\":1611:1729   */\n    tag_189:\n        /* \"#utility.yul\":1698:1722   */\n      tag_241\n        /* \"#utility.yul\":1716:1721   */\n      dup2\n        /* \"#utility.yul\":1698:1722   */\n      tag_188\n      jump\t// in\n    tag_241:\n        /* \"#utility.yul\":1693:1696   */\n      dup3\n        /* \"#utility.yul\":1686:1723   */\n      mstore\n        /* \"#utility.yul\":1611:1729   */\n      pop\n      pop\n      jump\t// out\n        /* \"#utility.yul\":1735:1957   */\n    tag_32:\n        /* \"#utility.yul\":1828:1832   */\n      0x00\n        /* \"#utility.yul\":1866:1868   */\n      0x20\n        /* \"#utility.yul\":1855:1864   */\n      dup3\n        /* \"#utility.yul\":1851:1869   */\n      add\n        /* \"#utility.yul\":1843:1869   */\n      swap1\n      pop\n        /* \"#utility.yul\":1879:1950   */\n      tag_243\n        /* \"#utility.yul\":1947:1948   */\n      0x00\n        /* \"#utility.yul\":1936:1945   */\n      dup4\n        /* \"#utility.yul\":1932:1949   */\n      add\n        /* \"#utility.yul\":1923:1929   */\n      dup5\n        /* \"#utility.yul\":1879:1950   */\n      tag_189\n      jump\t// in\n    tag_243:\n        /* \"#utility.yul\":1735:1957   */\n      swap3\n      swap2\n      pop\n      pop\n      jump\t// out\n        /* \"#utility.yul\":1963:2085   */\n    tag_190:\n        /* \"#utility.yul\":2036:2060   */\n      tag_245\n        /* \"#utility.yul\":2054:2059   */\n      dup2\n        /* \"#utility.yul\":2036:2060   */\n      tag_188\n      jump\t// in\n    tag_245:\n        /* \"#utility.yul\":2029:2034   */\n      dup2\n        /* \"#utility.yul\":2026:2061   */\n      eq\n        /* \"#utility.yul\":2016:2079   */\n      tag_246\n      jumpi\n        /* \"#utility.yul\":2075:2076   */\n      0x00\n        /* \"#utility.yul\":2072:2073   */\n      dup1\n        /* \"#utility.yul\":2065:2077   */\n      revert\n        /* \"#utility.yul\":2016:2079   */\n    tag_246:\n        /* \"#utility.yul\":1963:2085   */\n      pop\n      jump\t// out\n        /* \"#utility.yul\":2091:2230   */\n    tag_191:\n        /* \"#utility.yul\":2137:2142   */\n      0x00\n        /* \"#utility.yul\":2175:2181   */\n      dup2\n        /* \"#utility.yul\":2162:2182   */\n      calldataload\n        /* \"#utility.yul\":2153:2182   */\n      swap1\n      pop\n        /* \"#utility.yul\":2191:2224   */\n      tag_248\n        /* \"#utility.yul\":2218:2223   */\n      dup2\n        /* \"#utility.yul\":2191:2224   */\n      tag_190\n      jump\t// in\n    tag_248:\n        /* \"#utility.yul\":2091:2230   */\n      swap3\n      swap2\n      pop\n      pop\n      jump\t// out\n        /* \"#utility.yul\":2236:2855   */\n    tag_36:\n        /* \"#utility.yul\":2313:2319   */\n      0x00\n        /* \"#utility.yul\":2321:2327   */\n      dup1\n        /* \"#utility.yul\":2329:2335   */\n      0x00\n        /* \"#utility.yul\":2378:2380   */\n      0x60\n        /* \"#utility.yul\":2366:2375   */\n      dup5\n        /* \"#utility.yul\":2357:2364   */\n      dup7\n        /* \"#utility.yul\":2353:2376   */\n      sub\n        /* \"#utility.yul\":2349:2381   */\n      slt\n        /* \"#utility.yul\":2346:2465   */\n      iszero\n      tag_250\n      jumpi\n        /* \"#utility.yul\":2384:2463   */\n      tag_251\n      tag_184\n      jump\t// in\n    tag_251:\n        /* \"#utility.yul\":2346:2465   */\n    tag_250:\n        /* \"#utility.yul\":2504:2505   */\n      0x00\n        /* \"#utility.yul\":2529:2582   */\n      tag_252\n        /* \"#utility.yul\":2574:2581   */\n      dup7\n        /* \"#utility.yul\":2565:2571   */\n      dup3\n        /* \"#utility.yul\":2554:2563   */\n      dup8\n        /* \"#utility.yul\":2550:2572   */\n      add\n        /* \"#utility.yul\":2529:2582   */\n      tag_187\n      jump\t// in\n    tag_252:\n        /* \"#utility.yul\":2519:2582   */\n      swap4\n      pop\n        /* \"#utility.yul\":2475:2592   */\n      pop\n        /* \"#utility.yul\":2631:2633   */\n      0x20\n        /* \"#utility.yul\":2657:2710   */\n      tag_253\n        /* \"#utility.yul\":2702:2709   */\n      dup7\n        /* \"#utility.yul\":2693:2699   */\n      dup3\n        /* \"#utility.yul\":2682:2691   */\n      dup8\n        /* \"#utility.yul\":2678:2700   */\n      add\n        /* \"#utility.yul\":2657:2710   */\n      tag_187\n      jump\t// in\n    tag_253:\n        /* \"#utility.yul\":2647:2710   */\n      swap3\n      pop\n        /* \"#utility.yul\":2602:2720   */\n      pop\n        /* \"#utility.yul\":2759:2761   */\n      0x40\n        /* \"#utility.yul\":2785:2838   */\n      tag_254\n        /* \"#utility.yul\":2830:2837   */\n      dup7\n        /* \"#utility.yul\":2821:2827   */\n      dup3\n        /* \"#utility.yul\":2810:2819   */\n      dup8\n        /* \"#utility.yul\":2806:2828   */\n      add\n        /* \"#utility.yul\":2785:2838   */\n      tag_191\n      jump\t// in\n    tag_254:\n        /* \"#utility.yul\":2775:2838   */\n      swap2\n      pop\n        /* \"#utility.yul\":2730:2848   */\n      pop\n        /* \"#utility.yul\":2236:2855   */\n      swap3\n      pop\n      swap3\n      pop\n      swap3\n      jump\t// out\n        /* \"#utility.yul\":2861:2951   */\n    tag_192:\n        /* \"#utility.yul\":2895:2902   */\n      0x00\n        /* \"#utility.yul\":2938:2943   */\n      dup2\n        /* \"#utility.yul\":2931:2944   */\n      iszero\n        /* \"#utility.yul\":2924:2945   */\n      iszero\n        /* \"#utility.yul\":2913:2945   */\n      swap1\n      pop\n        /* \"#utility.yul\":2861:2951   */\n      swap2\n      swap1\n      pop\n      jump\t// out\n        /* \"#utility.yul\":2957:3066   */\n    tag_193:\n        /* \"#utility.yul\":3038:3059   */\n      tag_257\n        /* \"#utility.yul\":3053:3058   */\n      dup2\n        /* \"#utility.yul\":3038:3059   */\n      tag_192\n      jump\t// in\n    tag_257:\n        /* \"#utility.yul\":3033:3036   */\n      dup3\n        /* \"#utility.yul\":3026:3060   */\n      mstore\n        /* \"#utility.yul\":2957:3066   */\n      pop\n      pop\n      jump\t// out\n        /* \"#utility.yul\":3072:3282   */\n    tag_39:\n        /* \"#utility.yul\":3159:3163   */\n      0x00\n        /* \"#utility.yul\":3197:3199   */\n      0x20\n        /* \"#utility.yul\":3186:3195   */\n      dup3\n        /* \"#utility.yul\":3182:3200   */\n      add\n        /* \"#utility.yul\":3174:3200   */\n      swap1\n      pop\n        /* \"#utility.yul\":3210:3275   */\n      tag_259\n        /* \"#utility.yul\":3272:3273   */\n      0x00\n        /* \"#utility.yul\":3261:3270   */\n      dup4\n        /* \"#utility.yul\":3257:3274   */\n      add\n        /* \"#utility.yul\":3248:3254   */\n      dup5\n        /* \"#utility.yul\":3210:3275   */\n      tag_193\n      jump\t// in\n    tag_259:\n        /* \"#utility.yul\":3072:3282   */\n      swap3\n      swap2\n      pop\n      pop\n      jump\t// out\n        /* \"#utility.yul\":3288:3404   */\n    tag_194:\n        /* \"#utility.yul\":3358:3379   */\n      tag_261\n        /* \"#utility.yul\":3373:3378   */\n      dup2\n        /* \"#utility.yul\":3358:3379   */\n      tag_192\n      jump\t// in\n    tag_261:\n        /* \"#utility.yul\":3351:3356   */\n      dup2\n        /* \"#utility.yul\":3348:3380   */\n      eq\n        /* \"#utility.yul\":3338:3398   */\n      tag_262\n      jumpi\n        /* \"#utility.yul\":3394:3395   */\n      0x00\n        /* \"#utility.yul\":3391:3392   */\n      dup1\n        /* \"#utility.yul\":3384:3396   */\n      revert\n        /* \"#utility.yul\":3338:3398   */\n    tag_262:\n        /* \"#utility.yul\":3288:3404   */\n      pop\n      jump\t// out\n        /* \"#utility.yul\":3410:3543   */\n    tag_195:\n        /* \"#utility.yul\":3453:3458   */\n      0x00\n        /* \"#utility.yul\":3491:3497   */\n      dup2\n        /* \"#utility.yul\":3478:3498   */\n      calldataload\n        /* \"#utility.yul\":3469:3498   */\n      swap1\n      pop\n        /* \"#utility.yul\":3507:3537   */\n      tag_264\n        /* \"#utility.yul\":3531:3536   */\n      dup2\n        /* \"#utility.yul\":3507:3537   */\n      tag_194\n      jump\t// in\n    tag_264:\n        /* \"#utility.yul\":3410:3543   */\n      swap3\n      swap2\n      pop\n      pop\n      jump\t// out\n        /* \"#utility.yul\":3549:4017   */\n    tag_43:\n        /* \"#utility.yul\":3614:3620   */\n      0x00\n        /* \"#utility.yul\":3622:3628   */\n      dup1\n        /* \"#utility.yul\":3671:3673   */\n      0x40\n        /* \"#utility.yul\":3659:3668   */\n      dup4\n        /* \"#utility.yul\":3650:3657   */\n      dup6\n        /* \"#utility.yul\":3646:3669   */\n      sub\n        /* \"#utility.yul\":3642:3674   */\n      slt\n        /* \"#utility.yul\":3639:3758   */\n      iszero\n      tag_266\n      jumpi\n        /* \"#utility.yul\":3677:3756   */\n      tag_267\n      tag_184\n      jump\t// in\n    tag_267:\n        /* \"#utility.yul\":3639:3758   */\n    tag_266:\n        /* \"#utility.yul\":3797:3798   */\n      0x00\n        /* \"#utility.yul\":3822:3875   */\n      tag_268\n        /* \"#utility.yul\":3867:3874   */\n      dup6\n        /* \"#utility.yul\":3858:3864   */\n      dup3\n        /* \"#utility.yul\":3847:3856   */\n      dup7\n        /* \"#utility.yul\":3843:3865   */\n      add\n        /* \"#utility.yul\":3822:3875   */\n      tag_187\n      jump\t// in\n    tag_268:\n        /* \"#utility.yul\":3812:3875   */\n      swap3\n      pop\n        /* \"#utility.yul\":3768:3885   */\n      pop\n        /* \"#utility.yul\":3924:3926   */\n      0x20\n        /* \"#utility.yul\":3950:4000   */\n      tag_269\n        /* \"#utility.yul\":3992:3999   */\n      dup6\n        /* \"#utility.yul\":3983:3989   */\n      dup3\n        /* \"#utility.yul\":3972:3981   */\n      dup7\n        /* \"#utility.yul\":3968:3990   */\n      add\n        /* \"#utility.yul\":3950:4000   */\n      tag_195\n      jump\t// in\n    tag_269:\n        /* \"#utility.yul\":3940:4000   */\n      swap2\n      pop\n        /* \"#utility.yul\":3895:4010   */\n      pop\n        /* \"#utility.yul\":3549:4017   */\n      swap3\n      pop\n      swap3\n      swap1\n      pop\n      jump\t// out\n        /* \"#utility.yul\":4023:4127   */\n    tag_196:\n        /* \"#utility.yul\":4068:4075   */\n      0x00\n        /* \"#utility.yul\":4097:4121   */\n      tag_271\n        /* \"#utility.yul\":4115:4120   */\n      dup3\n        /* \"#utility.yul\":4097:4121   */\n      tag_180\n      jump\t// in\n    tag_271:\n        /* \"#utility.yul\":4086:4121   */\n      swap1\n      pop\n        /* \"#utility.yul\":4023:4127   */\n      swap2\n      swap1\n      pop\n      jump\t// out\n        /* \"#utility.yul\":4133:4271   */\n    tag_197:\n        /* \"#utility.yul\":4214:4246   */\n      tag_273\n        /* \"#utility.yul\":4240:4245   */\n      dup2\n        /* \"#utility.yul\":4214:4246   */\n      tag_196\n      jump\t// in\n    tag_273:\n        /* \"#utility.yul\":4207:4212   */\n      dup2\n        /* \"#utility.yul\":4204:4247   */\n      eq\n        /* \"#utility.yul\":4194:4265   */\n      tag_274\n      jumpi\n        /* \"#utility.yul\":4261:4262   */\n      0x00\n        /* \"#utility.yul\":4258:4259   */\n      dup1\n        /* \"#utility.yul\":4251:4263   */\n      revert\n        /* \"#utility.yul\":4194:4265   */\n    tag_274:\n        /* \"#utility.yul\":4133:4271   */\n      pop\n      jump\t// out\n        /* \"#utility.yul\":4277:4432   */\n    tag_198:\n        /* \"#utility.yul\":4331:4336   */\n      0x00\n        /* \"#utility.yul\":4369:4375   */\n      dup2\n        /* \"#utility.yul\":4356:4376   */\n      calldataload\n        /* \"#utility.yul\":4347:4376   */\n      swap1\n      pop\n        /* \"#utility.yul\":4385:4426   */\n      tag_276\n        /* \"#utility.yul\":4420:4425   */\n      dup2\n        /* \"#utility.yul\":4385:4426   */\n      tag_197\n      jump\t// in\n    tag_276:\n        /* \"#utility.yul\":4277:4432   */\n      swap3\n      swap2\n      pop\n      pop\n      jump\t// out\n        /* \"#utility.yul\":4438:4783   */\n    tag_47:\n        /* \"#utility.yul\":4505:4511   */\n      0x00\n        /* \"#utility.yul\":4554:4556   */\n      0x20\n        /* \"#utility.yul\":4542:4551   */\n      dup3\n        /* \"#utility.yul\":4533:4540   */\n      dup5\n        /* \"#utility.yul\":4529:4552   */\n      sub\n        /* \"#utility.yul\":4525:4557   */\n      slt\n        /* \"#utility.yul\":4522:4641   */\n      iszero\n      tag_278\n      jumpi\n        /* \"#utility.yul\":4560:4639   */\n      tag_279\n      tag_184\n      jump\t// in\n    tag_279:\n        /* \"#utility.yul\":4522:4641   */\n    tag_278:\n        /* \"#utility.yul\":4680:4681   */\n      0x00\n        /* \"#utility.yul\":4705:4766   */\n      tag_280\n        /* \"#utility.yul\":4758:4765   */\n      dup5\n        /* \"#utility.yul\":4749:4755   */\n      dup3\n        /* \"#utility.yul\":4738:4747   */\n      dup6\n        /* \"#utility.yul\":4734:4756   */\n      add\n        /* \"#utility.yul\":4705:4766   */\n      tag_198\n      jump\t// in\n    tag_280:\n        /* \"#utility.yul\":4695:4766   */\n      swap2\n      pop\n        /* \"#utility.yul\":4651:4776   */\n      pop\n        /* \"#utility.yul\":4438:4783   */\n      swap3\n      swap2\n      pop\n      pop\n      jump\t// out\n        /* \"#utility.yul\":4789:5263   */\n    tag_76:\n        /* \"#utility.yul\":4857:4863   */\n      0x00\n        /* \"#utility.yul\":4865:4871   */\n      dup1\n        /* \"#utility.yul\":4914:4916   */\n      0x40\n        /* \"#utility.yul\":4902:4911   */\n      dup4\n        /* \"#utility.yul\":4893:4900   */\n      dup6\n        /* \"#utility.yul\":4889:4912   */\n      sub\n        /* \"#utility.yul\":4885:4917   */\n      slt\n        /* \"#utility.yul\":4882:5001   */\n      iszero\n      tag_282\n      jumpi\n        /* \"#utility.yul\":4920:4999   */\n      tag_283\n      tag_184\n      jump\t// in\n    tag_283:\n        /* \"#utility.yul\":4882:5001   */\n    tag_282:\n        /* \"#utility.yul\":5040:5041   */\n      0x00\n        /* \"#utility.yul\":5065:5118   */\n      tag_284\n        /* \"#utility.yul\":5110:5117   */\n      dup6\n        /* \"#utility.yul\":5101:5107   */\n      dup3\n        /* \"#utility.yul\":5090:5099   */\n      dup7\n        /* \"#utility.yul\":5086:5108   */\n      add\n        /* \"#utility.yul\":5065:5118   */\n      tag_187\n      jump\t// in\n    tag_284:\n        /* \"#utility.yul\":5055:5118   */\n      swap3\n      pop\n        /* \"#utility.yul\":5011:5128   */\n      pop\n        /* \"#utility.yul\":5167:5169   */\n      0x20\n        /* \"#utility.yul\":5193:5246   */\n      tag_285\n        /* \"#utility.yul\":5238:5245   */\n      dup6\n        /* \"#utility.yul\":5229:5235   */\n      dup3\n        /* \"#utility.yul\":5218:5227   */\n      dup7\n        /* \"#utility.yul\":5214:5236   */\n      add\n        /* \"#utility.yul\":5193:5246   */\n      tag_187\n      jump\t// in\n    tag_285:\n        /* \"#utility.yul\":5183:5246   */\n      swap2\n      pop\n        /* \"#utility.yul\":5138:5256   */\n      pop\n        /* \"#utility.yul\":4789:5263   */\n      swap3\n      pop\n      swap3\n      swap1\n      pop\n      jump\t// out\n        /* \"#utility.yul\":5269:5438   */\n    tag_199:\n        /* \"#utility.yul\":5353:5364   */\n      0x00\n        /* \"#utility.yul\":5387:5393   */\n      dup3\n        /* \"#utility.yul\":5382:5385   */\n      dup3\n        /* \"#utility.yul\":5375:5394   */\n      mstore\n        /* \"#utility.yul\":5427:5431   */\n      0x20\n        /* \"#utility.yul\":5422:5425   */\n      dup3\n        /* \"#utility.yul\":5418:5432   */\n      add\n        /* \"#utility.yul\":5403:5432   */\n      swap1\n      pop\n        /* \"#utility.yul\":5269:5438   */\n      swap3\n      swap2\n      pop\n      pop\n      jump\t// out\n        /* \"#utility.yul\":5444:5615   */\n    tag_200:\n        /* \"#utility.yul\":5584:5607   */\n      0x537562736372696265204f757220536572766963650000000000000000000000\n        /* \"#utility.yul\":5580:5581   */\n      0x00\n        /* \"#utility.yul\":5572:5578   */\n      dup3\n        /* \"#utility.yul\":5568:5582   */\n      add\n        /* \"#utility.yul\":5561:5608   */\n      mstore\n        /* \"#utility.yul\":5444:5615   */\n      pop\n      jump\t// out\n        /* \"#utility.yul\":5621:5987   */\n    tag_201:\n        /* \"#utility.yul\":5763:5766   */\n      0x00\n        /* \"#utility.yul\":5784:5851   */\n      tag_289\n        /* \"#utility.yul\":5848:5850   */\n      0x15\n        /* \"#utility.yul\":5843:5846   */\n      dup4\n        /* \"#utility.yul\":5784:5851   */\n      tag_199\n      jump\t// in\n    tag_289:\n        /* \"#utility.yul\":5777:5851   */\n      swap2\n      pop\n        /* \"#utility.yul\":5860:5953   */\n      tag_290\n        /* \"#utility.yul\":5949:5952   */\n      dup3\n        /* \"#utility.yul\":5860:5953   */\n      tag_200\n      jump\t// in\n    tag_290:\n        /* \"#utility.yul\":5978:5980   */\n      0x20\n        /* \"#utility.yul\":5973:5976   */\n      dup3\n        /* \"#utility.yul\":5969:5981   */\n      add\n        /* \"#utility.yul\":5962:5981   */\n      swap1\n      pop\n        /* \"#utility.yul\":5621:5987   */\n      swap2\n      swap1\n      pop\n      jump\t// out\n        /* \"#utility.yul\":5993:6412   */\n    tag_99:\n        /* \"#utility.yul\":6159:6163   */\n      0x00\n        /* \"#utility.yul\":6197:6199   */\n      0x20\n        /* \"#utility.yul\":6186:6195   */\n      dup3\n        /* \"#utility.yul\":6182:6200   */\n      add\n        /* \"#utility.yul\":6174:6200   */\n      swap1\n      pop\n        /* \"#utility.yul\":6246:6255   */\n      dup2\n        /* \"#utility.yul\":6240:6244   */\n      dup2\n        /* \"#utility.yul\":6236:6256   */\n      sub\n        /* \"#utility.yul\":6232:6233   */\n      0x00\n        /* \"#utility.yul\":6221:6230   */\n      dup4\n        /* \"#utility.yul\":6217:6234   */\n      add\n        /* \"#utility.yul\":6210:6257   */\n      mstore\n        /* \"#utility.yul\":6274:6405   */\n      tag_292\n        /* \"#utility.yul\":6400:6404   */\n      dup2\n        /* \"#utility.yul\":6274:6405   */\n      tag_201\n      jump\t// in\n    tag_292:\n        /* \"#utility.yul\":6266:6405   */\n      swap1\n      pop\n        /* \"#utility.yul\":5993:6412   */\n      swap2\n      swap1\n      pop\n      jump\t// out\n        /* \"#utility.yul\":6418:6598   */\n    tag_202:\n        /* \"#utility.yul\":6466:6543   */\n      0x4e487b7100000000000000000000000000000000000000000000000000000000\n        /* \"#utility.yul\":6463:6464   */\n      0x00\n        /* \"#utility.yul\":6456:6544   */\n      mstore\n        /* \"#utility.yul\":6563:6567   */\n      0x11\n        /* \"#utility.yul\":6560:6561   */\n      0x04\n        /* \"#utility.yul\":6553:6568   */\n      mstore\n        /* \"#utility.yul\":6587:6591   */\n      0x24\n        /* \"#utility.yul\":6584:6585   */\n      0x00\n        /* \"#utility.yul\":6577:6592   */\n      revert\n        /* \"#utility.yul\":6604:6795   */\n    tag_107:\n        /* \"#utility.yul\":6644:6647   */\n      0x00\n        /* \"#utility.yul\":6663:6683   */\n      tag_295\n        /* \"#utility.yul\":6681:6682   */\n      dup3\n        /* \"#utility.yul\":6663:6683   */\n      tag_188\n      jump\t// in\n    tag_295:\n        /* \"#utility.yul\":6658:6683   */\n      swap2\n      pop\n        /* \"#utility.yul\":6697:6717   */\n      tag_296\n        /* \"#utility.yul\":6715:6716   */\n      dup4\n        /* \"#utility.yul\":6697:6717   */\n      tag_188\n      jump\t// in\n    tag_296:\n        /* \"#utility.yul\":6692:6717   */\n      swap3\n      pop\n        /* \"#utility.yul\":6740:6741   */\n      dup3\n        /* \"#utility.yul\":6737:6738   */\n      dup3\n        /* \"#utility.yul\":6733:6742   */\n      add\n        /* \"#utility.yul\":6726:6742   */\n      swap1\n      pop\n        /* \"#utility.yul\":6761:6764   */\n      dup1\n        /* \"#utility.yul\":6758:6759   */\n      dup3\n        /* \"#utility.yul\":6755:6765   */\n      gt\n        /* \"#utility.yul\":6752:6788   */\n      iszero\n      tag_297\n      jumpi\n        /* \"#utility.yul\":6768:6786   */\n      tag_298\n      tag_202\n      jump\t// in\n    tag_298:\n        /* \"#utility.yul\":6752:6788   */\n    tag_297:\n        /* \"#utility.yul\":6604:6795   */\n      swap3\n      swap2\n      pop\n      pop\n      jump\t// out\n        /* \"#utility.yul\":6801:6976   */\n    tag_203:\n        /* \"#utility.yul\":6941:6968   */\n      0x506c656173652063686172676520796f75722077616c6c657400000000000000\n        /* \"#utility.yul\":6937:6938   */\n      0x00\n        /* \"#utility.yul\":6929:6935   */\n      dup3\n        /* \"#utility.yul\":6925:6939   */\n      add\n        /* \"#utility.yul\":6918:6969   */\n      mstore\n        /* \"#utility.yul\":6801:6976   */\n      pop\n      jump\t// out\n        /* \"#utility.yul\":6982:7348   */\n    tag_204:\n        /* \"#utility.yul\":7124:7127   */\n      0x00\n        /* \"#utility.yul\":7145:7212   */\n      tag_301\n        /* \"#utility.yul\":7209:7211   */\n      0x19\n        /* \"#utility.yul\":7204:7207   */\n      dup4\n        /* \"#utility.yul\":7145:7212   */\n      tag_199\n      jump\t// in\n    tag_301:\n        /* \"#utility.yul\":7138:7212   */\n      swap2\n      pop\n        /* \"#utility.yul\":7221:7314   */\n      tag_302\n        /* \"#utility.yul\":7310:7313   */\n      dup3\n        /* \"#utility.yul\":7221:7314   */\n      tag_203\n      jump\t// in\n    tag_302:\n        /* \"#utility.yul\":7339:7341   */\n      0x20\n        /* \"#utility.yul\":7334:7337   */\n      dup3\n        /* \"#utility.yul\":7330:7342   */\n      add\n        /* \"#utility.yul\":7323:7342   */\n      swap1\n      pop\n        /* \"#utility.yul\":6982:7348   */\n      swap2\n      swap1\n      pop\n      jump\t// out\n        /* \"#utility.yul\":7354:7773   */\n    tag_116:\n        /* \"#utility.yul\":7520:7524   */\n      0x00\n        /* \"#utility.yul\":7558:7560   */\n      0x20\n        /* \"#utility.yul\":7547:7556   */\n      dup3\n        /* \"#utility.yul\":7543:7561   */\n      add\n        /* \"#utility.yul\":7535:7561   */\n      swap1\n      pop\n        /* \"#utility.yul\":7607:7616   */\n      dup2\n        /* \"#utility.yul\":7601:7605   */\n      dup2\n        /* \"#utility.yul\":7597:7617   */\n      sub\n        /* \"#utility.yul\":7593:7594   */\n      0x00\n        /* \"#utility.yul\":7582:7591   */\n      dup4\n        /* \"#utility.yul\":7578:7595   */\n      add\n        /* \"#utility.yul\":7571:7618   */\n      mstore\n        /* \"#utility.yul\":7635:7766   */\n      tag_304\n        /* \"#utility.yul\":7761:7765   */\n      dup2\n        /* \"#utility.yul\":7635:7766   */\n      tag_204\n      jump\t// in\n    tag_304:\n        /* \"#utility.yul\":7627:7766   */\n      swap1\n      pop\n        /* \"#utility.yul\":7354:7773   */\n      swap2\n      swap1\n      pop\n      jump\t// out\n        /* \"#utility.yul\":7779:7961   */\n    tag_205:\n        /* \"#utility.yul\":7919:7953   */\n      0x4f776e61626c653a2063616c6c6572206973206e6f7420746865206f776e6572\n        /* \"#utility.yul\":7915:7916   */\n      0x00\n        /* \"#utility.yul\":7907:7913   */\n      dup3\n        /* \"#utility.yul\":7903:7917   */\n      add\n        /* \"#utility.yul\":7896:7954   */\n      mstore\n        /* \"#utility.yul\":7779:7961   */\n      pop\n      jump\t// out\n        /* \"#utility.yul\":7967:8333   */\n    tag_206:\n        /* \"#utility.yul\":8109:8112   */\n      0x00\n        /* \"#utility.yul\":8130:8197   */\n      tag_307\n        /* \"#utility.yul\":8194:8196   */\n      0x20\n        /* \"#utility.yul\":8189:8192   */\n      dup4\n        /* \"#utility.yul\":8130:8197   */\n      tag_199\n      jump\t// in\n    tag_307:\n        /* \"#utility.yul\":8123:8197   */\n      swap2\n      pop\n        /* \"#utility.yul\":8206:8299   */\n      tag_308\n        /* \"#utility.yul\":8295:8298   */\n      dup3\n        /* \"#utility.yul\":8206:8299   */\n      tag_205\n      jump\t// in\n    tag_308:\n        /* \"#utility.yul\":8324:8326   */\n      0x20\n        /* \"#utility.yul\":8319:8322   */\n      dup3\n        /* \"#utility.yul\":8315:8327   */\n      add\n        /* \"#utility.yul\":8308:8327   */\n      swap1\n      pop\n        /* \"#utility.yul\":7967:8333   */\n      swap2\n      swap1\n      pop\n      jump\t// out\n        /* \"#utility.yul\":8339:8758   */\n    tag_129:\n        /* \"#utility.yul\":8505:8509   */\n      0x00\n        /* \"#utility.yul\":8543:8545   */\n      0x20\n        /* \"#utility.yul\":8532:8541   */\n      dup3\n        /* \"#utility.yul\":8528:8546   */\n      add\n        /* \"#utility.yul\":8520:8546   */\n      swap1\n      pop\n        /* \"#utility.yul\":8592:8601   */\n      dup2\n        /* \"#utility.yul\":8586:8590   */\n      dup2\n        /* \"#utility.yul\":8582:8602   */\n      sub\n        /* \"#utility.yul\":8578:8579   */\n      0x00\n        /* \"#utility.yul\":8567:8576   */\n      dup4\n        /* \"#utility.yul\":8563:8580   */\n      add\n        /* \"#utility.yul\":8556:8603   */\n      mstore\n        /* \"#utility.yul\":8620:8751   */\n      tag_310\n        /* \"#utility.yul\":8746:8750   */\n      dup2\n        /* \"#utility.yul\":8620:8751   */\n      tag_206\n      jump\t// in\n    tag_310:\n        /* \"#utility.yul\":8612:8751   */\n      swap1\n      pop\n        /* \"#utility.yul\":8339:8758   */\n      swap2\n      swap1\n      pop\n      jump\t// out\n        /* \"#utility.yul\":8764:8943   */\n    tag_207:\n        /* \"#utility.yul\":8904:8935   */\n      0x45524332303a20696e73756666696369656e7420616c6c6f77616e6365000000\n        /* \"#utility.yul\":8900:8901   */\n      0x00\n        /* \"#utility.yul\":8892:8898   */\n      dup3\n        /* \"#utility.yul\":8888:8902   */\n      add\n        /* \"#utility.yul\":8881:8936   */\n      mstore\n        /* \"#utility.yul\":8764:8943   */\n      pop\n      jump\t// out\n        /* \"#utility.yul\":8949:9315   */\n    tag_208:\n        /* \"#utility.yul\":9091:9094   */\n      0x00\n        /* \"#utility.yul\":9112:9179   */\n      tag_313\n        /* \"#utility.yul\":9176:9178   */\n      0x1d\n        /* \"#utility.yul\":9171:9174   */\n      dup4\n        /* \"#utility.yul\":9112:9179   */\n      tag_199\n      jump\t// in\n    tag_313:\n        /* \"#utility.yul\":9105:9179   */\n      swap2\n      pop\n        /* \"#utility.yul\":9188:9281   */\n      tag_314\n        /* \"#utility.yul\":9277:9280   */\n      dup3\n        /* \"#utility.yul\":9188:9281   */\n      tag_207\n      jump\t// in\n    tag_314:\n        /* \"#utility.yul\":9306:9308   */\n      0x20\n        /* \"#utility.yul\":9301:9304   */\n      dup3\n        /* \"#utility.yul\":9297:9309   */\n      add\n        /* \"#utility.yul\":9290:9309   */\n      swap1\n      pop\n        /* \"#utility.yul\":8949:9315   */\n      swap2\n      swap1\n      pop\n      jump\t// out\n        /* \"#utility.yul\":9321:9740   */\n    tag_143:\n        /* \"#utility.yul\":9487:9491   */\n      0x00\n        /* \"#utility.yul\":9525:9527   */\n      0x20\n        /* \"#utility.yul\":9514:9523   */\n      dup3\n        /* \"#utility.yul\":9510:9528   */\n      add\n        /* \"#utility.yul\":9502:9528   */\n      swap1\n      pop\n        /* \"#utility.yul\":9574:9583   */\n      dup2\n        /* \"#utility.yul\":9568:9572   */\n      dup2\n        /* \"#utility.yul\":9564:9584   */\n      sub\n        /* \"#utility.yul\":9560:9561   */\n      0x00\n        /* \"#utility.yul\":9549:9558   */\n      dup4\n        /* \"#utility.yul\":9545:9562   */\n      add\n        /* \"#utility.yul\":9538:9585   */\n      mstore\n        /* \"#utility.yul\":9602:9733   */\n      tag_316\n        /* \"#utility.yul\":9728:9732   */\n      dup2\n        /* \"#utility.yul\":9602:9733   */\n      tag_208\n      jump\t// in\n    tag_316:\n        /* \"#utility.yul\":9594:9733   */\n      swap1\n      pop\n        /* \"#utility.yul\":9321:9740   */\n      swap2\n      swap1\n      pop\n      jump\t// out\n        /* \"#utility.yul\":9746:9971   */\n    tag_209:\n        /* \"#utility.yul\":9886:9920   */\n      0x4f776e61626c653a206e6577206f776e657220697320746865207a65726f2061\n        /* \"#utility.yul\":9882:9883   */\n      0x00\n        /* \"#utility.yul\":9874:9880   */\n      dup3\n        /* \"#utility.yul\":9870:9884   */\n      add\n        /* \"#utility.yul\":9863:9921   */\n      mstore\n        /* \"#utility.yul\":9955:9963   */\n      0x6464726573730000000000000000000000000000000000000000000000000000\n        /* \"#utility.yul\":9950:9952   */\n      0x20\n        /* \"#utility.yul\":9942:9948   */\n      dup3\n        /* \"#utility.yul\":9938:9953   */\n      add\n        /* \"#utility.yul\":9931:9964   */\n      mstore\n        /* \"#utility.yul\":9746:9971   */\n      pop\n      jump\t// out\n        /* \"#utility.yul\":9977:10343   */\n    tag_210:\n        /* \"#utility.yul\":10119:10122   */\n      0x00\n        /* \"#utility.yul\":10140:10207   */\n      tag_319\n        /* \"#utility.yul\":10204:10206   */\n      0x26\n        /* \"#utility.yul\":10199:10202   */\n      dup4\n        /* \"#utility.yul\":10140:10207   */\n      tag_199\n      jump\t// in\n    tag_319:\n        /* \"#utility.yul\":10133:10207   */\n      swap2\n      pop\n        /* \"#utility.yul\":10216:10309   */\n      tag_320\n        /* \"#utility.yul\":10305:10308   */\n      dup3\n        /* \"#utility.yul\":10216:10309   */\n      tag_209\n      jump\t// in\n    tag_320:\n        /* \"#utility.yul\":10334:10336   */\n      0x40\n        /* \"#utility.yul\":10329:10332   */\n      dup3\n        /* \"#utility.yul\":10325:10337   */\n      add\n        /* \"#utility.yul\":10318:10337   */\n      swap1\n      pop\n        /* \"#utility.yul\":9977:10343   */\n      swap2\n      swap1\n      pop\n      jump\t// out\n        /* \"#utility.yul\":10349:10768   */\n    tag_160:\n        /* \"#utility.yul\":10515:10519   */\n      0x00\n        /* \"#utility.yul\":10553:10555   */\n      0x20\n        /* \"#utility.yul\":10542:10551   */\n      dup3\n        /* \"#utility.yul\":10538:10556   */\n      add\n        /* \"#utility.yul\":10530:10556   */\n      swap1\n      pop\n        /* \"#utility.yul\":10602:10611   */\n      dup2\n        /* \"#utility.yul\":10596:10600   */\n      dup2\n        /* \"#utility.yul\":10592:10612   */\n      sub\n        /* \"#utility.yul\":10588:10589   */\n      0x00\n        /* \"#utility.yul\":10577:10586   */\n      dup4\n        /* \"#utility.yul\":10573:10590   */\n      add\n        /* \"#utility.yul\":10566:10613   */\n      mstore\n        /* \"#utility.yul\":10630:10761   */\n      tag_322\n        /* \"#utility.yul\":10756:10760   */\n      dup2\n        /* \"#utility.yul\":10630:10761   */\n      tag_210\n      jump\t// in\n    tag_322:\n        /* \"#utility.yul\":10622:10761   */\n      swap1\n      pop\n        /* \"#utility.yul\":10349:10768   */\n      swap2\n      swap1\n      pop\n      jump\t// out\n        /* \"#utility.yul\":10774:10954   */\n    tag_211:\n        /* \"#utility.yul\":10914:10946   */\n      0x7472616e736665722066726f6d20746865207a65726f20616464726573730000\n        /* \"#utility.yul\":10910:10911   */\n      0x00\n        /* \"#utility.yul\":10902:10908   */\n      dup3\n        /* \"#utility.yul\":10898:10912   */\n      add\n        /* \"#utility.yul\":10891:10947   */\n      mstore\n        /* \"#utility.yul\":10774:10954   */\n      pop\n      jump\t// out\n        /* \"#utility.yul\":10960:11326   */\n    tag_212:\n        /* \"#utility.yul\":11102:11105   */\n      0x00\n        /* \"#utility.yul\":11123:11190   */\n      tag_325\n        /* \"#utility.yul\":11187:11189   */\n      0x1e\n        /* \"#utility.yul\":11182:11185   */\n      dup4\n        /* \"#utility.yul\":11123:11190   */\n      tag_199\n      jump\t// in\n    tag_325:\n        /* \"#utility.yul\":11116:11190   */\n      swap2\n      pop\n        /* \"#utility.yul\":11199:11292   */\n      tag_326\n        /* \"#utility.yul\":11288:11291   */\n      dup3\n        /* \"#utility.yul\":11199:11292   */\n      tag_211\n      jump\t// in\n    tag_326:\n        /* \"#utility.yul\":11317:11319   */\n      0x20\n        /* \"#utility.yul\":11312:11315   */\n      dup3\n        /* \"#utility.yul\":11308:11320   */\n      add\n        /* \"#utility.yul\":11301:11320   */\n      swap1\n      pop\n        /* \"#utility.yul\":10960:11326   */\n      swap2\n      swap1\n      pop\n      jump\t// out\n        /* \"#utility.yul\":11332:11751   */\n    tag_165:\n        /* \"#utility.yul\":11498:11502   */\n      0x00\n        /* \"#utility.yul\":11536:11538   */\n      0x20\n        /* \"#utility.yul\":11525:11534   */\n      dup3\n        /* \"#utility.yul\":11521:11539   */\n      add\n        /* \"#utility.yul\":11513:11539   */\n      swap1\n      pop\n        /* \"#utility.yul\":11585:11594   */\n      dup2\n        /* \"#utility.yul\":11579:11583   */\n      dup2\n        /* \"#utility.yul\":11575:11595   */\n      sub\n        /* \"#utility.yul\":11571:11572   */\n      0x00\n        /* \"#utility.yul\":11560:11569   */\n      dup4\n        /* \"#utility.yul\":11556:11573   */\n      add\n        /* \"#utility.yul\":11549:11596   */\n      mstore\n        /* \"#utility.yul\":11613:11744   */\n      tag_328\n        /* \"#utility.yul\":11739:11743   */\n      dup2\n        /* \"#utility.yul\":11613:11744   */\n      tag_212\n      jump\t// in\n    tag_328:\n        /* \"#utility.yul\":11605:11744   */\n      swap1\n      pop\n        /* \"#utility.yul\":11332:11751   */\n      swap2\n      swap1\n      pop\n      jump\t// out\n        /* \"#utility.yul\":11757:11935   */\n    tag_213:\n        /* \"#utility.yul\":11897:11927   */\n      0x7472616e7366657220746f20746865207a65726f206164647265737300000000\n        /* \"#utility.yul\":11893:11894   */\n      0x00\n        /* \"#utility.yul\":11885:11891   */\n      dup3\n        /* \"#utility.yul\":11881:11895   */\n      add\n        /* \"#utility.yul\":11874:11928   */\n      mstore\n        /* \"#utility.yul\":11757:11935   */\n      pop\n      jump\t// out\n        /* \"#utility.yul\":11941:12307   */\n    tag_214:\n        /* \"#utility.yul\":12083:12086   */\n      0x00\n        /* \"#utility.yul\":12104:12171   */\n      tag_331\n        /* \"#utility.yul\":12168:12170   */\n      0x1c\n        /* \"#utility.yul\":12163:12166   */\n      dup4\n        /* \"#utility.yul\":12104:12171   */\n      tag_199\n      jump\t// in\n    tag_331:\n        /* \"#utility.yul\":12097:12171   */\n      swap2\n      pop\n        /* \"#utility.yul\":12180:12273   */\n      tag_332\n        /* \"#utility.yul\":12269:12272   */\n      dup3\n        /* \"#utility.yul\":12180:12273   */\n      tag_213\n      jump\t// in\n    tag_332:\n        /* \"#utility.yul\":12298:12300   */\n      0x20\n        /* \"#utility.yul\":12293:12296   */\n      dup3\n        /* \"#utility.yul\":12289:12301   */\n      add\n        /* \"#utility.yul\":12282:12301   */\n      swap1\n      pop\n        /* \"#utility.yul\":11941:12307   */\n      swap2\n      swap1\n      pop\n      jump\t// out\n        /* \"#utility.yul\":12313:12732   */\n    tag_168:\n        /* \"#utility.yul\":12479:12483   */\n      0x00\n        /* \"#utility.yul\":12517:12519   */\n      0x20\n        /* \"#utility.yul\":12506:12515   */\n      dup3\n        /* \"#utility.yul\":12502:12520   */\n      add\n        /* \"#utility.yul\":12494:12520   */\n      swap1\n      pop\n        /* \"#utility.yul\":12566:12575   */\n      dup2\n        /* \"#utility.yul\":12560:12564   */\n      dup2\n        /* \"#utility.yul\":12556:12576   */\n      sub\n        /* \"#utility.yul\":12552:12553   */\n      0x00\n        /* \"#utility.yul\":12541:12550   */\n      dup4\n        /* \"#utility.yul\":12537:12554   */\n      add\n        /* \"#utility.yul\":12530:12577   */\n      mstore\n        /* \"#utility.yul\":12594:12725   */\n      tag_334\n        /* \"#utility.yul\":12720:12724   */\n      dup2\n        /* \"#utility.yul\":12594:12725   */\n      tag_214\n      jump\t// in\n    tag_334:\n        /* \"#utility.yul\":12586:12725   */\n      swap1\n      pop\n        /* \"#utility.yul\":12313:12732   */\n      swap2\n      swap1\n      pop\n      jump\t// out\n        /* \"#utility.yul\":12738:12917   */\n    tag_215:\n        /* \"#utility.yul\":12878:12909   */\n      0x617070726f76652066726f6d20746865207a65726f2061646472657373000000\n        /* \"#utility.yul\":12874:12875   */\n      0x00\n        /* \"#utility.yul\":12866:12872   */\n      dup3\n        /* \"#utility.yul\":12862:12876   */\n      add\n        /* \"#utility.yul\":12855:12910   */\n      mstore\n        /* \"#utility.yul\":12738:12917   */\n      pop\n      jump\t// out\n        /* \"#utility.yul\":12923:13289   */\n    tag_216:\n        /* \"#utility.yul\":13065:13068   */\n      0x00\n        /* \"#utility.yul\":13086:13153   */\n      tag_337\n        /* \"#utility.yul\":13150:13152   */\n      0x1d\n        /* \"#utility.yul\":13145:13148   */\n      dup4\n        /* \"#utility.yul\":13086:13153   */\n      tag_199\n      jump\t// in\n    tag_337:\n        /* \"#utility.yul\":13079:13153   */\n      swap2\n      pop\n        /* \"#utility.yul\":13162:13255   */\n      tag_338\n        /* \"#utility.yul\":13251:13254   */\n      dup3\n        /* \"#utility.yul\":13162:13255   */\n      tag_215\n      jump\t// in\n    tag_338:\n        /* \"#utility.yul\":13280:13282   */\n      0x20\n        /* \"#utility.yul\":13275:13278   */\n      dup3\n        /* \"#utility.yul\":13271:13283   */\n      add\n        /* \"#utility.yul\":13264:13283   */\n      swap1\n      pop\n        /* \"#utility.yul\":12923:13289   */\n      swap2\n      swap1\n      pop\n      jump\t// out\n        /* \"#utility.yul\":13295:13714   */\n    tag_175:\n        /* \"#utility.yul\":13461:13465   */\n      0x00\n        /* \"#utility.yul\":13499:13501   */\n      0x20\n        /* \"#utility.yul\":13488:13497   */\n      dup3\n        /* \"#utility.yul\":13484:13502   */\n      add\n        /* \"#utility.yul\":13476:13502   */\n      swap1\n      pop\n        /* \"#utility.yul\":13548:13557   */\n      dup2\n        /* \"#utility.yul\":13542:13546   */\n      dup2\n        /* \"#utility.yul\":13538:13558   */\n      sub\n        /* \"#utility.yul\":13534:13535   */\n      0x00\n        /* \"#utility.yul\":13523:13532   */\n      dup4\n        /* \"#utility.yul\":13519:13536   */\n      add\n        /* \"#utility.yul\":13512:13559   */\n      mstore\n        /* \"#utility.yul\":13576:13707   */\n      tag_340\n        /* \"#utility.yul\":13702:13706   */\n      dup2\n        /* \"#utility.yul\":13576:13707   */\n      tag_216\n      jump\t// in\n    tag_340:\n        /* \"#utility.yul\":13568:13707   */\n      swap1\n      pop\n        /* \"#utility.yul\":13295:13714   */\n      swap2\n      swap1\n      pop\n      jump\t// out\n        /* \"#utility.yul\":13720:13898   */\n    tag_217:\n        /* \"#utility.yul\":13860:13890   */\n      0x20617070726f766520746f20746865207a65726f206164647265737300000000\n        /* \"#utility.yul\":13856:13857   */\n      0x00\n        /* \"#utility.yul\":13848:13854   */\n      dup3\n        /* \"#utility.yul\":13844:13858   */\n      add\n        /* \"#utility.yul\":13837:13891   */\n      mstore\n        /* \"#utility.yul\":13720:13898   */\n      pop\n      jump\t// out\n        /* \"#utility.yul\":13904:14270   */\n    tag_218:\n        /* \"#utility.yul\":14046:14049   */\n      0x00\n        /* \"#utility.yul\":14067:14134   */\n      tag_343\n        /* \"#utility.yul\":14131:14133   */\n      0x1c\n        /* \"#utility.yul\":14126:14129   */\n      dup4\n        /* \"#utility.yul\":14067:14134   */\n      tag_199\n      jump\t// in\n    tag_343:\n        /* \"#utility.yul\":14060:14134   */\n      swap2\n      pop\n        /* \"#utility.yul\":14143:14236   */\n      tag_344\n        /* \"#utility.yul\":14232:14235   */\n      dup3\n        /* \"#utility.yul\":14143:14236   */\n      tag_217\n      jump\t// in\n    tag_344:\n        /* \"#utility.yul\":14261:14263   */\n      0x20\n        /* \"#utility.yul\":14256:14259   */\n      dup3\n        /* \"#utility.yul\":14252:14264   */\n      add\n        /* \"#utility.yul\":14245:14264   */\n      swap1\n      pop\n        /* \"#utility.yul\":13904:14270   */\n      swap2\n      swap1\n      pop\n      jump\t// out\n        /* \"#utility.yul\":14276:14695   */\n    tag_178:\n        /* \"#utility.yul\":14442:14446   */\n      0x00\n        /* \"#utility.yul\":14480:14482   */\n      0x20\n        /* \"#utility.yul\":14469:14478   */\n      dup3\n        /* \"#utility.yul\":14465:14483   */\n      add\n        /* \"#utility.yul\":14457:14483   */\n      swap1\n      pop\n        /* \"#utility.yul\":14529:14538   */\n      dup2\n        /* \"#utility.yul\":14523:14527   */\n      dup2\n        /* \"#utility.yul\":14519:14539   */\n      sub\n        /* \"#utility.yul\":14515:14516   */\n      0x00\n        /* \"#utility.yul\":14504:14513   */\n      dup4\n        /* \"#utility.yul\":14500:14517   */\n      add\n        /* \"#utility.yul\":14493:14540   */\n      mstore\n        /* \"#utility.yul\":14557:14688   */\n      tag_346\n        /* \"#utility.yul\":14683:14687   */\n      dup2\n        /* \"#utility.yul\":14557:14688   */\n      tag_218\n      jump\t// in\n    tag_346:\n        /* \"#utility.yul\":14549:14688   */\n      swap1\n      pop\n        /* \"#utility.yul\":14276:14695   */\n      swap2\n      swap1\n      pop\n      jump\t// out\n\n    auxdata: 0xa26469706673582212201cb794720ae7a733005c35253e59b3abeab357510ae4a2404caff9b626a1d8f564736f6c63430008100033\n}\n",
				"bytecode": {
					"linkReferences": {},
					"object": "6080604052670de0b6b3a764000060055534801561001c57600080fd5b5061003961002e61003e60201b60201c565b61004660201b60201c565b61010a565b600033905090565b60008060009054906101000a900473ffffffffffffffffffffffffffffffffffffffff169050816000806101000a81548173ffffffffffffffffffffffffffffffffffffffff021916908373ffffffffffffffffffffffffffffffffffffffff1602179055508173ffffffffffffffffffffffffffffffffffffffff168173ffffffffffffffffffffffffffffffffffffffff167f8be0079c531659141344cd1fd0a4f28419497f9722a3daafe3b4186f6b6457e060405160405180910390a35050565b6116e2806101196000396000f3fe6080604052600436106100f35760003560e01c8063befa2fc61161008a578063dd8aaa4f11610059578063dd8aaa4f14610322578063e11d48b11461034b578063e985e9c514610374578063f2fde38b146103b1576100f3565b8063befa2fc614610240578063d028fa0c1461026b578063d353c0b7146102a8578063dd62ed3e146102e5576100f3565b80633a75b3ce116100c65780633a75b3ce146101c657806341a7726a146101e2578063715018a6146101fe5780638da5cb5b14610215576100f3565b8063141a8dd8146100f8578063159cfa6c1461012357806323b872dd146101605780632b6fb5ba1461019d575b600080fd5b34801561010457600080fd5b5061010d6103da565b60405161011a9190610fcd565b60405180910390f35b34801561012f57600080fd5b5061014a60048036038101906101459190611019565b610400565b604051610157919061105f565b60405180910390f35b34801561016c57600080fd5b50610187600480360381019061018291906110a6565b61049e565b6040516101949190611114565b60405180910390f35b3480156101a957600080fd5b506101c460048036038101906101bf919061115b565b6104e3565b005b6101e060048036038101906101db91906111d9565b61053e565b005b6101fc60048036038101906101f79190611019565b6105b6565b005b34801561020a57600080fd5b50610213610775565b005b34801561022157600080fd5b5061022a6107fd565b6040516102379190610fcd565b60405180910390f35b34801561024c57600080fd5b50610255610826565b604051610262919061105f565b60405180910390f35b34801561027757600080fd5b50610292600480360381019061028d9190611019565b61082c565b60405161029f919061105f565b60405180910390f35b3480156102b457600080fd5b506102cf60048036038101906102ca9190611019565b6108ca565b6040516102dc9190611114565b60405180910390f35b3480156102f157600080fd5b5061030c60048036038101906103079190611206565b6108ea565b604051610319919061105f565b60405180910390f35b34801561032e57600080fd5b50610349600480360381019061034491906110a6565b610971565b005b34801561035757600080fd5b50610372600480360381019061036d91906111d9565b6109fd565b005b34801561038057600080fd5b5061039b60048036038101906103969190611206565b610a24565b6040516103a89190611114565b60405180910390f35b3480156103bd57600080fd5b506103d860048036038101906103d39190611019565b610ab8565b005b600460009054906101000a900473ffffffffffffffffffffffffffffffffffffffff1681565b6000801515600660008473ffffffffffffffffffffffffffffffffffffffff1673ffffffffffffffffffffffffffffffffffffffff16815260200190815260200160002060009054906101000a900460ff16151503610494576040517f08c379a000000000000000000000000000000000000000000000000000000000815260040161048b906112a3565b60405180910390fd5b6001549050919050565b60006104cd84600460009054906101000a900473ffffffffffffffffffffffffffffffffffffffff1684610971565b6104d8848484610baf565b600190509392505050565b80600660008473ffffffffffffffffffffffffffffffffffffffff1673ffffffffffffffffffffffffffffffffffffffff16815260200190815260200160002060006101000a81548160ff0219169083151502179055505050565b60006005549050603c60025461055491906112f2565b42111561056057600080fd5b3373ffffffffffffffffffffffffffffffffffffffff166108fc829081150290604051600060405180830381858888f193505050501580156105a6573d6000803e3d6000fd5b506105b28260006104e3565b5050565b80600360006101000a81548173ffffffffffffffffffffffffffffffffffffffff021916908373ffffffffffffffffffffffffffffffffffffffff16021790555030600460006101000a81548173ffffffffffffffffffffffffffffffffffffffff021916908373ffffffffffffffffffffffffffffffffffffffff1602179055506106433360016104e3565b600554341015610688576040517f08c379a000000000000000000000000000000000000000000000000000000000815260040161067f90611372565b60405180910390fd5b6106b433600460009054906101000a900473ffffffffffffffffffffffffffffffffffffffff16610a24565b6106bd57600080fd5b3373ffffffffffffffffffffffffffffffffffffffff166108fc349081150290604051600060405180830381858888f19350505050158015610703573d6000803e3d6000fd5b50610755600460009054906101000a900473ffffffffffffffffffffffffffffffffffffffff16600360009054906101000a900473ffffffffffffffffffffffffffffffffffffffff1660055461049e565b5042600181905550603c60015461076c91906112f2565b60028190555050565b61077d610cf7565b73ffffffffffffffffffffffffffffffffffffffff1661079b6107fd565b73ffffffffffffffffffffffffffffffffffffffff16146107f1576040517f08c379a00000000000000000000000000000000000000000000000000000000081526004016107e8906113de565b60405180910390fd5b6107fb6000610cff565b565b60008060009054906101000a900473ffffffffffffffffffffffffffffffffffffffff16905090565b60055481565b6000801515600660008473ffffffffffffffffffffffffffffffffffffffff1673ffffffffffffffffffffffffffffffffffffffff16815260200190815260200160002060009054906101000a900460ff161515036108c0576040517f08c379a00000000000000000000000000000000000000000000000000000000081526004016108b7906112a3565b60405180910390fd5b6002549050919050565b60066020528060005260406000206000915054906101000a900460ff1681565b6000600760008473ffffffffffffffffffffffffffffffffffffffff1673ffffffffffffffffffffffffffffffffffffffff16815260200190815260200160002060008373ffffffffffffffffffffffffffffffffffffffff1673ffffffffffffffffffffffffffffffffffffffff16815260200190815260200160002054905092915050565b600061097d84846108ea565b90507fffffffffffffffffffffffffffffffffffffffffffffffffffffffffffffffff81146109f757818110156109e9576040517f08c379a00000000000000000000000000000000000000000000000000000000081526004016109e09061144a565b60405180910390fd5b6109f68484848403610dc3565b5b50505050565b600254421015610a1757610a128160006104e3565b610a21565b610a208161053e565b5b50565b6000600860008473ffffffffffffffffffffffffffffffffffffffff1673ffffffffffffffffffffffffffffffffffffffff16815260200190815260200160002060008373ffffffffffffffffffffffffffffffffffffffff1673ffffffffffffffffffffffffffffffffffffffff16815260200190815260200160002060009054906101000a900460ff16905092915050565b610ac0610cf7565b73ffffffffffffffffffffffffffffffffffffffff16610ade6107fd565b73ffffffffffffffffffffffffffffffffffffffff1614610b34576040517f08c379a0000000000000000000000000000000000000000000000000000000008152600401610b2b906113de565b60405180910390fd5b600073ffffffffffffffffffffffffffffffffffffffff168173ffffffffffffffffffffffffffffffffffffffff1603610ba3576040517f08c379a0000000000000000000000000000000000000000000000000000000008152600401610b9a906114dc565b60405180910390fd5b610bac81610cff565b50565b600073ffffffffffffffffffffffffffffffffffffffff168373ffffffffffffffffffffffffffffffffffffffff1603610c1e576040517f08c379a0000000000000000000000000000000000000000000000000000000008152600401610c1590611548565b60405180910390fd5b600073ffffffffffffffffffffffffffffffffffffffff168273ffffffffffffffffffffffffffffffffffffffff1603610c8d576040517f08c379a0000000000000000000000000000000000000000000000000000000008152600401610c84906115b4565b60405180910390fd5b8173ffffffffffffffffffffffffffffffffffffffff168373ffffffffffffffffffffffffffffffffffffffff167fddf252ad1be2c89b69c2b068fc378daa952ba7f163c4a11628f55a4df523b3ef83604051610cea919061105f565b60405180910390a3505050565b600033905090565b60008060009054906101000a900473ffffffffffffffffffffffffffffffffffffffff169050816000806101000a81548173ffffffffffffffffffffffffffffffffffffffff021916908373ffffffffffffffffffffffffffffffffffffffff1602179055508173ffffffffffffffffffffffffffffffffffffffff168173ffffffffffffffffffffffffffffffffffffffff167f8be0079c531659141344cd1fd0a4f28419497f9722a3daafe3b4186f6b6457e060405160405180910390a35050565b600073ffffffffffffffffffffffffffffffffffffffff168373ffffffffffffffffffffffffffffffffffffffff1603610e32576040517f08c379a0000000000000000000000000000000000000000000000000000000008152600401610e2990611620565b60405180910390fd5b600073ffffffffffffffffffffffffffffffffffffffff168273ffffffffffffffffffffffffffffffffffffffff1603610ea1576040517f08c379a0000000000000000000000000000000000000000000000000000000008152600401610e989061168c565b60405180910390fd5b80600760008573ffffffffffffffffffffffffffffffffffffffff1673ffffffffffffffffffffffffffffffffffffffff16815260200190815260200160002060008473ffffffffffffffffffffffffffffffffffffffff1673ffffffffffffffffffffffffffffffffffffffff168152602001908152602001600020819055508173ffffffffffffffffffffffffffffffffffffffff168373ffffffffffffffffffffffffffffffffffffffff167f8c5be1e5ebec7d5bd14f71427d1e84f3dd0314c0f7b2291e5b200ac8c7c3b92583604051610f7f919061105f565b60405180910390a3505050565b600073ffffffffffffffffffffffffffffffffffffffff82169050919050565b6000610fb782610f8c565b9050919050565b610fc781610fac565b82525050565b6000602082019050610fe26000830184610fbe565b92915050565b600080fd5b610ff681610fac565b811461100157600080fd5b50565b60008135905061101381610fed565b92915050565b60006020828403121561102f5761102e610fe8565b5b600061103d84828501611004565b91505092915050565b6000819050919050565b61105981611046565b82525050565b60006020820190506110746000830184611050565b92915050565b61108381611046565b811461108e57600080fd5b50565b6000813590506110a08161107a565b92915050565b6000806000606084860312156110bf576110be610fe8565b5b60006110cd86828701611004565b93505060206110de86828701611004565b92505060406110ef86828701611091565b9150509250925092565b60008115159050919050565b61110e816110f9565b82525050565b60006020820190506111296000830184611105565b92915050565b611138816110f9565b811461114357600080fd5b50565b6000813590506111558161112f565b92915050565b6000806040838503121561117257611171610fe8565b5b600061118085828601611004565b925050602061119185828601611146565b9150509250929050565b60006111a682610f8c565b9050919050565b6111b68161119b565b81146111c157600080fd5b50565b6000813590506111d3816111ad565b92915050565b6000602082840312156111ef576111ee610fe8565b5b60006111fd848285016111c4565b91505092915050565b6000806040838503121561121d5761121c610fe8565b5b600061122b85828601611004565b925050602061123c85828601611004565b9150509250929050565b600082825260208201905092915050565b7f537562736372696265204f757220536572766963650000000000000000000000600082015250565b600061128d601583611246565b915061129882611257565b602082019050919050565b600060208201905081810360008301526112bc81611280565b9050919050565b7f4e487b7100000000000000000000000000000000000000000000000000000000600052601160045260246000fd5b60006112fd82611046565b915061130883611046565b92508282019050808211156113205761131f6112c3565b5b92915050565b7f506c656173652063686172676520796f75722077616c6c657400000000000000600082015250565b600061135c601983611246565b915061136782611326565b602082019050919050565b6000602082019050818103600083015261138b8161134f565b9050919050565b7f4f776e61626c653a2063616c6c6572206973206e6f7420746865206f776e6572600082015250565b60006113c8602083611246565b91506113d382611392565b602082019050919050565b600060208201905081810360008301526113f7816113bb565b9050919050565b7f45524332303a20696e73756666696369656e7420616c6c6f77616e6365000000600082015250565b6000611434601d83611246565b915061143f826113fe565b602082019050919050565b6000602082019050818103600083015261146381611427565b9050919050565b7f4f776e61626c653a206e6577206f776e657220697320746865207a65726f206160008201527f6464726573730000000000000000000000000000000000000000000000000000602082015250565b60006114c6602683611246565b91506114d18261146a565b604082019050919050565b600060208201905081810360008301526114f5816114b9565b9050919050565b7f7472616e736665722066726f6d20746865207a65726f20616464726573730000600082015250565b6000611532601e83611246565b915061153d826114fc565b602082019050919050565b6000602082019050818103600083015261156181611525565b9050919050565b7f7472616e7366657220746f20746865207a65726f206164647265737300000000600082015250565b600061159e601c83611246565b91506115a982611568565b602082019050919050565b600060208201905081810360008301526115cd81611591565b9050919050565b7f617070726f76652066726f6d20746865207a65726f2061646472657373000000600082015250565b600061160a601d83611246565b9150611615826115d4565b602082019050919050565b60006020820190508181036000830152611639816115fd565b9050919050565b7f20617070726f766520746f20746865207a65726f206164647265737300000000600082015250565b6000611676601c83611246565b915061168182611640565b602082019050919050565b600060208201905081810360008301526116a581611669565b905091905056fea26469706673582212201cb794720ae7a733005c35253e59b3abeab357510ae4a2404caff9b626a1d8f564736f6c63430008100033",
					"opcodes": "PUSH1 0x80 PUSH1 0x40 MSTORE PUSH8 0xDE0B6B3A7640000 PUSH1 0x5 SSTORE CALLVALUE DUP1 ISZERO PUSH2 0x1C JUMPI PUSH1 0x0 DUP1 REVERT JUMPDEST POP PUSH2 0x39 PUSH2 0x2E PUSH2 0x3E PUSH1 0x20 SHL PUSH1 0x20 SHR JUMP JUMPDEST PUSH2 0x46 PUSH1 0x20 SHL PUSH1 0x20 SHR JUMP JUMPDEST PUSH2 0x10A JUMP JUMPDEST PUSH1 0x0 CALLER SWAP1 POP SWAP1 JUMP JUMPDEST PUSH1 0x0 DUP1 PUSH1 0x0 SWAP1 SLOAD SWAP1 PUSH2 0x100 EXP SWAP1 DIV PUSH20 0xFFFFFFFFFFFFFFFFFFFFFFFFFFFFFFFFFFFFFFFF AND SWAP1 POP DUP2 PUSH1 0x0 DUP1 PUSH2 0x100 EXP DUP2 SLOAD DUP2 PUSH20 0xFFFFFFFFFFFFFFFFFFFFFFFFFFFFFFFFFFFFFFFF MUL NOT AND SWAP1 DUP4 PUSH20 0xFFFFFFFFFFFFFFFFFFFFFFFFFFFFFFFFFFFFFFFF AND MUL OR SWAP1 SSTORE POP DUP2 PUSH20 0xFFFFFFFFFFFFFFFFFFFFFFFFFFFFFFFFFFFFFFFF AND DUP2 PUSH20 0xFFFFFFFFFFFFFFFFFFFFFFFFFFFFFFFFFFFFFFFF AND PUSH32 0x8BE0079C531659141344CD1FD0A4F28419497F9722A3DAAFE3B4186F6B6457E0 PUSH1 0x40 MLOAD PUSH1 0x40 MLOAD DUP1 SWAP2 SUB SWAP1 LOG3 POP POP JUMP JUMPDEST PUSH2 0x16E2 DUP1 PUSH2 0x119 PUSH1 0x0 CODECOPY PUSH1 0x0 RETURN INVALID PUSH1 0x80 PUSH1 0x40 MSTORE PUSH1 0x4 CALLDATASIZE LT PUSH2 0xF3 JUMPI PUSH1 0x0 CALLDATALOAD PUSH1 0xE0 SHR DUP1 PUSH4 0xBEFA2FC6 GT PUSH2 0x8A JUMPI DUP1 PUSH4 0xDD8AAA4F GT PUSH2 0x59 JUMPI DUP1 PUSH4 0xDD8AAA4F EQ PUSH2 0x322 JUMPI DUP1 PUSH4 0xE11D48B1 EQ PUSH2 0x34B JUMPI DUP1 PUSH4 0xE985E9C5 EQ PUSH2 0x374 JUMPI DUP1 PUSH4 0xF2FDE38B EQ PUSH2 0x3B1 JUMPI PUSH2 0xF3 JUMP JUMPDEST DUP1 PUSH4 0xBEFA2FC6 EQ PUSH2 0x240 JUMPI DUP1 PUSH4 0xD028FA0C EQ PUSH2 0x26B JUMPI DUP1 PUSH4 0xD353C0B7 EQ PUSH2 0x2A8 JUMPI DUP1 PUSH4 0xDD62ED3E EQ PUSH2 0x2E5 JUMPI PUSH2 0xF3 JUMP JUMPDEST DUP1 PUSH4 0x3A75B3CE GT PUSH2 0xC6 JUMPI DUP1 PUSH4 0x3A75B3CE EQ PUSH2 0x1C6 JUMPI DUP1 PUSH4 0x41A7726A EQ PUSH2 0x1E2 JUMPI DUP1 PUSH4 0x715018A6 EQ PUSH2 0x1FE JUMPI DUP1 PUSH4 0x8DA5CB5B EQ PUSH2 0x215 JUMPI PUSH2 0xF3 JUMP JUMPDEST DUP1 PUSH4 0x141A8DD8 EQ PUSH2 0xF8 JUMPI DUP1 PUSH4 0x159CFA6C EQ PUSH2 0x123 JUMPI DUP1 PUSH4 0x23B872DD EQ PUSH2 0x160 JUMPI DUP1 PUSH4 0x2B6FB5BA EQ PUSH2 0x19D JUMPI JUMPDEST PUSH1 0x0 DUP1 REVERT JUMPDEST CALLVALUE DUP1 ISZERO PUSH2 0x104 JUMPI PUSH1 0x0 DUP1 REVERT JUMPDEST POP PUSH2 0x10D PUSH2 0x3DA JUMP JUMPDEST PUSH1 0x40 MLOAD PUSH2 0x11A SWAP2 SWAP1 PUSH2 0xFCD JUMP JUMPDEST PUSH1 0x40 MLOAD DUP1 SWAP2 SUB SWAP1 RETURN JUMPDEST CALLVALUE DUP1 ISZERO PUSH2 0x12F JUMPI PUSH1 0x0 DUP1 REVERT JUMPDEST POP PUSH2 0x14A PUSH1 0x4 DUP1 CALLDATASIZE SUB DUP2 ADD SWAP1 PUSH2 0x145 SWAP2 SWAP1 PUSH2 0x1019 JUMP JUMPDEST PUSH2 0x400 JUMP JUMPDEST PUSH1 0x40 MLOAD PUSH2 0x157 SWAP2 SWAP1 PUSH2 0x105F JUMP JUMPDEST PUSH1 0x40 MLOAD DUP1 SWAP2 SUB SWAP1 RETURN JUMPDEST CALLVALUE DUP1 ISZERO PUSH2 0x16C JUMPI PUSH1 0x0 DUP1 REVERT JUMPDEST POP PUSH2 0x187 PUSH1 0x4 DUP1 CALLDATASIZE SUB DUP2 ADD SWAP1 PUSH2 0x182 SWAP2 SWAP1 PUSH2 0x10A6 JUMP JUMPDEST PUSH2 0x49E JUMP JUMPDEST PUSH1 0x40 MLOAD PUSH2 0x194 SWAP2 SWAP1 PUSH2 0x1114 JUMP JUMPDEST PUSH1 0x40 MLOAD DUP1 SWAP2 SUB SWAP1 RETURN JUMPDEST CALLVALUE DUP1 ISZERO PUSH2 0x1A9 JUMPI PUSH1 0x0 DUP1 REVERT JUMPDEST POP PUSH2 0x1C4 PUSH1 0x4 DUP1 CALLDATASIZE SUB DUP2 ADD SWAP1 PUSH2 0x1BF SWAP2 SWAP1 PUSH2 0x115B JUMP JUMPDEST PUSH2 0x4E3 JUMP JUMPDEST STOP JUMPDEST PUSH2 0x1E0 PUSH1 0x4 DUP1 CALLDATASIZE SUB DUP2 ADD SWAP1 PUSH2 0x1DB SWAP2 SWAP1 PUSH2 0x11D9 JUMP JUMPDEST PUSH2 0x53E JUMP JUMPDEST STOP JUMPDEST PUSH2 0x1FC PUSH1 0x4 DUP1 CALLDATASIZE SUB DUP2 ADD SWAP1 PUSH2 0x1F7 SWAP2 SWAP1 PUSH2 0x1019 JUMP JUMPDEST PUSH2 0x5B6 JUMP JUMPDEST STOP JUMPDEST CALLVALUE DUP1 ISZERO PUSH2 0x20A JUMPI PUSH1 0x0 DUP1 REVERT JUMPDEST POP PUSH2 0x213 PUSH2 0x775 JUMP JUMPDEST STOP JUMPDEST CALLVALUE DUP1 ISZERO PUSH2 0x221 JUMPI PUSH1 0x0 DUP1 REVERT JUMPDEST POP PUSH2 0x22A PUSH2 0x7FD JUMP JUMPDEST PUSH1 0x40 MLOAD PUSH2 0x237 SWAP2 SWAP1 PUSH2 0xFCD JUMP JUMPDEST PUSH1 0x40 MLOAD DUP1 SWAP2 SUB SWAP1 RETURN JUMPDEST CALLVALUE DUP1 ISZERO PUSH2 0x24C JUMPI PUSH1 0x0 DUP1 REVERT JUMPDEST POP PUSH2 0x255 PUSH2 0x826 JUMP JUMPDEST PUSH1 0x40 MLOAD PUSH2 0x262 SWAP2 SWAP1 PUSH2 0x105F JUMP JUMPDEST PUSH1 0x40 MLOAD DUP1 SWAP2 SUB SWAP1 RETURN JUMPDEST CALLVALUE DUP1 ISZERO PUSH2 0x277 JUMPI PUSH1 0x0 DUP1 REVERT JUMPDEST POP PUSH2 0x292 PUSH1 0x4 DUP1 CALLDATASIZE SUB DUP2 ADD SWAP1 PUSH2 0x28D SWAP2 SWAP1 PUSH2 0x1019 JUMP JUMPDEST PUSH2 0x82C JUMP JUMPDEST PUSH1 0x40 MLOAD PUSH2 0x29F SWAP2 SWAP1 PUSH2 0x105F JUMP JUMPDEST PUSH1 0x40 MLOAD DUP1 SWAP2 SUB SWAP1 RETURN JUMPDEST CALLVALUE DUP1 ISZERO PUSH2 0x2B4 JUMPI PUSH1 0x0 DUP1 REVERT JUMPDEST POP PUSH2 0x2CF PUSH1 0x4 DUP1 CALLDATASIZE SUB DUP2 ADD SWAP1 PUSH2 0x2CA SWAP2 SWAP1 PUSH2 0x1019 JUMP JUMPDEST PUSH2 0x8CA JUMP JUMPDEST PUSH1 0x40 MLOAD PUSH2 0x2DC SWAP2 SWAP1 PUSH2 0x1114 JUMP JUMPDEST PUSH1 0x40 MLOAD DUP1 SWAP2 SUB SWAP1 RETURN JUMPDEST CALLVALUE DUP1 ISZERO PUSH2 0x2F1 JUMPI PUSH1 0x0 DUP1 REVERT JUMPDEST POP PUSH2 0x30C PUSH1 0x4 DUP1 CALLDATASIZE SUB DUP2 ADD SWAP1 PUSH2 0x307 SWAP2 SWAP1 PUSH2 0x1206 JUMP JUMPDEST PUSH2 0x8EA JUMP JUMPDEST PUSH1 0x40 MLOAD PUSH2 0x319 SWAP2 SWAP1 PUSH2 0x105F JUMP JUMPDEST PUSH1 0x40 MLOAD DUP1 SWAP2 SUB SWAP1 RETURN JUMPDEST CALLVALUE DUP1 ISZERO PUSH2 0x32E JUMPI PUSH1 0x0 DUP1 REVERT JUMPDEST POP PUSH2 0x349 PUSH1 0x4 DUP1 CALLDATASIZE SUB DUP2 ADD SWAP1 PUSH2 0x344 SWAP2 SWAP1 PUSH2 0x10A6 JUMP JUMPDEST PUSH2 0x971 JUMP JUMPDEST STOP JUMPDEST CALLVALUE DUP1 ISZERO PUSH2 0x357 JUMPI PUSH1 0x0 DUP1 REVERT JUMPDEST POP PUSH2 0x372 PUSH1 0x4 DUP1 CALLDATASIZE SUB DUP2 ADD SWAP1 PUSH2 0x36D SWAP2 SWAP1 PUSH2 0x11D9 JUMP JUMPDEST PUSH2 0x9FD JUMP JUMPDEST STOP JUMPDEST CALLVALUE DUP1 ISZERO PUSH2 0x380 JUMPI PUSH1 0x0 DUP1 REVERT JUMPDEST POP PUSH2 0x39B PUSH1 0x4 DUP1 CALLDATASIZE SUB DUP2 ADD SWAP1 PUSH2 0x396 SWAP2 SWAP1 PUSH2 0x1206 JUMP JUMPDEST PUSH2 0xA24 JUMP JUMPDEST PUSH1 0x40 MLOAD PUSH2 0x3A8 SWAP2 SWAP1 PUSH2 0x1114 JUMP JUMPDEST PUSH1 0x40 MLOAD DUP1 SWAP2 SUB SWAP1 RETURN JUMPDEST CALLVALUE DUP1 ISZERO PUSH2 0x3BD JUMPI PUSH1 0x0 DUP1 REVERT JUMPDEST POP PUSH2 0x3D8 PUSH1 0x4 DUP1 CALLDATASIZE SUB DUP2 ADD SWAP1 PUSH2 0x3D3 SWAP2 SWAP1 PUSH2 0x1019 JUMP JUMPDEST PUSH2 0xAB8 JUMP JUMPDEST STOP JUMPDEST PUSH1 0x4 PUSH1 0x0 SWAP1 SLOAD SWAP1 PUSH2 0x100 EXP SWAP1 DIV PUSH20 0xFFFFFFFFFFFFFFFFFFFFFFFFFFFFFFFFFFFFFFFF AND DUP2 JUMP JUMPDEST PUSH1 0x0 DUP1 ISZERO ISZERO PUSH1 0x6 PUSH1 0x0 DUP5 PUSH20 0xFFFFFFFFFFFFFFFFFFFFFFFFFFFFFFFFFFFFFFFF AND PUSH20 0xFFFFFFFFFFFFFFFFFFFFFFFFFFFFFFFFFFFFFFFF AND DUP2 MSTORE PUSH1 0x20 ADD SWAP1 DUP2 MSTORE PUSH1 0x20 ADD PUSH1 0x0 KECCAK256 PUSH1 0x0 SWAP1 SLOAD SWAP1 PUSH2 0x100 EXP SWAP1 DIV PUSH1 0xFF AND ISZERO ISZERO SUB PUSH2 0x494 JUMPI PUSH1 0x40 MLOAD PUSH32 0x8C379A000000000000000000000000000000000000000000000000000000000 DUP2 MSTORE PUSH1 0x4 ADD PUSH2 0x48B SWAP1 PUSH2 0x12A3 JUMP JUMPDEST PUSH1 0x40 MLOAD DUP1 SWAP2 SUB SWAP1 REVERT JUMPDEST PUSH1 0x1 SLOAD SWAP1 POP SWAP2 SWAP1 POP JUMP JUMPDEST PUSH1 0x0 PUSH2 0x4CD DUP5 PUSH1 0x4 PUSH1 0x0 SWAP1 SLOAD SWAP1 PUSH2 0x100 EXP SWAP1 DIV PUSH20 0xFFFFFFFFFFFFFFFFFFFFFFFFFFFFFFFFFFFFFFFF AND DUP5 PUSH2 0x971 JUMP JUMPDEST PUSH2 0x4D8 DUP5 DUP5 DUP5 PUSH2 0xBAF JUMP JUMPDEST PUSH1 0x1 SWAP1 POP SWAP4 SWAP3 POP POP POP JUMP JUMPDEST DUP1 PUSH1 0x6 PUSH1 0x0 DUP5 PUSH20 0xFFFFFFFFFFFFFFFFFFFFFFFFFFFFFFFFFFFFFFFF AND PUSH20 0xFFFFFFFFFFFFFFFFFFFFFFFFFFFFFFFFFFFFFFFF AND DUP2 MSTORE PUSH1 0x20 ADD SWAP1 DUP2 MSTORE PUSH1 0x20 ADD PUSH1 0x0 KECCAK256 PUSH1 0x0 PUSH2 0x100 EXP DUP2 SLOAD DUP2 PUSH1 0xFF MUL NOT AND SWAP1 DUP4 ISZERO ISZERO MUL OR SWAP1 SSTORE POP POP POP JUMP JUMPDEST PUSH1 0x0 PUSH1 0x5 SLOAD SWAP1 POP PUSH1 0x3C PUSH1 0x2 SLOAD PUSH2 0x554 SWAP2 SWAP1 PUSH2 0x12F2 JUMP JUMPDEST TIMESTAMP GT ISZERO PUSH2 0x560 JUMPI PUSH1 0x0 DUP1 REVERT JUMPDEST CALLER PUSH20 0xFFFFFFFFFFFFFFFFFFFFFFFFFFFFFFFFFFFFFFFF AND PUSH2 0x8FC DUP3 SWAP1 DUP2 ISZERO MUL SWAP1 PUSH1 0x40 MLOAD PUSH1 0x0 PUSH1 0x40 MLOAD DUP1 DUP4 SUB DUP2 DUP6 DUP9 DUP9 CALL SWAP4 POP POP POP POP ISZERO DUP1 ISZERO PUSH2 0x5A6 JUMPI RETURNDATASIZE PUSH1 0x0 DUP1 RETURNDATACOPY RETURNDATASIZE PUSH1 0x0 REVERT JUMPDEST POP PUSH2 0x5B2 DUP3 PUSH1 0x0 PUSH2 0x4E3 JUMP JUMPDEST POP POP JUMP JUMPDEST DUP1 PUSH1 0x3 PUSH1 0x0 PUSH2 0x100 EXP DUP2 SLOAD DUP2 PUSH20 0xFFFFFFFFFFFFFFFFFFFFFFFFFFFFFFFFFFFFFFFF MUL NOT AND SWAP1 DUP4 PUSH20 0xFFFFFFFFFFFFFFFFFFFFFFFFFFFFFFFFFFFFFFFF AND MUL OR SWAP1 SSTORE POP ADDRESS PUSH1 0x4 PUSH1 0x0 PUSH2 0x100 EXP DUP2 SLOAD DUP2 PUSH20 0xFFFFFFFFFFFFFFFFFFFFFFFFFFFFFFFFFFFFFFFF MUL NOT AND SWAP1 DUP4 PUSH20 0xFFFFFFFFFFFFFFFFFFFFFFFFFFFFFFFFFFFFFFFF AND MUL OR SWAP1 SSTORE POP PUSH2 0x643 CALLER PUSH1 0x1 PUSH2 0x4E3 JUMP JUMPDEST PUSH1 0x5 SLOAD CALLVALUE LT ISZERO PUSH2 0x688 JUMPI PUSH1 0x40 MLOAD PUSH32 0x8C379A000000000000000000000000000000000000000000000000000000000 DUP2 MSTORE PUSH1 0x4 ADD PUSH2 0x67F SWAP1 PUSH2 0x1372 JUMP JUMPDEST PUSH1 0x40 MLOAD DUP1 SWAP2 SUB SWAP1 REVERT JUMPDEST PUSH2 0x6B4 CALLER PUSH1 0x4 PUSH1 0x0 SWAP1 SLOAD SWAP1 PUSH2 0x100 EXP SWAP1 DIV PUSH20 0xFFFFFFFFFFFFFFFFFFFFFFFFFFFFFFFFFFFFFFFF AND PUSH2 0xA24 JUMP JUMPDEST PUSH2 0x6BD JUMPI PUSH1 0x0 DUP1 REVERT JUMPDEST CALLER PUSH20 0xFFFFFFFFFFFFFFFFFFFFFFFFFFFFFFFFFFFFFFFF AND PUSH2 0x8FC CALLVALUE SWAP1 DUP2 ISZERO MUL SWAP1 PUSH1 0x40 MLOAD PUSH1 0x0 PUSH1 0x40 MLOAD DUP1 DUP4 SUB DUP2 DUP6 DUP9 DUP9 CALL SWAP4 POP POP POP POP ISZERO DUP1 ISZERO PUSH2 0x703 JUMPI RETURNDATASIZE PUSH1 0x0 DUP1 RETURNDATACOPY RETURNDATASIZE PUSH1 0x0 REVERT JUMPDEST POP PUSH2 0x755 PUSH1 0x4 PUSH1 0x0 SWAP1 SLOAD SWAP1 PUSH2 0x100 EXP SWAP1 DIV PUSH20 0xFFFFFFFFFFFFFFFFFFFFFFFFFFFFFFFFFFFFFFFF AND PUSH1 0x3 PUSH1 0x0 SWAP1 SLOAD SWAP1 PUSH2 0x100 EXP SWAP1 DIV PUSH20 0xFFFFFFFFFFFFFFFFFFFFFFFFFFFFFFFFFFFFFFFF AND PUSH1 0x5 SLOAD PUSH2 0x49E JUMP JUMPDEST POP TIMESTAMP PUSH1 0x1 DUP2 SWAP1 SSTORE POP PUSH1 0x3C PUSH1 0x1 SLOAD PUSH2 0x76C SWAP2 SWAP1 PUSH2 0x12F2 JUMP JUMPDEST PUSH1 0x2 DUP2 SWAP1 SSTORE POP POP JUMP JUMPDEST PUSH2 0x77D PUSH2 0xCF7 JUMP JUMPDEST PUSH20 0xFFFFFFFFFFFFFFFFFFFFFFFFFFFFFFFFFFFFFFFF AND PUSH2 0x79B PUSH2 0x7FD JUMP JUMPDEST PUSH20 0xFFFFFFFFFFFFFFFFFFFFFFFFFFFFFFFFFFFFFFFF AND EQ PUSH2 0x7F1 JUMPI PUSH1 0x40 MLOAD PUSH32 0x8C379A000000000000000000000000000000000000000000000000000000000 DUP2 MSTORE PUSH1 0x4 ADD PUSH2 0x7E8 SWAP1 PUSH2 0x13DE JUMP JUMPDEST PUSH1 0x40 MLOAD DUP1 SWAP2 SUB SWAP1 REVERT JUMPDEST PUSH2 0x7FB PUSH1 0x0 PUSH2 0xCFF JUMP JUMPDEST JUMP JUMPDEST PUSH1 0x0 DUP1 PUSH1 0x0 SWAP1 SLOAD SWAP1 PUSH2 0x100 EXP SWAP1 DIV PUSH20 0xFFFFFFFFFFFFFFFFFFFFFFFFFFFFFFFFFFFFFFFF AND SWAP1 POP SWAP1 JUMP JUMPDEST PUSH1 0x5 SLOAD DUP2 JUMP JUMPDEST PUSH1 0x0 DUP1 ISZERO ISZERO PUSH1 0x6 PUSH1 0x0 DUP5 PUSH20 0xFFFFFFFFFFFFFFFFFFFFFFFFFFFFFFFFFFFFFFFF AND PUSH20 0xFFFFFFFFFFFFFFFFFFFFFFFFFFFFFFFFFFFFFFFF AND DUP2 MSTORE PUSH1 0x20 ADD SWAP1 DUP2 MSTORE PUSH1 0x20 ADD PUSH1 0x0 KECCAK256 PUSH1 0x0 SWAP1 SLOAD SWAP1 PUSH2 0x100 EXP SWAP1 DIV PUSH1 0xFF AND ISZERO ISZERO SUB PUSH2 0x8C0 JUMPI PUSH1 0x40 MLOAD PUSH32 0x8C379A000000000000000000000000000000000000000000000000000000000 DUP2 MSTORE PUSH1 0x4 ADD PUSH2 0x8B7 SWAP1 PUSH2 0x12A3 JUMP JUMPDEST PUSH1 0x40 MLOAD DUP1 SWAP2 SUB SWAP1 REVERT JUMPDEST PUSH1 0x2 SLOAD SWAP1 POP SWAP2 SWAP1 POP JUMP JUMPDEST PUSH1 0x6 PUSH1 0x20 MSTORE DUP1 PUSH1 0x0 MSTORE PUSH1 0x40 PUSH1 0x0 KECCAK256 PUSH1 0x0 SWAP2 POP SLOAD SWAP1 PUSH2 0x100 EXP SWAP1 DIV PUSH1 0xFF AND DUP2 JUMP JUMPDEST PUSH1 0x0 PUSH1 0x7 PUSH1 0x0 DUP5 PUSH20 0xFFFFFFFFFFFFFFFFFFFFFFFFFFFFFFFFFFFFFFFF AND PUSH20 0xFFFFFFFFFFFFFFFFFFFFFFFFFFFFFFFFFFFFFFFF AND DUP2 MSTORE PUSH1 0x20 ADD SWAP1 DUP2 MSTORE PUSH1 0x20 ADD PUSH1 0x0 KECCAK256 PUSH1 0x0 DUP4 PUSH20 0xFFFFFFFFFFFFFFFFFFFFFFFFFFFFFFFFFFFFFFFF AND PUSH20 0xFFFFFFFFFFFFFFFFFFFFFFFFFFFFFFFFFFFFFFFF AND DUP2 MSTORE PUSH1 0x20 ADD SWAP1 DUP2 MSTORE PUSH1 0x20 ADD PUSH1 0x0 KECCAK256 SLOAD SWAP1 POP SWAP3 SWAP2 POP POP JUMP JUMPDEST PUSH1 0x0 PUSH2 0x97D DUP5 DUP5 PUSH2 0x8EA JUMP JUMPDEST SWAP1 POP PUSH32 0xFFFFFFFFFFFFFFFFFFFFFFFFFFFFFFFFFFFFFFFFFFFFFFFFFFFFFFFFFFFFFFFF DUP2 EQ PUSH2 0x9F7 JUMPI DUP2 DUP2 LT ISZERO PUSH2 0x9E9 JUMPI PUSH1 0x40 MLOAD PUSH32 0x8C379A000000000000000000000000000000000000000000000000000000000 DUP2 MSTORE PUSH1 0x4 ADD PUSH2 0x9E0 SWAP1 PUSH2 0x144A JUMP JUMPDEST PUSH1 0x40 MLOAD DUP1 SWAP2 SUB SWAP1 REVERT JUMPDEST PUSH2 0x9F6 DUP5 DUP5 DUP5 DUP5 SUB PUSH2 0xDC3 JUMP JUMPDEST JUMPDEST POP POP POP POP JUMP JUMPDEST PUSH1 0x2 SLOAD TIMESTAMP LT ISZERO PUSH2 0xA17 JUMPI PUSH2 0xA12 DUP2 PUSH1 0x0 PUSH2 0x4E3 JUMP JUMPDEST PUSH2 0xA21 JUMP JUMPDEST PUSH2 0xA20 DUP2 PUSH2 0x53E JUMP JUMPDEST JUMPDEST POP JUMP JUMPDEST PUSH1 0x0 PUSH1 0x8 PUSH1 0x0 DUP5 PUSH20 0xFFFFFFFFFFFFFFFFFFFFFFFFFFFFFFFFFFFFFFFF AND PUSH20 0xFFFFFFFFFFFFFFFFFFFFFFFFFFFFFFFFFFFFFFFF AND DUP2 MSTORE PUSH1 0x20 ADD SWAP1 DUP2 MSTORE PUSH1 0x20 ADD PUSH1 0x0 KECCAK256 PUSH1 0x0 DUP4 PUSH20 0xFFFFFFFFFFFFFFFFFFFFFFFFFFFFFFFFFFFFFFFF AND PUSH20 0xFFFFFFFFFFFFFFFFFFFFFFFFFFFFFFFFFFFFFFFF AND DUP2 MSTORE PUSH1 0x20 ADD SWAP1 DUP2 MSTORE PUSH1 0x20 ADD PUSH1 0x0 KECCAK256 PUSH1 0x0 SWAP1 SLOAD SWAP1 PUSH2 0x100 EXP SWAP1 DIV PUSH1 0xFF AND SWAP1 POP SWAP3 SWAP2 POP POP JUMP JUMPDEST PUSH2 0xAC0 PUSH2 0xCF7 JUMP JUMPDEST PUSH20 0xFFFFFFFFFFFFFFFFFFFFFFFFFFFFFFFFFFFFFFFF AND PUSH2 0xADE PUSH2 0x7FD JUMP JUMPDEST PUSH20 0xFFFFFFFFFFFFFFFFFFFFFFFFFFFFFFFFFFFFFFFF AND EQ PUSH2 0xB34 JUMPI PUSH1 0x40 MLOAD PUSH32 0x8C379A000000000000000000000000000000000000000000000000000000000 DUP2 MSTORE PUSH1 0x4 ADD PUSH2 0xB2B SWAP1 PUSH2 0x13DE JUMP JUMPDEST PUSH1 0x40 MLOAD DUP1 SWAP2 SUB SWAP1 REVERT JUMPDEST PUSH1 0x0 PUSH20 0xFFFFFFFFFFFFFFFFFFFFFFFFFFFFFFFFFFFFFFFF AND DUP2 PUSH20 0xFFFFFFFFFFFFFFFFFFFFFFFFFFFFFFFFFFFFFFFF AND SUB PUSH2 0xBA3 JUMPI PUSH1 0x40 MLOAD PUSH32 0x8C379A000000000000000000000000000000000000000000000000000000000 DUP2 MSTORE PUSH1 0x4 ADD PUSH2 0xB9A SWAP1 PUSH2 0x14DC JUMP JUMPDEST PUSH1 0x40 MLOAD DUP1 SWAP2 SUB SWAP1 REVERT JUMPDEST PUSH2 0xBAC DUP2 PUSH2 0xCFF JUMP JUMPDEST POP JUMP JUMPDEST PUSH1 0x0 PUSH20 0xFFFFFFFFFFFFFFFFFFFFFFFFFFFFFFFFFFFFFFFF AND DUP4 PUSH20 0xFFFFFFFFFFFFFFFFFFFFFFFFFFFFFFFFFFFFFFFF AND SUB PUSH2 0xC1E JUMPI PUSH1 0x40 MLOAD PUSH32 0x8C379A000000000000000000000000000000000000000000000000000000000 DUP2 MSTORE PUSH1 0x4 ADD PUSH2 0xC15 SWAP1 PUSH2 0x1548 JUMP JUMPDEST PUSH1 0x40 MLOAD DUP1 SWAP2 SUB SWAP1 REVERT JUMPDEST PUSH1 0x0 PUSH20 0xFFFFFFFFFFFFFFFFFFFFFFFFFFFFFFFFFFFFFFFF AND DUP3 PUSH20 0xFFFFFFFFFFFFFFFFFFFFFFFFFFFFFFFFFFFFFFFF AND SUB PUSH2 0xC8D JUMPI PUSH1 0x40 MLOAD PUSH32 0x8C379A000000000000000000000000000000000000000000000000000000000 DUP2 MSTORE PUSH1 0x4 ADD PUSH2 0xC84 SWAP1 PUSH2 0x15B4 JUMP JUMPDEST PUSH1 0x40 MLOAD DUP1 SWAP2 SUB SWAP1 REVERT JUMPDEST DUP2 PUSH20 0xFFFFFFFFFFFFFFFFFFFFFFFFFFFFFFFFFFFFFFFF AND DUP4 PUSH20 0xFFFFFFFFFFFFFFFFFFFFFFFFFFFFFFFFFFFFFFFF AND PUSH32 0xDDF252AD1BE2C89B69C2B068FC378DAA952BA7F163C4A11628F55A4DF523B3EF DUP4 PUSH1 0x40 MLOAD PUSH2 0xCEA SWAP2 SWAP1 PUSH2 0x105F JUMP JUMPDEST PUSH1 0x40 MLOAD DUP1 SWAP2 SUB SWAP1 LOG3 POP POP POP JUMP JUMPDEST PUSH1 0x0 CALLER SWAP1 POP SWAP1 JUMP JUMPDEST PUSH1 0x0 DUP1 PUSH1 0x0 SWAP1 SLOAD SWAP1 PUSH2 0x100 EXP SWAP1 DIV PUSH20 0xFFFFFFFFFFFFFFFFFFFFFFFFFFFFFFFFFFFFFFFF AND SWAP1 POP DUP2 PUSH1 0x0 DUP1 PUSH2 0x100 EXP DUP2 SLOAD DUP2 PUSH20 0xFFFFFFFFFFFFFFFFFFFFFFFFFFFFFFFFFFFFFFFF MUL NOT AND SWAP1 DUP4 PUSH20 0xFFFFFFFFFFFFFFFFFFFFFFFFFFFFFFFFFFFFFFFF AND MUL OR SWAP1 SSTORE POP DUP2 PUSH20 0xFFFFFFFFFFFFFFFFFFFFFFFFFFFFFFFFFFFFFFFF AND DUP2 PUSH20 0xFFFFFFFFFFFFFFFFFFFFFFFFFFFFFFFFFFFFFFFF AND PUSH32 0x8BE0079C531659141344CD1FD0A4F28419497F9722A3DAAFE3B4186F6B6457E0 PUSH1 0x40 MLOAD PUSH1 0x40 MLOAD DUP1 SWAP2 SUB SWAP1 LOG3 POP POP JUMP JUMPDEST PUSH1 0x0 PUSH20 0xFFFFFFFFFFFFFFFFFFFFFFFFFFFFFFFFFFFFFFFF AND DUP4 PUSH20 0xFFFFFFFFFFFFFFFFFFFFFFFFFFFFFFFFFFFFFFFF AND SUB PUSH2 0xE32 JUMPI PUSH1 0x40 MLOAD PUSH32 0x8C379A000000000000000000000000000000000000000000000000000000000 DUP2 MSTORE PUSH1 0x4 ADD PUSH2 0xE29 SWAP1 PUSH2 0x1620 JUMP JUMPDEST PUSH1 0x40 MLOAD DUP1 SWAP2 SUB SWAP1 REVERT JUMPDEST PUSH1 0x0 PUSH20 0xFFFFFFFFFFFFFFFFFFFFFFFFFFFFFFFFFFFFFFFF AND DUP3 PUSH20 0xFFFFFFFFFFFFFFFFFFFFFFFFFFFFFFFFFFFFFFFF AND SUB PUSH2 0xEA1 JUMPI PUSH1 0x40 MLOAD PUSH32 0x8C379A000000000000000000000000000000000000000000000000000000000 DUP2 MSTORE PUSH1 0x4 ADD PUSH2 0xE98 SWAP1 PUSH2 0x168C JUMP JUMPDEST PUSH1 0x40 MLOAD DUP1 SWAP2 SUB SWAP1 REVERT JUMPDEST DUP1 PUSH1 0x7 PUSH1 0x0 DUP6 PUSH20 0xFFFFFFFFFFFFFFFFFFFFFFFFFFFFFFFFFFFFFFFF AND PUSH20 0xFFFFFFFFFFFFFFFFFFFFFFFFFFFFFFFFFFFFFFFF AND DUP2 MSTORE PUSH1 0x20 ADD SWAP1 DUP2 MSTORE PUSH1 0x20 ADD PUSH1 0x0 KECCAK256 PUSH1 0x0 DUP5 PUSH20 0xFFFFFFFFFFFFFFFFFFFFFFFFFFFFFFFFFFFFFFFF AND PUSH20 0xFFFFFFFFFFFFFFFFFFFFFFFFFFFFFFFFFFFFFFFF AND DUP2 MSTORE PUSH1 0x20 ADD SWAP1 DUP2 MSTORE PUSH1 0x20 ADD PUSH1 0x0 KECCAK256 DUP2 SWAP1 SSTORE POP DUP2 PUSH20 0xFFFFFFFFFFFFFFFFFFFFFFFFFFFFFFFFFFFFFFFF AND DUP4 PUSH20 0xFFFFFFFFFFFFFFFFFFFFFFFFFFFFFFFFFFFFFFFF AND PUSH32 0x8C5BE1E5EBEC7D5BD14F71427D1E84F3DD0314C0F7B2291E5B200AC8C7C3B925 DUP4 PUSH1 0x40 MLOAD PUSH2 0xF7F SWAP2 SWAP1 PUSH2 0x105F JUMP JUMPDEST PUSH1 0x40 MLOAD DUP1 SWAP2 SUB SWAP1 LOG3 POP POP POP JUMP JUMPDEST PUSH1 0x0 PUSH20 0xFFFFFFFFFFFFFFFFFFFFFFFFFFFFFFFFFFFFFFFF DUP3 AND SWAP1 POP SWAP2 SWAP1 POP JUMP JUMPDEST PUSH1 0x0 PUSH2 0xFB7 DUP3 PUSH2 0xF8C JUMP JUMPDEST SWAP1 POP SWAP2 SWAP1 POP JUMP JUMPDEST PUSH2 0xFC7 DUP2 PUSH2 0xFAC JUMP JUMPDEST DUP3 MSTORE POP POP JUMP JUMPDEST PUSH1 0x0 PUSH1 0x20 DUP3 ADD SWAP1 POP PUSH2 0xFE2 PUSH1 0x0 DUP4 ADD DUP5 PUSH2 0xFBE JUMP JUMPDEST SWAP3 SWAP2 POP POP JUMP JUMPDEST PUSH1 0x0 DUP1 REVERT JUMPDEST PUSH2 0xFF6 DUP2 PUSH2 0xFAC JUMP JUMPDEST DUP2 EQ PUSH2 0x1001 JUMPI PUSH1 0x0 DUP1 REVERT JUMPDEST POP JUMP JUMPDEST PUSH1 0x0 DUP2 CALLDATALOAD SWAP1 POP PUSH2 0x1013 DUP2 PUSH2 0xFED JUMP JUMPDEST SWAP3 SWAP2 POP POP JUMP JUMPDEST PUSH1 0x0 PUSH1 0x20 DUP3 DUP5 SUB SLT ISZERO PUSH2 0x102F JUMPI PUSH2 0x102E PUSH2 0xFE8 JUMP JUMPDEST JUMPDEST PUSH1 0x0 PUSH2 0x103D DUP5 DUP3 DUP6 ADD PUSH2 0x1004 JUMP JUMPDEST SWAP2 POP POP SWAP3 SWAP2 POP POP JUMP JUMPDEST PUSH1 0x0 DUP2 SWAP1 POP SWAP2 SWAP1 POP JUMP JUMPDEST PUSH2 0x1059 DUP2 PUSH2 0x1046 JUMP JUMPDEST DUP3 MSTORE POP POP JUMP JUMPDEST PUSH1 0x0 PUSH1 0x20 DUP3 ADD SWAP1 POP PUSH2 0x1074 PUSH1 0x0 DUP4 ADD DUP5 PUSH2 0x1050 JUMP JUMPDEST SWAP3 SWAP2 POP POP JUMP JUMPDEST PUSH2 0x1083 DUP2 PUSH2 0x1046 JUMP JUMPDEST DUP2 EQ PUSH2 0x108E JUMPI PUSH1 0x0 DUP1 REVERT JUMPDEST POP JUMP JUMPDEST PUSH1 0x0 DUP2 CALLDATALOAD SWAP1 POP PUSH2 0x10A0 DUP2 PUSH2 0x107A JUMP JUMPDEST SWAP3 SWAP2 POP POP JUMP JUMPDEST PUSH1 0x0 DUP1 PUSH1 0x0 PUSH1 0x60 DUP5 DUP7 SUB SLT ISZERO PUSH2 0x10BF JUMPI PUSH2 0x10BE PUSH2 0xFE8 JUMP JUMPDEST JUMPDEST PUSH1 0x0 PUSH2 0x10CD DUP7 DUP3 DUP8 ADD PUSH2 0x1004 JUMP JUMPDEST SWAP4 POP POP PUSH1 0x20 PUSH2 0x10DE DUP7 DUP3 DUP8 ADD PUSH2 0x1004 JUMP JUMPDEST SWAP3 POP POP PUSH1 0x40 PUSH2 0x10EF DUP7 DUP3 DUP8 ADD PUSH2 0x1091 JUMP JUMPDEST SWAP2 POP POP SWAP3 POP SWAP3 POP SWAP3 JUMP JUMPDEST PUSH1 0x0 DUP2 ISZERO ISZERO SWAP1 POP SWAP2 SWAP1 POP JUMP JUMPDEST PUSH2 0x110E DUP2 PUSH2 0x10F9 JUMP JUMPDEST DUP3 MSTORE POP POP JUMP JUMPDEST PUSH1 0x0 PUSH1 0x20 DUP3 ADD SWAP1 POP PUSH2 0x1129 PUSH1 0x0 DUP4 ADD DUP5 PUSH2 0x1105 JUMP JUMPDEST SWAP3 SWAP2 POP POP JUMP JUMPDEST PUSH2 0x1138 DUP2 PUSH2 0x10F9 JUMP JUMPDEST DUP2 EQ PUSH2 0x1143 JUMPI PUSH1 0x0 DUP1 REVERT JUMPDEST POP JUMP JUMPDEST PUSH1 0x0 DUP2 CALLDATALOAD SWAP1 POP PUSH2 0x1155 DUP2 PUSH2 0x112F JUMP JUMPDEST SWAP3 SWAP2 POP POP JUMP JUMPDEST PUSH1 0x0 DUP1 PUSH1 0x40 DUP4 DUP6 SUB SLT ISZERO PUSH2 0x1172 JUMPI PUSH2 0x1171 PUSH2 0xFE8 JUMP JUMPDEST JUMPDEST PUSH1 0x0 PUSH2 0x1180 DUP6 DUP3 DUP7 ADD PUSH2 0x1004 JUMP JUMPDEST SWAP3 POP POP PUSH1 0x20 PUSH2 0x1191 DUP6 DUP3 DUP7 ADD PUSH2 0x1146 JUMP JUMPDEST SWAP2 POP POP SWAP3 POP SWAP3 SWAP1 POP JUMP JUMPDEST PUSH1 0x0 PUSH2 0x11A6 DUP3 PUSH2 0xF8C JUMP JUMPDEST SWAP1 POP SWAP2 SWAP1 POP JUMP JUMPDEST PUSH2 0x11B6 DUP2 PUSH2 0x119B JUMP JUMPDEST DUP2 EQ PUSH2 0x11C1 JUMPI PUSH1 0x0 DUP1 REVERT JUMPDEST POP JUMP JUMPDEST PUSH1 0x0 DUP2 CALLDATALOAD SWAP1 POP PUSH2 0x11D3 DUP2 PUSH2 0x11AD JUMP JUMPDEST SWAP3 SWAP2 POP POP JUMP JUMPDEST PUSH1 0x0 PUSH1 0x20 DUP3 DUP5 SUB SLT ISZERO PUSH2 0x11EF JUMPI PUSH2 0x11EE PUSH2 0xFE8 JUMP JUMPDEST JUMPDEST PUSH1 0x0 PUSH2 0x11FD DUP5 DUP3 DUP6 ADD PUSH2 0x11C4 JUMP JUMPDEST SWAP2 POP POP SWAP3 SWAP2 POP POP JUMP JUMPDEST PUSH1 0x0 DUP1 PUSH1 0x40 DUP4 DUP6 SUB SLT ISZERO PUSH2 0x121D JUMPI PUSH2 0x121C PUSH2 0xFE8 JUMP JUMPDEST JUMPDEST PUSH1 0x0 PUSH2 0x122B DUP6 DUP3 DUP7 ADD PUSH2 0x1004 JUMP JUMPDEST SWAP3 POP POP PUSH1 0x20 PUSH2 0x123C DUP6 DUP3 DUP7 ADD PUSH2 0x1004 JUMP JUMPDEST SWAP2 POP POP SWAP3 POP SWAP3 SWAP1 POP JUMP JUMPDEST PUSH1 0x0 DUP3 DUP3 MSTORE PUSH1 0x20 DUP3 ADD SWAP1 POP SWAP3 SWAP2 POP POP JUMP JUMPDEST PUSH32 0x537562736372696265204F757220536572766963650000000000000000000000 PUSH1 0x0 DUP3 ADD MSTORE POP JUMP JUMPDEST PUSH1 0x0 PUSH2 0x128D PUSH1 0x15 DUP4 PUSH2 0x1246 JUMP JUMPDEST SWAP2 POP PUSH2 0x1298 DUP3 PUSH2 0x1257 JUMP JUMPDEST PUSH1 0x20 DUP3 ADD SWAP1 POP SWAP2 SWAP1 POP JUMP JUMPDEST PUSH1 0x0 PUSH1 0x20 DUP3 ADD SWAP1 POP DUP2 DUP2 SUB PUSH1 0x0 DUP4 ADD MSTORE PUSH2 0x12BC DUP2 PUSH2 0x1280 JUMP JUMPDEST SWAP1 POP SWAP2 SWAP1 POP JUMP JUMPDEST PUSH32 0x4E487B7100000000000000000000000000000000000000000000000000000000 PUSH1 0x0 MSTORE PUSH1 0x11 PUSH1 0x4 MSTORE PUSH1 0x24 PUSH1 0x0 REVERT JUMPDEST PUSH1 0x0 PUSH2 0x12FD DUP3 PUSH2 0x1046 JUMP JUMPDEST SWAP2 POP PUSH2 0x1308 DUP4 PUSH2 0x1046 JUMP JUMPDEST SWAP3 POP DUP3 DUP3 ADD SWAP1 POP DUP1 DUP3 GT ISZERO PUSH2 0x1320 JUMPI PUSH2 0x131F PUSH2 0x12C3 JUMP JUMPDEST JUMPDEST SWAP3 SWAP2 POP POP JUMP JUMPDEST PUSH32 0x506C656173652063686172676520796F75722077616C6C657400000000000000 PUSH1 0x0 DUP3 ADD MSTORE POP JUMP JUMPDEST PUSH1 0x0 PUSH2 0x135C PUSH1 0x19 DUP4 PUSH2 0x1246 JUMP JUMPDEST SWAP2 POP PUSH2 0x1367 DUP3 PUSH2 0x1326 JUMP JUMPDEST PUSH1 0x20 DUP3 ADD SWAP1 POP SWAP2 SWAP1 POP JUMP JUMPDEST PUSH1 0x0 PUSH1 0x20 DUP3 ADD SWAP1 POP DUP2 DUP2 SUB PUSH1 0x0 DUP4 ADD MSTORE PUSH2 0x138B DUP2 PUSH2 0x134F JUMP JUMPDEST SWAP1 POP SWAP2 SWAP1 POP JUMP JUMPDEST PUSH32 0x4F776E61626C653A2063616C6C6572206973206E6F7420746865206F776E6572 PUSH1 0x0 DUP3 ADD MSTORE POP JUMP JUMPDEST PUSH1 0x0 PUSH2 0x13C8 PUSH1 0x20 DUP4 PUSH2 0x1246 JUMP JUMPDEST SWAP2 POP PUSH2 0x13D3 DUP3 PUSH2 0x1392 JUMP JUMPDEST PUSH1 0x20 DUP3 ADD SWAP1 POP SWAP2 SWAP1 POP JUMP JUMPDEST PUSH1 0x0 PUSH1 0x20 DUP3 ADD SWAP1 POP DUP2 DUP2 SUB PUSH1 0x0 DUP4 ADD MSTORE PUSH2 0x13F7 DUP2 PUSH2 0x13BB JUMP JUMPDEST SWAP1 POP SWAP2 SWAP1 POP JUMP JUMPDEST PUSH32 0x45524332303A20696E73756666696369656E7420616C6C6F77616E6365000000 PUSH1 0x0 DUP3 ADD MSTORE POP JUMP JUMPDEST PUSH1 0x0 PUSH2 0x1434 PUSH1 0x1D DUP4 PUSH2 0x1246 JUMP JUMPDEST SWAP2 POP PUSH2 0x143F DUP3 PUSH2 0x13FE JUMP JUMPDEST PUSH1 0x20 DUP3 ADD SWAP1 POP SWAP2 SWAP1 POP JUMP JUMPDEST PUSH1 0x0 PUSH1 0x20 DUP3 ADD SWAP1 POP DUP2 DUP2 SUB PUSH1 0x0 DUP4 ADD MSTORE PUSH2 0x1463 DUP2 PUSH2 0x1427 JUMP JUMPDEST SWAP1 POP SWAP2 SWAP1 POP JUMP JUMPDEST PUSH32 0x4F776E61626C653A206E6577206F776E657220697320746865207A65726F2061 PUSH1 0x0 DUP3 ADD MSTORE PUSH32 0x6464726573730000000000000000000000000000000000000000000000000000 PUSH1 0x20 DUP3 ADD MSTORE POP JUMP JUMPDEST PUSH1 0x0 PUSH2 0x14C6 PUSH1 0x26 DUP4 PUSH2 0x1246 JUMP JUMPDEST SWAP2 POP PUSH2 0x14D1 DUP3 PUSH2 0x146A JUMP JUMPDEST PUSH1 0x40 DUP3 ADD SWAP1 POP SWAP2 SWAP1 POP JUMP JUMPDEST PUSH1 0x0 PUSH1 0x20 DUP3 ADD SWAP1 POP DUP2 DUP2 SUB PUSH1 0x0 DUP4 ADD MSTORE PUSH2 0x14F5 DUP2 PUSH2 0x14B9 JUMP JUMPDEST SWAP1 POP SWAP2 SWAP1 POP JUMP JUMPDEST PUSH32 0x7472616E736665722066726F6D20746865207A65726F20616464726573730000 PUSH1 0x0 DUP3 ADD MSTORE POP JUMP JUMPDEST PUSH1 0x0 PUSH2 0x1532 PUSH1 0x1E DUP4 PUSH2 0x1246 JUMP JUMPDEST SWAP2 POP PUSH2 0x153D DUP3 PUSH2 0x14FC JUMP JUMPDEST PUSH1 0x20 DUP3 ADD SWAP1 POP SWAP2 SWAP1 POP JUMP JUMPDEST PUSH1 0x0 PUSH1 0x20 DUP3 ADD SWAP1 POP DUP2 DUP2 SUB PUSH1 0x0 DUP4 ADD MSTORE PUSH2 0x1561 DUP2 PUSH2 0x1525 JUMP JUMPDEST SWAP1 POP SWAP2 SWAP1 POP JUMP JUMPDEST PUSH32 0x7472616E7366657220746F20746865207A65726F206164647265737300000000 PUSH1 0x0 DUP3 ADD MSTORE POP JUMP JUMPDEST PUSH1 0x0 PUSH2 0x159E PUSH1 0x1C DUP4 PUSH2 0x1246 JUMP JUMPDEST SWAP2 POP PUSH2 0x15A9 DUP3 PUSH2 0x1568 JUMP JUMPDEST PUSH1 0x20 DUP3 ADD SWAP1 POP SWAP2 SWAP1 POP JUMP JUMPDEST PUSH1 0x0 PUSH1 0x20 DUP3 ADD SWAP1 POP DUP2 DUP2 SUB PUSH1 0x0 DUP4 ADD MSTORE PUSH2 0x15CD DUP2 PUSH2 0x1591 JUMP JUMPDEST SWAP1 POP SWAP2 SWAP1 POP JUMP JUMPDEST PUSH32 0x617070726F76652066726F6D20746865207A65726F2061646472657373000000 PUSH1 0x0 DUP3 ADD MSTORE POP JUMP JUMPDEST PUSH1 0x0 PUSH2 0x160A PUSH1 0x1D DUP4 PUSH2 0x1246 JUMP JUMPDEST SWAP2 POP PUSH2 0x1615 DUP3 PUSH2 0x15D4 JUMP JUMPDEST PUSH1 0x20 DUP3 ADD SWAP1 POP SWAP2 SWAP1 POP JUMP JUMPDEST PUSH1 0x0 PUSH1 0x20 DUP3 ADD SWAP1 POP DUP2 DUP2 SUB PUSH1 0x0 DUP4 ADD MSTORE PUSH2 0x1639 DUP2 PUSH2 0x15FD JUMP JUMPDEST SWAP1 POP SWAP2 SWAP1 POP JUMP JUMPDEST PUSH32 0x20617070726F766520746F20746865207A65726F206164647265737300000000 PUSH1 0x0 DUP3 ADD MSTORE POP JUMP JUMPDEST PUSH1 0x0 PUSH2 0x1676 PUSH1 0x1C DUP4 PUSH2 0x1246 JUMP JUMPDEST SWAP2 POP PUSH2 0x1681 DUP3 PUSH2 0x1640 JUMP JUMPDEST PUSH1 0x20 DUP3 ADD SWAP1 POP SWAP2 SWAP1 POP JUMP JUMPDEST PUSH1 0x0 PUSH1 0x20 DUP3 ADD SWAP1 POP DUP2 DUP2 SUB PUSH1 0x0 DUP4 ADD MSTORE PUSH2 0x16A5 DUP2 PUSH2 0x1669 JUMP JUMPDEST SWAP1 POP SWAP2 SWAP1 POP JUMP INVALID LOG2 PUSH5 0x6970667358 0x22 SLT KECCAK256 SHR 0xB7 SWAP5 PUSH19 0xAE7A733005C35253E59B3ABEAB357510AE4A2 BLOCKHASH 0x4C 0xAF 0xF9 0xB6 0x26 LOG1 0xD8 CREATE2 PUSH5 0x736F6C6343 STOP ADDMOD LT STOP CALLER "
				},
				"gasEstimates": {
					"creation": {
						"codeDepositCost": "1171600",
						"executionCost": "infinite",
						"totalCost": "infinite"
					},
					"external": {
						"allowance(address,address)": "infinite",
						"approver()": "2538",
						"cancelSubscribe(address)": "infinite",
						"firstTimestamp(address)": "5058",
						"isApprovedForAll(address,address)": "infinite",
						"nextTimestamp(address)": "5057",
						"owner()": "2611",
						"renounceOwnership()": "30441",
						"setUserState(address,bool)": "25081",
						"spendAllowance(address,address,uint256)": "infinite",
						"sub_price()": "2452",
						"subscribe(address)": "infinite",
						"subscribeState(address)": "2912",
						"transferFrom(address,address,uint256)": "infinite",
						"transferOwnership(address)": "30808",
						"withdrawSubscribe(address)": "infinite"
					},
					"internal": {
						"_approve(address,address,uint256)": "infinite",
						"_isApprovedOrOwner(address)": "infinite",
						"_transfer(address,address,uint256)": "infinite"
					}
				},
				"methodIdentifiers": {
					"allowance(address,address)": "dd62ed3e",
					"approver()": "141a8dd8",
					"cancelSubscribe(address)": "e11d48b1",
					"firstTimestamp(address)": "159cfa6c",
					"isApprovedForAll(address,address)": "e985e9c5",
					"nextTimestamp(address)": "d028fa0c",
					"owner()": "8da5cb5b",
					"renounceOwnership()": "715018a6",
					"setUserState(address,bool)": "2b6fb5ba",
					"spendAllowance(address,address,uint256)": "dd8aaa4f",
					"sub_price()": "befa2fc6",
					"subscribe(address)": "41a7726a",
					"subscribeState(address)": "d353c0b7",
					"transferFrom(address,address,uint256)": "23b872dd",
					"transferOwnership(address)": "f2fde38b",
					"withdrawSubscribe(address)": "3a75b3ce"
				}
			},
			"storageLayout": {
				"storage": [
					{
						"astId": 432,
						"contract": "Subscribe.sol:Subscribe",
						"label": "_owner",
						"offset": 0,
						"slot": "0",
						"type": "t_address"
					},
					{
						"astId": 6,
						"contract": "Subscribe.sol:Subscribe",
						"label": "firstPayment",
						"offset": 0,
						"slot": "1",
						"type": "t_uint256"
					},
					{
						"astId": 8,
						"contract": "Subscribe.sol:Subscribe",
						"label": "nextPayment",
						"offset": 0,
						"slot": "2",
						"type": "t_uint256"
					},
					{
						"astId": 10,
						"contract": "Subscribe.sol:Subscribe",
						"label": "marketOwner",
						"offset": 0,
						"slot": "3",
						"type": "t_address"
					},
					{
						"astId": 12,
						"contract": "Subscribe.sol:Subscribe",
						"label": "approver",
						"offset": 0,
						"slot": "4",
						"type": "t_address"
					},
					{
						"astId": 15,
						"contract": "Subscribe.sol:Subscribe",
						"label": "sub_price",
						"offset": 0,
						"slot": "5",
						"type": "t_uint256"
					},
					{
						"astId": 19,
						"contract": "Subscribe.sol:Subscribe",
						"label": "subscribeState",
						"offset": 0,
						"slot": "6",
						"type": "t_mapping(t_address,t_bool)"
					},
					{
						"astId": 25,
						"contract": "Subscribe.sol:Subscribe",
						"label": "_allowances",
						"offset": 0,
						"slot": "7",
						"type": "t_mapping(t_address,t_mapping(t_address,t_uint256))"
					},
					{
						"astId": 31,
						"contract": "Subscribe.sol:Subscribe",
						"label": "_operatorApprovals",
						"offset": 0,
						"slot": "8",
						"type": "t_mapping(t_address,t_mapping(t_address,t_bool))"
					}
				],
				"types": {
					"t_address": {
						"encoding": "inplace",
						"label": "address",
						"numberOfBytes": "20"
					},
					"t_bool": {
						"encoding": "inplace",
						"label": "bool",
						"numberOfBytes": "1"
					},
					"t_mapping(t_address,t_bool)": {
						"encoding": "mapping",
						"key": "t_address",
						"label": "mapping(address => bool)",
						"numberOfBytes": "32",
						"value": "t_bool"
					},
					"t_mapping(t_address,t_mapping(t_address,t_bool))": {
						"encoding": "mapping",
						"key": "t_address",
						"label": "mapping(address => mapping(address => bool))",
						"numberOfBytes": "32",
						"value": "t_mapping(t_address,t_bool)"
					},
					"t_mapping(t_address,t_mapping(t_address,t_uint256))": {
						"encoding": "mapping",
						"key": "t_address",
						"label": "mapping(address => mapping(address => uint256))",
						"numberOfBytes": "32",
						"value": "t_mapping(t_address,t_uint256)"
					},
					"t_mapping(t_address,t_uint256)": {
						"encoding": "mapping",
						"key": "t_address",
						"label": "mapping(address => uint256)",
						"numberOfBytes": "32",
						"value": "t_uint256"
					},
					"t_uint256": {
						"encoding": "inplace",
						"label": "uint256",
						"numberOfBytes": "32"
					}
				}
			},
			"userdoc": {
				"kind": "user",
				"methods": {},
				"version": 1
			}
		}
	}
}