{
  "contractName": "Auction",
  "abi": [
    {
      "inputs": [
        {
          "internalType": "address",
          "name": "_mintMusicTokenAddress",
          "type": "address"
        }
      ],
      "stateMutability": "nonpayable",
      "type": "constructor"
    },
    {
      "anonymous": false,
      "inputs": [
        {
          "indexed": true,
          "internalType": "address",
          "name": "owner",
          "type": "address"
        },
        {
          "indexed": true,
          "internalType": "uint256",
          "name": "tokenid",
          "type": "uint256"
        }
      ],
      "name": "AuctionCancle",
      "type": "event"
    },
    {
      "anonymous": false,
      "inputs": [
        {
          "indexed": true,
          "internalType": "address",
          "name": "winner",
          "type": "address"
        },
        {
          "indexed": false,
          "internalType": "uint256",
          "name": "winningBid",
          "type": "uint256"
        },
        {
          "indexed": false,
          "internalType": "uint256",
          "name": "auctionEnd",
          "type": "uint256"
        },
        {
          "indexed": true,
          "internalType": "uint256",
          "name": "tokenId",
          "type": "uint256"
        }
      ],
      "name": "AuctionEnded",
      "type": "event"
    },
    {
      "anonymous": false,
      "inputs": [
        {
          "indexed": true,
          "internalType": "address",
          "name": "owner",
          "type": "address"
        },
        {
          "indexed": true,
          "internalType": "uint256",
          "name": "tokenId",
          "type": "uint256"
        },
        {
          "indexed": false,
          "internalType": "uint256",
          "name": "auctionStart",
          "type": "uint256"
        },
        {
          "indexed": false,
          "internalType": "uint256",
          "name": "minimumBid",
          "type": "uint256"
        }
      ],
      "name": "AuctionInfo",
      "type": "event"
    },
    {
      "inputs": [
        {
          "internalType": "uint256",
          "name": "",
          "type": "uint256"
        }
      ],
      "name": "AuctionList",
      "outputs": [
        {
          "internalType": "uint256",
          "name": "",
          "type": "uint256"
        }
      ],
      "stateMutability": "view",
      "type": "function"
    },
    {
      "inputs": [],
      "name": "TokenOwner",
      "outputs": [
        {
          "internalType": "address",
          "name": "",
          "type": "address"
        }
      ],
      "stateMutability": "view",
      "type": "function"
    },
    {
      "inputs": [],
      "name": "auctionEnd",
      "outputs": [
        {
          "internalType": "uint256",
          "name": "",
          "type": "uint256"
        }
      ],
      "stateMutability": "view",
      "type": "function"
    },
    {
      "inputs": [],
      "name": "auctionStart",
      "outputs": [
        {
          "internalType": "uint256",
          "name": "",
          "type": "uint256"
        }
      ],
      "stateMutability": "view",
      "type": "function"
    },
    {
      "inputs": [],
      "name": "date",
      "outputs": [
        {
          "internalType": "uint256",
          "name": "",
          "type": "uint256"
        }
      ],
      "stateMutability": "view",
      "type": "function"
    },
    {
      "inputs": [],
      "name": "highestBid",
      "outputs": [
        {
          "internalType": "uint256",
          "name": "",
          "type": "uint256"
        }
      ],
      "stateMutability": "view",
      "type": "function"
    },
    {
      "inputs": [],
      "name": "highestBidder",
      "outputs": [
        {
          "internalType": "address",
          "name": "",
          "type": "address"
        }
      ],
      "stateMutability": "view",
      "type": "function"
    },
    {
      "inputs": [],
      "name": "minimumBid",
      "outputs": [
        {
          "internalType": "uint256",
          "name": "",
          "type": "uint256"
        }
      ],
      "stateMutability": "view",
      "type": "function"
    },
    {
      "inputs": [],
      "name": "mintMusicTokenAddress",
      "outputs": [
        {
          "internalType": "contract MintMusicToken",
          "name": "",
          "type": "address"
        }
      ],
      "stateMutability": "view",
      "type": "function"
    },
    {
      "inputs": [],
      "name": "tokenId",
      "outputs": [
        {
          "internalType": "uint256",
          "name": "",
          "type": "uint256"
        }
      ],
      "stateMutability": "view",
      "type": "function"
    },
    {
      "inputs": [
        {
          "internalType": "uint256",
          "name": "_tokenId",
          "type": "uint256"
        },
        {
          "internalType": "uint256",
          "name": "_auctionStart",
          "type": "uint256"
        },
        {
          "internalType": "uint256",
          "name": "_auctionEnd",
          "type": "uint256"
        },
        {
          "internalType": "uint256",
          "name": "_minimumBid",
          "type": "uint256"
        }
      ],
      "name": "SimpleAuction",
      "outputs": [],
      "stateMutability": "nonpayable",
      "type": "function"
    },
    {
      "inputs": [
        {
          "internalType": "uint256",
          "name": "_tokenId",
          "type": "uint256"
        }
      ],
      "name": "BidOffer",
      "outputs": [],
      "stateMutability": "payable",
      "type": "function"
    },
    {
      "inputs": [
        {
          "internalType": "uint256",
          "name": "_tokenId",
          "type": "uint256"
        }
      ],
      "name": "AuctionCancel",
      "outputs": [],
      "stateMutability": "nonpayable",
      "type": "function"
    },
    {
      "inputs": [
        {
          "internalType": "uint256",
          "name": "_tokenId",
          "type": "uint256"
        }
      ],
      "name": "TimeExtension",
      "outputs": [],
      "stateMutability": "nonpayable",
      "type": "function"
    },
    {
      "inputs": [],
      "name": "BidReturn",
      "outputs": [
        {
          "internalType": "bool",
          "name": "",
          "type": "bool"
        }
      ],
      "stateMutability": "payable",
      "type": "function"
    },
    {
      "inputs": [
        {
          "internalType": "uint256",
          "name": "_tokenId",
          "type": "uint256"
        }
      ],
      "name": "AuctionEnd",
      "outputs": [],
      "stateMutability": "nonpayable",
      "type": "function"
    }
  ],
  "bytecode": "0x60806040523480156200001157600080fd5b5060405162001f5938038062001f598339818101604052810190620000379190620000e9565b80600860006101000a81548173ffffffffffffffffffffffffffffffffffffffff021916908373ffffffffffffffffffffffffffffffffffffffff160217905550506200011b565b600080fd5b600073ffffffffffffffffffffffffffffffffffffffff82169050919050565b6000620000b18262000084565b9050919050565b620000c381620000a4565b8114620000cf57600080fd5b50565b600081519050620000e381620000b8565b92915050565b6000602082840312156200010257620001016200007f565b5b60006200011284828501620000d2565b91505092915050565b611e2e806200012b6000396000f3fe6080604052600436106100f35760003560e01c8063bb1806561161008a578063d57bde7911610059578063d57bde79146102fd578063d689182214610328578063f592de7a14610344578063f9eca2ce1461036d576100f3565b8063bb1806561461024c578063c415cf7814610277578063c9551ab514610295578063d3a86386146102d2576100f3565b80632b141082116100c65780632b141082146101a0578063323046b1146101cb5780634f245ef7146101f657806391f9015714610221576100f3565b806317d70f7c146100f85780631d3029551461012357806328a5f9f61461014c5780632a24f46c14610175575b600080fd5b34801561010457600080fd5b5061010d610396565b60405161011a919061143b565b60405180910390f35b34801561012f57600080fd5b5061014a60048036038101906101459190611487565b61039c565b005b34801561015857600080fd5b50610173600480360381019061016e9190611487565b610655565b005b34801561018157600080fd5b5061018a61084d565b604051610197919061143b565b60405180910390f35b3480156101ac57600080fd5b506101b5610853565b6040516101c291906114f5565b60405180910390f35b3480156101d757600080fd5b506101e0610877565b6040516101ed919061143b565b60405180910390f35b34801561020257600080fd5b5061020b61087d565b604051610218919061143b565b60405180910390f35b34801561022d57600080fd5b50610236610883565b60405161024391906114f5565b60405180910390f35b34801561025857600080fd5b506102616108a9565b60405161026e919061156f565b60405180910390f35b61027f6108cf565b60405161028c91906115a5565b60405180910390f35b3480156102a157600080fd5b506102bc60048036038101906102b79190611487565b6109b2565b6040516102c9919061143b565b60405180910390f35b3480156102de57600080fd5b506102e76109d6565b6040516102f4919061143b565b60405180910390f35b34801561030957600080fd5b506103126109dc565b60405161031f919061143b565b60405180910390f35b610342600480360381019061033d9190611487565b6109e2565b005b34801561035057600080fd5b5061036b600480360381019061036691906115c0565b610df7565b005b34801561037957600080fd5b50610394600480360381019061038f9190611487565b6110e9565b005b60035481565b600860009054906101000a900473ffffffffffffffffffffffffffffffffffffffff1673ffffffffffffffffffffffffffffffffffffffff16636352211e826040518263ffffffff1660e01b81526004016103f7919061143b565b602060405180830381865afa158015610414573d6000803e3d6000fd5b505050506040513d601f19601f820116820180604052508101906104389190611653565b6000806101000a81548173ffffffffffffffffffffffffffffffffffffffff021916908373ffffffffffffffffffffffffffffffffffffffff16021790555060025442106104bb576040517f08c379a00000000000000000000000000000000000000000000000000000000081526004016104b2906116dd565b60405180910390fd5b60008054906101000a900473ffffffffffffffffffffffffffffffffffffffff1673ffffffffffffffffffffffffffffffffffffffff163373ffffffffffffffffffffffffffffffffffffffff1614610549576040517f08c379a000000000000000000000000000000000000000000000000000000000815260040161054090611749565b60405180910390fd5b60006006541161058e576040517f08c379a0000000000000000000000000000000000000000000000000000000008152600401610585906117b5565b60405180910390fd5b60005b600a805490508110156106515781600a82815481106105b3576105b26117d5565b5b90600052602060002001540361063e57600a6001600a805490506105d79190611833565b815481106105e8576105e76117d5565b5b9060005260206000200154600a8281548110610607576106066117d5565b5b9060005260206000200181905550600a80548061062757610626611867565b5b600190038181906000526020600020016000905590555b808061064990611896565b915050610591565b5050565b600860009054906101000a900473ffffffffffffffffffffffffffffffffffffffff1673ffffffffffffffffffffffffffffffffffffffff16636352211e826040518263ffffffff1660e01b81526004016106b0919061143b565b602060405180830381865afa1580156106cd573d6000803e3d6000fd5b505050506040513d601f19601f820116820180604052508101906106f19190611653565b6000806101000a81548173ffffffffffffffffffffffffffffffffffffffff021916908373ffffffffffffffffffffffffffffffffffffffff1602179055506002544210610774576040517f08c379a000000000000000000000000000000000000000000000000000000000815260040161076b906116dd565b60405180910390fd5b60008054906101000a900473ffffffffffffffffffffffffffffffffffffffff1673ffffffffffffffffffffffffffffffffffffffff163373ffffffffffffffffffffffffffffffffffffffff1614610802576040517f08c379a00000000000000000000000000000000000000000000000000000000081526004016107f990611749565b60405180910390fd5b42603c6002546108129190611833565b1061084a5761012c6002546108279190611833565b4210610849576102586002600082825461084191906118de565b925050819055505b5b50565b60025481565b60008054906101000a900473ffffffffffffffffffffffffffffffffffffffff1681565b60075481565b60015481565b600560009054906101000a900473ffffffffffffffffffffffffffffffffffffffff1681565b600860009054906101000a900473ffffffffffffffffffffffffffffffffffffffff1681565b600080600960003373ffffffffffffffffffffffffffffffffffffffff1673ffffffffffffffffffffffffffffffffffffffff16815260200190815260200160002054905060008111156109aa573373ffffffffffffffffffffffffffffffffffffffff166108fc829081150290604051600060405180830381858888f19350505050158015610963573d6000803e3d6000fd5b506000600960003373ffffffffffffffffffffffffffffffffffffffff1673ffffffffffffffffffffffffffffffffffffffff168152602001908152602001600020819055505b600191505090565b600a81815481106109c257600080fd5b906000526020600020016000915090505481565b60045481565b60065481565b600860009054906101000a900473ffffffffffffffffffffffffffffffffffffffff1673ffffffffffffffffffffffffffffffffffffffff16636352211e826040518263ffffffff1660e01b8152600401610a3d919061143b565b602060405180830381865afa158015610a5a573d6000803e3d6000fd5b505050506040513d601f19601f82011682018060405250810190610a7e9190611653565b6000806101000a81548173ffffffffffffffffffffffffffffffffffffffff021916908373ffffffffffffffffffffffffffffffffffffffff1602179055503373ffffffffffffffffffffffffffffffffffffffff1660008054906101000a900473ffffffffffffffffffffffffffffffffffffffff1673ffffffffffffffffffffffffffffffffffffffff1603610b4b576040517f08c379a0000000000000000000000000000000000000000000000000000000008152600401610b4290611980565b60405180910390fd5b600254421115610b90576040517f08c379a0000000000000000000000000000000000000000000000000000000008152600401610b87906116dd565b60405180910390fd5b6004543411610bd4576040517f08c379a0000000000000000000000000000000000000000000000000000000008152600401610bcb90611a12565b60405180910390fd5b6006543411610c18576040517f08c379a0000000000000000000000000000000000000000000000000000000008152600401610c0f90611a7e565b60405180910390fd5b343373ffffffffffffffffffffffffffffffffffffffff163111610c71576040517f08c379a0000000000000000000000000000000000000000000000000000000008152600401610c6890611b10565b60405180910390fd5b600060065414610cf65760065460096000600560009054906101000a900473ffffffffffffffffffffffffffffffffffffffff1673ffffffffffffffffffffffffffffffffffffffff1673ffffffffffffffffffffffffffffffffffffffff1681526020019081526020016000206000828254610cee91906118de565b925050819055505b33600560006101000a81548173ffffffffffffffffffffffffffffffffffffffff021916908373ffffffffffffffffffffffffffffffffffffffff1602179055503460068190555060008054906101000a900473ffffffffffffffffffffffffffffffffffffffff1673ffffffffffffffffffffffffffffffffffffffff166108fc6006549081150290604051600060405180830381858888f19350505050158015610da6573d6000803e3d6000fd5b5042603c600254610db79190611833565b10610ddd5761012c600254610dcc9190611833565b4210610ddc57610ddb81610655565b5b5b4260025414610deb57600080fd5b610df4816110e9565b50565b600860009054906101000a900473ffffffffffffffffffffffffffffffffffffffff1673ffffffffffffffffffffffffffffffffffffffff16636352211e856040518263ffffffff1660e01b8152600401610e52919061143b565b602060405180830381865afa158015610e6f573d6000803e3d6000fd5b505050506040513d601f19601f82011682018060405250810190610e939190611653565b6000806101000a81548173ffffffffffffffffffffffffffffffffffffffff021916908373ffffffffffffffffffffffffffffffffffffffff16021790555060008111610f15576040517f08c379a0000000000000000000000000000000000000000000000000000000008152600401610f0c90611b7c565b60405180910390fd5b428311610f57576040517f08c379a0000000000000000000000000000000000000000000000000000000008152600401610f4e90611c0e565b60405180910390fd5b828211610f99576040517f08c379a0000000000000000000000000000000000000000000000000000000008152600401610f9090611ca0565b60405180910390fd5b3373ffffffffffffffffffffffffffffffffffffffff1660008054906101000a900473ffffffffffffffffffffffffffffffffffffffff1673ffffffffffffffffffffffffffffffffffffffff1614611027576040517f08c379a000000000000000000000000000000000000000000000000000000000815260040161101e90611d0c565b60405180910390fd5b83600381905550826001819055508160028190555080600481905550600a84908060018154018082558091505060019003906000526020600020016000909190919091505560035460008054906101000a900473ffffffffffffffffffffffffffffffffffffffff1673ffffffffffffffffffffffffffffffffffffffff167fd887f22b2fce7a20512b998e82fc3a639fe659c0acd4372e1129f4a4c18956886001546004546040516110db929190611d2c565b60405180910390a350505050565b600860009054906101000a900473ffffffffffffffffffffffffffffffffffffffff1673ffffffffffffffffffffffffffffffffffffffff16636352211e826040518263ffffffff1660e01b8152600401611144919061143b565b602060405180830381865afa158015611161573d6000803e3d6000fd5b505050506040513d601f19601f820116820180604052508101906111859190611653565b6000806101000a81548173ffffffffffffffffffffffffffffffffffffffff021916908373ffffffffffffffffffffffffffffffffffffffff1602179055504260025410611208576040517f08c379a00000000000000000000000000000000000000000000000000000000081526004016111ff90611da1565b60405180910390fd5b600860009054906101000a900473ffffffffffffffffffffffffffffffffffffffff1673ffffffffffffffffffffffffffffffffffffffff166323b872dd60008054906101000a900473ffffffffffffffffffffffffffffffffffffffff16600560009054906101000a900473ffffffffffffffffffffffffffffffffffffffff16846040518463ffffffff1660e01b81526004016112a993929190611dc1565b600060405180830381600087803b1580156112c357600080fd5b505af11580156112d7573d6000803e3d6000fd5b5050505060005b600a8054905081101561139e5781600a8281548110611300576112ff6117d5565b5b90600052602060002001540361138b57600a6001600a805490506113249190611833565b81548110611335576113346117d5565b5b9060005260206000200154600a8281548110611354576113536117d5565b5b9060005260206000200181905550600a80548061137457611373611867565b5b600190038181906000526020600020016000905590555b808061139690611896565b9150506112de565b506113a76108cf565b5080600560009054906101000a900473ffffffffffffffffffffffffffffffffffffffff1673ffffffffffffffffffffffffffffffffffffffff167f2f54d857cdbaa677948ee3e8b7f06f0064a2e99dd79ddab0373560d9bf5b647e600654600254604051611417929190611d2c565b60405180910390a350565b6000819050919050565b61143581611422565b82525050565b6000602082019050611450600083018461142c565b92915050565b600080fd5b61146481611422565b811461146f57600080fd5b50565b6000813590506114818161145b565b92915050565b60006020828403121561149d5761149c611456565b5b60006114ab84828501611472565b91505092915050565b600073ffffffffffffffffffffffffffffffffffffffff82169050919050565b60006114df826114b4565b9050919050565b6114ef816114d4565b82525050565b600060208201905061150a60008301846114e6565b92915050565b6000819050919050565b600061153561153061152b846114b4565b611510565b6114b4565b9050919050565b60006115478261151a565b9050919050565b60006115598261153c565b9050919050565b6115698161154e565b82525050565b60006020820190506115846000830184611560565b92915050565b60008115159050919050565b61159f8161158a565b82525050565b60006020820190506115ba6000830184611596565b92915050565b600080600080608085870312156115da576115d9611456565b5b60006115e887828801611472565b94505060206115f987828801611472565b935050604061160a87828801611472565b925050606061161b87828801611472565b91505092959194509250565b611630816114d4565b811461163b57600080fd5b50565b60008151905061164d81611627565b92915050565b60006020828403121561166957611668611456565b5b60006116778482850161163e565b91505092915050565b600082825260208201905092915050565b7f61756374696f6e206973206f7665720000000000000000000000000000000000600082015250565b60006116c7600f83611680565b91506116d282611691565b602082019050919050565b600060208201905081810360008301526116f6816116ba565b9050919050565b7f4f6e6c792074686520746f6b656e206f776e65722063616e2063616e63656c00600082015250565b6000611733601f83611680565b915061173e826116fd565b602082019050919050565b6000602082019050818103600083015261176281611726565b9050919050565b7f7468657265206973206120626964646572000000000000000000000000000000600082015250565b600061179f601183611680565b91506117aa82611769565b602082019050919050565b600060208201905081810360008301526117ce81611792565b9050919050565b7f4e487b7100000000000000000000000000000000000000000000000000000000600052603260045260246000fd5b7f4e487b7100000000000000000000000000000000000000000000000000000000600052601160045260246000fd5b600061183e82611422565b915061184983611422565b92508282101561185c5761185b611804565b5b828203905092915050565b7f4e487b7100000000000000000000000000000000000000000000000000000000600052603160045260246000fd5b60006118a182611422565b91507fffffffffffffffffffffffffffffffffffffffffffffffffffffffffffffffff82036118d3576118d2611804565b5b600182019050919050565b60006118e982611422565b91506118f483611422565b9250827fffffffffffffffffffffffffffffffffffffffffffffffffffffffffffffffff0382111561192957611928611804565b5b828201905092915050565b7f546f6b656e206f776e65722063616e6e6f742062652061206269646465720000600082015250565b600061196a601e83611680565b915061197582611934565b602082019050919050565b600060208201905081810360008301526119998161195d565b9050919050565b7f5468652070726963652049206f66666572206d7573742062652068696768657260008201527f207468616e20746865206c6f7765737420626964000000000000000000000000602082015250565b60006119fc603483611680565b9150611a07826119a0565b604082019050919050565b60006020820190508181036000830152611a2b816119ef565b9050919050565b7f506c656173652070726f76696465207468652068696768657374206269640000600082015250565b6000611a68601e83611680565b9150611a7382611a32565b602082019050919050565b60006020820190508181036000830152611a9781611a5b565b9050919050565b7f546f6b656e2062616c616e6365206973206c657373207468616e20746865206160008201527f6d6f756e742070726573656e7465640000000000000000000000000000000000602082015250565b6000611afa602f83611680565b9150611b0582611a9e565b604082019050919050565b60006020820190508181036000830152611b2981611aed565b9050919050565b7f4d696e696d756d20626964206d757374206265206174206c6561737420300000600082015250565b6000611b66601e83611680565b9150611b7182611b30565b602082019050919050565b60006020820190508181036000830152611b9581611b59565b9050919050565b7f506c6561736520736574207468652061756374696f6e2073746172742074696d60008201527f65206166746572207468652063757272656e742074696d650000000000000000602082015250565b6000611bf8603883611680565b9150611c0382611b9c565b604082019050919050565b60006020820190508181036000830152611c2781611beb565b9050919050565b7f5468652061756374696f6e20636c6f73696e672074696d65206d75737420626560008201527f206166746572207468652073746172742074696d650000000000000000000000602082015250565b6000611c8a603583611680565b9150611c9582611c2e565b604082019050919050565b60006020820190508181036000830152611cb981611c7d565b9050919050565b7f526567697374657220796f7572206f776e20746f6b656e000000000000000000600082015250565b6000611cf6601783611680565b9150611d0182611cc0565b602082019050919050565b60006020820190508181036000830152611d2581611ce9565b9050919050565b6000604082019050611d41600083018561142c565b611d4e602083018461142c565b9392505050565b7f41756374696f6e2069736e2774206f7665722079657400000000000000000000600082015250565b6000611d8b601683611680565b9150611d9682611d55565b602082019050919050565b60006020820190508181036000830152611dba81611d7e565b9050919050565b6000606082019050611dd660008301866114e6565b611de360208301856114e6565b611df0604083018461142c565b94935050505056fea2646970667358221220480ab57b77107d4a7e69887681ce04b57807441d9618e40282cda50f33dbf48864736f6c634300080f0033",
  "immutableReferences": {},
  "source": "// SPDX-License-Identifier: MIT\n\npragma solidity ^0.8.15;\n\nimport \"./MintMusicToken.sol\";\n\n\ncontract Auction{\n    //\n    address public TokenOwner;\n    //\n    uint public auctionStart;\n    //\n    uint public auctionEnd;\n    //id\n    uint public tokenId;\n    //\n    uint public minimumBid;\n    \n    //\n    address public highestBidder;\n    //\n    uint public highestBid;\n\n    uint public date;\n\n    MintMusicToken public mintMusicTokenAddress;// \n\n    //\n    //(  )\n    //  => \n    mapping(address => uint) refundOfBid;\n\n\n    //\n    uint[] public AuctionList;\n\n    //event\n    event AuctionInfo (address indexed owner, uint256 indexed tokenId, uint256 auctionStart, uint256 minimumBid);//\n    event AuctionCancle (address indexed owner, uint256 indexed tokenid);// \n    event AuctionEnded (address indexed winner, uint256 winningBid, uint256 auctionEnd, uint256 indexed tokenId);//\n\n    //\n    //, tokenId, , , \n    constructor(address _mintMusicTokenAddress){\n       mintMusicTokenAddress = MintMusicToken(_mintMusicTokenAddress);\n\n    }\n\n    //Auction\n\n    //**      */\n    function SimpleAuction(uint256 _tokenId, uint256 _auctionStart, uint256 _auctionEnd, uint256 _minimumBid) public {\n        TokenOwner = mintMusicTokenAddress.ownerOf(_tokenId);//tokenId   TokenOwner \n        // date = getData(uint block.timestamp)+getMonth(uint block.timestamp)+getFullYear(uint block.timestamp)+getHours(uint block.timestamp)+getMinutes(uint block.timestamp)+getseconds(uint block.timestamp)); \n\n        require(_minimumBid > 0 , \"Minimum bid must be at least 0\");//  0\n        require(_auctionStart > block.timestamp , \"Please set the auction start time after the current time\");// \n        require(_auctionEnd > _auctionStart , \"The auction closing time must be after the start time\");// \n        require(TokenOwner == msg.sender ,\"Register your own token\");// \n        \n        tokenId = _tokenId;\n        auctionStart = _auctionStart;\n        auctionEnd = _auctionEnd;\n        minimumBid = _minimumBid;\n\n        AuctionList.push(_tokenId);//  \n\n        emit AuctionInfo (TokenOwner, tokenId, auctionStart, minimumBid);\n\n    }\n \n\n    //  + \n    function BidOffer(uint _tokenId ) public payable {\n        TokenOwner = mintMusicTokenAddress.ownerOf(_tokenId);\n        \n        require(TokenOwner != msg.sender ,\"Token owner cannot be a bidder\");//   \n        require(block.timestamp <= auctionEnd ,\"auction is over\");//  \n        require(msg.value > minimumBid , \"The price I offer must be higher than the lowest bid\");//  \n        require(msg.value > highestBid , \"Please provide the highest bid\");//   \n        require(msg.sender.balance > msg.value , \"Token balance is less than the amount presented\");//          \n\n    \n        if (highestBid != 0) {\n            refundOfBid[highestBidder] += highestBid; \n        }// 0      ,       \n\n        highestBidder = msg.sender;\n        highestBid = msg.value;\n\n        payable(TokenOwner).transfer(highestBid);\n\n        \n        //\n        if(auctionEnd -1 minutes >= block.timestamp){//1      1   ( 59 )\n            if(block.timestamp >= auctionEnd -5 minutes){//   5 \n                TimeExtension(_tokenId);\n            }\n        }\n     \n        //\n        require(auctionEnd == block.timestamp);\n        AuctionEnd(_tokenId);\n\n    }\n\n    // (   ,  ,    )\n    function AuctionCancel(uint _tokenId) public {\n        TokenOwner = mintMusicTokenAddress.ownerOf(_tokenId);\n\n        require(block.timestamp < auctionEnd ,\"auction is over\");//  \n        require(msg.sender == TokenOwner, \"Only the token owner can cancel\");//   \n        require(highestBid > 0, \"there is a bidder\");//  \n\n        //    \n        //   \n        for(uint256 i = 0; i < AuctionList.length; i++) {\n            if(AuctionList[i] == _tokenId ) {\n                AuctionList[i] = AuctionList[AuctionList.length - 1];\n                AuctionList.pop();//  \n            \n            }\n        } \n    }\n\n\n    //     \n    function TimeExtension(uint _tokenId) public{\n        TokenOwner = mintMusicTokenAddress.ownerOf(_tokenId);\n\n        require(block.timestamp < auctionEnd, \"auction is over\");//  \n        require(msg.sender == TokenOwner, \"Only the token owner can cancel\");//   \n\n        if(auctionEnd -1 minutes >= block.timestamp){//1      1   ( 59 )\n            if(block.timestamp >= auctionEnd -5 minutes){//   5 \n                auctionEnd += 10 minutes;\n            }//  5 1     10\n        }\n    }\n\n    //   \n    // \n    function BidReturn() public payable returns (bool){\n        uint amount = refundOfBid[msg.sender];\n\n        if(amount > 0){// 0()\n            payable(msg.sender).transfer(amount);//\n            refundOfBid[msg.sender] = 0;//amount 0 \n        }\n        return true;\n    }\n\n\n    //  +     \n    // (payable(tokenOnwer).transfer(msg.value);\n    function AuctionEnd(uint _tokenId) public {\n        TokenOwner = mintMusicTokenAddress.ownerOf(_tokenId);\n\n        require(auctionEnd < block.timestamp , \"Auction isn't over yet\");// \n\n        // //   \n        // payable(TokenOwner).transfer(highestBid);\n\n        mintMusicTokenAddress.transferFrom(TokenOwner, highestBidder, _tokenId);//\n\n        //   \n        for(uint256 i = 0; i < AuctionList.length; i++) {\n            if(AuctionList[i] == _tokenId ) {\n                AuctionList[i] = AuctionList[AuctionList.length - 1];\n                AuctionList.pop();//  \n            }\n        } \n\n        BidReturn();\n        emit AuctionEnded (highestBidder, highestBid, auctionEnd, _tokenId);\n    }    \n}\n\n\n",
  "sourcePath": "/Users/oo_ha/workspace/project/meta/dApp_Store/truffle/contracts/Auction.sol",
  "compiler": {
    "name": "solc",
    "version": "0.8.15+commit.e14f2714.Emscripten.clang"
  },
  "schemaVersion": "3.4.8",
  "updatedAt": "2022-08-30T01:20:21.390Z",
  "devdoc": {
    "kind": "dev",
    "methods": {},
    "version": 1
  },
  "userdoc": {
    "kind": "user",
    "methods": {},
    "version": 1
  }
}