{
  "contractName": "ERC1155PresetMinterPauser",
  "abi": [
    {
      "inputs": [
        {
          "internalType": "string",
          "name": "uri",
          "type": "string"
        }
      ],
      "stateMutability": "nonpayable",
      "type": "constructor"
    },
    {
      "anonymous": false,
      "inputs": [
        {
          "indexed": true,
          "internalType": "address",
          "name": "account",
          "type": "address"
        },
        {
          "indexed": true,
          "internalType": "address",
          "name": "operator",
          "type": "address"
        },
        {
          "indexed": false,
          "internalType": "bool",
          "name": "approved",
          "type": "bool"
        }
      ],
      "name": "ApprovalForAll",
      "type": "event"
    },
    {
      "anonymous": false,
      "inputs": [
        {
          "indexed": false,
          "internalType": "address",
          "name": "account",
          "type": "address"
        }
      ],
      "name": "Paused",
      "type": "event"
    },
    {
      "anonymous": false,
      "inputs": [
        {
          "indexed": true,
          "internalType": "bytes32",
          "name": "role",
          "type": "bytes32"
        },
        {
          "indexed": true,
          "internalType": "bytes32",
          "name": "previousAdminRole",
          "type": "bytes32"
        },
        {
          "indexed": true,
          "internalType": "bytes32",
          "name": "newAdminRole",
          "type": "bytes32"
        }
      ],
      "name": "RoleAdminChanged",
      "type": "event"
    },
    {
      "anonymous": false,
      "inputs": [
        {
          "indexed": true,
          "internalType": "bytes32",
          "name": "role",
          "type": "bytes32"
        },
        {
          "indexed": true,
          "internalType": "address",
          "name": "account",
          "type": "address"
        },
        {
          "indexed": true,
          "internalType": "address",
          "name": "sender",
          "type": "address"
        }
      ],
      "name": "RoleGranted",
      "type": "event"
    },
    {
      "anonymous": false,
      "inputs": [
        {
          "indexed": true,
          "internalType": "bytes32",
          "name": "role",
          "type": "bytes32"
        },
        {
          "indexed": true,
          "internalType": "address",
          "name": "account",
          "type": "address"
        },
        {
          "indexed": true,
          "internalType": "address",
          "name": "sender",
          "type": "address"
        }
      ],
      "name": "RoleRevoked",
      "type": "event"
    },
    {
      "anonymous": false,
      "inputs": [
        {
          "indexed": true,
          "internalType": "address",
          "name": "operator",
          "type": "address"
        },
        {
          "indexed": true,
          "internalType": "address",
          "name": "from",
          "type": "address"
        },
        {
          "indexed": true,
          "internalType": "address",
          "name": "to",
          "type": "address"
        },
        {
          "indexed": false,
          "internalType": "uint256[]",
          "name": "ids",
          "type": "uint256[]"
        },
        {
          "indexed": false,
          "internalType": "uint256[]",
          "name": "values",
          "type": "uint256[]"
        }
      ],
      "name": "TransferBatch",
      "type": "event"
    },
    {
      "anonymous": false,
      "inputs": [
        {
          "indexed": true,
          "internalType": "address",
          "name": "operator",
          "type": "address"
        },
        {
          "indexed": true,
          "internalType": "address",
          "name": "from",
          "type": "address"
        },
        {
          "indexed": true,
          "internalType": "address",
          "name": "to",
          "type": "address"
        },
        {
          "indexed": false,
          "internalType": "uint256",
          "name": "id",
          "type": "uint256"
        },
        {
          "indexed": false,
          "internalType": "uint256",
          "name": "value",
          "type": "uint256"
        }
      ],
      "name": "TransferSingle",
      "type": "event"
    },
    {
      "anonymous": false,
      "inputs": [
        {
          "indexed": false,
          "internalType": "string",
          "name": "value",
          "type": "string"
        },
        {
          "indexed": true,
          "internalType": "uint256",
          "name": "id",
          "type": "uint256"
        }
      ],
      "name": "URI",
      "type": "event"
    },
    {
      "anonymous": false,
      "inputs": [
        {
          "indexed": false,
          "internalType": "address",
          "name": "account",
          "type": "address"
        }
      ],
      "name": "Unpaused",
      "type": "event"
    },
    {
      "inputs": [],
      "name": "DEFAULT_ADMIN_ROLE",
      "outputs": [
        {
          "internalType": "bytes32",
          "name": "",
          "type": "bytes32"
        }
      ],
      "stateMutability": "view",
      "type": "function"
    },
    {
      "inputs": [],
      "name": "MINTER_ROLE",
      "outputs": [
        {
          "internalType": "bytes32",
          "name": "",
          "type": "bytes32"
        }
      ],
      "stateMutability": "view",
      "type": "function"
    },
    {
      "inputs": [],
      "name": "PAUSER_ROLE",
      "outputs": [
        {
          "internalType": "bytes32",
          "name": "",
          "type": "bytes32"
        }
      ],
      "stateMutability": "view",
      "type": "function"
    },
    {
      "inputs": [
        {
          "internalType": "address",
          "name": "account",
          "type": "address"
        },
        {
          "internalType": "uint256",
          "name": "id",
          "type": "uint256"
        }
      ],
      "name": "balanceOf",
      "outputs": [
        {
          "internalType": "uint256",
          "name": "",
          "type": "uint256"
        }
      ],
      "stateMutability": "view",
      "type": "function"
    },
    {
      "inputs": [
        {
          "internalType": "address[]",
          "name": "accounts",
          "type": "address[]"
        },
        {
          "internalType": "uint256[]",
          "name": "ids",
          "type": "uint256[]"
        }
      ],
      "name": "balanceOfBatch",
      "outputs": [
        {
          "internalType": "uint256[]",
          "name": "",
          "type": "uint256[]"
        }
      ],
      "stateMutability": "view",
      "type": "function"
    },
    {
      "inputs": [
        {
          "internalType": "address",
          "name": "account",
          "type": "address"
        },
        {
          "internalType": "uint256",
          "name": "id",
          "type": "uint256"
        },
        {
          "internalType": "uint256",
          "name": "value",
          "type": "uint256"
        }
      ],
      "name": "burn",
      "outputs": [],
      "stateMutability": "nonpayable",
      "type": "function"
    },
    {
      "inputs": [
        {
          "internalType": "address",
          "name": "account",
          "type": "address"
        },
        {
          "internalType": "uint256[]",
          "name": "ids",
          "type": "uint256[]"
        },
        {
          "internalType": "uint256[]",
          "name": "values",
          "type": "uint256[]"
        }
      ],
      "name": "burnBatch",
      "outputs": [],
      "stateMutability": "nonpayable",
      "type": "function"
    },
    {
      "inputs": [
        {
          "internalType": "bytes32",
          "name": "role",
          "type": "bytes32"
        }
      ],
      "name": "getRoleAdmin",
      "outputs": [
        {
          "internalType": "bytes32",
          "name": "",
          "type": "bytes32"
        }
      ],
      "stateMutability": "view",
      "type": "function"
    },
    {
      "inputs": [
        {
          "internalType": "bytes32",
          "name": "role",
          "type": "bytes32"
        },
        {
          "internalType": "uint256",
          "name": "index",
          "type": "uint256"
        }
      ],
      "name": "getRoleMember",
      "outputs": [
        {
          "internalType": "address",
          "name": "",
          "type": "address"
        }
      ],
      "stateMutability": "view",
      "type": "function"
    },
    {
      "inputs": [
        {
          "internalType": "bytes32",
          "name": "role",
          "type": "bytes32"
        }
      ],
      "name": "getRoleMemberCount",
      "outputs": [
        {
          "internalType": "uint256",
          "name": "",
          "type": "uint256"
        }
      ],
      "stateMutability": "view",
      "type": "function"
    },
    {
      "inputs": [
        {
          "internalType": "bytes32",
          "name": "role",
          "type": "bytes32"
        },
        {
          "internalType": "address",
          "name": "account",
          "type": "address"
        }
      ],
      "name": "grantRole",
      "outputs": [],
      "stateMutability": "nonpayable",
      "type": "function"
    },
    {
      "inputs": [
        {
          "internalType": "bytes32",
          "name": "role",
          "type": "bytes32"
        },
        {
          "internalType": "address",
          "name": "account",
          "type": "address"
        }
      ],
      "name": "hasRole",
      "outputs": [
        {
          "internalType": "bool",
          "name": "",
          "type": "bool"
        }
      ],
      "stateMutability": "view",
      "type": "function"
    },
    {
      "inputs": [
        {
          "internalType": "address",
          "name": "account",
          "type": "address"
        },
        {
          "internalType": "address",
          "name": "operator",
          "type": "address"
        }
      ],
      "name": "isApprovedForAll",
      "outputs": [
        {
          "internalType": "bool",
          "name": "",
          "type": "bool"
        }
      ],
      "stateMutability": "view",
      "type": "function"
    },
    {
      "inputs": [],
      "name": "paused",
      "outputs": [
        {
          "internalType": "bool",
          "name": "",
          "type": "bool"
        }
      ],
      "stateMutability": "view",
      "type": "function"
    },
    {
      "inputs": [
        {
          "internalType": "bytes32",
          "name": "role",
          "type": "bytes32"
        },
        {
          "internalType": "address",
          "name": "account",
          "type": "address"
        }
      ],
      "name": "renounceRole",
      "outputs": [],
      "stateMutability": "nonpayable",
      "type": "function"
    },
    {
      "inputs": [
        {
          "internalType": "bytes32",
          "name": "role",
          "type": "bytes32"
        },
        {
          "internalType": "address",
          "name": "account",
          "type": "address"
        }
      ],
      "name": "revokeRole",
      "outputs": [],
      "stateMutability": "nonpayable",
      "type": "function"
    },
    {
      "inputs": [
        {
          "internalType": "address",
          "name": "from",
          "type": "address"
        },
        {
          "internalType": "address",
          "name": "to",
          "type": "address"
        },
        {
          "internalType": "uint256[]",
          "name": "ids",
          "type": "uint256[]"
        },
        {
          "internalType": "uint256[]",
          "name": "amounts",
          "type": "uint256[]"
        },
        {
          "internalType": "bytes",
          "name": "data",
          "type": "bytes"
        }
      ],
      "name": "safeBatchTransferFrom",
      "outputs": [],
      "stateMutability": "nonpayable",
      "type": "function"
    },
    {
      "inputs": [
        {
          "internalType": "address",
          "name": "from",
          "type": "address"
        },
        {
          "internalType": "address",
          "name": "to",
          "type": "address"
        },
        {
          "internalType": "uint256",
          "name": "id",
          "type": "uint256"
        },
        {
          "internalType": "uint256",
          "name": "amount",
          "type": "uint256"
        },
        {
          "internalType": "bytes",
          "name": "data",
          "type": "bytes"
        }
      ],
      "name": "safeTransferFrom",
      "outputs": [],
      "stateMutability": "nonpayable",
      "type": "function"
    },
    {
      "inputs": [
        {
          "internalType": "address",
          "name": "operator",
          "type": "address"
        },
        {
          "internalType": "bool",
          "name": "approved",
          "type": "bool"
        }
      ],
      "name": "setApprovalForAll",
      "outputs": [],
      "stateMutability": "nonpayable",
      "type": "function"
    },
    {
      "inputs": [
        {
          "internalType": "uint256",
          "name": "",
          "type": "uint256"
        }
      ],
      "name": "uri",
      "outputs": [
        {
          "internalType": "string",
          "name": "",
          "type": "string"
        }
      ],
      "stateMutability": "view",
      "type": "function"
    },
    {
      "inputs": [
        {
          "internalType": "address",
          "name": "to",
          "type": "address"
        },
        {
          "internalType": "uint256",
          "name": "id",
          "type": "uint256"
        },
        {
          "internalType": "uint256",
          "name": "amount",
          "type": "uint256"
        },
        {
          "internalType": "bytes",
          "name": "data",
          "type": "bytes"
        }
      ],
      "name": "mint",
      "outputs": [],
      "stateMutability": "nonpayable",
      "type": "function"
    },
    {
      "inputs": [
        {
          "internalType": "address",
          "name": "to",
          "type": "address"
        },
        {
          "internalType": "uint256[]",
          "name": "ids",
          "type": "uint256[]"
        },
        {
          "internalType": "uint256[]",
          "name": "amounts",
          "type": "uint256[]"
        },
        {
          "internalType": "bytes",
          "name": "data",
          "type": "bytes"
        }
      ],
      "name": "mintBatch",
      "outputs": [],
      "stateMutability": "nonpayable",
      "type": "function"
    },
    {
      "inputs": [],
      "name": "pause",
      "outputs": [],
      "stateMutability": "nonpayable",
      "type": "function"
    },
    {
      "inputs": [],
      "name": "unpause",
      "outputs": [],
      "stateMutability": "nonpayable",
      "type": "function"
    },
    {
      "inputs": [
        {
          "internalType": "bytes4",
          "name": "interfaceId",
          "type": "bytes4"
        }
      ],
      "name": "supportsInterface",
      "outputs": [
        {
          "internalType": "bool",
          "name": "",
          "type": "bool"
        }
      ],
      "stateMutability": "view",
      "type": "function"
    }
  ],
  "bytecode": "0x60806040523480156200001157600080fd5b50604051620055253803806200552583398181016040528101906200003791906200055a565b8062000049816200011260201b60201c565b506000600560006101000a81548160ff021916908315150217905550620000896000801b6200007d6200012760201b60201c565b6200012f60201b60201c565b620000ca7f9f2df0fed2c77648de5860a4cc508cd0818c85b8b8a1ab4ceeef8d981c8956a6620000be6200012760201b60201c565b6200012f60201b60201c565b6200010b7f65d7a28e3265b37a6474929f336521b332c1681b933f6cb9f3376673440d862a620000ff6200012760201b60201c565b6200012f60201b60201c565b50620008dd565b8060049081620001239190620007f6565b5050565b600033905090565b6200014182826200014560201b60201c565b5050565b6200015c82826200018d60201b62000e781760201c565b6200018881600160008581526020019081526020016000206200027e60201b62000f581790919060201c565b505050565b6200019f8282620002b660201b60201c565b6200027a57600160008084815260200190815260200160002060000160008373ffffffffffffffffffffffffffffffffffffffff1673ffffffffffffffffffffffffffffffffffffffff16815260200190815260200160002060006101000a81548160ff0219169083151502179055506200021f6200012760201b60201c565b73ffffffffffffffffffffffffffffffffffffffff168173ffffffffffffffffffffffffffffffffffffffff16837f2f8788117e7eff1d82e926ec794901d17c78024a50270940304540a733656f0d60405160405180910390a45b5050565b6000620002ae836000018373ffffffffffffffffffffffffffffffffffffffff1660001b6200032060201b60201c565b905092915050565b600080600084815260200190815260200160002060000160008373ffffffffffffffffffffffffffffffffffffffff1673ffffffffffffffffffffffffffffffffffffffff16815260200190815260200160002060009054906101000a900460ff16905092915050565b60006200033483836200039a60201b60201c565b6200038f57826000018290806001815401808255809150506001900390600052602060002001600090919091909150558260000180549050836001016000848152602001908152602001600020819055506001905062000394565b600090505b92915050565b600080836001016000848152602001908152602001600020541415905092915050565b6000604051905090565b600080fd5b600080fd5b600080fd5b600080fd5b6000601f19601f8301169050919050565b7f4e487b7100000000000000000000000000000000000000000000000000000000600052604160045260246000fd5b6200042682620003db565b810181811067ffffffffffffffff82111715620004485762000447620003ec565b5b80604052505050565b60006200045d620003bd565b90506200046b82826200041b565b919050565b600067ffffffffffffffff8211156200048e576200048d620003ec565b5b6200049982620003db565b9050602081019050919050565b60005b83811015620004c6578082015181840152602081019050620004a9565b83811115620004d6576000848401525b50505050565b6000620004f3620004ed8462000470565b62000451565b905082815260208101848484011115620005125762000511620003d6565b5b6200051f848285620004a6565b509392505050565b600082601f8301126200053f576200053e620003d1565b5b815162000551848260208601620004dc565b91505092915050565b600060208284031215620005735762000572620003c7565b5b600082015167ffffffffffffffff811115620005945762000593620003cc565b5b620005a28482850162000527565b91505092915050565b600081519050919050565b7f4e487b7100000000000000000000000000000000000000000000000000000000600052602260045260246000fd5b60006002820490506001821680620005fe57607f821691505b602082108103620006145762000613620005b6565b5b50919050565b60008190508160005260206000209050919050565b60006020601f8301049050919050565b600082821b905092915050565b6000600883026200067e7fffffffffffffffffffffffffffffffffffffffffffffffffffffffffffffffff826200063f565b6200068a86836200063f565b95508019841693508086168417925050509392505050565b6000819050919050565b6000819050919050565b6000620006d7620006d1620006cb84620006a2565b620006ac565b620006a2565b9050919050565b6000819050919050565b620006f383620006b6565b6200070b6200070282620006de565b8484546200064c565b825550505050565b600090565b6200072262000713565b6200072f818484620006e8565b505050565b5b8181101562000757576200074b60008262000718565b60018101905062000735565b5050565b601f821115620007a65762000770816200061a565b6200077b846200062f565b810160208510156200078b578190505b620007a36200079a856200062f565b83018262000734565b50505b505050565b600082821c905092915050565b6000620007cb60001984600802620007ab565b1980831691505092915050565b6000620007e68383620007b8565b9150826002028217905092915050565b6200080182620005ab565b67ffffffffffffffff8111156200081d576200081c620003ec565b5b620008298254620005e5565b620008368282856200075b565b600060209050601f8311600181146200086e576000841562000859578287015190505b620008658582620007d8565b865550620008d5565b601f1984166200087e866200061a565b60005b82811015620008a85784890151825560018201915060208501945060208101905062000881565b86831015620008c85784890151620008c4601f891682620007b8565b8355505b6001600288020188555050505b505050505050565b614c3880620008ed6000396000f3fe608060405234801561001057600080fd5b50600436106101725760003560e01c8063731133e9116100de578063ca15c87311610097578063e63ab1e911610071578063e63ab1e914610445578063e985e9c514610463578063f242432a14610493578063f5298aca146104af57610172565b8063ca15c873146103db578063d53913931461040b578063d547741f1461042957610172565b8063731133e91461031b5780638456cb59146103375780639010d07c1461034157806391d1485414610371578063a217fddf146103a1578063a22cb465146103bf57610172565b80632f2ff15d116101305780632f2ff15d1461026f57806336568abe1461028b5780633f4ba83a146102a75780634e1273f4146102b15780635c975abb146102e15780636b20c454146102ff57610172565b8062fdd58e1461017757806301ffc9a7146101a75780630e89341c146101d75780631f7fdffa14610207578063248a9ca3146102235780632eb2c2d614610253575b600080fd5b610191600480360381019061018c9190612f28565b6104cb565b60405161019e9190612f77565b60405180910390f35b6101c160048036038101906101bc9190612fea565b610594565b6040516101ce9190613032565b60405180910390f35b6101f160048036038101906101ec919061304d565b6105a6565b6040516101fe9190613113565b60405180910390f35b610221600480360381019061021c9190613332565b61063a565b005b61023d60048036038101906102389190613423565b6106bc565b60405161024a919061345f565b60405180910390f35b61026d6004803603810190610268919061347a565b6106db565b005b61028960048036038101906102849190613549565b61077c565b005b6102a560048036038101906102a09190613549565b61079d565b005b6102af610820565b005b6102cb60048036038101906102c6919061364c565b61089a565b6040516102d89190613782565b60405180910390f35b6102e96109b3565b6040516102f69190613032565b60405180910390f35b610319600480360381019061031491906137a4565b6109ca565b005b6103356004803603810190610330919061382f565b610a67565b005b61033f610ae9565b005b61035b600480360381019061035691906138b2565b610b63565b6040516103689190613901565b60405180910390f35b61038b60048036038101906103869190613549565b610b92565b6040516103989190613032565b60405180910390f35b6103a9610bfc565b6040516103b6919061345f565b60405180910390f35b6103d960048036038101906103d49190613948565b610c03565b005b6103f560048036038101906103f09190613423565b610c19565b6040516104029190612f77565b60405180910390f35b610413610c3d565b604051610420919061345f565b60405180910390f35b610443600480360381019061043e9190613549565b610c61565b005b61044d610c82565b60405161045a919061345f565b60405180910390f35b61047d60048036038101906104789190613988565b610ca6565b60405161048a9190613032565b60405180910390f35b6104ad60048036038101906104a891906139c8565b610d3a565b005b6104c960048036038101906104c49190613a5f565b610ddb565b005b60008073ffffffffffffffffffffffffffffffffffffffff168373ffffffffffffffffffffffffffffffffffffffff160361053b576040517f08c379a000000000000000000000000000000000000000000000000000000000815260040161053290613b24565b60405180910390fd5b6002600083815260200190815260200160002060008473ffffffffffffffffffffffffffffffffffffffff1673ffffffffffffffffffffffffffffffffffffffff16815260200190815260200160002054905092915050565b600061059f82610f88565b9050919050565b6060600480546105b590613b73565b80601f01602080910402602001604051908101604052809291908181526020018280546105e190613b73565b801561062e5780601f106106035761010080835404028352916020019161062e565b820191906000526020600020905b81548152906001019060200180831161061157829003601f168201915b50505050509050919050565b61066b7f9f2df0fed2c77648de5860a4cc508cd0818c85b8b8a1ab4ceeef8d981c8956a661066661106a565b610b92565b6106aa576040517f08c379a00000000000000000000000000000000000000000000000000000000081526004016106a190613c16565b60405180910390fd5b6106b684848484611072565b50505050565b6000806000838152602001908152602001600020600101549050919050565b6106e361106a565b73ffffffffffffffffffffffffffffffffffffffff168573ffffffffffffffffffffffffffffffffffffffff16148061072957506107288561072361106a565b610ca6565b5b610768576040517f08c379a000000000000000000000000000000000000000000000000000000000815260040161075f90613ca8565b60405180910390fd5b610775858585858561129f565b5050505050565b610785826106bc565b61078e816115c3565b61079883836115d7565b505050565b6107a561106a565b73ffffffffffffffffffffffffffffffffffffffff168173ffffffffffffffffffffffffffffffffffffffff1614610812576040517f08c379a000000000000000000000000000000000000000000000000000000000815260040161080990613d3a565b60405180910390fd5b61081c828261160b565b5050565b6108517f65d7a28e3265b37a6474929f336521b332c1681b933f6cb9f3376673440d862a61084c61106a565b610b92565b610890576040517f08c379a000000000000000000000000000000000000000000000000000000000815260040161088790613dcc565b60405180910390fd5b61089861163f565b565b606081518351146108e0576040517f08c379a00000000000000000000000000000000000000000000000000000000081526004016108d790613e5e565b60405180910390fd5b6000835167ffffffffffffffff8111156108fd576108fc61313a565b5b60405190808252806020026020018201604052801561092b5781602001602082028036833780820191505090505b50905060005b84518110156109a8576109788582815181106109505761094f613e7e565b5b602002602001015185838151811061096b5761096a613e7e565b5b60200260200101516104cb565b82828151811061098b5761098a613e7e565b5b602002602001018181525050806109a190613edc565b9050610931565b508091505092915050565b6000600560009054906101000a900460ff16905090565b6109d261106a565b73ffffffffffffffffffffffffffffffffffffffff168373ffffffffffffffffffffffffffffffffffffffff161480610a185750610a1783610a1261106a565b610ca6565b5b610a57576040517f08c379a0000000000000000000000000000000000000000000000000000000008152600401610a4e90613f96565b60405180910390fd5b610a628383836116e1565b505050565b610a987f9f2df0fed2c77648de5860a4cc508cd0818c85b8b8a1ab4ceeef8d981c8956a6610a9361106a565b610b92565b610ad7576040517f08c379a0000000000000000000000000000000000000000000000000000000008152600401610ace90613c16565b60405180910390fd5b610ae3848484846119b1565b50505050565b610b1a7f65d7a28e3265b37a6474929f336521b332c1681b933f6cb9f3376673440d862a610b1561106a565b610b92565b610b59576040517f08c379a0000000000000000000000000000000000000000000000000000000008152600401610b5090614028565b60405180910390fd5b610b61611b62565b565b6000610b8a8260016000868152602001908152602001600020611c0590919063ffffffff16565b905092915050565b600080600084815260200190815260200160002060000160008373ffffffffffffffffffffffffffffffffffffffff1673ffffffffffffffffffffffffffffffffffffffff16815260200190815260200160002060009054906101000a900460ff16905092915050565b6000801b81565b610c15610c0e61106a565b8383611c1f565b5050565b6000610c3660016000848152602001908152602001600020611d8b565b9050919050565b7f9f2df0fed2c77648de5860a4cc508cd0818c85b8b8a1ab4ceeef8d981c8956a681565b610c6a826106bc565b610c73816115c3565b610c7d838361160b565b505050565b7f65d7a28e3265b37a6474929f336521b332c1681b933f6cb9f3376673440d862a81565b6000600360008473ffffffffffffffffffffffffffffffffffffffff1673ffffffffffffffffffffffffffffffffffffffff16815260200190815260200160002060008373ffffffffffffffffffffffffffffffffffffffff1673ffffffffffffffffffffffffffffffffffffffff16815260200190815260200160002060009054906101000a900460ff16905092915050565b610d4261106a565b73ffffffffffffffffffffffffffffffffffffffff168573ffffffffffffffffffffffffffffffffffffffff161480610d885750610d8785610d8261106a565b610ca6565b5b610dc7576040517f08c379a0000000000000000000000000000000000000000000000000000000008152600401610dbe90613f96565b60405180910390fd5b610dd48585858585611da0565b5050505050565b610de361106a565b73ffffffffffffffffffffffffffffffffffffffff168373ffffffffffffffffffffffffffffffffffffffff161480610e295750610e2883610e2361106a565b610ca6565b5b610e68576040517f08c379a0000000000000000000000000000000000000000000000000000000008152600401610e5f90613f96565b60405180910390fd5b610e7383838361203e565b505050565b610e828282610b92565b610f5457600160008084815260200190815260200160002060000160008373ffffffffffffffffffffffffffffffffffffffff1673ffffffffffffffffffffffffffffffffffffffff16815260200190815260200160002060006101000a81548160ff021916908315150217905550610ef961106a565b73ffffffffffffffffffffffffffffffffffffffff168173ffffffffffffffffffffffffffffffffffffffff16837f2f8788117e7eff1d82e926ec794901d17c78024a50270940304540a733656f0d60405160405180910390a45b5050565b6000610f80836000018373ffffffffffffffffffffffffffffffffffffffff1660001b612286565b905092915050565b60007fd9b67a26000000000000000000000000000000000000000000000000000000007bffffffffffffffffffffffffffffffffffffffffffffffffffffffff1916827bffffffffffffffffffffffffffffffffffffffffffffffffffffffff1916148061105357507f0e89341c000000000000000000000000000000000000000000000000000000007bffffffffffffffffffffffffffffffffffffffffffffffffffffffff1916827bffffffffffffffffffffffffffffffffffffffffffffffffffffffff1916145b806110635750611062826122f6565b5b9050919050565b600033905090565b600073ffffffffffffffffffffffffffffffffffffffff168473ffffffffffffffffffffffffffffffffffffffff16036110e1576040517f08c379a00000000000000000000000000000000000000000000000000000000081526004016110d8906140ba565b60405180910390fd5b8151835114611125576040517f08c379a000000000000000000000000000000000000000000000000000000000815260040161111c9061414c565b60405180910390fd5b600061112f61106a565b905061114081600087878787612370565b60005b84518110156111fa5783818151811061115f5761115e613e7e565b5b60200260200101516002600087848151811061117e5761117d613e7e565b5b6020026020010151815260200190815260200160002060008873ffffffffffffffffffffffffffffffffffffffff1673ffffffffffffffffffffffffffffffffffffffff16815260200190815260200160002060008282546111e0919061416c565b9250508190555080806111f290613edc565b915050611143565b508473ffffffffffffffffffffffffffffffffffffffff16600073ffffffffffffffffffffffffffffffffffffffff168273ffffffffffffffffffffffffffffffffffffffff167f4a39dc06d4c0dbc64b70af90fd698a233a518aa5d07e595d983b8c0526c8f7fb87876040516112729291906141c2565b60405180910390a461128981600087878787612386565b6112988160008787878761238e565b5050505050565b81518351146112e3576040517f08c379a00000000000000000000000000000000000000000000000000000000081526004016112da9061414c565b60405180910390fd5b600073ffffffffffffffffffffffffffffffffffffffff168473ffffffffffffffffffffffffffffffffffffffff1603611352576040517f08c379a00000000000000000000000000000000000000000000000000000000081526004016113499061426b565b60405180910390fd5b600061135c61106a565b905061136c818787878787612370565b60005b845181101561152057600085828151811061138d5761138c613e7e565b5b6020026020010151905060008583815181106113ac576113ab613e7e565b5b6020026020010151905060006002600084815260200190815260200160002060008b73ffffffffffffffffffffffffffffffffffffffff1673ffffffffffffffffffffffffffffffffffffffff1681526020019081526020016000205490508181101561144e576040517f08c379a0000000000000000000000000000000000000000000000000000000008152600401611445906142fd565b60405180910390fd5b8181036002600085815260200190815260200160002060008c73ffffffffffffffffffffffffffffffffffffffff1673ffffffffffffffffffffffffffffffffffffffff16815260200190815260200160002081905550816002600085815260200190815260200160002060008b73ffffffffffffffffffffffffffffffffffffffff1673ffffffffffffffffffffffffffffffffffffffff1681526020019081526020016000206000828254611505919061416c565b925050819055505050508061151990613edc565b905061136f565b508473ffffffffffffffffffffffffffffffffffffffff168673ffffffffffffffffffffffffffffffffffffffff168273ffffffffffffffffffffffffffffffffffffffff167f4a39dc06d4c0dbc64b70af90fd698a233a518aa5d07e595d983b8c0526c8f7fb87876040516115979291906141c2565b60405180910390a46115ad818787878787612386565b6115bb81878787878761238e565b505050505050565b6115d4816115cf61106a565b612565565b50565b6115e18282610e78565b6116068160016000858152602001908152602001600020610f5890919063ffffffff16565b505050565b6116158282612602565b61163a81600160008581526020019081526020016000206126e390919063ffffffff16565b505050565b6116476109b3565b611686576040517f08c379a000000000000000000000000000000000000000000000000000000000815260040161167d90614369565b60405180910390fd5b6000600560006101000a81548160ff0219169083151502179055507f5db9ee0a495bf2e6ff9c91a7834c1ba4fdd244a5e8aa4e537bd38aeae4b073aa6116ca61106a565b6040516116d79190613901565b60405180910390a1565b600073ffffffffffffffffffffffffffffffffffffffff168373ffffffffffffffffffffffffffffffffffffffff1603611750576040517f08c379a0000000000000000000000000000000000000000000000000000000008152600401611747906143fb565b60405180910390fd5b8051825114611794576040517f08c379a000000000000000000000000000000000000000000000000000000000815260040161178b9061414c565b60405180910390fd5b600061179e61106a565b90506117be81856000868660405180602001604052806000815250612370565b60005b835181101561190d5760008482815181106117df576117de613e7e565b5b6020026020010151905060008483815181106117fe576117fd613e7e565b5b6020026020010151905060006002600084815260200190815260200160002060008973ffffffffffffffffffffffffffffffffffffffff1673ffffffffffffffffffffffffffffffffffffffff168152602001908152602001600020549050818110156118a0576040517f08c379a00000000000000000000000000000000000000000000000000000000081526004016118979061448d565b60405180910390fd5b8181036002600085815260200190815260200160002060008a73ffffffffffffffffffffffffffffffffffffffff1673ffffffffffffffffffffffffffffffffffffffff16815260200190815260200160002081905550505050808061190590613edc565b9150506117c1565b50600073ffffffffffffffffffffffffffffffffffffffff168473ffffffffffffffffffffffffffffffffffffffff168273ffffffffffffffffffffffffffffffffffffffff167f4a39dc06d4c0dbc64b70af90fd698a233a518aa5d07e595d983b8c0526c8f7fb86866040516119859291906141c2565b60405180910390a46119ab81856000868660405180602001604052806000815250612386565b50505050565b600073ffffffffffffffffffffffffffffffffffffffff168473ffffffffffffffffffffffffffffffffffffffff1603611a20576040517f08c379a0000000000000000000000000000000000000000000000000000000008152600401611a17906140ba565b60405180910390fd5b6000611a2a61106a565b90506000611a3785612713565b90506000611a4485612713565b9050611a5583600089858589612370565b846002600088815260200190815260200160002060008973ffffffffffffffffffffffffffffffffffffffff1673ffffffffffffffffffffffffffffffffffffffff1681526020019081526020016000206000828254611ab5919061416c565b925050819055508673ffffffffffffffffffffffffffffffffffffffff16600073ffffffffffffffffffffffffffffffffffffffff168473ffffffffffffffffffffffffffffffffffffffff167fc3d58168c5ae7397731d063d5bbf3d657854427343f4c083240f7aacaa2d0f628989604051611b339291906144ad565b60405180910390a4611b4a83600089858589612386565b611b598360008989898961278d565b50505050505050565b611b6a6109b3565b15611baa576040517f08c379a0000000000000000000000000000000000000000000000000000000008152600401611ba190614522565b60405180910390fd5b6001600560006101000a81548160ff0219169083151502179055507f62e78cea01bee320cd4e420270b5ea74000d11b0c9f74754ebdbfc544b05a258611bee61106a565b604051611bfb9190613901565b60405180910390a1565b6000611c148360000183612964565b60001c905092915050565b8173ffffffffffffffffffffffffffffffffffffffff168373ffffffffffffffffffffffffffffffffffffffff1603611c8d576040517f08c379a0000000000000000000000000000000000000000000000000000000008152600401611c84906145b4565b60405180910390fd5b80600360008573ffffffffffffffffffffffffffffffffffffffff1673ffffffffffffffffffffffffffffffffffffffff16815260200190815260200160002060008473ffffffffffffffffffffffffffffffffffffffff1673ffffffffffffffffffffffffffffffffffffffff16815260200190815260200160002060006101000a81548160ff0219169083151502179055508173ffffffffffffffffffffffffffffffffffffffff168373ffffffffffffffffffffffffffffffffffffffff167f17307eab39ab6107e8899845ad3d59bd9653f200f220920489ca2b5937696c3183604051611d7e9190613032565b60405180910390a3505050565b6000611d998260000161298f565b9050919050565b600073ffffffffffffffffffffffffffffffffffffffff168473ffffffffffffffffffffffffffffffffffffffff1603611e0f576040517f08c379a0000000000000000000000000000000000000000000000000000000008152600401611e069061426b565b60405180910390fd5b6000611e1961106a565b90506000611e2685612713565b90506000611e3385612713565b9050611e43838989858589612370565b60006002600088815260200190815260200160002060008a73ffffffffffffffffffffffffffffffffffffffff1673ffffffffffffffffffffffffffffffffffffffff16815260200190815260200160002054905085811015611edb576040517f08c379a0000000000000000000000000000000000000000000000000000000008152600401611ed2906142fd565b60405180910390fd5b8581036002600089815260200190815260200160002060008b73ffffffffffffffffffffffffffffffffffffffff1673ffffffffffffffffffffffffffffffffffffffff16815260200190815260200160002081905550856002600089815260200190815260200160002060008a73ffffffffffffffffffffffffffffffffffffffff1673ffffffffffffffffffffffffffffffffffffffff1681526020019081526020016000206000828254611f92919061416c565b925050819055508773ffffffffffffffffffffffffffffffffffffffff168973ffffffffffffffffffffffffffffffffffffffff168573ffffffffffffffffffffffffffffffffffffffff167fc3d58168c5ae7397731d063d5bbf3d657854427343f4c083240f7aacaa2d0f628a8a60405161200f9291906144ad565b60405180910390a4612025848a8a86868a612386565b612033848a8a8a8a8a61278d565b505050505050505050565b600073ffffffffffffffffffffffffffffffffffffffff168373ffffffffffffffffffffffffffffffffffffffff16036120ad576040517f08c379a00000000000000000000000000000000000000000000000000000000081526004016120a4906143fb565b60405180910390fd5b60006120b761106a565b905060006120c484612713565b905060006120d184612713565b90506120f183876000858560405180602001604052806000815250612370565b60006002600087815260200190815260200160002060008873ffffffffffffffffffffffffffffffffffffffff1673ffffffffffffffffffffffffffffffffffffffff16815260200190815260200160002054905084811015612189576040517f08c379a00000000000000000000000000000000000000000000000000000000081526004016121809061448d565b60405180910390fd5b8481036002600088815260200190815260200160002060008973ffffffffffffffffffffffffffffffffffffffff1673ffffffffffffffffffffffffffffffffffffffff16815260200190815260200160002081905550600073ffffffffffffffffffffffffffffffffffffffff168773ffffffffffffffffffffffffffffffffffffffff168573ffffffffffffffffffffffffffffffffffffffff167fc3d58168c5ae7397731d063d5bbf3d657854427343f4c083240f7aacaa2d0f6289896040516122579291906144ad565b60405180910390a461227d84886000868660405180602001604052806000815250612386565b50505050505050565b600061229283836129a0565b6122eb5782600001829080600181540180825580915050600190039060005260206000200160009091909190915055826000018054905083600101600084815260200190815260200160002081905550600190506122f0565b600090505b92915050565b60007f5a05180f000000000000000000000000000000000000000000000000000000007bffffffffffffffffffffffffffffffffffffffffffffffffffffffff1916827bffffffffffffffffffffffffffffffffffffffffffffffffffffffff191614806123695750612368826129c3565b5b9050919050565b61237e868686868686612a3d565b505050505050565b505050505050565b6123ad8473ffffffffffffffffffffffffffffffffffffffff16612a9b565b1561255d578373ffffffffffffffffffffffffffffffffffffffff1663bc197c8187878686866040518663ffffffff1660e01b81526004016123f3959493929190614629565b6020604051808303816000875af192505050801561242f57506040513d601f19601f8201168201806040525081019061242c91906146a6565b60015b6124d45761243b6146e0565b806308c379a003612497575061244f614702565b8061245a5750612499565b806040517f08c379a000000000000000000000000000000000000000000000000000000000815260040161248e9190613113565b60405180910390fd5b505b6040517f08c379a00000000000000000000000000000000000000000000000000000000081526004016124cb90614804565b60405180910390fd5b63bc197c8160e01b7bffffffffffffffffffffffffffffffffffffffffffffffffffffffff1916817bffffffffffffffffffffffffffffffffffffffffffffffffffffffff19161461255b576040517f08c379a000000000000000000000000000000000000000000000000000000000815260040161255290614896565b60405180910390fd5b505b505050505050565b61256f8282610b92565b6125fe576125948173ffffffffffffffffffffffffffffffffffffffff166014612abe565b6125a28360001c6020612abe565b6040516020016125b392919061498a565b6040516020818303038152906040526040517f08c379a00000000000000000000000000000000000000000000000000000000081526004016125f59190613113565b60405180910390fd5b5050565b61260c8282610b92565b156126df57600080600084815260200190815260200160002060000160008373ffffffffffffffffffffffffffffffffffffffff1673ffffffffffffffffffffffffffffffffffffffff16815260200190815260200160002060006101000a81548160ff02191690831515021790555061268461106a565b73ffffffffffffffffffffffffffffffffffffffff168173ffffffffffffffffffffffffffffffffffffffff16837ff6391f5c32d9c69d2a47ea670b442974b53935d1edc7fd64eb21e047a839171b60405160405180910390a45b5050565b600061270b836000018373ffffffffffffffffffffffffffffffffffffffff1660001b612cfa565b905092915050565b60606000600167ffffffffffffffff8111156127325761273161313a565b5b6040519080825280602002602001820160405280156127605781602001602082028036833780820191505090505b509050828160008151811061277857612777613e7e565b5b60200260200101818152505080915050919050565b6127ac8473ffffffffffffffffffffffffffffffffffffffff16612a9b565b1561295c578373ffffffffffffffffffffffffffffffffffffffff1663f23a6e6187878686866040518663ffffffff1660e01b81526004016127f29594939291906149c4565b6020604051808303816000875af192505050801561282e57506040513d601f19601f8201168201806040525081019061282b91906146a6565b60015b6128d35761283a6146e0565b806308c379a003612896575061284e614702565b806128595750612898565b806040517f08c379a000000000000000000000000000000000000000000000000000000000815260040161288d9190613113565b60405180910390fd5b505b6040517f08c379a00000000000000000000000000000000000000000000000000000000081526004016128ca90614804565b60405180910390fd5b63f23a6e6160e01b7bffffffffffffffffffffffffffffffffffffffffffffffffffffffff1916817bffffffffffffffffffffffffffffffffffffffffffffffffffffffff19161461295a576040517f08c379a000000000000000000000000000000000000000000000000000000000815260040161295190614896565b60405180910390fd5b505b505050505050565b600082600001828154811061297c5761297b613e7e565b5b9060005260206000200154905092915050565b600081600001805490509050919050565b600080836001016000848152602001908152602001600020541415905092915050565b60007f7965db0b000000000000000000000000000000000000000000000000000000007bffffffffffffffffffffffffffffffffffffffffffffffffffffffff1916827bffffffffffffffffffffffffffffffffffffffffffffffffffffffff19161480612a365750612a3582612e0e565b5b9050919050565b612a4b868686868686612e78565b612a536109b3565b15612a93576040517f08c379a0000000000000000000000000000000000000000000000000000000008152600401612a8a90614a90565b60405180910390fd5b505050505050565b6000808273ffffffffffffffffffffffffffffffffffffffff163b119050919050565b606060006002836002612ad19190614ab0565b612adb919061416c565b67ffffffffffffffff811115612af457612af361313a565b5b6040519080825280601f01601f191660200182016040528015612b265781602001600182028036833780820191505090505b5090507f300000000000000000000000000000000000000000000000000000000000000081600081518110612b5e57612b5d613e7e565b5b60200101907effffffffffffffffffffffffffffffffffffffffffffffffffffffffffffff1916908160001a9053507f780000000000000000000000000000000000000000000000000000000000000081600181518110612bc257612bc1613e7e565b5b60200101907effffffffffffffffffffffffffffffffffffffffffffffffffffffffffffff1916908160001a90535060006001846002612c029190614ab0565b612c0c919061416c565b90505b6001811115612cac577f3031323334353637383961626364656600000000000000000000000000000000600f861660108110612c4e57612c4d613e7e565b5b1a60f81b828281518110612c6557612c64613e7e565b5b60200101907effffffffffffffffffffffffffffffffffffffffffffffffffffffffffffff1916908160001a905350600485901c945080612ca590614b0a565b9050612c0f565b5060008414612cf0576040517f08c379a0000000000000000000000000000000000000000000000000000000008152600401612ce790614b7f565b60405180910390fd5b8091505092915050565b60008083600101600084815260200190815260200160002054905060008114612e02576000600182612d2c9190614b9f565b9050600060018660000180549050612d449190614b9f565b9050818114612db3576000866000018281548110612d6557612d64613e7e565b5b9060005260206000200154905080876000018481548110612d8957612d88613e7e565b5b90600052602060002001819055508387600101600083815260200190815260200160002081905550505b85600001805480612dc757612dc6614bd3565b5b600190038181906000526020600020016000905590558560010160008681526020019081526020016000206000905560019350505050612e08565b60009150505b92915050565b60007f01ffc9a7000000000000000000000000000000000000000000000000000000007bffffffffffffffffffffffffffffffffffffffffffffffffffffffff1916827bffffffffffffffffffffffffffffffffffffffffffffffffffffffff1916149050919050565b505050505050565b6000604051905090565b600080fd5b600080fd5b600073ffffffffffffffffffffffffffffffffffffffff82169050919050565b6000612ebf82612e94565b9050919050565b612ecf81612eb4565b8114612eda57600080fd5b50565b600081359050612eec81612ec6565b92915050565b6000819050919050565b612f0581612ef2565b8114612f1057600080fd5b50565b600081359050612f2281612efc565b92915050565b60008060408385031215612f3f57612f3e612e8a565b5b6000612f4d85828601612edd565b9250506020612f5e85828601612f13565b9150509250929050565b612f7181612ef2565b82525050565b6000602082019050612f8c6000830184612f68565b92915050565b60007fffffffff0000000000000000000000000000000000000000000000000000000082169050919050565b612fc781612f92565b8114612fd257600080fd5b50565b600081359050612fe481612fbe565b92915050565b60006020828403121561300057612fff612e8a565b5b600061300e84828501612fd5565b91505092915050565b60008115159050919050565b61302c81613017565b82525050565b60006020820190506130476000830184613023565b92915050565b60006020828403121561306357613062612e8a565b5b600061307184828501612f13565b91505092915050565b600081519050919050565b600082825260208201905092915050565b60005b838110156130b4578082015181840152602081019050613099565b838111156130c3576000848401525b50505050565b6000601f19601f8301169050919050565b60006130e58261307a565b6130ef8185613085565b93506130ff818560208601613096565b613108816130c9565b840191505092915050565b6000602082019050818103600083015261312d81846130da565b905092915050565b600080fd5b7f4e487b7100000000000000000000000000000000000000000000000000000000600052604160045260246000fd5b613172826130c9565b810181811067ffffffffffffffff821117156131915761319061313a565b5b80604052505050565b60006131a4612e80565b90506131b08282613169565b919050565b600067ffffffffffffffff8211156131d0576131cf61313a565b5b602082029050602081019050919050565b600080fd5b60006131f96131f4846131b5565b61319a565b9050808382526020820190506020840283018581111561321c5761321b6131e1565b5b835b8181101561324557806132318882612f13565b84526020840193505060208101905061321e565b5050509392505050565b600082601f83011261326457613263613135565b5b81356132748482602086016131e6565b91505092915050565b600080fd5b600067ffffffffffffffff82111561329d5761329c61313a565b5b6132a6826130c9565b9050602081019050919050565b82818337600083830152505050565b60006132d56132d084613282565b61319a565b9050828152602081018484840111156132f1576132f061327d565b5b6132fc8482856132b3565b509392505050565b600082601f83011261331957613318613135565b5b81356133298482602086016132c2565b91505092915050565b6000806000806080858703121561334c5761334b612e8a565b5b600061335a87828801612edd565b945050602085013567ffffffffffffffff81111561337b5761337a612e8f565b5b6133878782880161324f565b935050604085013567ffffffffffffffff8111156133a8576133a7612e8f565b5b6133b48782880161324f565b925050606085013567ffffffffffffffff8111156133d5576133d4612e8f565b5b6133e187828801613304565b91505092959194509250565b6000819050919050565b613400816133ed565b811461340b57600080fd5b50565b60008135905061341d816133f7565b92915050565b60006020828403121561343957613438612e8a565b5b60006134478482850161340e565b91505092915050565b613459816133ed565b82525050565b60006020820190506134746000830184613450565b92915050565b600080600080600060a0868803121561349657613495612e8a565b5b60006134a488828901612edd565b95505060206134b588828901612edd565b945050604086013567ffffffffffffffff8111156134d6576134d5612e8f565b5b6134e28882890161324f565b935050606086013567ffffffffffffffff81111561350357613502612e8f565b5b61350f8882890161324f565b925050608086013567ffffffffffffffff8111156135305761352f612e8f565b5b61353c88828901613304565b9150509295509295909350565b600080604083850312156135605761355f612e8a565b5b600061356e8582860161340e565b925050602061357f85828601612edd565b9150509250929050565b600067ffffffffffffffff8211156135a4576135a361313a565b5b602082029050602081019050919050565b60006135c86135c384613589565b61319a565b905080838252602082019050602084028301858111156135eb576135ea6131e1565b5b835b8181101561361457806136008882612edd565b8452602084019350506020810190506135ed565b5050509392505050565b600082601f83011261363357613632613135565b5b81356136438482602086016135b5565b91505092915050565b6000806040838503121561366357613662612e8a565b5b600083013567ffffffffffffffff81111561368157613680612e8f565b5b61368d8582860161361e565b925050602083013567ffffffffffffffff8111156136ae576136ad612e8f565b5b6136ba8582860161324f565b9150509250929050565b600081519050919050565b600082825260208201905092915050565b6000819050602082019050919050565b6136f981612ef2565b82525050565b600061370b83836136f0565b60208301905092915050565b6000602082019050919050565b600061372f826136c4565b61373981856136cf565b9350613744836136e0565b8060005b8381101561377557815161375c88826136ff565b975061376783613717565b925050600181019050613748565b5085935050505092915050565b6000602082019050818103600083015261379c8184613724565b905092915050565b6000806000606084860312156137bd576137bc612e8a565b5b60006137cb86828701612edd565b935050602084013567ffffffffffffffff8111156137ec576137eb612e8f565b5b6137f88682870161324f565b925050604084013567ffffffffffffffff81111561381957613818612e8f565b5b6138258682870161324f565b9150509250925092565b6000806000806080858703121561384957613848612e8a565b5b600061385787828801612edd565b945050602061386887828801612f13565b935050604061387987828801612f13565b925050606085013567ffffffffffffffff81111561389a57613899612e8f565b5b6138a687828801613304565b91505092959194509250565b600080604083850312156138c9576138c8612e8a565b5b60006138d78582860161340e565b92505060206138e885828601612f13565b9150509250929050565b6138fb81612eb4565b82525050565b600060208201905061391660008301846138f2565b92915050565b61392581613017565b811461393057600080fd5b50565b6000813590506139428161391c565b92915050565b6000806040838503121561395f5761395e612e8a565b5b600061396d85828601612edd565b925050602061397e85828601613933565b9150509250929050565b6000806040838503121561399f5761399e612e8a565b5b60006139ad85828601612edd565b92505060206139be85828601612edd565b9150509250929050565b600080600080600060a086880312156139e4576139e3612e8a565b5b60006139f288828901612edd565b9550506020613a0388828901612edd565b9450506040613a1488828901612f13565b9350506060613a2588828901612f13565b925050608086013567ffffffffffffffff811115613a4657613a45612e8f565b5b613a5288828901613304565b9150509295509295909350565b600080600060608486031215613a7857613a77612e8a565b5b6000613a8686828701612edd565b9350506020613a9786828701612f13565b9250506040613aa886828701612f13565b9150509250925092565b7f455243313135353a2062616c616e636520717565727920666f7220746865207a60008201527f65726f2061646472657373000000000000000000000000000000000000000000602082015250565b6000613b0e602b83613085565b9150613b1982613ab2565b604082019050919050565b60006020820190508181036000830152613b3d81613b01565b9050919050565b7f4e487b7100000000000000000000000000000000000000000000000000000000600052602260045260246000fd5b60006002820490506001821680613b8b57607f821691505b602082108103613b9e57613b9d613b44565b5b50919050565b7f455243313135355072657365744d696e7465725061757365723a206d7573742060008201527f68617665206d696e74657220726f6c6520746f206d696e740000000000000000602082015250565b6000613c00603883613085565b9150613c0b82613ba4565b604082019050919050565b60006020820190508181036000830152613c2f81613bf3565b9050919050565b7f455243313135353a207472616e736665722063616c6c6572206973206e6f742060008201527f6f776e6572206e6f7220617070726f7665640000000000000000000000000000602082015250565b6000613c92603283613085565b9150613c9d82613c36565b604082019050919050565b60006020820190508181036000830152613cc181613c85565b9050919050565b7f416363657373436f6e74726f6c3a2063616e206f6e6c792072656e6f756e636560008201527f20726f6c657320666f722073656c660000000000000000000000000000000000602082015250565b6000613d24602f83613085565b9150613d2f82613cc8565b604082019050919050565b60006020820190508181036000830152613d5381613d17565b9050919050565b7f455243313135355072657365744d696e7465725061757365723a206d7573742060008201527f686176652070617573657220726f6c6520746f20756e70617573650000000000602082015250565b6000613db6603b83613085565b9150613dc182613d5a565b604082019050919050565b60006020820190508181036000830152613de581613da9565b9050919050565b7f455243313135353a206163636f756e747320616e6420696473206c656e67746860008201527f206d69736d617463680000000000000000000000000000000000000000000000602082015250565b6000613e48602983613085565b9150613e5382613dec565b604082019050919050565b60006020820190508181036000830152613e7781613e3b565b9050919050565b7f4e487b7100000000000000000000000000000000000000000000000000000000600052603260045260246000fd5b7f4e487b7100000000000000000000000000000000000000000000000000000000600052601160045260246000fd5b6000613ee782612ef2565b91507fffffffffffffffffffffffffffffffffffffffffffffffffffffffffffffffff8203613f1957613f18613ead565b5b600182019050919050565b7f455243313135353a2063616c6c6572206973206e6f74206f776e6572206e6f7260008201527f20617070726f7665640000000000000000000000000000000000000000000000602082015250565b6000613f80602983613085565b9150613f8b82613f24565b604082019050919050565b60006020820190508181036000830152613faf81613f73565b9050919050565b7f455243313135355072657365744d696e7465725061757365723a206d7573742060008201527f686176652070617573657220726f6c6520746f20706175736500000000000000602082015250565b6000614012603983613085565b915061401d82613fb6565b604082019050919050565b6000602082019050818103600083015261404181614005565b9050919050565b7f455243313135353a206d696e7420746f20746865207a65726f2061646472657360008201527f7300000000000000000000000000000000000000000000000000000000000000602082015250565b60006140a4602183613085565b91506140af82614048565b604082019050919050565b600060208201905081810360008301526140d381614097565b9050919050565b7f455243313135353a2069647320616e6420616d6f756e7473206c656e6774682060008201527f6d69736d61746368000000000000000000000000000000000000000000000000602082015250565b6000614136602883613085565b9150614141826140da565b604082019050919050565b6000602082019050818103600083015261416581614129565b9050919050565b600061417782612ef2565b915061418283612ef2565b9250827fffffffffffffffffffffffffffffffffffffffffffffffffffffffffffffffff038211156141b7576141b6613ead565b5b828201905092915050565b600060408201905081810360008301526141dc8185613724565b905081810360208301526141f08184613724565b90509392505050565b7f455243313135353a207472616e7366657220746f20746865207a65726f20616460008201527f6472657373000000000000000000000000000000000000000000000000000000602082015250565b6000614255602583613085565b9150614260826141f9565b604082019050919050565b6000602082019050818103600083015261428481614248565b9050919050565b7f455243313135353a20696e73756666696369656e742062616c616e636520666f60008201527f72207472616e7366657200000000000000000000000000000000000000000000602082015250565b60006142e7602a83613085565b91506142f28261428b565b604082019050919050565b60006020820190508181036000830152614316816142da565b9050919050565b7f5061757361626c653a206e6f7420706175736564000000000000000000000000600082015250565b6000614353601483613085565b915061435e8261431d565b602082019050919050565b6000602082019050818103600083015261438281614346565b9050919050565b7f455243313135353a206275726e2066726f6d20746865207a65726f206164647260008201527f6573730000000000000000000000000000000000000000000000000000000000602082015250565b60006143e5602383613085565b91506143f082614389565b604082019050919050565b60006020820190508181036000830152614414816143d8565b9050919050565b7f455243313135353a206275726e20616d6f756e7420657863656564732062616c60008201527f616e636500000000000000000000000000000000000000000000000000000000602082015250565b6000614477602483613085565b91506144828261441b565b604082019050919050565b600060208201905081810360008301526144a68161446a565b9050919050565b60006040820190506144c26000830185612f68565b6144cf6020830184612f68565b9392505050565b7f5061757361626c653a2070617573656400000000000000000000000000000000600082015250565b600061450c601083613085565b9150614517826144d6565b602082019050919050565b6000602082019050818103600083015261453b816144ff565b9050919050565b7f455243313135353a2073657474696e6720617070726f76616c2073746174757360008201527f20666f722073656c660000000000000000000000000000000000000000000000602082015250565b600061459e602983613085565b91506145a982614542565b604082019050919050565b600060208201905081810360008301526145cd81614591565b9050919050565b600081519050919050565b600082825260208201905092915050565b60006145fb826145d4565b61460581856145df565b9350614615818560208601613096565b61461e816130c9565b840191505092915050565b600060a08201905061463e60008301886138f2565b61464b60208301876138f2565b818103604083015261465d8186613724565b905081810360608301526146718185613724565b9050818103608083015261468581846145f0565b90509695505050505050565b6000815190506146a081612fbe565b92915050565b6000602082840312156146bc576146bb612e8a565b5b60006146ca84828501614691565b91505092915050565b60008160e01c9050919050565b600060033d11156146ff5760046000803e6146fc6000516146d3565b90505b90565b600060443d1061478f57614714612e80565b60043d036004823e80513d602482011167ffffffffffffffff8211171561473c57505061478f565b808201805167ffffffffffffffff81111561475a575050505061478f565b80602083010160043d03850181111561477757505050505061478f565b61478682602001850186613169565b82955050505050505b90565b7f455243313135353a207472616e7366657220746f206e6f6e204552433131353560008201527f526563656976657220696d706c656d656e746572000000000000000000000000602082015250565b60006147ee603483613085565b91506147f982614792565b604082019050919050565b6000602082019050818103600083015261481d816147e1565b9050919050565b7f455243313135353a204552433131353552656365697665722072656a6563746560008201527f6420746f6b656e73000000000000000000000000000000000000000000000000602082015250565b6000614880602883613085565b915061488b82614824565b604082019050919050565b600060208201905081810360008301526148af81614873565b9050919050565b600081905092915050565b7f416363657373436f6e74726f6c3a206163636f756e7420000000000000000000600082015250565b60006148f76017836148b6565b9150614902826148c1565b601782019050919050565b60006149188261307a565b61492281856148b6565b9350614932818560208601613096565b80840191505092915050565b7f206973206d697373696e6720726f6c6520000000000000000000000000000000600082015250565b60006149746011836148b6565b915061497f8261493e565b601182019050919050565b6000614995826148ea565b91506149a1828561490d565b91506149ac82614967565b91506149b8828461490d565b91508190509392505050565b600060a0820190506149d960008301886138f2565b6149e660208301876138f2565b6149f36040830186612f68565b614a006060830185612f68565b8181036080830152614a1281846145f0565b90509695505050505050565b7f455243313135355061757361626c653a20746f6b656e207472616e736665722060008201527f7768696c65207061757365640000000000000000000000000000000000000000602082015250565b6000614a7a602c83613085565b9150614a8582614a1e565b604082019050919050565b60006020820190508181036000830152614aa981614a6d565b9050919050565b6000614abb82612ef2565b9150614ac683612ef2565b9250817fffffffffffffffffffffffffffffffffffffffffffffffffffffffffffffffff0483118215151615614aff57614afe613ead565b5b828202905092915050565b6000614b1582612ef2565b915060008203614b2857614b27613ead565b5b600182039050919050565b7f537472696e67733a20686578206c656e67746820696e73756666696369656e74600082015250565b6000614b69602083613085565b9150614b7482614b33565b602082019050919050565b60006020820190508181036000830152614b9881614b5c565b9050919050565b6000614baa82612ef2565b9150614bb583612ef2565b925082821015614bc857614bc7613ead565b5b828203905092915050565b7f4e487b7100000000000000000000000000000000000000000000000000000000600052603160045260246000fdfea26469706673582212202d7de4a65aa7a5223b30879550c53513afa32ab13c5c086d6c7e44969285156d64736f6c634300080f0033",
  "immutableReferences": {},
  "source": "// SPDX-License-Identifier: MIT\n// OpenZeppelin Contracts (last updated v4.5.0) (token/ERC1155/presets/ERC1155PresetMinterPauser.sol)\n\npragma solidity ^0.8.0;\n\nimport \"../ERC1155.sol\";\nimport \"../extensions/ERC1155Burnable.sol\";\nimport \"../extensions/ERC1155Pausable.sol\";\nimport \"../../../access/AccessControlEnumerable.sol\";\nimport \"../../../utils/Context.sol\";\n\n/**\n * @dev {ERC1155} token, including:\n *\n *  - ability for holders to burn (destroy) their tokens\n *  - a minter role that allows for token minting (creation)\n *  - a pauser role that allows to stop all token transfers\n *\n * This contract uses {AccessControl} to lock permissioned functions using the\n * different roles - head to its documentation for details.\n *\n * The account that deploys the contract will be granted the minter and pauser\n * roles, as well as the default admin role, which will let it grant both minter\n * and pauser roles to other accounts.\n *\n * _Deprecated in favor of https://wizard.openzeppelin.com/[Contracts Wizard]._\n */\ncontract ERC1155PresetMinterPauser is Context, AccessControlEnumerable, ERC1155Burnable, ERC1155Pausable {\n    bytes32 public constant MINTER_ROLE = keccak256(\"MINTER_ROLE\");\n    bytes32 public constant PAUSER_ROLE = keccak256(\"PAUSER_ROLE\");\n\n    /**\n     * @dev Grants `DEFAULT_ADMIN_ROLE`, `MINTER_ROLE`, and `PAUSER_ROLE` to the account that\n     * deploys the contract.\n     */\n    constructor(string memory uri) ERC1155(uri) {\n        _setupRole(DEFAULT_ADMIN_ROLE, _msgSender());\n\n        _setupRole(MINTER_ROLE, _msgSender());\n        _setupRole(PAUSER_ROLE, _msgSender());\n    }\n\n    /**\n     * @dev Creates `amount` new tokens for `to`, of token type `id`.\n     *\n     * See {ERC1155-_mint}.\n     *\n     * Requirements:\n     *\n     * - the caller must have the `MINTER_ROLE`.\n     */\n    function mint(\n        address to,\n        uint256 id,\n        uint256 amount,\n        bytes memory data\n    ) public virtual {\n        require(hasRole(MINTER_ROLE, _msgSender()), \"ERC1155PresetMinterPauser: must have minter role to mint\");\n\n        _mint(to, id, amount, data);\n    }\n\n    /**\n     * @dev xref:ROOT:erc1155.adoc#batch-operations[Batched] variant of {mint}.\n     */\n    function mintBatch(\n        address to,\n        uint256[] memory ids,\n        uint256[] memory amounts,\n        bytes memory data\n    ) public virtual {\n        require(hasRole(MINTER_ROLE, _msgSender()), \"ERC1155PresetMinterPauser: must have minter role to mint\");\n\n        _mintBatch(to, ids, amounts, data);\n    }\n\n    /**\n     * @dev Pauses all token transfers.\n     *\n     * See {ERC1155Pausable} and {Pausable-_pause}.\n     *\n     * Requirements:\n     *\n     * - the caller must have the `PAUSER_ROLE`.\n     */\n    function pause() public virtual {\n        require(hasRole(PAUSER_ROLE, _msgSender()), \"ERC1155PresetMinterPauser: must have pauser role to pause\");\n        _pause();\n    }\n\n    /**\n     * @dev Unpauses all token transfers.\n     *\n     * See {ERC1155Pausable} and {Pausable-_unpause}.\n     *\n     * Requirements:\n     *\n     * - the caller must have the `PAUSER_ROLE`.\n     */\n    function unpause() public virtual {\n        require(hasRole(PAUSER_ROLE, _msgSender()), \"ERC1155PresetMinterPauser: must have pauser role to unpause\");\n        _unpause();\n    }\n\n    /**\n     * @dev See {IERC165-supportsInterface}.\n     */\n    function supportsInterface(bytes4 interfaceId)\n        public\n        view\n        virtual\n        override(AccessControlEnumerable, ERC1155)\n        returns (bool)\n    {\n        return super.supportsInterface(interfaceId);\n    }\n\n    function _beforeTokenTransfer(\n        address operator,\n        address from,\n        address to,\n        uint256[] memory ids,\n        uint256[] memory amounts,\n        bytes memory data\n    ) internal virtual override(ERC1155, ERC1155Pausable) {\n        super._beforeTokenTransfer(operator, from, to, ids, amounts, data);\n    }\n}\n",
  "sourcePath": "/Users/oo_ha/workspace/project/meta/dApp_Store/truffle/contracts/node_modules/openzeppelin-solidity/contracts/token/ERC1155/presets/ERC1155PresetMinterPauser.sol",
  "compiler": {
    "name": "solc",
    "version": "0.8.15+commit.e14f2714.Emscripten.clang"
  },
  "schemaVersion": "3.4.8",
  "updatedAt": "2022-08-24T05:52:12.562Z",
  "devdoc": {
    "details": "{ERC1155} token, including:  - ability for holders to burn (destroy) their tokens  - a minter role that allows for token minting (creation)  - a pauser role that allows to stop all token transfers This contract uses {AccessControl} to lock permissioned functions using the different roles - head to its documentation for details. The account that deploys the contract will be granted the minter and pauser roles, as well as the default admin role, which will let it grant both minter and pauser roles to other accounts. _Deprecated in favor of https://wizard.openzeppelin.com/[Contracts Wizard]._",
    "kind": "dev",
    "methods": {
      "balanceOf(address,uint256)": {
        "details": "See {IERC1155-balanceOf}. Requirements: - `account` cannot be the zero address."
      },
      "balanceOfBatch(address[],uint256[])": {
        "details": "See {IERC1155-balanceOfBatch}. Requirements: - `accounts` and `ids` must have the same length."
      },
      "constructor": {
        "details": "Grants `DEFAULT_ADMIN_ROLE`, `MINTER_ROLE`, and `PAUSER_ROLE` to the account that deploys the contract."
      },
      "getRoleAdmin(bytes32)": {
        "details": "Returns the admin role that controls `role`. See {grantRole} and {revokeRole}. To change a role's admin, use {_setRoleAdmin}."
      },
      "getRoleMember(bytes32,uint256)": {
        "details": "Returns one of the accounts that have `role`. `index` must be a value between 0 and {getRoleMemberCount}, non-inclusive. Role bearers are not sorted in any particular way, and their ordering may change at any point. WARNING: When using {getRoleMember} and {getRoleMemberCount}, make sure you perform all queries on the same block. See the following https://forum.openzeppelin.com/t/iterating-over-elements-on-enumerableset-in-openzeppelin-contracts/2296[forum post] for more information."
      },
      "getRoleMemberCount(bytes32)": {
        "details": "Returns the number of accounts that have `role`. Can be used together with {getRoleMember} to enumerate all bearers of a role."
      },
      "grantRole(bytes32,address)": {
        "details": "Grants `role` to `account`. If `account` had not been already granted `role`, emits a {RoleGranted} event. Requirements: - the caller must have ``role``'s admin role."
      },
      "hasRole(bytes32,address)": {
        "details": "Returns `true` if `account` has been granted `role`."
      },
      "isApprovedForAll(address,address)": {
        "details": "See {IERC1155-isApprovedForAll}."
      },
      "mint(address,uint256,uint256,bytes)": {
        "details": "Creates `amount` new tokens for `to`, of token type `id`. See {ERC1155-_mint}. Requirements: - the caller must have the `MINTER_ROLE`."
      },
      "mintBatch(address,uint256[],uint256[],bytes)": {
        "details": "xref:ROOT:erc1155.adoc#batch-operations[Batched] variant of {mint}."
      },
      "pause()": {
        "details": "Pauses all token transfers. See {ERC1155Pausable} and {Pausable-_pause}. Requirements: - the caller must have the `PAUSER_ROLE`."
      },
      "paused()": {
        "details": "Returns true if the contract is paused, and false otherwise."
      },
      "renounceRole(bytes32,address)": {
        "details": "Revokes `role` from the calling account. Roles are often managed via {grantRole} and {revokeRole}: this function's purpose is to provide a mechanism for accounts to lose their privileges if they are compromised (such as when a trusted device is misplaced). If the calling account had been revoked `role`, emits a {RoleRevoked} event. Requirements: - the caller must be `account`."
      },
      "revokeRole(bytes32,address)": {
        "details": "Revokes `role` from `account`. If `account` had been granted `role`, emits a {RoleRevoked} event. Requirements: - the caller must have ``role``'s admin role."
      },
      "safeBatchTransferFrom(address,address,uint256[],uint256[],bytes)": {
        "details": "See {IERC1155-safeBatchTransferFrom}."
      },
      "safeTransferFrom(address,address,uint256,uint256,bytes)": {
        "details": "See {IERC1155-safeTransferFrom}."
      },
      "setApprovalForAll(address,bool)": {
        "details": "See {IERC1155-setApprovalForAll}."
      },
      "supportsInterface(bytes4)": {
        "details": "See {IERC165-supportsInterface}."
      },
      "unpause()": {
        "details": "Unpauses all token transfers. See {ERC1155Pausable} and {Pausable-_unpause}. Requirements: - the caller must have the `PAUSER_ROLE`."
      },
      "uri(uint256)": {
        "details": "See {IERC1155MetadataURI-uri}. This implementation returns the same URI for *all* token types. It relies on the token type ID substitution mechanism https://eips.ethereum.org/EIPS/eip-1155#metadata[defined in the EIP]. Clients calling this function must replace the `\\{id\\}` substring with the actual token type ID."
      }
    },
    "version": 1
  },
  "userdoc": {
    "kind": "user",
    "methods": {},
    "version": 1
  }
}