{
  "contractName": "MintMusicToken",
  "abi": [
    {
      "inputs": [],
      "stateMutability": "nonpayable",
      "type": "constructor"
    },
    {
      "anonymous": false,
      "inputs": [
        {
          "indexed": true,
          "internalType": "address",
          "name": "owner",
          "type": "address"
        },
        {
          "indexed": true,
          "internalType": "address",
          "name": "approved",
          "type": "address"
        },
        {
          "indexed": true,
          "internalType": "uint256",
          "name": "tokenId",
          "type": "uint256"
        }
      ],
      "name": "Approval",
      "type": "event"
    },
    {
      "anonymous": false,
      "inputs": [
        {
          "indexed": true,
          "internalType": "address",
          "name": "owner",
          "type": "address"
        },
        {
          "indexed": true,
          "internalType": "address",
          "name": "operator",
          "type": "address"
        },
        {
          "indexed": false,
          "internalType": "bool",
          "name": "approved",
          "type": "bool"
        }
      ],
      "name": "ApprovalForAll",
      "type": "event"
    },
    {
      "anonymous": false,
      "inputs": [
        {
          "indexed": true,
          "internalType": "uint256",
          "name": "tokenID",
          "type": "uint256"
        },
        {
          "indexed": false,
          "internalType": "string",
          "name": "tokenURI",
          "type": "string"
        },
        {
          "indexed": true,
          "internalType": "address",
          "name": "Minter",
          "type": "address"
        },
        {
          "indexed": false,
          "internalType": "uint256",
          "name": "timeStamp",
          "type": "uint256"
        }
      ],
      "name": "Minter",
      "type": "event"
    },
    {
      "anonymous": false,
      "inputs": [
        {
          "indexed": true,
          "internalType": "address",
          "name": "from",
          "type": "address"
        },
        {
          "indexed": true,
          "internalType": "address",
          "name": "to",
          "type": "address"
        },
        {
          "indexed": true,
          "internalType": "uint256",
          "name": "tokenId",
          "type": "uint256"
        }
      ],
      "name": "Transfer",
      "type": "event"
    },
    {
      "inputs": [
        {
          "internalType": "address",
          "name": "to",
          "type": "address"
        },
        {
          "internalType": "uint256",
          "name": "tokenId",
          "type": "uint256"
        }
      ],
      "name": "approve",
      "outputs": [],
      "stateMutability": "nonpayable",
      "type": "function"
    },
    {
      "inputs": [
        {
          "internalType": "address",
          "name": "owner",
          "type": "address"
        }
      ],
      "name": "balanceOf",
      "outputs": [
        {
          "internalType": "uint256",
          "name": "",
          "type": "uint256"
        }
      ],
      "stateMutability": "view",
      "type": "function",
      "constant": true
    },
    {
      "inputs": [
        {
          "internalType": "uint256",
          "name": "tokenId",
          "type": "uint256"
        }
      ],
      "name": "getApproved",
      "outputs": [
        {
          "internalType": "address",
          "name": "",
          "type": "address"
        }
      ],
      "stateMutability": "view",
      "type": "function",
      "constant": true
    },
    {
      "inputs": [
        {
          "internalType": "address",
          "name": "owner",
          "type": "address"
        },
        {
          "internalType": "address",
          "name": "operator",
          "type": "address"
        }
      ],
      "name": "isApprovedForAll",
      "outputs": [
        {
          "internalType": "bool",
          "name": "",
          "type": "bool"
        }
      ],
      "stateMutability": "view",
      "type": "function",
      "constant": true
    },
    {
      "inputs": [
        {
          "internalType": "uint256",
          "name": "",
          "type": "uint256"
        }
      ],
      "name": "isOnSaleToken",
      "outputs": [
        {
          "internalType": "bool",
          "name": "",
          "type": "bool"
        }
      ],
      "stateMutability": "view",
      "type": "function",
      "constant": true
    },
    {
      "inputs": [
        {
          "internalType": "uint256",
          "name": "",
          "type": "uint256"
        }
      ],
      "name": "musicTokenMinters",
      "outputs": [
        {
          "internalType": "address",
          "name": "",
          "type": "address"
        }
      ],
      "stateMutability": "view",
      "type": "function",
      "constant": true
    },
    {
      "inputs": [
        {
          "internalType": "uint256",
          "name": "",
          "type": "uint256"
        }
      ],
      "name": "musicTokens",
      "outputs": [
        {
          "internalType": "string",
          "name": "",
          "type": "string"
        }
      ],
      "stateMutability": "view",
      "type": "function",
      "constant": true
    },
    {
      "inputs": [],
      "name": "name",
      "outputs": [
        {
          "internalType": "string",
          "name": "",
          "type": "string"
        }
      ],
      "stateMutability": "view",
      "type": "function",
      "constant": true
    },
    {
      "inputs": [
        {
          "internalType": "uint256",
          "name": "tokenId",
          "type": "uint256"
        }
      ],
      "name": "ownerOf",
      "outputs": [
        {
          "internalType": "address",
          "name": "",
          "type": "address"
        }
      ],
      "stateMutability": "view",
      "type": "function",
      "constant": true
    },
    {
      "inputs": [
        {
          "internalType": "address",
          "name": "from",
          "type": "address"
        },
        {
          "internalType": "address",
          "name": "to",
          "type": "address"
        },
        {
          "internalType": "uint256",
          "name": "tokenId",
          "type": "uint256"
        }
      ],
      "name": "safeTransferFrom",
      "outputs": [],
      "stateMutability": "nonpayable",
      "type": "function"
    },
    {
      "inputs": [
        {
          "internalType": "address",
          "name": "from",
          "type": "address"
        },
        {
          "internalType": "address",
          "name": "to",
          "type": "address"
        },
        {
          "internalType": "uint256",
          "name": "tokenId",
          "type": "uint256"
        },
        {
          "internalType": "bytes",
          "name": "_data",
          "type": "bytes"
        }
      ],
      "name": "safeTransferFrom",
      "outputs": [],
      "stateMutability": "nonpayable",
      "type": "function"
    },
    {
      "inputs": [],
      "name": "saleMusicToken",
      "outputs": [
        {
          "internalType": "contract SaleMusicToken",
          "name": "",
          "type": "address"
        }
      ],
      "stateMutability": "view",
      "type": "function",
      "constant": true
    },
    {
      "inputs": [
        {
          "internalType": "address",
          "name": "operator",
          "type": "address"
        },
        {
          "internalType": "bool",
          "name": "approved",
          "type": "bool"
        }
      ],
      "name": "setApprovalForAll",
      "outputs": [],
      "stateMutability": "nonpayable",
      "type": "function"
    },
    {
      "inputs": [],
      "name": "symbol",
      "outputs": [
        {
          "internalType": "string",
          "name": "",
          "type": "string"
        }
      ],
      "stateMutability": "view",
      "type": "function",
      "constant": true
    },
    {
      "inputs": [
        {
          "internalType": "uint256",
          "name": "index",
          "type": "uint256"
        }
      ],
      "name": "tokenByIndex",
      "outputs": [
        {
          "internalType": "uint256",
          "name": "",
          "type": "uint256"
        }
      ],
      "stateMutability": "view",
      "type": "function",
      "constant": true
    },
    {
      "inputs": [
        {
          "internalType": "address",
          "name": "owner",
          "type": "address"
        },
        {
          "internalType": "uint256",
          "name": "index",
          "type": "uint256"
        }
      ],
      "name": "tokenOfOwnerByIndex",
      "outputs": [
        {
          "internalType": "uint256",
          "name": "",
          "type": "uint256"
        }
      ],
      "stateMutability": "view",
      "type": "function",
      "constant": true
    },
    {
      "inputs": [],
      "name": "totalSupply",
      "outputs": [
        {
          "internalType": "uint256",
          "name": "",
          "type": "uint256"
        }
      ],
      "stateMutability": "view",
      "type": "function",
      "constant": true
    },
    {
      "inputs": [
        {
          "internalType": "address",
          "name": "from",
          "type": "address"
        },
        {
          "internalType": "address",
          "name": "to",
          "type": "address"
        },
        {
          "internalType": "uint256",
          "name": "tokenId",
          "type": "uint256"
        }
      ],
      "name": "transferFrom",
      "outputs": [],
      "stateMutability": "nonpayable",
      "type": "function"
    },
    {
      "inputs": [
        {
          "internalType": "uint256",
          "name": "tokenId",
          "type": "uint256"
        }
      ],
      "name": "tokenURI",
      "outputs": [
        {
          "internalType": "string",
          "name": "",
          "type": "string"
        }
      ],
      "stateMutability": "view",
      "type": "function",
      "constant": true
    },
    {
      "inputs": [
        {
          "internalType": "bytes4",
          "name": "interfaceId",
          "type": "bytes4"
        }
      ],
      "name": "supportsInterface",
      "outputs": [
        {
          "internalType": "bool",
          "name": "",
          "type": "bool"
        }
      ],
      "stateMutability": "view",
      "type": "function",
      "constant": true
    },
    {
      "inputs": [
        {
          "internalType": "string",
          "name": "_metadata",
          "type": "string"
        }
      ],
      "name": "mintMusicToken",
      "outputs": [],
      "stateMutability": "nonpayable",
      "type": "function"
    },
    {
      "inputs": [],
      "name": "getLatestMusicToken",
      "outputs": [
        {
          "internalType": "string[]",
          "name": "",
          "type": "string[]"
        }
      ],
      "stateMutability": "view",
      "type": "function",
      "constant": true
    },
    {
      "inputs": [
        {
          "internalType": "uint256",
          "name": "_musicTokenId",
          "type": "uint256"
        }
      ],
      "name": "getMusicTokenMinter",
      "outputs": [
        {
          "internalType": "address",
          "name": "",
          "type": "address"
        }
      ],
      "stateMutability": "view",
      "type": "function",
      "constant": true
    },
    {
      "inputs": [
        {
          "internalType": "address",
          "name": "_saleMusicToken",
          "type": "address"
        }
      ],
      "name": "setSaleMusicToken",
      "outputs": [],
      "stateMutability": "nonpayable",
      "type": "function"
    },
    {
      "inputs": [
        {
          "internalType": "uint256",
          "name": "_tokenId",
          "type": "uint256"
        }
      ],
      "name": "getIsOnSale",
      "outputs": [
        {
          "internalType": "bool",
          "name": "",
          "type": "bool"
        }
      ],
      "stateMutability": "view",
      "type": "function",
      "constant": true
    },
    {
      "inputs": [
        {
          "internalType": "uint256",
          "name": "_tokenId",
          "type": "uint256"
        },
        {
          "internalType": "bool",
          "name": "_state",
          "type": "bool"
        }
      ],
      "name": "setTokenState",
      "outputs": [],
      "stateMutability": "nonpayable",
      "type": "function"
    }
  ],
  "bytecode": "0x60806040523480156200001157600080fd5b506040518060400160405280600981526020017f4d75736963204e465400000000000000000000000000000000000000000000008152506040518060400160405280600481526020017f4d4e46540000000000000000000000000000000000000000000000000000000081525081600090816200008f919062000324565b508060019081620000a1919062000324565b5050506200040b565b600081519050919050565b7f4e487b7100000000000000000000000000000000000000000000000000000000600052604160045260246000fd5b7f4e487b7100000000000000000000000000000000000000000000000000000000600052602260045260246000fd5b600060028204905060018216806200012c57607f821691505b602082108103620001425762000141620000e4565b5b50919050565b60008190508160005260206000209050919050565b60006020601f8301049050919050565b600082821b905092915050565b600060088302620001ac7fffffffffffffffffffffffffffffffffffffffffffffffffffffffffffffffff826200016d565b620001b886836200016d565b95508019841693508086168417925050509392505050565b6000819050919050565b6000819050919050565b600062000205620001ff620001f984620001d0565b620001da565b620001d0565b9050919050565b6000819050919050565b6200022183620001e4565b6200023962000230826200020c565b8484546200017a565b825550505050565b600090565b6200025062000241565b6200025d81848462000216565b505050565b5b8181101562000285576200027960008262000246565b60018101905062000263565b5050565b601f821115620002d4576200029e8162000148565b620002a9846200015d565b81016020851015620002b9578190505b620002d1620002c8856200015d565b83018262000262565b50505b505050565b600082821c905092915050565b6000620002f960001984600802620002d9565b1980831691505092915050565b6000620003148383620002e6565b9150826002028217905092915050565b6200032f82620000aa565b67ffffffffffffffff8111156200034b576200034a620000b5565b5b62000357825462000113565b6200036482828562000289565b600060209050601f8311600181146200039c576000841562000387578287015190505b62000393858262000306565b86555062000403565b601f198416620003ac8662000148565b60005b82811015620003d657848901518255600182019150602085019450602081019050620003af565b86831015620003f65784890151620003f2601f891682620002e6565b8355505b6001600288020188555050505b505050505050565b613db1806200041b6000396000f3fe608060405234801561001057600080fd5b506004361061018e5760003560e01c806370a08231116100de578063b88d4fde11610097578063df41603a11610071578063df41603a146104f5578063e4151a2e14610511578063e985e9c51461052d578063efbc69961461055d5761018e565b8063b88d4fde14610479578063c87b56dd14610495578063d3cfa94f146104c55761018e565b806370a08231146103915780637e7dcd15146103c157806395d89b41146103f1578063a22cb4651461040f578063ad04b54c1461042b578063b70175881461045b5761018e565b806323b872dd1161014b5780634518ab1c116101255780634518ab1c146102e35780634f6ccce714610301578063558b573b146103315780636352211e146103615761018e565b806323b872dd1461027b5780632f745c591461029757806342842e0e146102c75761018e565b806301ffc9a71461019357806306fdde03146101c3578063081812fc146101e1578063095ea7b31461021157806318160ddd1461022d578063203a1cc71461024b575b600080fd5b6101ad60048036038101906101a8919061248e565b610579565b6040516101ba91906124d6565b60405180910390f35b6101cb61058b565b6040516101d8919061258a565b60405180910390f35b6101fb60048036038101906101f691906125e2565b61061d565b6040516102089190612650565b60405180910390f35b61022b60048036038101906102269190612697565b6106a2565b005b6102356107b9565b60405161024291906126e6565b60405180910390f35b610265600480360381019061026091906125e2565b6107c6565b6040516102729190612650565b60405180910390f35b61029560048036038101906102909190612701565b6107f9565b005b6102b160048036038101906102ac9190612697565b610859565b6040516102be91906126e6565b60405180910390f35b6102e160048036038101906102dc9190612701565b6108fe565b005b6102eb61091e565b6040516102f891906127b3565b60405180910390f35b61031b600480360381019061031691906125e2565b610944565b60405161032891906126e6565b60405180910390f35b61034b600480360381019061034691906125e2565b6109b5565b6040516103589190612650565b60405180910390f35b61037b600480360381019061037691906125e2565b6109f2565b6040516103889190612650565b60405180910390f35b6103ab60048036038101906103a691906127ce565b610aa3565b6040516103b891906126e6565b60405180910390f35b6103db60048036038101906103d691906125e2565b610b5a565b6040516103e8919061258a565b60405180910390f35b6103f9610bfa565b604051610406919061258a565b60405180910390f35b61042960048036038101906104249190612827565b610c8c565b005b610445600480360381019061044091906125e2565b610ca2565b60405161045291906124d6565b60405180910390f35b610463610ccc565b6040516104709190612973565b60405180910390f35b610493600480360381019061048e9190612aca565b610dd1565b005b6104af60048036038101906104aa91906125e2565b610e33565b6040516104bc919061258a565b60405180910390f35b6104df60048036038101906104da91906125e2565b610e45565b6040516104ec91906124d6565b60405180910390f35b61050f600480360381019061050a91906127ce565b610e65565b005b61052b60048036038101906105269190612bee565b610ea9565b005b61054760048036038101906105429190612c37565b610fcf565b60405161055491906124d6565b60405180910390f35b61057760048036038101906105729190612c77565b611063565b005b600061058482611092565b9050919050565b60606000805461059a90612ce6565b80601f01602080910402602001604051908101604052809291908181526020018280546105c690612ce6565b80156106135780601f106105e857610100808354040283529160200191610613565b820191906000526020600020905b8154815290600101906020018083116105f657829003601f168201915b5050505050905090565b60006106288261110c565b610667576040517f08c379a000000000000000000000000000000000000000000000000000000000815260040161065e90612d89565b60405180910390fd5b6004600083815260200190815260200160002060009054906101000a900473ffffffffffffffffffffffffffffffffffffffff169050919050565b60006106ad826109f2565b90508073ffffffffffffffffffffffffffffffffffffffff168373ffffffffffffffffffffffffffffffffffffffff160361071d576040517f08c379a000000000000000000000000000000000000000000000000000000000815260040161071490612e1b565b60405180910390fd5b8073ffffffffffffffffffffffffffffffffffffffff1661073c611178565b73ffffffffffffffffffffffffffffffffffffffff16148061076b575061076a81610765611178565b610fcf565b5b6107aa576040517f08c379a00000000000000000000000000000000000000000000000000000000081526004016107a190612ead565b60405180910390fd5b6107b48383611180565b505050565b6000600880549050905090565b600e6020528060005260406000206000915054906101000a900473ffffffffffffffffffffffffffffffffffffffff1681565b61080a610804611178565b82611239565b610849576040517f08c379a000000000000000000000000000000000000000000000000000000000815260040161084090612f3f565b60405180910390fd5b610854838383611317565b505050565b600061086483610aa3565b82106108a5576040517f08c379a000000000000000000000000000000000000000000000000000000000815260040161089c90612fd1565b60405180910390fd5b600660008473ffffffffffffffffffffffffffffffffffffffff1673ffffffffffffffffffffffffffffffffffffffff168152602001908152602001600020600083815260200190815260200160002054905092915050565b61091983838360405180602001604052806000815250610dd1565b505050565b600b60009054906101000a900473ffffffffffffffffffffffffffffffffffffffff1681565b600061094e6107b9565b821061098f576040517f08c379a000000000000000000000000000000000000000000000000000000000815260040161098690613063565b60405180910390fd5b600882815481106109a3576109a2613083565b5b90600052602060002001549050919050565b6000600e600083815260200190815260200160002060009054906101000a900473ffffffffffffffffffffffffffffffffffffffff169050919050565b6000806002600084815260200190815260200160002060009054906101000a900473ffffffffffffffffffffffffffffffffffffffff169050600073ffffffffffffffffffffffffffffffffffffffff168173ffffffffffffffffffffffffffffffffffffffff1603610a9a576040517f08c379a0000000000000000000000000000000000000000000000000000000008152600401610a9190613124565b60405180910390fd5b80915050919050565b60008073ffffffffffffffffffffffffffffffffffffffff168273ffffffffffffffffffffffffffffffffffffffff1603610b13576040517f08c379a0000000000000000000000000000000000000000000000000000000008152600401610b0a906131b6565b60405180910390fd5b600360008373ffffffffffffffffffffffffffffffffffffffff1673ffffffffffffffffffffffffffffffffffffffff168152602001908152602001600020549050919050565b600c6020528060005260406000206000915090508054610b7990612ce6565b80601f0160208091040260200160405190810160405280929190818152602001828054610ba590612ce6565b8015610bf25780601f10610bc757610100808354040283529160200191610bf2565b820191906000526020600020905b815481529060010190602001808311610bd557829003601f168201915b505050505081565b606060018054610c0990612ce6565b80601f0160208091040260200160405190810160405280929190818152602001828054610c3590612ce6565b8015610c825780601f10610c5757610100808354040283529160200191610c82565b820191906000526020600020905b815481529060010190602001808311610c6557829003601f168201915b5050505050905090565b610c9e610c97611178565b838361157d565b5050565b6000600d600083815260200190815260200160002060009054906101000a900460ff169050919050565b60606000610cd86107b9565b905060008111610d1d576040517f08c379a0000000000000000000000000000000000000000000000000000000008152600401610d1490613248565b60405180910390fd5b60008167ffffffffffffffff811115610d3957610d3861299f565b5b604051908082528060200260200182016040528015610d6c57816020015b6060815260200190600190039081610d575790505b5090506000808390505b6000811015610dc757610d8881610e33565b838381518110610d9b57610d9a613083565b5b60200260200101819052508180610db190613297565b9250508080610dbf906132df565b915050610d76565b5081935050505090565b610de2610ddc611178565b83611239565b610e21576040517f08c379a0000000000000000000000000000000000000000000000000000000008152600401610e1890612f3f565b60405180910390fd5b610e2d848484846116e9565b50505050565b6060610e3e82611745565b9050919050565b600d6020528060005260406000206000915054906101000a900460ff1681565b80600b60006101000a81548173ffffffffffffffffffffffffffffffffffffffff021916908373ffffffffffffffffffffffffffffffffffffffff16021790555050565b60006001610eb56107b9565b610ebf9190613308565b9050600082905080600c60008481526020019081526020016000209081610ee69190613500565b5033600e600084815260200190815260200160002060006101000a81548173ffffffffffffffffffffffffffffffffffffffff021916908373ffffffffffffffffffffffffffffffffffffffff160217905550610f433383611896565b3373ffffffffffffffffffffffffffffffffffffffff16827ff578c60f3662595b0a30071704edbec88a7b92f08fab114bf4e3c7d61f5801458342604051610f8c9291906135d2565b60405180910390a36000600d600084815260200190815260200160002060006101000a81548160ff021916908315150217905550610fca8284611a6f565b505050565b6000600560008473ffffffffffffffffffffffffffffffffffffffff1673ffffffffffffffffffffffffffffffffffffffff16815260200190815260200160002060008373ffffffffffffffffffffffffffffffffffffffff1673ffffffffffffffffffffffffffffffffffffffff16815260200190815260200160002060009054906101000a900460ff16905092915050565b80600d600084815260200190815260200160002060006101000a81548160ff0219169083151502179055505050565b60007f780e9d63000000000000000000000000000000000000000000000000000000007bffffffffffffffffffffffffffffffffffffffffffffffffffffffff1916827bffffffffffffffffffffffffffffffffffffffffffffffffffffffff19161480611105575061110482611adc565b5b9050919050565b60008073ffffffffffffffffffffffffffffffffffffffff166002600084815260200190815260200160002060009054906101000a900473ffffffffffffffffffffffffffffffffffffffff1673ffffffffffffffffffffffffffffffffffffffff1614159050919050565b600033905090565b816004600083815260200190815260200160002060006101000a81548173ffffffffffffffffffffffffffffffffffffffff021916908373ffffffffffffffffffffffffffffffffffffffff160217905550808273ffffffffffffffffffffffffffffffffffffffff166111f3836109f2565b73ffffffffffffffffffffffffffffffffffffffff167f8c5be1e5ebec7d5bd14f71427d1e84f3dd0314c0f7b2291e5b200ac8c7c3b92560405160405180910390a45050565b60006112448261110c565b611283576040517f08c379a000000000000000000000000000000000000000000000000000000000815260040161127a90613674565b60405180910390fd5b600061128e836109f2565b90508073ffffffffffffffffffffffffffffffffffffffff168473ffffffffffffffffffffffffffffffffffffffff1614806112d057506112cf8185610fcf565b5b8061130e57508373ffffffffffffffffffffffffffffffffffffffff166112f68461061d565b73ffffffffffffffffffffffffffffffffffffffff16145b91505092915050565b8273ffffffffffffffffffffffffffffffffffffffff16611337826109f2565b73ffffffffffffffffffffffffffffffffffffffff161461138d576040517f08c379a000000000000000000000000000000000000000000000000000000000815260040161138490613706565b60405180910390fd5b600073ffffffffffffffffffffffffffffffffffffffff168273ffffffffffffffffffffffffffffffffffffffff16036113fc576040517f08c379a00000000000000000000000000000000000000000000000000000000081526004016113f390613798565b60405180910390fd5b611407838383611bbe565b611412600082611180565b6001600360008573ffffffffffffffffffffffffffffffffffffffff1673ffffffffffffffffffffffffffffffffffffffff168152602001908152602001600020600082825461146291906137b8565b925050819055506001600360008473ffffffffffffffffffffffffffffffffffffffff1673ffffffffffffffffffffffffffffffffffffffff16815260200190815260200160002060008282546114b99190613308565b92505081905550816002600083815260200190815260200160002060006101000a81548173ffffffffffffffffffffffffffffffffffffffff021916908373ffffffffffffffffffffffffffffffffffffffff160217905550808273ffffffffffffffffffffffffffffffffffffffff168473ffffffffffffffffffffffffffffffffffffffff167fddf252ad1be2c89b69c2b068fc378daa952ba7f163c4a11628f55a4df523b3ef60405160405180910390a4611578838383611bce565b505050565b8173ffffffffffffffffffffffffffffffffffffffff168373ffffffffffffffffffffffffffffffffffffffff16036115eb576040517f08c379a00000000000000000000000000000000000000000000000000000000081526004016115e290613838565b60405180910390fd5b80600560008573ffffffffffffffffffffffffffffffffffffffff1673ffffffffffffffffffffffffffffffffffffffff16815260200190815260200160002060008473ffffffffffffffffffffffffffffffffffffffff1673ffffffffffffffffffffffffffffffffffffffff16815260200190815260200160002060006101000a81548160ff0219169083151502179055508173ffffffffffffffffffffffffffffffffffffffff168373ffffffffffffffffffffffffffffffffffffffff167f17307eab39ab6107e8899845ad3d59bd9653f200f220920489ca2b5937696c31836040516116dc91906124d6565b60405180910390a3505050565b6116f4848484611317565b61170084848484611bd3565b61173f576040517f08c379a0000000000000000000000000000000000000000000000000000000008152600401611736906138ca565b60405180910390fd5b50505050565b60606117508261110c565b61178f576040517f08c379a00000000000000000000000000000000000000000000000000000000081526004016117869061395c565b60405180910390fd5b6000600a600084815260200190815260200160002080546117af90612ce6565b80601f01602080910402602001604051908101604052809291908181526020018280546117db90612ce6565b80156118285780601f106117fd57610100808354040283529160200191611828565b820191906000526020600020905b81548152906001019060200180831161180b57829003601f168201915b505050505090506000611839611d5a565b9050600081510361184e578192505050611891565b60008251111561188357808260405160200161186b9291906139b8565b60405160208183030381529060405292505050611891565b61188c84611d71565b925050505b919050565b600073ffffffffffffffffffffffffffffffffffffffff168273ffffffffffffffffffffffffffffffffffffffff1603611905576040517f08c379a00000000000000000000000000000000000000000000000000000000081526004016118fc90613a28565b60405180910390fd5b61190e8161110c565b1561194e576040517f08c379a000000000000000000000000000000000000000000000000000000000815260040161194590613a94565b60405180910390fd5b61195a60008383611bbe565b6001600360008473ffffffffffffffffffffffffffffffffffffffff1673ffffffffffffffffffffffffffffffffffffffff16815260200190815260200160002060008282546119aa9190613308565b92505081905550816002600083815260200190815260200160002060006101000a81548173ffffffffffffffffffffffffffffffffffffffff021916908373ffffffffffffffffffffffffffffffffffffffff160217905550808273ffffffffffffffffffffffffffffffffffffffff16600073ffffffffffffffffffffffffffffffffffffffff167fddf252ad1be2c89b69c2b068fc378daa952ba7f163c4a11628f55a4df523b3ef60405160405180910390a4611a6b60008383611bce565b5050565b611a788261110c565b611ab7576040517f08c379a0000000000000000000000000000000000000000000000000000000008152600401611aae90613b26565b60405180910390fd5b80600a60008481526020019081526020016000209081611ad79190613500565b505050565b60007f80ac58cd000000000000000000000000000000000000000000000000000000007bffffffffffffffffffffffffffffffffffffffffffffffffffffffff1916827bffffffffffffffffffffffffffffffffffffffffffffffffffffffff19161480611ba757507f5b5e139f000000000000000000000000000000000000000000000000000000007bffffffffffffffffffffffffffffffffffffffffffffffffffffffff1916827bffffffffffffffffffffffffffffffffffffffffffffffffffffffff1916145b80611bb75750611bb682611e18565b5b9050919050565b611bc9838383611e82565b505050565b505050565b6000611bf48473ffffffffffffffffffffffffffffffffffffffff16611f94565b15611d4d578373ffffffffffffffffffffffffffffffffffffffff1663150b7a02611c1d611178565b8786866040518563ffffffff1660e01b8152600401611c3f9493929190613b9b565b6020604051808303816000875af1925050508015611c7b57506040513d601f19601f82011682018060405250810190611c789190613bfc565b60015b611cfd573d8060008114611cab576040519150601f19603f3d011682016040523d82523d6000602084013e611cb0565b606091505b506000815103611cf5576040517f08c379a0000000000000000000000000000000000000000000000000000000008152600401611cec906138ca565b60405180910390fd5b805181602001fd5b63150b7a0260e01b7bffffffffffffffffffffffffffffffffffffffffffffffffffffffff1916817bffffffffffffffffffffffffffffffffffffffffffffffffffffffff191614915050611d52565b600190505b949350505050565b606060405180602001604052806000815250905090565b6060611d7c8261110c565b611dbb576040517f08c379a0000000000000000000000000000000000000000000000000000000008152600401611db290613c9b565b60405180910390fd5b6000611dc5611d5a565b90506000815111611de55760405180602001604052806000815250611e10565b80611def84611fb7565b604051602001611e009291906139b8565b6040516020818303038152906040525b915050919050565b60007f01ffc9a7000000000000000000000000000000000000000000000000000000007bffffffffffffffffffffffffffffffffffffffffffffffffffffffff1916827bffffffffffffffffffffffffffffffffffffffffffffffffffffffff1916149050919050565b611e8d838383612117565b600073ffffffffffffffffffffffffffffffffffffffff168373ffffffffffffffffffffffffffffffffffffffff1603611ecf57611eca8161211c565b611f0e565b8173ffffffffffffffffffffffffffffffffffffffff168373ffffffffffffffffffffffffffffffffffffffff1614611f0d57611f0c8382612165565b5b5b600073ffffffffffffffffffffffffffffffffffffffff168273ffffffffffffffffffffffffffffffffffffffff1603611f5057611f4b816122d2565b611f8f565b8273ffffffffffffffffffffffffffffffffffffffff168273ffffffffffffffffffffffffffffffffffffffff1614611f8e57611f8d82826123a3565b5b5b505050565b6000808273ffffffffffffffffffffffffffffffffffffffff163b119050919050565b606060008203611ffe576040518060400160405280600181526020017f30000000000000000000000000000000000000000000000000000000000000008152509050612112565b600082905060005b6000821461203057808061201990613297565b915050600a826120299190613cea565b9150612006565b60008167ffffffffffffffff81111561204c5761204b61299f565b5b6040519080825280601f01601f19166020018201604052801561207e5781602001600182028036833780820191505090505b5090505b6000851461210b5760018261209791906137b8565b9150600a856120a69190613d1b565b60306120b29190613308565b60f81b8183815181106120c8576120c7613083565b5b60200101907effffffffffffffffffffffffffffffffffffffffffffffffffffffffffffff1916908160001a905350600a856121049190613cea565b9450612082565b8093505050505b919050565b505050565b6008805490506009600083815260200190815260200160002081905550600881908060018154018082558091505060019003906000526020600020016000909190919091505550565b6000600161217284610aa3565b61217c91906137b8565b9050600060076000848152602001908152602001600020549050818114612261576000600660008673ffffffffffffffffffffffffffffffffffffffff1673ffffffffffffffffffffffffffffffffffffffff168152602001908152602001600020600084815260200190815260200160002054905080600660008773ffffffffffffffffffffffffffffffffffffffff1673ffffffffffffffffffffffffffffffffffffffff168152602001908152602001600020600084815260200190815260200160002081905550816007600083815260200190815260200160002081905550505b6007600084815260200190815260200160002060009055600660008573ffffffffffffffffffffffffffffffffffffffff1673ffffffffffffffffffffffffffffffffffffffff16815260200190815260200160002060008381526020019081526020016000206000905550505050565b600060016008805490506122e691906137b8565b905060006009600084815260200190815260200160002054905060006008838154811061231657612315613083565b5b90600052602060002001549050806008838154811061233857612337613083565b5b90600052602060002001819055508160096000838152602001908152602001600020819055506009600085815260200190815260200160002060009055600880548061238757612386613d4c565b5b6001900381819060005260206000200160009055905550505050565b60006123ae83610aa3565b905081600660008573ffffffffffffffffffffffffffffffffffffffff1673ffffffffffffffffffffffffffffffffffffffff168152602001908152602001600020600083815260200190815260200160002081905550806007600084815260200190815260200160002081905550505050565b6000604051905090565b600080fd5b600080fd5b60007fffffffff0000000000000000000000000000000000000000000000000000000082169050919050565b61246b81612436565b811461247657600080fd5b50565b60008135905061248881612462565b92915050565b6000602082840312156124a4576124a361242c565b5b60006124b284828501612479565b91505092915050565b60008115159050919050565b6124d0816124bb565b82525050565b60006020820190506124eb60008301846124c7565b92915050565b600081519050919050565b600082825260208201905092915050565b60005b8381101561252b578082015181840152602081019050612510565b8381111561253a576000848401525b50505050565b6000601f19601f8301169050919050565b600061255c826124f1565b61256681856124fc565b935061257681856020860161250d565b61257f81612540565b840191505092915050565b600060208201905081810360008301526125a48184612551565b905092915050565b6000819050919050565b6125bf816125ac565b81146125ca57600080fd5b50565b6000813590506125dc816125b6565b92915050565b6000602082840312156125f8576125f761242c565b5b6000612606848285016125cd565b91505092915050565b600073ffffffffffffffffffffffffffffffffffffffff82169050919050565b600061263a8261260f565b9050919050565b61264a8161262f565b82525050565b60006020820190506126656000830184612641565b92915050565b6126748161262f565b811461267f57600080fd5b50565b6000813590506126918161266b565b92915050565b600080604083850312156126ae576126ad61242c565b5b60006126bc85828601612682565b92505060206126cd858286016125cd565b9150509250929050565b6126e0816125ac565b82525050565b60006020820190506126fb60008301846126d7565b92915050565b60008060006060848603121561271a5761271961242c565b5b600061272886828701612682565b935050602061273986828701612682565b925050604061274a868287016125cd565b9150509250925092565b6000819050919050565b600061277961277461276f8461260f565b612754565b61260f565b9050919050565b600061278b8261275e565b9050919050565b600061279d82612780565b9050919050565b6127ad81612792565b82525050565b60006020820190506127c860008301846127a4565b92915050565b6000602082840312156127e4576127e361242c565b5b60006127f284828501612682565b91505092915050565b612804816124bb565b811461280f57600080fd5b50565b600081359050612821816127fb565b92915050565b6000806040838503121561283e5761283d61242c565b5b600061284c85828601612682565b925050602061285d85828601612812565b9150509250929050565b600081519050919050565b600082825260208201905092915050565b6000819050602082019050919050565b600082825260208201905092915050565b60006128af826124f1565b6128b98185612893565b93506128c981856020860161250d565b6128d281612540565b840191505092915050565b60006128e983836128a4565b905092915050565b6000602082019050919050565b600061290982612867565b6129138185612872565b93508360208202850161292585612883565b8060005b85811015612961578484038952815161294285826128dd565b945061294d836128f1565b925060208a01995050600181019050612929565b50829750879550505050505092915050565b6000602082019050818103600083015261298d81846128fe565b905092915050565b600080fd5b600080fd5b7f4e487b7100000000000000000000000000000000000000000000000000000000600052604160045260246000fd5b6129d782612540565b810181811067ffffffffffffffff821117156129f6576129f561299f565b5b80604052505050565b6000612a09612422565b9050612a1582826129ce565b919050565b600067ffffffffffffffff821115612a3557612a3461299f565b5b612a3e82612540565b9050602081019050919050565b82818337600083830152505050565b6000612a6d612a6884612a1a565b6129ff565b905082815260208101848484011115612a8957612a8861299a565b5b612a94848285612a4b565b509392505050565b600082601f830112612ab157612ab0612995565b5b8135612ac1848260208601612a5a565b91505092915050565b60008060008060808587031215612ae457612ae361242c565b5b6000612af287828801612682565b9450506020612b0387828801612682565b9350506040612b14878288016125cd565b925050606085013567ffffffffffffffff811115612b3557612b34612431565b5b612b4187828801612a9c565b91505092959194509250565b600067ffffffffffffffff821115612b6857612b6761299f565b5b612b7182612540565b9050602081019050919050565b6000612b91612b8c84612b4d565b6129ff565b905082815260208101848484011115612bad57612bac61299a565b5b612bb8848285612a4b565b509392505050565b600082601f830112612bd557612bd4612995565b5b8135612be5848260208601612b7e565b91505092915050565b600060208284031215612c0457612c0361242c565b5b600082013567ffffffffffffffff811115612c2257612c21612431565b5b612c2e84828501612bc0565b91505092915050565b60008060408385031215612c4e57612c4d61242c565b5b6000612c5c85828601612682565b9250506020612c6d85828601612682565b9150509250929050565b60008060408385031215612c8e57612c8d61242c565b5b6000612c9c858286016125cd565b9250506020612cad85828601612812565b9150509250929050565b7f4e487b7100000000000000000000000000000000000000000000000000000000600052602260045260246000fd5b60006002820490506001821680612cfe57607f821691505b602082108103612d1157612d10612cb7565b5b50919050565b7f4552433732313a20617070726f76656420717565727920666f72206e6f6e657860008201527f697374656e7420746f6b656e0000000000000000000000000000000000000000602082015250565b6000612d73602c836124fc565b9150612d7e82612d17565b604082019050919050565b60006020820190508181036000830152612da281612d66565b9050919050565b7f4552433732313a20617070726f76616c20746f2063757272656e74206f776e6560008201527f7200000000000000000000000000000000000000000000000000000000000000602082015250565b6000612e056021836124fc565b9150612e1082612da9565b604082019050919050565b60006020820190508181036000830152612e3481612df8565b9050919050565b7f4552433732313a20617070726f76652063616c6c6572206973206e6f74206f7760008201527f6e6572206e6f7220617070726f76656420666f7220616c6c0000000000000000602082015250565b6000612e976038836124fc565b9150612ea282612e3b565b604082019050919050565b60006020820190508181036000830152612ec681612e8a565b9050919050565b7f4552433732313a207472616e736665722063616c6c6572206973206e6f74206f60008201527f776e6572206e6f7220617070726f766564000000000000000000000000000000602082015250565b6000612f296031836124fc565b9150612f3482612ecd565b604082019050919050565b60006020820190508181036000830152612f5881612f1c565b9050919050565b7f455243373231456e756d657261626c653a206f776e657220696e646578206f7560008201527f74206f6620626f756e6473000000000000000000000000000000000000000000602082015250565b6000612fbb602b836124fc565b9150612fc682612f5f565b604082019050919050565b60006020820190508181036000830152612fea81612fae565b9050919050565b7f455243373231456e756d657261626c653a20676c6f62616c20696e646578206f60008201527f7574206f6620626f756e64730000000000000000000000000000000000000000602082015250565b600061304d602c836124fc565b915061305882612ff1565b604082019050919050565b6000602082019050818103600083015261307c81613040565b9050919050565b7f4e487b7100000000000000000000000000000000000000000000000000000000600052603260045260246000fd5b7f4552433732313a206f776e657220717565727920666f72206e6f6e657869737460008201527f656e7420746f6b656e0000000000000000000000000000000000000000000000602082015250565b600061310e6029836124fc565b9150613119826130b2565b604082019050919050565b6000602082019050818103600083015261313d81613101565b9050919050565b7f4552433732313a2062616c616e636520717565727920666f7220746865207a6560008201527f726f206164647265737300000000000000000000000000000000000000000000602082015250565b60006131a0602a836124fc565b91506131ab82613144565b604082019050919050565b600060208201905081810360008301526131cf81613193565b9050919050565b7f546865726520617265206e6f20746f6b656e7320696e2074686520636f6e747260008201527f6163742e00000000000000000000000000000000000000000000000000000000602082015250565b60006132326024836124fc565b915061323d826131d6565b604082019050919050565b6000602082019050818103600083015261326181613225565b9050919050565b7f4e487b7100000000000000000000000000000000000000000000000000000000600052601160045260246000fd5b60006132a2826125ac565b91507fffffffffffffffffffffffffffffffffffffffffffffffffffffffffffffffff82036132d4576132d3613268565b5b600182019050919050565b60006132ea826125ac565b9150600082036132fd576132fc613268565b5b600182039050919050565b6000613313826125ac565b915061331e836125ac565b9250827fffffffffffffffffffffffffffffffffffffffffffffffffffffffffffffffff0382111561335357613352613268565b5b828201905092915050565b60008190508160005260206000209050919050565b60006020601f8301049050919050565b600082821b905092915050565b6000600883026133c07fffffffffffffffffffffffffffffffffffffffffffffffffffffffffffffffff82613383565b6133ca8683613383565b95508019841693508086168417925050509392505050565b60006133fd6133f86133f3846125ac565b612754565b6125ac565b9050919050565b6000819050919050565b613417836133e2565b61342b61342382613404565b848454613390565b825550505050565b600090565b613440613433565b61344b81848461340e565b505050565b5b8181101561346f57613464600082613438565b600181019050613451565b5050565b601f8211156134b4576134858161335e565b61348e84613373565b8101602085101561349d578190505b6134b16134a985613373565b830182613450565b50505b505050565b600082821c905092915050565b60006134d7600019846008026134b9565b1980831691505092915050565b60006134f083836134c6565b9150826002028217905092915050565b613509826124f1565b67ffffffffffffffff8111156135225761352161299f565b5b61352c8254612ce6565b613537828285613473565b600060209050601f83116001811461356a5760008415613558578287015190505b61356285826134e4565b8655506135ca565b601f1984166135788661335e565b60005b828110156135a05784890151825560018201915060208501945060208101905061357b565b868310156135bd57848901516135b9601f8916826134c6565b8355505b6001600288020188555050505b505050505050565b600060408201905081810360008301526135ec8185612551565b90506135fb60208301846126d7565b9392505050565b7f4552433732313a206f70657261746f7220717565727920666f72206e6f6e657860008201527f697374656e7420746f6b656e0000000000000000000000000000000000000000602082015250565b600061365e602c836124fc565b915061366982613602565b604082019050919050565b6000602082019050818103600083015261368d81613651565b9050919050565b7f4552433732313a207472616e736665722066726f6d20696e636f72726563742060008201527f6f776e6572000000000000000000000000000000000000000000000000000000602082015250565b60006136f06025836124fc565b91506136fb82613694565b604082019050919050565b6000602082019050818103600083015261371f816136e3565b9050919050565b7f4552433732313a207472616e7366657220746f20746865207a65726f2061646460008201527f7265737300000000000000000000000000000000000000000000000000000000602082015250565b60006137826024836124fc565b915061378d82613726565b604082019050919050565b600060208201905081810360008301526137b181613775565b9050919050565b60006137c3826125ac565b91506137ce836125ac565b9250828210156137e1576137e0613268565b5b828203905092915050565b7f4552433732313a20617070726f766520746f2063616c6c657200000000000000600082015250565b60006138226019836124fc565b915061382d826137ec565b602082019050919050565b6000602082019050818103600083015261385181613815565b9050919050565b7f4552433732313a207472616e7366657220746f206e6f6e20455243373231526560008201527f63656976657220696d706c656d656e7465720000000000000000000000000000602082015250565b60006138b46032836124fc565b91506138bf82613858565b604082019050919050565b600060208201905081810360008301526138e3816138a7565b9050919050565b7f45524337323155524953746f726167653a2055524920717565727920666f722060008201527f6e6f6e6578697374656e7420746f6b656e000000000000000000000000000000602082015250565b60006139466031836124fc565b9150613951826138ea565b604082019050919050565b6000602082019050818103600083015261397581613939565b9050919050565b600081905092915050565b6000613992826124f1565b61399c818561397c565b93506139ac81856020860161250d565b80840191505092915050565b60006139c48285613987565b91506139d08284613987565b91508190509392505050565b7f4552433732313a206d696e7420746f20746865207a65726f2061646472657373600082015250565b6000613a126020836124fc565b9150613a1d826139dc565b602082019050919050565b60006020820190508181036000830152613a4181613a05565b9050919050565b7f4552433732313a20746f6b656e20616c7265616479206d696e74656400000000600082015250565b6000613a7e601c836124fc565b9150613a8982613a48565b602082019050919050565b60006020820190508181036000830152613aad81613a71565b9050919050565b7f45524337323155524953746f726167653a2055524920736574206f66206e6f6e60008201527f6578697374656e7420746f6b656e000000000000000000000000000000000000602082015250565b6000613b10602e836124fc565b9150613b1b82613ab4565b604082019050919050565b60006020820190508181036000830152613b3f81613b03565b9050919050565b600081519050919050565b600082825260208201905092915050565b6000613b6d82613b46565b613b778185613b51565b9350613b8781856020860161250d565b613b9081612540565b840191505092915050565b6000608082019050613bb06000830187612641565b613bbd6020830186612641565b613bca60408301856126d7565b8181036060830152613bdc8184613b62565b905095945050505050565b600081519050613bf681612462565b92915050565b600060208284031215613c1257613c1161242c565b5b6000613c2084828501613be7565b91505092915050565b7f4552433732314d657461646174613a2055524920717565727920666f72206e6f60008201527f6e6578697374656e7420746f6b656e0000000000000000000000000000000000602082015250565b6000613c85602f836124fc565b9150613c9082613c29565b604082019050919050565b60006020820190508181036000830152613cb481613c78565b9050919050565b7f4e487b7100000000000000000000000000000000000000000000000000000000600052601260045260246000fd5b6000613cf5826125ac565b9150613d00836125ac565b925082613d1057613d0f613cbb565b5b828204905092915050565b6000613d26826125ac565b9150613d31836125ac565b925082613d4157613d40613cbb565b5b828206905092915050565b7f4e487b7100000000000000000000000000000000000000000000000000000000600052603160045260246000fdfea264697066735822122099ad387ce216d058b08bf7c47dea268da063ddd347245f7a3be3e8fae82cbbec64736f6c634300080f0033",
  "immutableReferences": {},
  "source": "// SPDX-License-Identifier: MIT\n\npragma solidity ^0.8.15;\nimport \"./node_modules/openzeppelin-solidity/contracts/token/ERC721/extensions/ERC721Enumerable.sol\";\nimport \"./node_modules/openzeppelin-solidity/contracts/token/ERC721/extensions/ERC721URIStorage.sol\";\nimport \"./SaleMusicToken.sol\";\n\ncontract MintMusicToken is  ERC721Enumerable, ERC721URIStorage  {\n        constructor() ERC721(\"Music NFT\", \"MNFT\") {}\n\n        SaleMusicToken public saleMusicToken;\n\n        function tokenURI(uint256 tokenId)\n                public\n                view\n                override(ERC721, ERC721URIStorage)\n                returns (string memory)\n        {\n                return super.tokenURI(tokenId);\n        }\n\n        function _beforeTokenTransfer(address from, address to, uint256 tokenId)\n                internal\n                override(ERC721, ERC721Enumerable)\n        {\n                super._beforeTokenTransfer(from, to, tokenId);\n        }\n\n        function _burn(uint256 tokenId) \n                internal \n                override(ERC721, ERC721URIStorage) \n        {\n                super._burn(tokenId);\n        }\n        function supportsInterface(bytes4 interfaceId)\n                public\n                view\n                override(ERC721, ERC721Enumerable)\n                returns (bool)\n        {\n                return super.supportsInterface(interfaceId);\n        }\n\n\n        mapping (uint256 => string) public musicTokens;\n        mapping (uint256 => bool) public isOnSaleToken;\n        mapping (uint256 => address) public musicTokenMinters;\n\n        event Minter(uint256 indexed tokenID, string tokenURI, address indexed Minter, uint256 timeStamp);\n\n        struct MusicTokenData {\n                uint256 musicTokenId;\n                string musicTokenURI;\n                uint256 musicTokenPrice;\n        }\n\n        function mintMusicToken(string memory _metadata) public {\n                uint256 musicTokenId = totalSupply() + 1;\n                string memory musicToken = _metadata;\n                musicTokens[musicTokenId] = musicToken;\n                musicTokenMinters[musicTokenId]=msg.sender;\n                _mint(msg.sender, musicTokenId);\n                emit Minter(musicTokenId, musicToken, msg.sender, block.timestamp);\n                isOnSaleToken[musicTokenId] = false;\n                _setTokenURI(musicTokenId, _metadata);\n        }\n\n        \n        function getLatestMusicToken() view public returns( string[] memory ){\n\n                uint256 _totalMusicToken = totalSupply();\n                require(_totalMusicToken > 0, \"There are no tokens in the contract.\");\n                string[] memory musicTokenDatas = new string[](_totalMusicToken);\n                uint256 j = 0;\n\n                for(uint256 i=_totalMusicToken; i<0; i--) {\n                        musicTokenDatas[j] = tokenURI(i);\n                        j++;\n                }\n\n                return musicTokenDatas;\n        }\n\n        function getMusicTokenMinter(uint256 _musicTokenId)\n                view\n                public\n                returns(address)\n        {\n                return musicTokenMinters[_musicTokenId];\n        }\n\n        function setSaleMusicToken(address _saleMusicToken) \n                public\n        {\n                saleMusicToken = SaleMusicToken(_saleMusicToken);\n        }\n\n        function getIsOnSale(uint256 _tokenId)\n                view\n                public\n                returns(bool)\n        {\n                return isOnSaleToken[_tokenId];\n        }\n\n        function setTokenState(uint256 _tokenId, bool _state)\n                external\n        {\n                isOnSaleToken[_tokenId] = _state;\n        }\n\n}",
  "sourcePath": "/Users/oo_ha/workspace/project/meta/dApp_Store/truffle/contracts/MintMusicToken.sol",
  "compiler": {
    "name": "solc",
    "version": "0.8.15+commit.e14f2714.Emscripten.clang"
  },
  "schemaVersion": "3.4.8",
  "updatedAt": "2022-08-30T01:20:39.873Z",
  "networkType": "ethereum",
  "devdoc": {
    "kind": "dev",
    "methods": {
      "approve(address,uint256)": {
        "details": "See {IERC721-approve}."
      },
      "balanceOf(address)": {
        "details": "See {IERC721-balanceOf}."
      },
      "getApproved(uint256)": {
        "details": "See {IERC721-getApproved}."
      },
      "isApprovedForAll(address,address)": {
        "details": "See {IERC721-isApprovedForAll}."
      },
      "name()": {
        "details": "See {IERC721Metadata-name}."
      },
      "ownerOf(uint256)": {
        "details": "See {IERC721-ownerOf}."
      },
      "safeTransferFrom(address,address,uint256)": {
        "details": "See {IERC721-safeTransferFrom}."
      },
      "safeTransferFrom(address,address,uint256,bytes)": {
        "details": "See {IERC721-safeTransferFrom}."
      },
      "setApprovalForAll(address,bool)": {
        "details": "See {IERC721-setApprovalForAll}."
      },
      "symbol()": {
        "details": "See {IERC721Metadata-symbol}."
      },
      "tokenByIndex(uint256)": {
        "details": "See {IERC721Enumerable-tokenByIndex}."
      },
      "tokenOfOwnerByIndex(address,uint256)": {
        "details": "See {IERC721Enumerable-tokenOfOwnerByIndex}."
      },
      "totalSupply()": {
        "details": "See {IERC721Enumerable-totalSupply}."
      },
      "transferFrom(address,address,uint256)": {
        "details": "See {IERC721-transferFrom}."
      }
    },
    "version": 1
  },
  "userdoc": {
    "kind": "user",
    "methods": {},
    "version": 1
  }
}