{
  "contractName": "SaleMusicToken",
  "abi": [
    {
      "inputs": [
        {
          "internalType": "address",
          "name": "_mintMusicTokenAddress",
          "type": "address"
        }
      ],
      "stateMutability": "nonpayable",
      "type": "constructor"
    },
    {
      "anonymous": false,
      "inputs": [
        {
          "indexed": true,
          "internalType": "uint256",
          "name": "tokenID",
          "type": "uint256"
        },
        {
          "indexed": true,
          "internalType": "uint256",
          "name": "price",
          "type": "uint256"
        },
        {
          "indexed": true,
          "internalType": "address",
          "name": "buyer",
          "type": "address"
        },
        {
          "indexed": false,
          "internalType": "address",
          "name": "seller",
          "type": "address"
        },
        {
          "indexed": false,
          "internalType": "uint256",
          "name": "timeStamp",
          "type": "uint256"
        }
      ],
      "name": "PurchaseChart",
      "type": "event"
    },
    {
      "inputs": [],
      "name": "mintMusicTokenAddress",
      "outputs": [
        {
          "internalType": "contract MintMusicToken",
          "name": "",
          "type": "address"
        }
      ],
      "stateMutability": "view",
      "type": "function",
      "constant": true
    },
    {
      "inputs": [
        {
          "internalType": "uint256",
          "name": "",
          "type": "uint256"
        }
      ],
      "name": "musicTokenPrices",
      "outputs": [
        {
          "internalType": "uint256",
          "name": "",
          "type": "uint256"
        }
      ],
      "stateMutability": "view",
      "type": "function",
      "constant": true
    },
    {
      "inputs": [
        {
          "internalType": "uint256",
          "name": "",
          "type": "uint256"
        }
      ],
      "name": "onSaleMusicTokenArray",
      "outputs": [
        {
          "internalType": "uint256",
          "name": "",
          "type": "uint256"
        }
      ],
      "stateMutability": "view",
      "type": "function",
      "constant": true
    },
    {
      "inputs": [
        {
          "internalType": "uint256",
          "name": "_musicTokenId",
          "type": "uint256"
        },
        {
          "internalType": "uint256",
          "name": "_price",
          "type": "uint256"
        }
      ],
      "name": "setForSaleMusicToken",
      "outputs": [],
      "stateMutability": "nonpayable",
      "type": "function"
    },
    {
      "inputs": [
        {
          "internalType": "uint256",
          "name": "_musicTokenId",
          "type": "uint256"
        }
      ],
      "name": "cancelSaleMusicToken",
      "outputs": [],
      "stateMutability": "nonpayable",
      "type": "function"
    },
    {
      "inputs": [
        {
          "internalType": "uint256",
          "name": "_musicTokenId",
          "type": "uint256"
        }
      ],
      "name": "purchaseMusicToken",
      "outputs": [],
      "stateMutability": "payable",
      "type": "function",
      "payable": true
    },
    {
      "inputs": [],
      "name": "getOnSaleMusicTokenArrayLength",
      "outputs": [
        {
          "internalType": "uint256",
          "name": "",
          "type": "uint256"
        }
      ],
      "stateMutability": "view",
      "type": "function",
      "constant": true
    },
    {
      "inputs": [],
      "name": "getOnSaleMusicTokens",
      "outputs": [
        {
          "components": [
            {
              "internalType": "uint256",
              "name": "musicTokenId",
              "type": "uint256"
            },
            {
              "internalType": "string",
              "name": "musicTokenURI",
              "type": "string"
            },
            {
              "internalType": "uint256",
              "name": "musicTokenPrice",
              "type": "uint256"
            }
          ],
          "internalType": "struct SaleMusicToken.OnSaleMusicTokenData[]",
          "name": "",
          "type": "tuple[]"
        }
      ],
      "stateMutability": "view",
      "type": "function",
      "constant": true
    },
    {
      "inputs": [
        {
          "internalType": "uint256",
          "name": "_musicTokenId",
          "type": "uint256"
        }
      ],
      "name": "getMusicTokenPrice",
      "outputs": [
        {
          "internalType": "uint256",
          "name": "",
          "type": "uint256"
        }
      ],
      "stateMutability": "view",
      "type": "function",
      "constant": true
    }
  ],
  "bytecode": "0x60806040523480156200001157600080fd5b5060405162002074380380620020748339818101604052810190620000379190620000e8565b806000806101000a81548173ffffffffffffffffffffffffffffffffffffffff021916908373ffffffffffffffffffffffffffffffffffffffff160217905550506200011a565b600080fd5b600073ffffffffffffffffffffffffffffffffffffffff82169050919050565b6000620000b08262000083565b9050919050565b620000c281620000a3565b8114620000ce57600080fd5b50565b600081519050620000e281620000b7565b92915050565b6000602082840312156200010157620001006200007e565b5b60006200011184828501620000d1565b91505092915050565b611f4a806200012a6000396000f3fe6080604052600436106100865760003560e01c80639d63574e116100595780639d63574e1461015b578063a1a5c66214610177578063a1ac7618146101b4578063bb180656146101dd578063e22ee84d1461020857610086565b806322d889251461008b57806330aa7a49146100b65780633e3fb354146100f35780638382c64514610130575b600080fd5b34801561009757600080fd5b506100a0610231565b6040516100ad91906112db565b60405180910390f35b3480156100c257600080fd5b506100dd60048036038101906100d89190611336565b61023e565b6040516100ea91906112db565b60405180910390f35b3480156100ff57600080fd5b5061011a60048036038101906101159190611336565b610256565b60405161012791906112db565b60405180910390f35b34801561013c57600080fd5b5061014561027a565b604051610152919061151d565b60405180910390f35b61017560048036038101906101709190611336565b610417565b005b34801561018357600080fd5b5061019e60048036038101906101999190611336565b61098e565b6040516101ab91906112db565b60405180910390f35b3480156101c057600080fd5b506101db60048036038101906101d6919061153f565b6109ab565b005b3480156101e957600080fd5b506101f2610e06565b6040516101ff91906115fe565b60405180910390f35b34801561021457600080fd5b5061022f600480360381019061022a9190611336565b610e2a565b005b6000600280549050905090565b60016020528060005260406000206000915090505481565b6002818154811061026657600080fd5b906000526020600020016000915090505481565b60606000610286610231565b905060008167ffffffffffffffff8111156102a4576102a3611619565b5b6040519080825280602002602001820160405280156102dd57816020015b6102ca6112a1565b8152602001906001900390816102c25790505b50905060005b8281101561040e5760006002828154811061030157610300611648565b5b9060005260206000200154905060008060009054906101000a900473ffffffffffffffffffffffffffffffffffffffff1673ffffffffffffffffffffffffffffffffffffffff1663c87b56dd836040518263ffffffff1660e01b815260040161036a91906112db565b600060405180830381865afa158015610387573d6000803e3d6000fd5b505050506040513d6000823e3d601f19601f820116820180604052508101906103b0919061176e565b905060006103bd8361098e565b90506040518060600160405280848152602001838152602001828152508585815181106103ed576103ec611648565b5b60200260200101819052505050508080610406906117e6565b9150506102e3565b50809250505090565b60006001600083815260200190815260200160002054905060008060009054906101000a900473ffffffffffffffffffffffffffffffffffffffff1673ffffffffffffffffffffffffffffffffffffffff16636352211e846040518263ffffffff1660e01b815260040161048b91906112db565b602060405180830381865afa1580156104a8573d6000803e3d6000fd5b505050506040513d601f19601f820116820180604052508101906104cc919061186c565b905060008211610511576040517f08c379a0000000000000000000000000000000000000000000000000000000008152600401610508906118f6565b60405180910390fd5b34821115610554576040517f08c379a000000000000000000000000000000000000000000000000000000000815260040161054b90611962565b60405180910390fd5b3373ffffffffffffffffffffffffffffffffffffffff168173ffffffffffffffffffffffffffffffffffffffff16036105c2576040517f08c379a00000000000000000000000000000000000000000000000000000000081526004016105b9906119ce565b60405180910390fd5b60008060009054906101000a900473ffffffffffffffffffffffffffffffffffffffff1673ffffffffffffffffffffffffffffffffffffffff1663558b573b856040518263ffffffff1660e01b815260040161061e91906112db565b602060405180830381865afa15801561063b573d6000803e3d6000fd5b505050506040513d601f19601f8201168201806040525081019061065f919061186c565b90508173ffffffffffffffffffffffffffffffffffffffff166108fc6106a2606461069460653461127590919063ffffffff16565b61128b90919063ffffffff16565b9081150290604051600060405180830381858888f193505050501580156106cd573d6000803e3d6000fd5b508073ffffffffffffffffffffffffffffffffffffffff166108fc6106fc60653461127590919063ffffffff16565b9081150290604051600060405180830381858888f19350505050158015610727573d6000803e3d6000fd5b5060008054906101000a900473ffffffffffffffffffffffffffffffffffffffff1673ffffffffffffffffffffffffffffffffffffffff166342842e0e8333876040518463ffffffff1660e01b8152600401610785939291906119fd565b600060405180830381600087803b15801561079f57600080fd5b505af11580156107b3573d6000803e3d6000fd5b5050505060008054906101000a900473ffffffffffffffffffffffffffffffffffffffff1673ffffffffffffffffffffffffffffffffffffffff1663efbc69968560006040518363ffffffff1660e01b8152600401610813929190611a4f565b600060405180830381600087803b15801561082d57600080fd5b505af1158015610841573d6000803e3d6000fd5b505050503373ffffffffffffffffffffffffffffffffffffffff1634857fb3bc993af4432a19f7c7f0c8bd9eb48a87e4bde4d8b578e2a4d6a2ea356a63e3854260405161088f929190611a78565b60405180910390a46000600160008681526020019081526020016000208190555060005b60028054905081101561098757600060016000600284815481106108da576108d9611648565b5b906000526020600020015481526020019081526020016000205403610974576002600160028054905061090d9190611aa1565b8154811061091e5761091d611648565b5b90600052602060002001546002828154811061093d5761093c611648565b5b9060005260206000200181905550600280548061095d5761095c611ad5565b5b600190038181906000526020600020016000905590555b808061097f906117e6565b9150506108b3565b5050505050565b600060016000838152602001908152602001600020549050919050565b60008060009054906101000a900473ffffffffffffffffffffffffffffffffffffffff1673ffffffffffffffffffffffffffffffffffffffff16636352211e846040518263ffffffff1660e01b8152600401610a0791906112db565b602060405180830381865afa158015610a24573d6000803e3d6000fd5b505050506040513d601f19601f82011682018060405250810190610a48919061186c565b90506000151560008054906101000a900473ffffffffffffffffffffffffffffffffffffffff1673ffffffffffffffffffffffffffffffffffffffff1663ad04b54c856040518263ffffffff1660e01b8152600401610aa791906112db565b602060405180830381865afa158015610ac4573d6000803e3d6000fd5b505050506040513d601f19601f82011682018060405250810190610ae89190611b30565b151514610b2a576040517f08c379a0000000000000000000000000000000000000000000000000000000008152600401610b2190611ba9565b60405180910390fd5b3373ffffffffffffffffffffffffffffffffffffffff168173ffffffffffffffffffffffffffffffffffffffff1614610b98576040517f08c379a0000000000000000000000000000000000000000000000000000000008152600401610b8f90611c15565b60405180910390fd5b60008211610bdb576040517f08c379a0000000000000000000000000000000000000000000000000000000008152600401610bd290611c81565b60405180910390fd5b6000600160008581526020019081526020016000205414610c31576040517f08c379a0000000000000000000000000000000000000000000000000000000008152600401610c2890611d13565b60405180910390fd5b60008054906101000a900473ffffffffffffffffffffffffffffffffffffffff1673ffffffffffffffffffffffffffffffffffffffff1663e985e9c582306040518363ffffffff1660e01b8152600401610c8c929190611d33565b602060405180830381865afa158015610ca9573d6000803e3d6000fd5b505050506040513d601f19601f82011682018060405250810190610ccd9190611b30565b610d0c576040517f08c379a0000000000000000000000000000000000000000000000000000000008152600401610d0390611dce565b60405180910390fd5b610d336065610d2560648561127590919063ffffffff16565b61128b90919063ffffffff16565b600160008581526020019081526020016000208190555060008054906101000a900473ffffffffffffffffffffffffffffffffffffffff1673ffffffffffffffffffffffffffffffffffffffff1663efbc69968460016040518363ffffffff1660e01b8152600401610da6929190611a4f565b600060405180830381600087803b158015610dc057600080fd5b505af1158015610dd4573d6000803e3d6000fd5b505050506002839080600181540180825580915050600190039060005260206000200160009091909190915055505050565b60008054906101000a900473ffffffffffffffffffffffffffffffffffffffff1681565b60008060009054906101000a900473ffffffffffffffffffffffffffffffffffffffff1673ffffffffffffffffffffffffffffffffffffffff16636352211e836040518263ffffffff1660e01b8152600401610e8691906112db565b602060405180830381865afa158015610ea3573d6000803e3d6000fd5b505050506040513d601f19601f82011682018060405250810190610ec7919061186c565b90506001151560008054906101000a900473ffffffffffffffffffffffffffffffffffffffff1673ffffffffffffffffffffffffffffffffffffffff1663ad04b54c846040518263ffffffff1660e01b8152600401610f2691906112db565b602060405180830381865afa158015610f43573d6000803e3d6000fd5b505050506040513d601f19601f82011682018060405250810190610f679190611b30565b151514610fa9576040517f08c379a0000000000000000000000000000000000000000000000000000000008152600401610fa090611e3a565b60405180910390fd5b3373ffffffffffffffffffffffffffffffffffffffff168173ffffffffffffffffffffffffffffffffffffffff1614611017576040517f08c379a000000000000000000000000000000000000000000000000000000000815260040161100e90611c15565b60405180910390fd5b60008054906101000a900473ffffffffffffffffffffffffffffffffffffffff1673ffffffffffffffffffffffffffffffffffffffff1663e985e9c582306040518363ffffffff1660e01b8152600401611072929190611d33565b602060405180830381865afa15801561108f573d6000803e3d6000fd5b505050506040513d601f19601f820116820180604052508101906110b39190611b30565b6110f2576040517f08c379a00000000000000000000000000000000000000000000000000000000081526004016110e990611dce565b60405180910390fd5b6000600160008481526020019081526020016000208190555060008054906101000a900473ffffffffffffffffffffffffffffffffffffffff1673ffffffffffffffffffffffffffffffffffffffff1663efbc69968360006040518363ffffffff1660e01b8152600401611167929190611a4f565b600060405180830381600087803b15801561118157600080fd5b505af1158015611195573d6000803e3d6000fd5b5050505060005b60028054905081101561127057600060016000600284815481106111c3576111c2611648565b5b90600052602060002001548152602001908152602001600020540361125d57600260016002805490506111f69190611aa1565b8154811061120757611206611648565b5b90600052602060002001546002828154811061122657611225611648565b5b9060005260206000200181905550600280548061124657611245611ad5565b5b600190038181906000526020600020016000905590555b8080611268906117e6565b91505061119c565b505050565b600081836112839190611e89565b905092915050565b600081836112999190611eba565b905092915050565b60405180606001604052806000815260200160608152602001600081525090565b6000819050919050565b6112d5816112c2565b82525050565b60006020820190506112f060008301846112cc565b92915050565b6000604051905090565b600080fd5b600080fd5b611313816112c2565b811461131e57600080fd5b50565b6000813590506113308161130a565b92915050565b60006020828403121561134c5761134b611300565b5b600061135a84828501611321565b91505092915050565b600081519050919050565b600082825260208201905092915050565b6000819050602082019050919050565b611398816112c2565b82525050565b600081519050919050565b600082825260208201905092915050565b60005b838110156113d85780820151818401526020810190506113bd565b838111156113e7576000848401525b50505050565b6000601f19601f8301169050919050565b60006114098261139e565b61141381856113a9565b93506114238185602086016113ba565b61142c816113ed565b840191505092915050565b600060608301600083015161144f600086018261138f565b506020830151848203602086015261146782826113fe565b915050604083015161147c604086018261138f565b508091505092915050565b60006114938383611437565b905092915050565b6000602082019050919050565b60006114b382611363565b6114bd818561136e565b9350836020820285016114cf8561137f565b8060005b8581101561150b57848403895281516114ec8582611487565b94506114f78361149b565b925060208a019950506001810190506114d3565b50829750879550505050505092915050565b6000602082019050818103600083015261153781846114a8565b905092915050565b6000806040838503121561155657611555611300565b5b600061156485828601611321565b925050602061157585828601611321565b9150509250929050565b600073ffffffffffffffffffffffffffffffffffffffff82169050919050565b6000819050919050565b60006115c46115bf6115ba8461157f565b61159f565b61157f565b9050919050565b60006115d6826115a9565b9050919050565b60006115e8826115cb565b9050919050565b6115f8816115dd565b82525050565b600060208201905061161360008301846115ef565b92915050565b7f4e487b7100000000000000000000000000000000000000000000000000000000600052604160045260246000fd5b7f4e487b7100000000000000000000000000000000000000000000000000000000600052603260045260246000fd5b600080fd5b600080fd5b61168a826113ed565b810181811067ffffffffffffffff821117156116a9576116a8611619565b5b80604052505050565b60006116bc6112f6565b90506116c88282611681565b919050565b600067ffffffffffffffff8211156116e8576116e7611619565b5b6116f1826113ed565b9050602081019050919050565b600061171161170c846116cd565b6116b2565b90508281526020810184848401111561172d5761172c61167c565b5b6117388482856113ba565b509392505050565b600082601f83011261175557611754611677565b5b81516117658482602086016116fe565b91505092915050565b60006020828403121561178457611783611300565b5b600082015167ffffffffffffffff8111156117a2576117a1611305565b5b6117ae84828501611740565b91505092915050565b7f4e487b7100000000000000000000000000000000000000000000000000000000600052601160045260246000fd5b60006117f1826112c2565b91507fffffffffffffffffffffffffffffffffffffffffffffffffffffffffffffffff8203611823576118226117b7565b5b600182019050919050565b60006118398261157f565b9050919050565b6118498161182e565b811461185457600080fd5b50565b60008151905061186681611840565b92915050565b60006020828403121561188257611881611300565b5b600061189084828501611857565b91505092915050565b600082825260208201905092915050565b7f4d7573696320546f6b656e206e6f742073616c652e0000000000000000000000600082015250565b60006118e0601583611899565b91506118eb826118aa565b602082019050919050565b6000602082019050818103600083015261190f816118d3565b9050919050565b7f43616c6c65722073656e74206c6f776572207468616e2070726963652e000000600082015250565b600061194c601d83611899565b915061195782611916565b602082019050919050565b6000602082019050818103600083015261197b8161193f565b9050919050565b7f43616c6c6572206973206e6f74204d7573696320546f6b656e206f776e65722e600082015250565b60006119b8602083611899565b91506119c382611982565b602082019050919050565b600060208201905081810360008301526119e7816119ab565b9050919050565b6119f78161182e565b82525050565b6000606082019050611a1260008301866119ee565b611a1f60208301856119ee565b611a2c60408301846112cc565b949350505050565b60008115159050919050565b611a4981611a34565b82525050565b6000604082019050611a6460008301856112cc565b611a716020830184611a40565b9392505050565b6000604082019050611a8d60008301856119ee565b611a9a60208301846112cc565b9392505050565b6000611aac826112c2565b9150611ab7836112c2565b925082821015611aca57611ac96117b7565b5b828203905092915050565b7f4e487b7100000000000000000000000000000000000000000000000000000000600052603160045260246000fd5b611b0d81611a34565b8114611b1857600080fd5b50565b600081519050611b2a81611b04565b92915050565b600060208284031215611b4657611b45611300565b5b6000611b5484828501611b1b565b91505092915050565b7f6d75736963546f6b656e206973206f6e2073616c652e00000000000000000000600082015250565b6000611b93601683611899565b9150611b9e82611b5d565b602082019050919050565b60006020820190508181036000830152611bc281611b86565b9050919050565b7f43616c6c6572206973206e6f74206d7573696320746f6b656e206f776e65722e600082015250565b6000611bff602083611899565b9150611c0a82611bc9565b602082019050919050565b60006020820190508181036000830152611c2e81611bf2565b9050919050565b7f5072696365206973207a65726f206f72206c6f7765722e000000000000000000600082015250565b6000611c6b601783611899565b9150611c7682611c35565b602082019050919050565b60006020820190508181036000830152611c9a81611c5e565b9050919050565b7f54686973206d7573696320746f6b656e20697320616c7265616479206f6e207360008201527f616c652e00000000000000000000000000000000000000000000000000000000602082015250565b6000611cfd602483611899565b9150611d0882611ca1565b604082019050919050565b60006020820190508181036000830152611d2c81611cf0565b9050919050565b6000604082019050611d4860008301856119ee565b611d5560208301846119ee565b9392505050565b7f4d7573696320546f6b656e206f776e657220646964206e6f7420617070726f7660008201527f6520746f6b656e2e000000000000000000000000000000000000000000000000602082015250565b6000611db8602883611899565b9150611dc382611d5c565b604082019050919050565b60006020820190508181036000830152611de781611dab565b9050919050565b7f6d75736963546f6b656e206973206e6f74206f6e2073616c652e000000000000600082015250565b6000611e24601a83611899565b9150611e2f82611dee565b602082019050919050565b60006020820190508181036000830152611e5381611e17565b9050919050565b7f4e487b7100000000000000000000000000000000000000000000000000000000600052601260045260246000fd5b6000611e94826112c2565b9150611e9f836112c2565b925082611eaf57611eae611e5a565b5b828204905092915050565b6000611ec5826112c2565b9150611ed0836112c2565b9250817fffffffffffffffffffffffffffffffffffffffffffffffffffffffffffffffff0483118215151615611f0957611f086117b7565b5b82820290509291505056fea2646970667358221220c95f9a484cc125d925e02be720ed6418416877a53357deb88fe50a905cf6b82564736f6c634300080f0033",
  "immutableReferences": {},
  "source": "// SPDX-License-Identifier: MIT\npragma solidity ^0.8.15;\n\nimport \"./MintMusicToken.sol\";\nimport \"./node_modules/openzeppelin-solidity/contracts/utils/math/SafeMath.sol\";\ncontract SaleMusicToken {\n    using SafeMath for uint256;\n\n    MintMusicToken public mintMusicTokenAddress;\n    constructor (address _mintMusicTokenAddress){\n        mintMusicTokenAddress = MintMusicToken(_mintMusicTokenAddress);\n    }\n\n    mapping (uint256 => uint256) public musicTokenPrices;\n    event PurchaseChart (uint256 indexed tokenID, uint256 indexed price, address indexed buyer, address seller, uint256 timeStamp);\n\n    uint256[] public onSaleMusicTokenArray;\n    struct OnSaleMusicTokenData {\n        uint256 musicTokenId;\n        string musicTokenURI;\n        uint256 musicTokenPrice;\n    }\n\n    function setForSaleMusicToken(uint256 _musicTokenId, uint256 _price) public {\n        address musicTokenOwner = mintMusicTokenAddress.ownerOf(_musicTokenId);\n\n        require(mintMusicTokenAddress.getIsOnSale(_musicTokenId)==false,\"musicToken is on sale.\");\n        require(musicTokenOwner == msg.sender, \"Caller is not music token owner.\");\n        require(_price > 0 , \"Price is zero or lower.\");\n        require(musicTokenPrices[_musicTokenId] == 0, \"This music token is already on sale.\");\n        require(mintMusicTokenAddress.isApprovedForAll(musicTokenOwner, address(this)), \"Music Token owner did not approve token.\");  \n\n        musicTokenPrices[_musicTokenId] = _price.div(100).mul(101);\n        mintMusicTokenAddress.setTokenState(_musicTokenId, true);\n        onSaleMusicTokenArray.push(_musicTokenId);\n    }\n\n    function cancelSaleMusicToken(uint256 _musicTokenId) public {\n        address musicTokenOwner = mintMusicTokenAddress.ownerOf(_musicTokenId);\n        require(mintMusicTokenAddress.getIsOnSale(_musicTokenId)==true, \"musicToken is not on sale.\");\n        require(musicTokenOwner == msg.sender, \"Caller is not music token owner.\");\n        require(mintMusicTokenAddress.isApprovedForAll(musicTokenOwner, address(this)), \"Music Token owner did not approve token.\");\n\n        musicTokenPrices[_musicTokenId] =0;\n        mintMusicTokenAddress.setTokenState(_musicTokenId, false);\n\n         for(uint256 i = 0; i < onSaleMusicTokenArray.length; i++) {\n            if(musicTokenPrices[onSaleMusicTokenArray[i]] == 0 ) {\n                onSaleMusicTokenArray[i] = onSaleMusicTokenArray[onSaleMusicTokenArray.length - 1];\n                onSaleMusicTokenArray.pop();\n            }\n        }\n    }\n\n\n    function purchaseMusicToken(uint256 _musicTokenId)\n        public\n        payable\n    {\n        uint256 price = musicTokenPrices[_musicTokenId];\n        address musicTokenOwner = mintMusicTokenAddress.ownerOf(_musicTokenId);\n\n        require(price > 0, \"Music Token not sale.\");\n        require(price <= msg.value, \"Caller sent lower than price.\");\n        require(musicTokenOwner != msg.sender, \"Caller is not Music Token owner.\");\n\n        address minter = mintMusicTokenAddress.getMusicTokenMinter(_musicTokenId);\n\n        payable(musicTokenOwner).transfer(msg.value.div(101).mul(100));\n        payable(minter).transfer(msg.value.div(101));\n        mintMusicTokenAddress.safeTransferFrom(musicTokenOwner, msg.sender, _musicTokenId);\n        mintMusicTokenAddress.setTokenState(_musicTokenId, false);\n        \n        emit PurchaseChart (_musicTokenId, msg.value, msg.sender,musicTokenOwner, block.timestamp);\n        musicTokenPrices[_musicTokenId] = 0;\n\n        for(uint256 i = 0; i < onSaleMusicTokenArray.length; i++) {\n            if(musicTokenPrices[onSaleMusicTokenArray[i]] == 0 ) {\n                onSaleMusicTokenArray[i] = onSaleMusicTokenArray[onSaleMusicTokenArray.length - 1];\n                onSaleMusicTokenArray.pop();\n            }\n        }\n    }\n\n    function getOnSaleMusicTokenArrayLength()\n        view\n        public\n        returns(uint256)\n    {\n        return onSaleMusicTokenArray.length;\n    }\n\n    function getOnSaleMusicTokens()\n        public\n        view\n        returns(OnSaleMusicTokenData[] memory)\n    {\n        uint256 onSaleMusicTokenLength = getOnSaleMusicTokenArrayLength();\n\n        OnSaleMusicTokenData[] memory onSaleMusicTokenDatas = new OnSaleMusicTokenData[](onSaleMusicTokenLength);\n\n        for(uint256 i = 0; i < onSaleMusicTokenLength; i++){\n            uint256 musicTokenId = onSaleMusicTokenArray[i];\n            string memory musicTokenURI = mintMusicTokenAddress.tokenURI(musicTokenId);\n            uint256 musicTokenPrice = getMusicTokenPrice(musicTokenId);\n            onSaleMusicTokenDatas[i] = OnSaleMusicTokenData(musicTokenId, musicTokenURI, musicTokenPrice);\n        }\n        \n        return onSaleMusicTokenDatas;\n    }\n\n    function getMusicTokenPrice(uint256 _musicTokenId)\n        view\n        public\n        returns(uint256)\n    {\n        return musicTokenPrices[_musicTokenId];\n    }\n}",
  "sourcePath": "/Users/oo_ha/workspace/project/meta/dApp_Store/truffle/contracts/SaleMusicToken.sol",
  "compiler": {
    "name": "solc",
    "version": "0.8.15+commit.e14f2714.Emscripten.clang"
  },
  "schemaVersion": "3.4.8",
  "updatedAt": "2022-08-30T01:20:39.884Z",
  "networkType": "ethereum",
  "devdoc": {
    "kind": "dev",
    "methods": {},
    "version": 1
  },
  "userdoc": {
    "kind": "user",
    "methods": {},
    "version": 1
  }
}