{
  "contractName": "Subscribe",
  "abi": [
    {
      "anonymous": false,
      "inputs": [
        {
          "indexed": true,
          "internalType": "address",
          "name": "user",
          "type": "address"
        },
        {
          "indexed": false,
          "internalType": "uint256",
          "name": "startTime",
          "type": "uint256"
        },
        {
          "indexed": false,
          "internalType": "bool",
          "name": "state",
          "type": "bool"
        }
      ],
      "name": "Subscribed",
      "type": "event"
    },
    {
      "anonymous": false,
      "inputs": [
        {
          "indexed": true,
          "internalType": "address",
          "name": "from",
          "type": "address"
        },
        {
          "indexed": true,
          "internalType": "address",
          "name": "to",
          "type": "address"
        },
        {
          "indexed": false,
          "internalType": "uint256",
          "name": "value",
          "type": "uint256"
        }
      ],
      "name": "Transfer",
      "type": "event"
    },
    {
      "inputs": [],
      "name": "sub_price",
      "outputs": [
        {
          "internalType": "uint256",
          "name": "",
          "type": "uint256"
        }
      ],
      "stateMutability": "view",
      "type": "function",
      "constant": true
    },
    {
      "inputs": [
        {
          "internalType": "address",
          "name": "",
          "type": "address"
        }
      ],
      "name": "subscribeTime",
      "outputs": [
        {
          "internalType": "uint256",
          "name": "",
          "type": "uint256"
        }
      ],
      "stateMutability": "view",
      "type": "function",
      "constant": true
    },
    {
      "stateMutability": "payable",
      "type": "receive",
      "payable": true
    },
    {
      "inputs": [],
      "name": "subscribe",
      "outputs": [],
      "stateMutability": "payable",
      "type": "function",
      "payable": true
    },
    {
      "inputs": [],
      "name": "reSubscribe",
      "outputs": [],
      "stateMutability": "payable",
      "type": "function",
      "payable": true
    },
    {
      "inputs": [],
      "name": "cancelSubscribe",
      "outputs": [],
      "stateMutability": "payable",
      "type": "function",
      "payable": true
    },
    {
      "inputs": [
        {
          "internalType": "address",
          "name": "_user",
          "type": "address"
        }
      ],
      "name": "getSubsribeState",
      "outputs": [
        {
          "internalType": "uint256",
          "name": "",
          "type": "uint256"
        }
      ],
      "stateMutability": "view",
      "type": "function",
      "constant": true
    }
  ],
  "bytecode": "0x6080604052670de0b6b3a764000060005534801561001c57600080fd5b5061087c8061002c6000396000f3fe6080604052600436106100595760003560e01c806301412fc014610065578063129172001461006f5780638f449a0514610079578063a134719514610083578063befa2fc6146100c0578063c2654101146100eb57610060565b3661006057005b600080fd5b61006d610128565b005b610077610254565b005b6100816103cc565b005b34801561008f57600080fd5b506100aa60048036038101906100a591906105c7565b6104b5565b6040516100b7919061060d565b60405180910390f35b3480156100cc57600080fd5b506100d56104fe565b6040516100e2919061060d565b60405180910390f35b3480156100f757600080fd5b50610112600480360381019061010d91906105c7565b610504565b60405161011f919061060d565b60405180910390f35b4262093a80600160003373ffffffffffffffffffffffffffffffffffffffff1673ffffffffffffffffffffffffffffffffffffffff168152602001908152602001600020546101779190610657565b10156101b8576040517f08c379a00000000000000000000000000000000000000000000000000000000081526004016101af9061070a565b60405180910390fd5b3373ffffffffffffffffffffffffffffffffffffffff166108fc6000549081150290604051600060405180830381858888f19350505050158015610200573d6000803e3d6000fd5b503373ffffffffffffffffffffffffffffffffffffffff167fb2427cd397b4dc856f06e9dbdeee394990780b3950f191ac7e6ac710f161598742600060405161024a929190610745565b60405180910390a2565b62278d00600160003373ffffffffffffffffffffffffffffffffffffffff1673ffffffffffffffffffffffffffffffffffffffff168152602001908152602001600020546102a29190610657565b42116102e3576040517f08c379a00000000000000000000000000000000000000000000000000000000081526004016102da906107ba565b60405180910390fd5b600054341015610328576040517f08c379a000000000000000000000000000000000000000000000000000000000815260040161031f90610826565b60405180910390fd5b3073ffffffffffffffffffffffffffffffffffffffff166108fc349081150290604051600060405180830381858888f1935050505015801561036e573d6000803e3d6000fd5b50610379334261051c565b3373ffffffffffffffffffffffffffffffffffffffff167fb2427cd397b4dc856f06e9dbdeee394990780b3950f191ac7e6ac710f16159874260016040516103c2929190610745565b60405180910390a2565b600054341015610411576040517f08c379a000000000000000000000000000000000000000000000000000000000815260040161040890610826565b60405180910390fd5b3073ffffffffffffffffffffffffffffffffffffffff166108fc349081150290604051600060405180830381858888f19350505050158015610457573d6000803e3d6000fd5b50610462334261051c565b3373ffffffffffffffffffffffffffffffffffffffff167fb2427cd397b4dc856f06e9dbdeee394990780b3950f191ac7e6ac710f16159874260016040516104ab929190610745565b60405180910390a2565b6000600160008373ffffffffffffffffffffffffffffffffffffffff1673ffffffffffffffffffffffffffffffffffffffff168152602001908152602001600020549050919050565b60005481565b60016020528060005260406000206000915090505481565b80600160008473ffffffffffffffffffffffffffffffffffffffff1673ffffffffffffffffffffffffffffffffffffffff168152602001908152602001600020819055505050565b600080fd5b600073ffffffffffffffffffffffffffffffffffffffff82169050919050565b600061059482610569565b9050919050565b6105a481610589565b81146105af57600080fd5b50565b6000813590506105c18161059b565b92915050565b6000602082840312156105dd576105dc610564565b5b60006105eb848285016105b2565b91505092915050565b6000819050919050565b610607816105f4565b82525050565b600060208201905061062260008301846105fe565b92915050565b7f4e487b7100000000000000000000000000000000000000000000000000000000600052601160045260246000fd5b6000610662826105f4565b915061066d836105f4565b9250827fffffffffffffffffffffffffffffffffffffffffffffffffffffffffffffffff038211156106a2576106a1610628565b5b828201905092915050565b600082825260208201905092915050565b7f6e6f7420726571756972656420746f2063616e63656c00000000000000000000600082015250565b60006106f46016836106ad565b91506106ff826106be565b602082019050919050565b60006020820190508181036000830152610723816106e7565b9050919050565b60008115159050919050565b61073f8161072a565b82525050565b600060408201905061075a60008301856105fe565b6107676020830184610736565b9392505050565b7f596f7520616c726561647920737562736372696265642e000000000000000000600082015250565b60006107a46017836106ad565b91506107af8261076e565b602082019050919050565b600060208201905081810360008301526107d381610797565b9050919050565b7f6c61636b206f662062616c616e63652c206e65656420746f2063686172676500600082015250565b6000610810601f836106ad565b915061081b826107da565b602082019050919050565b6000602082019050818103600083015261083f81610803565b905091905056fea2646970667358221220723497c6c854899639546529886d21d8030d9b7119edb8920a8bf49b5a8859b364736f6c634300080f0033",
  "immutableReferences": {},
  "source": "// SPDX-License-Identifier: MIT\n\npragma solidity ^0.8.15;\n\ncontract Subscribe{\n    uint256 public sub_price = 1 ether;\n    // uint256 public sub_price3 = 2.5 ether;\n    // uint256 public sub_price6 = 5 ether;\n\n    mapping(address => uint) public subscribeTime;\n\n    event Transfer(address indexed from, address indexed to, uint256 value);\n    event Subscribed(address indexed user, uint startTime, bool state);\n\n    function setSubscribe(address _user, uint _time) internal {\n        subscribeTime[_user] = _time;\n    }\n\n//\n    function subscribe() public payable{\n        require(msg.value >= sub_price, \"lack of balance, need to charge\");\n        // require(subscribeState[msg.sender] != false , \"already subscribed\");\n        payable(address(this)).transfer(msg.value);\n        setSubscribe(msg.sender, block.timestamp);\n        emit Subscribed(msg.sender, block.timestamp, true);\n    }\n\n//.\n    function reSubscribe() public payable {\n        require(block.timestamp > subscribeTime[msg.sender]+30 days, \"You already subscribed.\" );\n        require(msg.value >= sub_price, \"lack of balance, need to charge\");\n        payable(address(this)).transfer(msg.value);\n        setSubscribe(msg.sender, block.timestamp);\n        emit Subscribed(msg.sender, block.timestamp, true);\n    }\n\n   \n//\n    function cancelSubscribe() public payable{\n        require(subscribeTime[msg.sender] + 7 days >= block.timestamp , \"not required to cancel\");\n        // require(block.timestamp > subscribeTime[msg.sender], \"\")\n        payable(msg.sender).transfer(sub_price);\n        emit Subscribed(msg.sender,block.timestamp, false);\n    }\n\n    \n\n    function getSubsribeState(address _user) public view returns(uint){\n        return subscribeTime[_user];\n    }\n \n    receive() external payable{\n    }\n}",
  "sourcePath": "/Users/oo_ha/workspace/project/meta/dApp_Store/truffle/contracts/Subscribe.sol",
  "compiler": {
    "name": "solc",
    "version": "0.8.15+commit.e14f2714.Emscripten.clang"
  },
  "schemaVersion": "3.4.8",
  "updatedAt": "2022-08-31T00:39:57.037Z",
  "networkType": "ethereum",
  "devdoc": {
    "kind": "dev",
    "methods": {},
    "version": 1
  },
  "userdoc": {
    "kind": "user",
    "methods": {},
    "version": 1
  }
}