{
  "contractName": "Subscribe_yj",
  "abi": [
    {
      "anonymous": false,
      "inputs": [
        {
          "indexed": true,
          "internalType": "address",
          "name": "user",
          "type": "address"
        },
        {
          "indexed": false,
          "internalType": "bool",
          "name": "subcribeState",
          "type": "bool"
        }
      ],
      "name": "Subscribed",
      "type": "event"
    },
    {
      "anonymous": false,
      "inputs": [
        {
          "indexed": true,
          "internalType": "address",
          "name": "from",
          "type": "address"
        },
        {
          "indexed": true,
          "internalType": "address",
          "name": "to",
          "type": "address"
        },
        {
          "indexed": false,
          "internalType": "uint256",
          "name": "value",
          "type": "uint256"
        }
      ],
      "name": "Transfer",
      "type": "event"
    },
    {
      "inputs": [],
      "name": "sub_price",
      "outputs": [
        {
          "internalType": "uint256",
          "name": "",
          "type": "uint256"
        }
      ],
      "stateMutability": "view",
      "type": "function",
      "constant": true
    },
    {
      "inputs": [
        {
          "internalType": "address",
          "name": "",
          "type": "address"
        }
      ],
      "name": "subscribeState",
      "outputs": [
        {
          "internalType": "bool",
          "name": "",
          "type": "bool"
        }
      ],
      "stateMutability": "view",
      "type": "function",
      "constant": true
    },
    {
      "stateMutability": "payable",
      "type": "receive",
      "payable": true
    },
    {
      "inputs": [],
      "name": "subscribe",
      "outputs": [],
      "stateMutability": "payable",
      "type": "function",
      "payable": true
    },
    {
      "inputs": [],
      "name": "cancelSubscribe",
      "outputs": [],
      "stateMutability": "payable",
      "type": "function",
      "payable": true
    },
    {
      "inputs": [
        {
          "internalType": "address",
          "name": "_user",
          "type": "address"
        }
      ],
      "name": "getSubsribeState",
      "outputs": [
        {
          "internalType": "bool",
          "name": "",
          "type": "bool"
        }
      ],
      "stateMutability": "view",
      "type": "function",
      "constant": true
    }
  ],
  "bytecode": "0x6080604052670de0b6b3a764000060005534801561001c57600080fd5b506106238061002c6000396000f3fe60806040526004361061004e5760003560e01c806301412fc01461005a5780638f449a0514610064578063a13471951461006e578063befa2fc6146100ab578063d353c0b7146100d657610055565b3661005557005b600080fd5b610062610113565b005b61006c61024b565b005b34801561007a57600080fd5b506100956004803603810190610090919061046d565b610333565b6040516100a291906104b5565b60405180910390f35b3480156100b757600080fd5b506100c0610389565b6040516100cd91906104e9565b60405180910390f35b3480156100e257600080fd5b506100fd60048036038101906100f8919061046d565b61038f565b60405161010a91906104b5565b60405180910390f35b60011515600160003373ffffffffffffffffffffffffffffffffffffffff1673ffffffffffffffffffffffffffffffffffffffff16815260200190815260200160002060009054906101000a900460ff161515146101a6576040517f08c379a000000000000000000000000000000000000000000000000000000000815260040161019d90610561565b60405180910390fd5b3373ffffffffffffffffffffffffffffffffffffffff166108fc6000549081150290604051600060405180830381858888f193505050501580156101ee573d6000803e3d6000fd5b506101fa3360006103af565b3373ffffffffffffffffffffffffffffffffffffffff167f20a9297f9982644a921b6f68be3987d3d30389992bf1991aba34d5be61b48814600060405161024191906104b5565b60405180910390a2565b600054341015610290576040517f08c379a0000000000000000000000000000000000000000000000000000000008152600401610287906105cd565b60405180910390fd5b3073ffffffffffffffffffffffffffffffffffffffff166108fc349081150290604051600060405180830381858888f193505050501580156102d6573d6000803e3d6000fd5b506102e23360016103af565b3373ffffffffffffffffffffffffffffffffffffffff167f20a9297f9982644a921b6f68be3987d3d30389992bf1991aba34d5be61b48814600160405161032991906104b5565b60405180910390a2565b6000600160008373ffffffffffffffffffffffffffffffffffffffff1673ffffffffffffffffffffffffffffffffffffffff16815260200190815260200160002060009054906101000a900460ff169050919050565b60005481565b60016020528060005260406000206000915054906101000a900460ff1681565b80600160008473ffffffffffffffffffffffffffffffffffffffff1673ffffffffffffffffffffffffffffffffffffffff16815260200190815260200160002060006101000a81548160ff0219169083151502179055505050565b600080fd5b600073ffffffffffffffffffffffffffffffffffffffff82169050919050565b600061043a8261040f565b9050919050565b61044a8161042f565b811461045557600080fd5b50565b60008135905061046781610441565b92915050565b6000602082840312156104835761048261040a565b5b600061049184828501610458565b91505092915050565b60008115159050919050565b6104af8161049a565b82525050565b60006020820190506104ca60008301846104a6565b92915050565b6000819050919050565b6104e3816104d0565b82525050565b60006020820190506104fe60008301846104da565b92915050565b600082825260208201905092915050565b7f6e6f7420726571756972656420746f2063616e63656c00000000000000000000600082015250565b600061054b601683610504565b915061055682610515565b602082019050919050565b6000602082019050818103600083015261057a8161053e565b9050919050565b7f6c61636b206f662062616c616e63652c206e65656420746f2063686172676500600082015250565b60006105b7601f83610504565b91506105c282610581565b602082019050919050565b600060208201905081810360008301526105e6816105aa565b905091905056fea2646970667358221220efe7b08c326922c04d9f80762c098d996da0f009a73e3a489f31993e45730b5d64736f6c634300080f0033",
  "immutableReferences": {},
  "source": "// SPDX-License-Identifier: MIT\n\npragma solidity ^0.8.15;\n\ncontract Subscribe_yj{\n    uint256 public sub_price = 1 ether;\n    mapping(address => bool) public subscribeState;\n\n    event Transfer(address indexed from, address indexed to, uint256 value);\n    event Subscribed(address indexed user, bool subcribeState);\n\n    function setSubscribe(address _user, bool _state) internal {\n        subscribeState[_user] = _state;\n    }\n\n    function subscribe() public payable{\n        require(msg.value >= sub_price, \"lack of balance, need to charge\");\n        // require(subscribeState[msg.sender] != false , \"already subscribed\");\n        payable(address(this)).transfer(msg.value);\n        setSubscribe(msg.sender, true);\n        emit Subscribed(msg.sender, true);\n    }\n      \n    function cancelSubscribe() public payable{\n        require(subscribeState[msg.sender] == true, \"not required to cancel\");\n        payable(msg.sender).transfer(sub_price);\n        setSubscribe(msg.sender, false);\n        emit Subscribed(msg.sender, false);\n    }\n\n    function getSubsribeState(address _user) public view returns(bool){\n        return subscribeState[_user];\n    }\n \n    receive() external payable{\n    }\n}",
  "sourcePath": "/Users/oo_ha/workspace/project/meta/dApp_Store/truffle/contracts/Subscribe_yj.sol",
  "compiler": {
    "name": "solc",
    "version": "0.8.15+commit.e14f2714.Emscripten.clang"
  },
  "schemaVersion": "3.4.8",
  "updatedAt": "2022-08-30T01:21:00.001Z",
  "networkType": "ethereum",
  "devdoc": {
    "kind": "dev",
    "methods": {},
    "version": 1
  },
  "userdoc": {
    "kind": "user",
    "methods": {},
    "version": 1
  }
}