{
  "contractName": "Subscribe",
  "abi": [
    {
      "anonymous": false,
      "inputs": [
        {
          "indexed": true,
          "internalType": "address",
          "name": "owner",
          "type": "address"
        },
        {
          "indexed": true,
          "internalType": "address",
          "name": "spender",
          "type": "address"
        },
        {
          "indexed": false,
          "internalType": "uint256",
          "name": "value",
          "type": "uint256"
        }
      ],
      "name": "Approval",
      "type": "event"
    },
    {
      "anonymous": false,
      "inputs": [
        {
          "indexed": true,
          "internalType": "address",
          "name": "previousOwner",
          "type": "address"
        },
        {
          "indexed": true,
          "internalType": "address",
          "name": "newOwner",
          "type": "address"
        }
      ],
      "name": "OwnershipTransferred",
      "type": "event"
    },
    {
      "anonymous": false,
      "inputs": [
        {
          "indexed": true,
          "internalType": "address",
          "name": "from",
          "type": "address"
        },
        {
          "indexed": true,
          "internalType": "address",
          "name": "to",
          "type": "address"
        },
        {
          "indexed": false,
          "internalType": "uint256",
          "name": "value",
          "type": "uint256"
        }
      ],
      "name": "Transfer",
      "type": "event"
    },
    {
      "inputs": [],
      "name": "approver",
      "outputs": [
        {
          "internalType": "address",
          "name": "",
          "type": "address"
        }
      ],
      "stateMutability": "view",
      "type": "function",
      "constant": true
    },
    {
      "inputs": [],
      "name": "owner",
      "outputs": [
        {
          "internalType": "address",
          "name": "",
          "type": "address"
        }
      ],
      "stateMutability": "view",
      "type": "function",
      "constant": true
    },
    {
      "inputs": [],
      "name": "renounceOwnership",
      "outputs": [],
      "stateMutability": "nonpayable",
      "type": "function"
    },
    {
      "inputs": [],
      "name": "sub_price",
      "outputs": [
        {
          "internalType": "uint256",
          "name": "",
          "type": "uint256"
        }
      ],
      "stateMutability": "view",
      "type": "function",
      "constant": true
    },
    {
      "inputs": [
        {
          "internalType": "address",
          "name": "",
          "type": "address"
        }
      ],
      "name": "subscribeState",
      "outputs": [
        {
          "internalType": "bool",
          "name": "",
          "type": "bool"
        }
      ],
      "stateMutability": "view",
      "type": "function",
      "constant": true
    },
    {
      "inputs": [
        {
          "internalType": "address",
          "name": "newOwner",
          "type": "address"
        }
      ],
      "name": "transferOwnership",
      "outputs": [],
      "stateMutability": "nonpayable",
      "type": "function"
    },
    {
      "inputs": [
        {
          "internalType": "address",
          "name": "_owner",
          "type": "address"
        },
        {
          "internalType": "bool",
          "name": "_state",
          "type": "bool"
        }
      ],
      "name": "setUserState",
      "outputs": [],
      "stateMutability": "nonpayable",
      "type": "function"
    },
    {
      "inputs": [
        {
          "internalType": "address",
          "name": "from",
          "type": "address"
        },
        {
          "internalType": "address",
          "name": "to",
          "type": "address"
        },
        {
          "internalType": "uint256",
          "name": "amount",
          "type": "uint256"
        }
      ],
      "name": "transferFrom",
      "outputs": [
        {
          "internalType": "bool",
          "name": "",
          "type": "bool"
        }
      ],
      "stateMutability": "nonpayable",
      "type": "function"
    },
    {
      "inputs": [
        {
          "internalType": "address payable",
          "name": "_to",
          "type": "address"
        }
      ],
      "name": "subscribe",
      "outputs": [],
      "stateMutability": "payable",
      "type": "function",
      "payable": true
    },
    {
      "inputs": [
        {
          "internalType": "address",
          "name": "_owner",
          "type": "address"
        }
      ],
      "name": "firstTimestamp",
      "outputs": [
        {
          "internalType": "uint256",
          "name": "",
          "type": "uint256"
        }
      ],
      "stateMutability": "view",
      "type": "function",
      "constant": true
    },
    {
      "inputs": [
        {
          "internalType": "address",
          "name": "_owner",
          "type": "address"
        }
      ],
      "name": "nextTimestamp",
      "outputs": [
        {
          "internalType": "uint256",
          "name": "",
          "type": "uint256"
        }
      ],
      "stateMutability": "view",
      "type": "function",
      "constant": true
    },
    {
      "inputs": [
        {
          "internalType": "address payable",
          "name": "_owner",
          "type": "address"
        }
      ],
      "name": "cancelSubscribe",
      "outputs": [],
      "stateMutability": "nonpayable",
      "type": "function"
    },
    {
      "inputs": [
        {
          "internalType": "address payable",
          "name": "_owner",
          "type": "address"
        }
      ],
      "name": "withdrawSubscribe",
      "outputs": [],
      "stateMutability": "payable",
      "type": "function",
      "payable": true
    },
    {
      "inputs": [
        {
          "internalType": "address",
          "name": "owner",
          "type": "address"
        },
        {
          "internalType": "address",
          "name": "operator",
          "type": "address"
        }
      ],
      "name": "isApprovedForAll",
      "outputs": [
        {
          "internalType": "bool",
          "name": "",
          "type": "bool"
        }
      ],
      "stateMutability": "view",
      "type": "function",
      "constant": true
    },
    {
      "inputs": [
        {
          "internalType": "address",
          "name": "owner",
          "type": "address"
        },
        {
          "internalType": "address",
          "name": "spender",
          "type": "address"
        }
      ],
      "name": "allowance",
      "outputs": [
        {
          "internalType": "uint256",
          "name": "",
          "type": "uint256"
        }
      ],
      "stateMutability": "view",
      "type": "function",
      "constant": true
    }
  ],
  "bytecode": "0x6080604052670de0b6b3a764000060055534801561001c57600080fd5b5061003961002e61003e60201b60201c565b61004660201b60201c565b61010a565b600033905090565b60008060009054906101000a900473ffffffffffffffffffffffffffffffffffffffff169050816000806101000a81548173ffffffffffffffffffffffffffffffffffffffff021916908373ffffffffffffffffffffffffffffffffffffffff1602179055508173ffffffffffffffffffffffffffffffffffffffff168173ffffffffffffffffffffffffffffffffffffffff167f8be0079c531659141344cd1fd0a4f28419497f9722a3daafe3b4186f6b6457e060405160405180910390a35050565b6116f2806101196000396000f3fe6080604052600436106100e85760003560e01c80638da5cb5b1161008a578063dd62ed3e11610059578063dd62ed3e146102da578063e11d48b114610317578063e985e9c514610340578063f2fde38b1461037d576100e8565b80638da5cb5b1461020a578063befa2fc614610235578063d028fa0c14610260578063d353c0b71461029d576100e8565b80632b6fb5ba116100c65780632b6fb5ba146101925780633a75b3ce146101bb57806341a7726a146101d7578063715018a6146101f3576100e8565b8063141a8dd8146100ed578063159cfa6c1461011857806323b872dd14610155575b600080fd5b3480156100f957600080fd5b506101026103a6565b60405161010f9190610fbb565b60405180910390f35b34801561012457600080fd5b5061013f600480360381019061013a9190611007565b6103cc565b60405161014c919061104d565b60405180910390f35b34801561016157600080fd5b5061017c60048036038101906101779190611094565b61046a565b6040516101899190611102565b60405180910390f35b34801561019e57600080fd5b506101b960048036038101906101b49190611149565b6104af565b005b6101d560048036038101906101d091906111c7565b61050a565b005b6101f160048036038101906101ec91906111c7565b610582565b005b3480156101ff57600080fd5b50610208610763565b005b34801561021657600080fd5b5061021f6107eb565b60405161022c9190610fbb565b60405180910390f35b34801561024157600080fd5b5061024a610814565b604051610257919061104d565b60405180910390f35b34801561026c57600080fd5b5061028760048036038101906102829190611007565b61081a565b604051610294919061104d565b60405180910390f35b3480156102a957600080fd5b506102c460048036038101906102bf9190611007565b6108b8565b6040516102d19190611102565b60405180910390f35b3480156102e657600080fd5b5061030160048036038101906102fc91906111f4565b6108d8565b60405161030e919061104d565b60405180910390f35b34801561032357600080fd5b5061033e600480360381019061033991906111c7565b61095f565b005b34801561034c57600080fd5b50610367600480360381019061036291906111f4565b610986565b6040516103749190611102565b60405180910390f35b34801561038957600080fd5b506103a4600480360381019061039f9190611007565b610a1a565b005b600460009054906101000a900473ffffffffffffffffffffffffffffffffffffffff1681565b6000801515600660008473ffffffffffffffffffffffffffffffffffffffff1673ffffffffffffffffffffffffffffffffffffffff16815260200190815260200160002060009054906101000a900460ff16151503610460576040517f08c379a000000000000000000000000000000000000000000000000000000000815260040161045790611291565b60405180910390fd5b6001549050919050565b600061049984600460009054906101000a900473ffffffffffffffffffffffffffffffffffffffff1684610b11565b6104a4848484610b9d565b600190509392505050565b80600660008473ffffffffffffffffffffffffffffffffffffffff1673ffffffffffffffffffffffffffffffffffffffff16815260200190815260200160002060006101000a81548160ff0219169083151502179055505050565b60006005549050603c60025461052091906112e0565b42111561052c57600080fd5b3373ffffffffffffffffffffffffffffffffffffffff166108fc829081150290604051600060405180830381858888f19350505050158015610572573d6000803e3d6000fd5b5061057e8260006104af565b5050565b80600360006101000a81548173ffffffffffffffffffffffffffffffffffffffff021916908373ffffffffffffffffffffffffffffffffffffffff16021790555030600460006101000a81548173ffffffffffffffffffffffffffffffffffffffff021916908373ffffffffffffffffffffffffffffffffffffffff16021790555061060f3360016104af565b600554341015610654576040517f08c379a000000000000000000000000000000000000000000000000000000000815260040161064b90611382565b60405180910390fd5b61068033600460009054906101000a900473ffffffffffffffffffffffffffffffffffffffff16610986565b61068957600080fd5b600360009054906101000a900473ffffffffffffffffffffffffffffffffffffffff1673ffffffffffffffffffffffffffffffffffffffff166108fc349081150290604051600060405180830381858888f193505050501580156106f1573d6000803e3d6000fd5b50610743600460009054906101000a900473ffffffffffffffffffffffffffffffffffffffff16600360009054906101000a900473ffffffffffffffffffffffffffffffffffffffff1660055461046a565b5042600181905550603c60015461075a91906112e0565b60028190555050565b61076b610ce5565b73ffffffffffffffffffffffffffffffffffffffff166107896107eb565b73ffffffffffffffffffffffffffffffffffffffff16146107df576040517f08c379a00000000000000000000000000000000000000000000000000000000081526004016107d6906113ee565b60405180910390fd5b6107e96000610ced565b565b60008060009054906101000a900473ffffffffffffffffffffffffffffffffffffffff16905090565b60055481565b6000801515600660008473ffffffffffffffffffffffffffffffffffffffff1673ffffffffffffffffffffffffffffffffffffffff16815260200190815260200160002060009054906101000a900460ff161515036108ae576040517f08c379a00000000000000000000000000000000000000000000000000000000081526004016108a590611291565b60405180910390fd5b6002549050919050565b60066020528060005260406000206000915054906101000a900460ff1681565b6000600760008473ffffffffffffffffffffffffffffffffffffffff1673ffffffffffffffffffffffffffffffffffffffff16815260200190815260200160002060008373ffffffffffffffffffffffffffffffffffffffff1673ffffffffffffffffffffffffffffffffffffffff16815260200190815260200160002054905092915050565b600254421015610979576109748160006104af565b610983565b6109828161050a565b5b50565b6000600860008473ffffffffffffffffffffffffffffffffffffffff1673ffffffffffffffffffffffffffffffffffffffff16815260200190815260200160002060008373ffffffffffffffffffffffffffffffffffffffff1673ffffffffffffffffffffffffffffffffffffffff16815260200190815260200160002060009054906101000a900460ff16905092915050565b610a22610ce5565b73ffffffffffffffffffffffffffffffffffffffff16610a406107eb565b73ffffffffffffffffffffffffffffffffffffffff1614610a96576040517f08c379a0000000000000000000000000000000000000000000000000000000008152600401610a8d906113ee565b60405180910390fd5b600073ffffffffffffffffffffffffffffffffffffffff168173ffffffffffffffffffffffffffffffffffffffff1603610b05576040517f08c379a0000000000000000000000000000000000000000000000000000000008152600401610afc90611480565b60405180910390fd5b610b0e81610ced565b50565b6000610b1d84846108d8565b90507fffffffffffffffffffffffffffffffffffffffffffffffffffffffffffffffff8114610b975781811015610b89576040517f08c379a0000000000000000000000000000000000000000000000000000000008152600401610b80906114ec565b60405180910390fd5b610b968484848403610db1565b5b50505050565b600073ffffffffffffffffffffffffffffffffffffffff168373ffffffffffffffffffffffffffffffffffffffff1603610c0c576040517f08c379a0000000000000000000000000000000000000000000000000000000008152600401610c0390611558565b60405180910390fd5b600073ffffffffffffffffffffffffffffffffffffffff168273ffffffffffffffffffffffffffffffffffffffff1603610c7b576040517f08c379a0000000000000000000000000000000000000000000000000000000008152600401610c72906115c4565b60405180910390fd5b8173ffffffffffffffffffffffffffffffffffffffff168373ffffffffffffffffffffffffffffffffffffffff167fddf252ad1be2c89b69c2b068fc378daa952ba7f163c4a11628f55a4df523b3ef83604051610cd8919061104d565b60405180910390a3505050565b600033905090565b60008060009054906101000a900473ffffffffffffffffffffffffffffffffffffffff169050816000806101000a81548173ffffffffffffffffffffffffffffffffffffffff021916908373ffffffffffffffffffffffffffffffffffffffff1602179055508173ffffffffffffffffffffffffffffffffffffffff168173ffffffffffffffffffffffffffffffffffffffff167f8be0079c531659141344cd1fd0a4f28419497f9722a3daafe3b4186f6b6457e060405160405180910390a35050565b600073ffffffffffffffffffffffffffffffffffffffff168373ffffffffffffffffffffffffffffffffffffffff1603610e20576040517f08c379a0000000000000000000000000000000000000000000000000000000008152600401610e1790611630565b60405180910390fd5b600073ffffffffffffffffffffffffffffffffffffffff168273ffffffffffffffffffffffffffffffffffffffff1603610e8f576040517f08c379a0000000000000000000000000000000000000000000000000000000008152600401610e869061169c565b60405180910390fd5b80600760008573ffffffffffffffffffffffffffffffffffffffff1673ffffffffffffffffffffffffffffffffffffffff16815260200190815260200160002060008473ffffffffffffffffffffffffffffffffffffffff1673ffffffffffffffffffffffffffffffffffffffff168152602001908152602001600020819055508173ffffffffffffffffffffffffffffffffffffffff168373ffffffffffffffffffffffffffffffffffffffff167f8c5be1e5ebec7d5bd14f71427d1e84f3dd0314c0f7b2291e5b200ac8c7c3b92583604051610f6d919061104d565b60405180910390a3505050565b600073ffffffffffffffffffffffffffffffffffffffff82169050919050565b6000610fa582610f7a565b9050919050565b610fb581610f9a565b82525050565b6000602082019050610fd06000830184610fac565b92915050565b600080fd5b610fe481610f9a565b8114610fef57600080fd5b50565b60008135905061100181610fdb565b92915050565b60006020828403121561101d5761101c610fd6565b5b600061102b84828501610ff2565b91505092915050565b6000819050919050565b61104781611034565b82525050565b6000602082019050611062600083018461103e565b92915050565b61107181611034565b811461107c57600080fd5b50565b60008135905061108e81611068565b92915050565b6000806000606084860312156110ad576110ac610fd6565b5b60006110bb86828701610ff2565b93505060206110cc86828701610ff2565b92505060406110dd8682870161107f565b9150509250925092565b60008115159050919050565b6110fc816110e7565b82525050565b600060208201905061111760008301846110f3565b92915050565b611126816110e7565b811461113157600080fd5b50565b6000813590506111438161111d565b92915050565b600080604083850312156111605761115f610fd6565b5b600061116e85828601610ff2565b925050602061117f85828601611134565b9150509250929050565b600061119482610f7a565b9050919050565b6111a481611189565b81146111af57600080fd5b50565b6000813590506111c18161119b565b92915050565b6000602082840312156111dd576111dc610fd6565b5b60006111eb848285016111b2565b91505092915050565b6000806040838503121561120b5761120a610fd6565b5b600061121985828601610ff2565b925050602061122a85828601610ff2565b9150509250929050565b600082825260208201905092915050565b7f537562736372696265204f757220536572766963650000000000000000000000600082015250565b600061127b601583611234565b915061128682611245565b602082019050919050565b600060208201905081810360008301526112aa8161126e565b9050919050565b7f4e487b7100000000000000000000000000000000000000000000000000000000600052601160045260246000fd5b60006112eb82611034565b91506112f683611034565b9250827fffffffffffffffffffffffffffffffffffffffffffffffffffffffffffffffff0382111561132b5761132a6112b1565b5b828201905092915050565b7f506c656173652063686172676520796f75722077616c6c657400000000000000600082015250565b600061136c601983611234565b915061137782611336565b602082019050919050565b6000602082019050818103600083015261139b8161135f565b9050919050565b7f4f776e61626c653a2063616c6c6572206973206e6f7420746865206f776e6572600082015250565b60006113d8602083611234565b91506113e3826113a2565b602082019050919050565b60006020820190508181036000830152611407816113cb565b9050919050565b7f4f776e61626c653a206e6577206f776e657220697320746865207a65726f206160008201527f6464726573730000000000000000000000000000000000000000000000000000602082015250565b600061146a602683611234565b91506114758261140e565b604082019050919050565b600060208201905081810360008301526114998161145d565b9050919050565b7f45524332303a20696e73756666696369656e7420616c6c6f77616e6365000000600082015250565b60006114d6601d83611234565b91506114e1826114a0565b602082019050919050565b60006020820190508181036000830152611505816114c9565b9050919050565b7f7472616e736665722066726f6d20746865207a65726f20616464726573730000600082015250565b6000611542601e83611234565b915061154d8261150c565b602082019050919050565b6000602082019050818103600083015261157181611535565b9050919050565b7f7472616e7366657220746f20746865207a65726f206164647265737300000000600082015250565b60006115ae601c83611234565b91506115b982611578565b602082019050919050565b600060208201905081810360008301526115dd816115a1565b9050919050565b7f617070726f76652066726f6d20746865207a65726f2061646472657373000000600082015250565b600061161a601d83611234565b9150611625826115e4565b602082019050919050565b600060208201905081810360008301526116498161160d565b9050919050565b7f20617070726f766520746f20746865207a65726f206164647265737300000000600082015250565b6000611686601c83611234565b915061169182611650565b602082019050919050565b600060208201905081810360008301526116b581611679565b905091905056fea26469706673582212207d58964056313ab8fd6fd6c0cbfe3846d67ab00f870da226eae2a19e22a08baf64736f6c634300080f0033",
  "immutableReferences": {},
  "source": "// SPDX-License-Identifier: MIT\n\npragma solidity ^0.8.15;\n\nimport \"./node_modules/openzeppelin-solidity/contracts/access/Ownable.sol\";\n\n\ncontract Subscribe is Ownable{\n    uint256 firstPayment;\n    uint256 nextPayment;\n    address marketOwner; //0x456F37fB5Ae3c15D98fd5deBa93121B5435f9A50\n    address public approver;\n    uint256 public sub_price = 1 ether;\n\n    mapping(address => bool) public subscribeState;\n    mapping(address => mapping(address => uint256)) private _allowances;\n    mapping(address => mapping(address => bool)) private _operatorApprovals;\n\n    event Approval(address indexed owner, address indexed spender, uint256 value);\n    event Transfer(address indexed from, address indexed to, uint256 value);\n\n    function setUserState(address _owner, bool _state) public{\n        subscribeState[_owner] = _state;\n    }\n    \n    function transferFrom(\n        address from,\n        address to,\n        uint256 amount\n    ) public virtual returns (bool) {\n        _spendAllowance(from, approver, amount);\n        _transfer(from,to,amount);\n        return true;\n    }\n\n    function subscribe(address payable _to) public payable{\n        marketOwner = _to;\n        approver = address(this);\n\n        setUserState(msg.sender,true);\n      \n        require(msg.value >= sub_price, \"Please charge your wallet\");\n        require(isApprovedForAll(msg.sender,approver));\n        \n        payable(marketOwner).transfer(msg.value);\n\n        transferFrom(approver,marketOwner,sub_price);\n\n        firstPayment = block.timestamp;    \n        nextPayment = firstPayment + 1 minutes;\n    }\n\n    function firstTimestamp(address _owner) public view returns(uint){\n        require(subscribeState[_owner] != false, \"Subscribe Our Service\");\n        return firstPayment;\n    }\n\n    function nextTimestamp(address _owner) public view returns(uint){\n        require(subscribeState[_owner] != false, \"Subscribe Our Service\");\n        return nextPayment;\n    }\n\n    // //\n    // function nextSubscribe(address payable _owner) public payable{\n\n    //     require(block.timestamp == nextPayment);\n    //     require(_owner == msg.sender);\n\n    //     _owner.transfer(msg.value);\n    // }\n\n \n    function cancelSubscribe(address payable _owner) public{\n        if(block.timestamp < nextPayment){\n            setUserState(_owner, false);\n        } else {\n            withdrawSubscribe(_owner);\n        }\n    }\n\n      \n    function withdrawSubscribe(address payable _owner) public payable{\n        uint refund =  sub_price;\n        require(block.timestamp <= nextPayment+1 minutes);\n        \n        payable(msg.sender).transfer(refund);\n\n        setUserState(_owner, false);\n\n    }\n\n    function isApprovedForAll(address owner, address operator) public view virtual returns (bool) {\n        return _operatorApprovals[owner][operator];\n    }\n\n    function _isApprovedOrOwner(address spender) internal view virtual returns (bool) {\n        address owner = msg.sender;\n        return (spender == owner || isApprovedForAll(owner, spender));\n    }\n\n    function _approve(\n        address owner,\n        address spender,\n        uint256 amount\n    ) internal virtual {\n        require(owner != address(0), \"approve from the zero address\");\n        require(spender != address(0), \" approve to the zero address\");\n\n        _allowances[owner][spender] = amount;\n        emit Approval(owner, spender, amount);\n    }\n\n    function allowance(address owner, address spender) public view virtual returns (uint256) {\n        return _allowances[owner][spender];\n    }\n\n    function _spendAllowance(\n        address owner,\n        address spender,\n        uint256 amount\n    ) internal virtual {\n        uint256 currentAllowance = allowance(owner, spender);\n        if (currentAllowance != type(uint256).max) {\n            require(currentAllowance >= amount, \"ERC20: insufficient allowance\");\n            unchecked {\n                _approve(owner, spender, currentAllowance - amount);\n            }\n        }\n    }\n\n    function _transfer(\n        address from,\n        address to,\n        uint256 amount\n    ) internal virtual {\n        require(from != address(0), \"transfer from the zero address\");\n        require(to != address(0), \"transfer to the zero address\");\n\n        emit Transfer(from, to, amount);\n\n    }\n\n}",
  "sourcePath": "/home/gyuri/project/last/dApp_Store/truffle/contracts/Subscribe.sol",
  "compiler": {
    "name": "solc",
    "version": "0.8.15+commit.e14f2714.Emscripten.clang"
  },
  "schemaVersion": "3.4.8",
  "updatedAt": "2022-08-24T06:06:52.279Z",
  "networkType": "ethereum",
  "devdoc": {
    "kind": "dev",
    "methods": {
      "owner()": {
        "details": "Returns the address of the current owner."
      },
      "renounceOwnership()": {
        "details": "Leaves the contract without owner. It will not be possible to call `onlyOwner` functions anymore. Can only be called by the current owner. NOTE: Renouncing ownership will leave the contract without an owner, thereby removing any functionality that is only available to the owner."
      },
      "transferOwnership(address)": {
        "details": "Transfers ownership of the contract to a new account (`newOwner`). Can only be called by the current owner."
      }
    },
    "version": 1
  },
  "userdoc": {
    "kind": "user",
    "methods": {},
    "version": 1
  }
}