{
  "contractName": "TokenTimelock",
  "abi": [
    {
      "inputs": [
        {
          "internalType": "contract IERC20",
          "name": "token_",
          "type": "address"
        },
        {
          "internalType": "address",
          "name": "beneficiary_",
          "type": "address"
        },
        {
          "internalType": "uint256",
          "name": "releaseTime_",
          "type": "uint256"
        }
      ],
      "stateMutability": "nonpayable",
      "type": "constructor"
    },
    {
      "inputs": [],
      "name": "token",
      "outputs": [
        {
          "internalType": "contract IERC20",
          "name": "",
          "type": "address"
        }
      ],
      "stateMutability": "view",
      "type": "function"
    },
    {
      "inputs": [],
      "name": "beneficiary",
      "outputs": [
        {
          "internalType": "address",
          "name": "",
          "type": "address"
        }
      ],
      "stateMutability": "view",
      "type": "function"
    },
    {
      "inputs": [],
      "name": "releaseTime",
      "outputs": [
        {
          "internalType": "uint256",
          "name": "",
          "type": "uint256"
        }
      ],
      "stateMutability": "view",
      "type": "function"
    },
    {
      "inputs": [],
      "name": "release",
      "outputs": [],
      "stateMutability": "nonpayable",
      "type": "function"
    }
  ],
  "bytecode": "0x60e06040523480156200001157600080fd5b5060405162000e8a38038062000e8a8339818101604052810190620000379190620001df565b4281116200007c576040517f08c379a00000000000000000000000000000000000000000000000000000000081526004016200007390620002c2565b60405180910390fd5b8273ffffffffffffffffffffffffffffffffffffffff1660808173ffffffffffffffffffffffffffffffffffffffff16815250508173ffffffffffffffffffffffffffffffffffffffff1660a08173ffffffffffffffffffffffffffffffffffffffff16815250508060c08181525050505050620002e4565b600080fd5b600073ffffffffffffffffffffffffffffffffffffffff82169050919050565b60006200012782620000fa565b9050919050565b60006200013b826200011a565b9050919050565b6200014d816200012e565b81146200015957600080fd5b50565b6000815190506200016d8162000142565b92915050565b6200017e816200011a565b81146200018a57600080fd5b50565b6000815190506200019e8162000173565b92915050565b6000819050919050565b620001b981620001a4565b8114620001c557600080fd5b50565b600081519050620001d981620001ae565b92915050565b600080600060608486031215620001fb57620001fa620000f5565b5b60006200020b868287016200015c565b93505060206200021e868287016200018d565b92505060406200023186828701620001c8565b9150509250925092565b600082825260208201905092915050565b7f546f6b656e54696d656c6f636b3a2072656c656173652074696d65206973206260008201527f65666f72652063757272656e742074696d650000000000000000000000000000602082015250565b6000620002aa6032836200023b565b9150620002b7826200024c565b604082019050919050565b60006020820190508181036000830152620002dd816200029b565b9050919050565b60805160a05160c051610b7762000313600039600061022f0152600060b9015260006102570152610b776000f3fe608060405234801561001057600080fd5b506004361061004c5760003560e01c806338af3eed1461005157806386d1a69f1461006f578063b91d400114610079578063fc0c546a14610097575b600080fd5b6100596100b5565b60405161006691906105bf565b60405180910390f35b6100776100dd565b005b61008161022b565b60405161008e91906105f3565b60405180910390f35b61009f610253565b6040516100ac919061066d565b60405180910390f35b60007f0000000000000000000000000000000000000000000000000000000000000000905090565b6100e561022b565b421015610127576040517f08c379a000000000000000000000000000000000000000000000000000000000815260040161011e9061070b565b60405180910390fd5b6000610131610253565b73ffffffffffffffffffffffffffffffffffffffff166370a08231306040518263ffffffff1660e01b815260040161016991906105bf565b602060405180830381865afa158015610186573d6000803e3d6000fd5b505050506040513d601f19601f820116820180604052508101906101aa919061075c565b9050600081116101ef576040517f08c379a00000000000000000000000000000000000000000000000000000000081526004016101e6906107fb565b60405180910390fd5b6102286101fa6100b5565b82610203610253565b73ffffffffffffffffffffffffffffffffffffffff1661027b9092919063ffffffff16565b50565b60007f0000000000000000000000000000000000000000000000000000000000000000905090565b60007f0000000000000000000000000000000000000000000000000000000000000000905090565b6102fc8363a9059cbb60e01b848460405160240161029a92919061081b565b604051602081830303815290604052907bffffffffffffffffffffffffffffffffffffffffffffffffffffffff19166020820180517bffffffffffffffffffffffffffffffffffffffffffffffffffffffff8381831617835250505050610301565b505050565b6000610363826040518060400160405280602081526020017f5361666545524332303a206c6f772d6c6576656c2063616c6c206661696c65648152508573ffffffffffffffffffffffffffffffffffffffff166103c89092919063ffffffff16565b90506000815111156103c35780806020019051810190610383919061087c565b6103c2576040517f08c379a00000000000000000000000000000000000000000000000000000000081526004016103b99061091b565b60405180910390fd5b5b505050565b60606103d784846000856103e0565b90509392505050565b606082471015610425576040517f08c379a000000000000000000000000000000000000000000000000000000000815260040161041c906109ad565b60405180910390fd5b61042e856104f4565b61046d576040517f08c379a000000000000000000000000000000000000000000000000000000000815260040161046490610a19565b60405180910390fd5b6000808673ffffffffffffffffffffffffffffffffffffffff1685876040516104969190610ab3565b60006040518083038185875af1925050503d80600081146104d3576040519150601f19603f3d011682016040523d82523d6000602084013e6104d8565b606091505b50915091506104e8828286610517565b92505050949350505050565b6000808273ffffffffffffffffffffffffffffffffffffffff163b119050919050565b6060831561052757829050610577565b60008351111561053a5782518084602001fd5b816040517f08c379a000000000000000000000000000000000000000000000000000000000815260040161056e9190610b1f565b60405180910390fd5b9392505050565b600073ffffffffffffffffffffffffffffffffffffffff82169050919050565b60006105a98261057e565b9050919050565b6105b98161059e565b82525050565b60006020820190506105d460008301846105b0565b92915050565b6000819050919050565b6105ed816105da565b82525050565b600060208201905061060860008301846105e4565b92915050565b6000819050919050565b600061063361062e6106298461057e565b61060e565b61057e565b9050919050565b600061064582610618565b9050919050565b60006106578261063a565b9050919050565b6106678161064c565b82525050565b6000602082019050610682600083018461065e565b92915050565b600082825260208201905092915050565b7f546f6b656e54696d656c6f636b3a2063757272656e742074696d65206973206260008201527f65666f72652072656c656173652074696d650000000000000000000000000000602082015250565b60006106f5603283610688565b915061070082610699565b604082019050919050565b60006020820190508181036000830152610724816106e8565b9050919050565b600080fd5b610739816105da565b811461074457600080fd5b50565b60008151905061075681610730565b92915050565b6000602082840312156107725761077161072b565b5b600061078084828501610747565b91505092915050565b7f546f6b656e54696d656c6f636b3a206e6f20746f6b656e7320746f2072656c6560008201527f6173650000000000000000000000000000000000000000000000000000000000602082015250565b60006107e5602383610688565b91506107f082610789565b604082019050919050565b60006020820190508181036000830152610814816107d8565b9050919050565b600060408201905061083060008301856105b0565b61083d60208301846105e4565b9392505050565b60008115159050919050565b61085981610844565b811461086457600080fd5b50565b60008151905061087681610850565b92915050565b6000602082840312156108925761089161072b565b5b60006108a084828501610867565b91505092915050565b7f5361666545524332303a204552433230206f7065726174696f6e20646964206e60008201527f6f74207375636365656400000000000000000000000000000000000000000000602082015250565b6000610905602a83610688565b9150610910826108a9565b604082019050919050565b60006020820190508181036000830152610934816108f8565b9050919050565b7f416464726573733a20696e73756666696369656e742062616c616e636520666f60008201527f722063616c6c0000000000000000000000000000000000000000000000000000602082015250565b6000610997602683610688565b91506109a28261093b565b604082019050919050565b600060208201905081810360008301526109c68161098a565b9050919050565b7f416464726573733a2063616c6c20746f206e6f6e2d636f6e7472616374000000600082015250565b6000610a03601d83610688565b9150610a0e826109cd565b602082019050919050565b60006020820190508181036000830152610a32816109f6565b9050919050565b600081519050919050565b600081905092915050565b60005b83811015610a6d578082015181840152602081019050610a52565b83811115610a7c576000848401525b50505050565b6000610a8d82610a39565b610a978185610a44565b9350610aa7818560208601610a4f565b80840191505092915050565b6000610abf8284610a82565b915081905092915050565b600081519050919050565b6000601f19601f8301169050919050565b6000610af182610aca565b610afb8185610688565b9350610b0b818560208601610a4f565b610b1481610ad5565b840191505092915050565b60006020820190508181036000830152610b398184610ae6565b90509291505056fea264697066735822122048ef3feb78e9db0ac45c608f7d2a487039f079f0e906c0afe200c908ba1eecbb64736f6c634300080f0033",
  "immutableReferences": {
    "16010": [
      {
        "length": 32,
        "start": 599
      }
    ],
    "16012": [
      {
        "length": 32,
        "start": 185
      }
    ],
    "16014": [
      {
        "length": 32,
        "start": 559
      }
    ]
  },
  "source": "// SPDX-License-Identifier: MIT\n// OpenZeppelin Contracts (last updated v4.5.0) (token/ERC20/utils/TokenTimelock.sol)\n\npragma solidity ^0.8.0;\n\nimport \"./SafeERC20.sol\";\n\n/**\n * @dev A token holder contract that will allow a beneficiary to extract the\n * tokens after a given release time.\n *\n * Useful for simple vesting schedules like \"advisors get all of their tokens\n * after 1 year\".\n */\ncontract TokenTimelock {\n    using SafeERC20 for IERC20;\n\n    // ERC20 basic token contract being held\n    IERC20 private immutable _token;\n\n    // beneficiary of tokens after they are released\n    address private immutable _beneficiary;\n\n    // timestamp when token release is enabled\n    uint256 private immutable _releaseTime;\n\n    /**\n     * @dev Deploys a timelock instance that is able to hold the token specified, and will only release it to\n     * `beneficiary_` when {release} is invoked after `releaseTime_`. The release time is specified as a Unix timestamp\n     * (in seconds).\n     */\n    constructor(\n        IERC20 token_,\n        address beneficiary_,\n        uint256 releaseTime_\n    ) {\n        require(releaseTime_ > block.timestamp, \"TokenTimelock: release time is before current time\");\n        _token = token_;\n        _beneficiary = beneficiary_;\n        _releaseTime = releaseTime_;\n    }\n\n    /**\n     * @dev Returns the token being held.\n     */\n    function token() public view virtual returns (IERC20) {\n        return _token;\n    }\n\n    /**\n     * @dev Returns the beneficiary that will receive the tokens.\n     */\n    function beneficiary() public view virtual returns (address) {\n        return _beneficiary;\n    }\n\n    /**\n     * @dev Returns the time when the tokens are released in seconds since Unix epoch (i.e. Unix timestamp).\n     */\n    function releaseTime() public view virtual returns (uint256) {\n        return _releaseTime;\n    }\n\n    /**\n     * @dev Transfers tokens held by the timelock to the beneficiary. Will only succeed if invoked after the release\n     * time.\n     */\n    function release() public virtual {\n        require(block.timestamp >= releaseTime(), \"TokenTimelock: current time is before release time\");\n\n        uint256 amount = token().balanceOf(address(this));\n        require(amount > 0, \"TokenTimelock: no tokens to release\");\n\n        token().safeTransfer(beneficiary(), amount);\n    }\n}\n",
  "sourcePath": "/Users/oo_ha/workspace/project/meta/dApp_Store/truffle/contracts/node_modules/openzeppelin-solidity/contracts/token/ERC20/utils/TokenTimelock.sol",
  "compiler": {
    "name": "solc",
    "version": "0.8.15+commit.e14f2714.Emscripten.clang"
  },
  "schemaVersion": "3.4.8",
  "updatedAt": "2022-08-30T07:51:48.977Z",
  "devdoc": {
    "details": "A token holder contract that will allow a beneficiary to extract the tokens after a given release time. Useful for simple vesting schedules like \"advisors get all of their tokens after 1 year\".",
    "kind": "dev",
    "methods": {
      "beneficiary()": {
        "details": "Returns the beneficiary that will receive the tokens."
      },
      "constructor": {
        "details": "Deploys a timelock instance that is able to hold the token specified, and will only release it to `beneficiary_` when {release} is invoked after `releaseTime_`. The release time is specified as a Unix timestamp (in seconds)."
      },
      "release()": {
        "details": "Transfers tokens held by the timelock to the beneficiary. Will only succeed if invoked after the release time."
      },
      "releaseTime()": {
        "details": "Returns the time when the tokens are released in seconds since Unix epoch (i.e. Unix timestamp)."
      },
      "token()": {
        "details": "Returns the token being held."
      }
    },
    "version": 1
  },
  "userdoc": {
    "kind": "user",
    "methods": {},
    "version": 1
  }
}